{"abi":[{"type":"function","name":"changeMaximumPriceFeedPercentDifferenceTimes1000","inputs":[{"name":"increase","type":"bool","internalType":"bool"}],"outputs":[],"stateMutability":"nonpayable"},{"type":"function","name":"changePriceFeedModificationCooldown","inputs":[{"name":"increase","type":"bool","internalType":"bool"}],"outputs":[],"stateMutability":"nonpayable"},{"type":"function","name":"getPriceBTC","inputs":[],"outputs":[{"name":"price","type":"uint256","internalType":"uint256"}],"stateMutability":"view"},{"type":"function","name":"getPriceETH","inputs":[],"outputs":[{"name":"price","type":"uint256","internalType":"uint256"}],"stateMutability":"view"},{"type":"function","name":"maximumPriceFeedPercentDifferenceTimes1000","inputs":[],"outputs":[{"name":"","type":"uint256","internalType":"uint256"}],"stateMutability":"view"},{"type":"function","name":"owner","inputs":[],"outputs":[{"name":"","type":"address","internalType":"address"}],"stateMutability":"view"},{"type":"function","name":"priceFeed1","inputs":[],"outputs":[{"name":"","type":"address","internalType":"contract IPriceFeed"}],"stateMutability":"view"},{"type":"function","name":"priceFeed2","inputs":[],"outputs":[{"name":"","type":"address","internalType":"contract IPriceFeed"}],"stateMutability":"view"},{"type":"function","name":"priceFeed3","inputs":[],"outputs":[{"name":"","type":"address","internalType":"contract IPriceFeed"}],"stateMutability":"view"},{"type":"function","name":"priceFeedModificationCooldown","inputs":[],"outputs":[{"name":"","type":"uint256","internalType":"uint256"}],"stateMutability":"view"},{"type":"function","name":"priceFeedModificationCooldownExpiration","inputs":[],"outputs":[{"name":"","type":"uint256","internalType":"uint256"}],"stateMutability":"view"},{"type":"function","name":"renounceOwnership","inputs":[],"outputs":[],"stateMutability":"nonpayable"},{"type":"function","name":"setInitialFeeds","inputs":[{"name":"_priceFeed1","type":"address","internalType":"contract IPriceFeed"},{"name":"_priceFeed2","type":"address","internalType":"contract IPriceFeed"},{"name":"_priceFeed3","type":"address","internalType":"contract IPriceFeed"}],"outputs":[],"stateMutability":"nonpayable"},{"type":"function","name":"setPriceFeed","inputs":[{"name":"priceFeedNum","type":"uint256","internalType":"uint256"},{"name":"newPriceFeed","type":"address","internalType":"contract IPriceFeed"}],"outputs":[],"stateMutability":"nonpayable"},{"type":"function","name":"transferOwnership","inputs":[{"name":"newOwner","type":"address","internalType":"address"}],"outputs":[],"stateMutability":"nonpayable"},{"type":"event","name":"MaximumPriceFeedPercentDifferenceChanged","inputs":[{"name":"newMaxDifference","type":"uint256","indexed":false,"internalType":"uint256"}],"anonymous":false},{"type":"event","name":"OwnershipTransferred","inputs":[{"name":"previousOwner","type":"address","indexed":true,"internalType":"address"},{"name":"newOwner","type":"address","indexed":true,"internalType":"address"}],"anonymous":false},{"type":"event","name":"PriceFeedSet","inputs":[{"name":"priceFeedNum","type":"uint256","indexed":true,"internalType":"uint256"},{"name":"newPriceFeed","type":"address","indexed":true,"internalType":"contract IPriceFeed"}],"anonymous":false},{"type":"event","name":"SetPriceFeedCooldownChanged","inputs":[{"name":"newCooldown","type":"uint256","indexed":false,"internalType":"uint256"}],"anonymous":false}],"bytecode":{"object":"0x6080604052610bb8600555622e248060065534801561001d57600080fd5b506100273361002c565b61007c565b600080546001600160a01b038381166001600160a01b0319831681178455604051919092169283917f8be0079c531659141344cd1fd0a4f28419497f9722a3daafe3b4186f6b6457e09190a35050565b610e388061008b6000396000f3fe608060405234801561001057600080fd5b50600436106100f55760003560e01c806347617dfb11610097578063ab0ca0e111610066578063ab0ca0e1146101de578063cba74d37146101fe578063e5693f4114610211578063f2fde38b1461023157600080fd5b806347617dfb146101a75780635ba7c62e146101b0578063715018a6146101b85780638da5cb5b146101c057600080fd5b80633ad0dcf9116100d35780633ad0dcf9146101335780633b895c9014610146578063427cb6fe14610159578063469b5f011461019e57600080fd5b8063039ba6be146100fa57806323256105146101155780632797e9201461012a575b600080fd5b610102610244565b6040519081526020015b60405180910390f35b610128610123366004610c2e565b61033f565b005b61010260055481565b610128610141366004610c72565b6103e0565b610128610154366004610cbd565b6104f2565b6003546101799073ffffffffffffffffffffffffffffffffffffffff1681565b60405173ffffffffffffffffffffffffffffffffffffffff909116815260200161010c565b61010260045481565b61010260065481565b61010261063e565b61012861072e565b60005473ffffffffffffffffffffffffffffffffffffffff16610179565b6001546101799073ffffffffffffffffffffffffffffffffffffffff1681565b61012861020c366004610c2e565b610742565b6002546101799073ffffffffffffffffffffffffffffffffffffffff1681565b61012861023f366004610ced565b6107d4565b600154600090819061026b9073ffffffffffffffffffffffffffffffffffffffff1661088b565b6002549091506000906102939073ffffffffffffffffffffffffffffffffffffffff1661088b565b6003549091506000906102bb9073ffffffffffffffffffffffffffffffffffffffff1661088b565b90506102c8838383610952565b935083600003610339576040517f08c379a000000000000000000000000000000000000000000000000000000000815260206004820152601160248201527f496e76616c69642045544820707269636500000000000000000000000000000060448201526064015b60405180910390fd5b50505090565b610347610a8f565b801561037a57623b5380600654101561037557620697806006600082825461036f9190610d39565b90915550505b6103a2565b62278d0060065411156103a257620697806006600082825461039c9190610d4c565b90915550505b7fe0488ccf1abb02f5af4d13562073e51597f6eb3bf56295d9ccd44a2f9f1158de6006546040516103d591815260200190565b60405180910390a150565b6103e8610a8f565b60015473ffffffffffffffffffffffffffffffffffffffff161561048e576040517f08c379a000000000000000000000000000000000000000000000000000000000815260206004820152602960248201527f736574496e697469616c466565647328292063616e206f6e6c7920626520636160448201527f6c6c6564206f6e636500000000000000000000000000000000000000000000006064820152608401610330565b6001805473ffffffffffffffffffffffffffffffffffffffff9485167fffffffffffffffffffffffff000000000000000000000000000000000000000091821617909155600280549385169382169390931790925560038054919093169116179055565b6104fa610a8f565b600454421061063a578160010361055057600180547fffffffffffffffffffffffff00000000000000000000000000000000000000001673ffffffffffffffffffffffffffffffffffffffff83161790556105e6565b8160020361059d57600280547fffffffffffffffffffffffff00000000000000000000000000000000000000001673ffffffffffffffffffffffffffffffffffffffff83161790556105e6565b816003036105e657600380547fffffffffffffffffffffffff00000000000000000000000000000000000000001673ffffffffffffffffffffffffffffffffffffffff83161790555b6006546105f39042610d39565b60045560405173ffffffffffffffffffffffffffffffffffffffff82169083907f50d949ea300a19b8c06fcc5aa4e694eb3154cf29d1be18f4d3f85cb273ec713490600090a35b5050565b60015460009081906106659073ffffffffffffffffffffffffffffffffffffffff16610b10565b60025490915060009061068d9073ffffffffffffffffffffffffffffffffffffffff16610b10565b6003549091506000906106b59073ffffffffffffffffffffffffffffffffffffffff16610b10565b90506106c2838383610952565b935083600003610339576040517f08c379a000000000000000000000000000000000000000000000000000000000815260206004820152601160248201527f496e76616c6964204254432070726963650000000000000000000000000000006044820152606401610330565b610736610a8f565b6107406000610b94565b565b61074a610a8f565b801561077b57611b586005541015610776576101f4600560008282546107709190610d39565b90915550505b6107a1565b6103e860055411156107a1576101f46005600082825461079b9190610d4c565b90915550505b7f33d63b84e936d391c867420a16ff30dd7992f43926dc28bfee9b90d873f4c58f6005546040516103d591815260200190565b6107dc610a8f565b73ffffffffffffffffffffffffffffffffffffffff811661087f576040517f08c379a000000000000000000000000000000000000000000000000000000000815260206004820152602660248201527f4f776e61626c653a206e6577206f776e657220697320746865207a65726f206160448201527f64647265737300000000000000000000000000000000000000000000000000006064820152608401610330565b61088881610b94565b50565b60008173ffffffffffffffffffffffffffffffffffffffff1663039ba6be6040518163ffffffff1660e01b8152600401602060405180830381865afa925050508015610912575060408051601f3d9081017fffffffffffffffffffffffffffffffffffffffffffffffffffffffffffffffe016820190925261090f91810190610d5f565b60015b61094c573d808015610940576040519150601f19603f3d011682016040523d82523d6000602084013e610945565b606091505b5050919050565b92915050565b6000808415610969578061096581610d78565b9150505b831561097d578061097981610d78565b9150505b8215610991578061098d81610d78565b9150505b60028110156109a4576000915050610a88565b60006109b08686610c09565b905060006109be8786610c09565b905060006109cc8787610c09565b90506000808385111580156109e15750828511155b156109f0575088905087610a2a565b848411158015610a005750828411155b15610a0f575088905086610a2a565b848311158015610a1f5750838311155b15610a2a5750879050865b60006002610a388385610d39565b610a429190610db0565b905060055481610a528585610c09565b610a5f90620186a0610deb565b610a699190610db0565b1115610a7f576000975050505050505050610a88565b96505050505050505b9392505050565b60005473ffffffffffffffffffffffffffffffffffffffff163314610740576040517f08c379a000000000000000000000000000000000000000000000000000000000815260206004820181905260248201527f4f776e61626c653a2063616c6c6572206973206e6f7420746865206f776e65726044820152606401610330565b60008173ffffffffffffffffffffffffffffffffffffffff16635ba7c62e6040518163ffffffff1660e01b8152600401602060405180830381865afa925050508015610912575060408051601f3d9081017fffffffffffffffffffffffffffffffffffffffffffffffffffffffffffffffe016820190925261090f91810190610d5f565b6000805473ffffffffffffffffffffffffffffffffffffffff8381167fffffffffffffffffffffffff0000000000000000000000000000000000000000831681178455604051919092169283917f8be0079c531659141344cd1fd0a4f28419497f9722a3daafe3b4186f6b6457e09190a35050565b600081831115610c2457610c1d8284610d4c565b905061094c565b610a888383610d4c565b600060208284031215610c4057600080fd5b81358015158114610a8857600080fd5b73ffffffffffffffffffffffffffffffffffffffff8116811461088857600080fd5b600080600060608486031215610c8757600080fd5b8335610c9281610c50565b92506020840135610ca281610c50565b91506040840135610cb281610c50565b809150509250925092565b60008060408385031215610cd057600080fd5b823591506020830135610ce281610c50565b809150509250929050565b600060208284031215610cff57600080fd5b8135610a8881610c50565b7f4e487b7100000000000000000000000000000000000000000000000000000000600052601160045260246000fd5b8082018082111561094c5761094c610d0a565b8181038181111561094c5761094c610d0a565b600060208284031215610d7157600080fd5b5051919050565b60007fffffffffffffffffffffffffffffffffffffffffffffffffffffffffffffffff8203610da957610da9610d0a565b5060010190565b600082610de6577f4e487b7100000000000000000000000000000000000000000000000000000000600052601260045260246000fd5b500490565b808202811582820484141761094c5761094c610d0a56fea2646970667358221220bebba951a14450f69a0dc3436d28ed49cb55394f8988707cc87ac52c84d6004164736f6c63430008160033","linkReferences":{}},"methodIdentifiers":{"changeMaximumPriceFeedPercentDifferenceTimes1000(bool)":"cba74d37","changePriceFeedModificationCooldown(bool)":"23256105","getPriceBTC()":"5ba7c62e","getPriceETH()":"039ba6be","maximumPriceFeedPercentDifferenceTimes1000()":"2797e920","owner()":"8da5cb5b","priceFeed1()":"ab0ca0e1","priceFeed2()":"e5693f41","priceFeed3()":"427cb6fe","priceFeedModificationCooldown()":"47617dfb","priceFeedModificationCooldownExpiration()":"469b5f01","renounceOwnership()":"715018a6","setInitialFeeds(address,address,address)":"3ad0dcf9","setPriceFeed(uint256,address)":"3b895c90","transferOwnership(address)":"f2fde38b"},"id":103}