{"abi":[{"type":"function","name":"changeMaximumInternalSwapPercentTimes1000","inputs":[{"name":"increase","type":"bool","internalType":"bool"}],"outputs":[],"stateMutability":"nonpayable"},{"type":"function","name":"changeMaximumWhitelistedPools","inputs":[{"name":"increase","type":"bool","internalType":"bool"}],"outputs":[],"stateMutability":"nonpayable"},{"type":"function","name":"isWhitelisted","inputs":[{"name":"poolID","type":"bytes32","internalType":"bytes32"}],"outputs":[{"name":"","type":"bool","internalType":"bool"}],"stateMutability":"view"},{"type":"function","name":"maximumInternalSwapPercentTimes1000","inputs":[],"outputs":[{"name":"","type":"uint256","internalType":"uint256"}],"stateMutability":"view"},{"type":"function","name":"maximumWhitelistedPools","inputs":[],"outputs":[{"name":"","type":"uint256","internalType":"uint256"}],"stateMutability":"view"},{"type":"function","name":"numberOfWhitelistedPools","inputs":[],"outputs":[{"name":"","type":"uint256","internalType":"uint256"}],"stateMutability":"view"},{"type":"function","name":"owner","inputs":[],"outputs":[{"name":"","type":"address","internalType":"address"}],"stateMutability":"view"},{"type":"function","name":"renounceOwnership","inputs":[],"outputs":[],"stateMutability":"nonpayable"},{"type":"function","name":"tokenHasBeenWhitelisted","inputs":[{"name":"token","type":"address","internalType":"contract IERC20"},{"name":"wbtc","type":"address","internalType":"contract IERC20"},{"name":"weth","type":"address","internalType":"contract IERC20"}],"outputs":[{"name":"","type":"bool","internalType":"bool"}],"stateMutability":"view"},{"type":"function","name":"transferOwnership","inputs":[{"name":"newOwner","type":"address","internalType":"address"}],"outputs":[],"stateMutability":"nonpayable"},{"type":"function","name":"underlyingPoolTokens","inputs":[{"name":"","type":"bytes32","internalType":"bytes32"}],"outputs":[{"name":"tokenA","type":"address","internalType":"contract IERC20"},{"name":"tokenB","type":"address","internalType":"contract IERC20"}],"stateMutability":"view"},{"type":"function","name":"underlyingTokenPair","inputs":[{"name":"poolID","type":"bytes32","internalType":"bytes32"}],"outputs":[{"name":"tokenA","type":"address","internalType":"contract IERC20"},{"name":"tokenB","type":"address","internalType":"contract IERC20"}],"stateMutability":"view"},{"type":"function","name":"unwhitelistPool","inputs":[{"name":"pools","type":"address","internalType":"contract IPools"},{"name":"tokenA","type":"address","internalType":"contract IERC20"},{"name":"tokenB","type":"address","internalType":"contract IERC20"}],"outputs":[],"stateMutability":"nonpayable"},{"type":"function","name":"whitelistPool","inputs":[{"name":"pools","type":"address","internalType":"contract IPools"},{"name":"tokenA","type":"address","internalType":"contract IERC20"},{"name":"tokenB","type":"address","internalType":"contract IERC20"}],"outputs":[],"stateMutability":"nonpayable"},{"type":"function","name":"whitelistedPools","inputs":[],"outputs":[{"name":"","type":"bytes32[]","internalType":"bytes32[]"}],"stateMutability":"view"},{"type":"event","name":"MaximumWhitelistedPoolsChanged","inputs":[{"name":"newMaxPools","type":"uint256","indexed":false,"internalType":"uint256"}],"anonymous":false},{"type":"event","name":"OwnershipTransferred","inputs":[{"name":"previousOwner","type":"address","indexed":true,"internalType":"address"},{"name":"newOwner","type":"address","indexed":true,"internalType":"address"}],"anonymous":false},{"type":"event","name":"PoolUnwhitelisted","inputs":[{"name":"tokenA","type":"address","indexed":true,"internalType":"address"},{"name":"tokenB","type":"address","indexed":true,"internalType":"address"}],"anonymous":false},{"type":"event","name":"PoolWhitelisted","inputs":[{"name":"tokenA","type":"address","indexed":true,"internalType":"address"},{"name":"tokenB","type":"address","indexed":true,"internalType":"address"}],"anonymous":false},{"type":"event","name":"maximumInternalSwapPercentTimes1000Changed","inputs":[{"name":"newMaxSwap","type":"uint256","indexed":false,"internalType":"uint256"}],"anonymous":false}],"bytecode":{"object":"0x608060405260326004556103e860055534801561001b57600080fd5b506100253361002a565b61007a565b600080546001600160a01b038381166001600160a01b0319831681178455604051919092169283917f8be0079c531659141344cd1fd0a4f28419497f9722a3daafe3b4186f6b6457e09190a35050565b610f6a806100896000396000f3fe608060405234801561001057600080fd5b50600436106100f55760003560e01c806390e439bc11610097578063a2b8548911610066578063a2b8548914610242578063c2fb9aac1461024b578063ce7e4ba21461025e578063f2fde38b1461027157600080fd5b806390e439bc146102005780639384e1ef146102135780639d4f6d90146102265780639d58e1561461022f57600080fd5b80634a03895b116100d35780634a03895b146101a5578063715018a6146101bb5780638be7ded4146101c55780638da5cb5b146101d857600080fd5b806301a5e3fe146100fa5780630e1c21a6146101225780634347988514610190575b600080fd5b61010d610108366004610d78565b610284565b60405190151581526020015b60405180910390f35b610163610130366004610d78565b6003602052600090815260409020805460019091015473ffffffffffffffffffffffffffffffffffffffff918216911682565b6040805173ffffffffffffffffffffffffffffffffffffffff938416815292909116602083015201610119565b6101986102a6565b6040516101199190610d91565b6101ad6102b7565b604051908152602001610119565b6101c36102c3565b005b6101c36101d3366004610df7565b6102d7565b60005460405173ffffffffffffffffffffffffffffffffffffffff9091168152602001610119565b61010d61020e366004610df7565b610583565b6101c3610221366004610df7565b6105df565b6101ad60045481565b6101c361023d366004610e42565b610708565b6101ad60055481565b610163610259366004610d78565b6107a2565b6101c361026c366004610e42565b610887565b6101c361027f366004610e64565b610915565b60008115806102a0575060008281526002602052604090205415155b92915050565b60606102b260016109cc565b905090565b60006102b260016109d9565b6102cb6109e3565b6102d56000610a64565b565b6102df6109e3565b6004546102ec60016109d9565b1061037e576040517f08c379a000000000000000000000000000000000000000000000000000000000815260206004820152603360248201527f4d6178696d756d206e756d626572206f662077686974656c697374656420706f60448201527f6f6c7320616c726561647920726561636865640000000000000000000000000060648201526084015b60405180910390fd5b8073ffffffffffffffffffffffffffffffffffffffff168273ffffffffffffffffffffffffffffffffffffffff1603610439576040517f08c379a000000000000000000000000000000000000000000000000000000000815260206004820152602a60248201527f746f6b656e4120616e6420746f6b656e422063616e6e6f74206265207468652060448201527f73616d6520746f6b656e000000000000000000000000000000000000000000006064820152608401610375565b60006104458383610ad9565b9050610452600182610bc2565b5060408051808201825273ffffffffffffffffffffffffffffffffffffffff8086168252848116602080840191825260008681526003909152848120935184549084167fffffffffffffffffffffffff00000000000000000000000000000000000000009182161785559151600190940180549484169490921693909317905582517f85876e950000000000000000000000000000000000000000000000000000000081529251908716926385876e9592600480830193919282900301818387803b15801561052057600080fd5b505af1158015610534573d6000803e3d6000fd5b505060405173ffffffffffffffffffffffffffffffffffffffff8086169350861691507f4b4f12aec4d473e2c825e22e416d739e782f6af363f89b953171a750167f85d290600090a350505050565b6000806105908585610ad9565b905061059b81610284565b156105aa5760019150506105d8565b60006105b68685610ad9565b90506105c181610284565b156105d1576001925050506105d8565b6000925050505b9392505050565b6105e76109e3565b60006105f38383610ad9565b9050610600600182610bce565b5060008181526003602052604080822080547fffffffffffffffffffffffff0000000000000000000000000000000000000000908116825560019091018054909116905580517f85876e95000000000000000000000000000000000000000000000000000000008152905173ffffffffffffffffffffffffffffffffffffffff8716926385876e95926004808201939182900301818387803b1580156106a557600080fd5b505af11580156106b9573d6000803e3d6000fd5b505060405173ffffffffffffffffffffffffffffffffffffffff8086169350861691507fc8d067652a234ec40b98d82003c1a24164cbe759c4b19cd39c8d9dca8bd68cec90600090a350505050565b6107106109e3565b8015610740576107d0600554101561073b5760fa600560008282546107359190610eb0565b90915550505b610764565b60fa60055411156107645760fa6005600082825461075e9190610ec3565b90915550505b7fd839b2186e435a4787e48e95e7cae882287a37cfb6599495939b74b8e86f4a3460055460405161079791815260200190565b60405180910390a150565b60008181526003602090815260408083208151808301909252805473ffffffffffffffffffffffffffffffffffffffff908116808452600190920154169282019290925282911580159061080f5750602081015173ffffffffffffffffffffffffffffffffffffffff1615155b610875576040517f08c379a000000000000000000000000000000000000000000000000000000000815260206004820152601a60248201527f5468697320706f6f6c494420646f6573206e6f742065786973740000000000006044820152606401610375565b80516020909101519094909350915050565b61088f6109e3565b80156108be57606460045410156108b957600a600460008282546108b39190610eb0565b90915550505b6108e2565b601460045411156108e257600a600460008282546108dc9190610ec3565b90915550505b7f76adbf819c50bf2c509f640c9e0e36b355b73e2c701d44dca2435512b043051860045460405161079791815260200190565b61091d6109e3565b73ffffffffffffffffffffffffffffffffffffffff81166109c0576040517f08c379a000000000000000000000000000000000000000000000000000000000815260206004820152602660248201527f4f776e61626c653a206e6577206f776e657220697320746865207a65726f206160448201527f64647265737300000000000000000000000000000000000000000000000000006064820152608401610375565b6109c981610a64565b50565b606060006105d883610bda565b60006102a0825490565b60005473ffffffffffffffffffffffffffffffffffffffff1633146102d5576040517f08c379a000000000000000000000000000000000000000000000000000000000815260206004820181905260248201527f4f776e61626c653a2063616c6c6572206973206e6f7420746865206f776e65726044820152606401610375565b6000805473ffffffffffffffffffffffffffffffffffffffff8381167fffffffffffffffffffffffff0000000000000000000000000000000000000000831681178455604051919092169283917f8be0079c531659141344cd1fd0a4f28419497f9722a3daafe3b4186f6b6457e09190a35050565b60008273ffffffffffffffffffffffffffffffffffffffff168273ffffffffffffffffffffffffffffffffffffffff161015610b68576040517fffffffffffffffffffffffffffffffffffffffff000000000000000000000000606084811b8216602084015285901b1660348201526048016040516020818303038152906040528051906020012090506102a0565b6040517fffffffffffffffffffffffffffffffffffffffff000000000000000000000000606085811b8216602084015284901b16603482015260480160405160208183030381529060405280519060200120905092915050565b60006105d88383610c36565b60006105d88383610c85565b606081600001805480602002602001604051908101604052809291908181526020018280548015610c2a57602002820191906000526020600020905b815481526020019060010190808311610c16575b50505050509050919050565b6000818152600183016020526040812054610c7d575081546001818101845560008481526020808220909301849055845484825282860190935260409020919091556102a0565b5060006102a0565b60008181526001830160205260408120548015610d6e576000610ca9600183610ec3565b8554909150600090610cbd90600190610ec3565b9050818114610d22576000866000018281548110610cdd57610cdd610ed6565b9060005260206000200154905080876000018481548110610d0057610d00610ed6565b6000918252602080832090910192909255918252600188019052604090208390555b8554869080610d3357610d33610f05565b6001900381819060005260206000200160009055905585600101600086815260200190815260200160002060009055600193505050506102a0565b60009150506102a0565b600060208284031215610d8a57600080fd5b5035919050565b6020808252825182820181905260009190848201906040850190845b81811015610dc957835183529284019291840191600101610dad565b50909695505050505050565b73ffffffffffffffffffffffffffffffffffffffff811681146109c957600080fd5b600080600060608486031215610e0c57600080fd5b8335610e1781610dd5565b92506020840135610e2781610dd5565b91506040840135610e3781610dd5565b809150509250925092565b600060208284031215610e5457600080fd5b813580151581146105d857600080fd5b600060208284031215610e7657600080fd5b81356105d881610dd5565b7f4e487b7100000000000000000000000000000000000000000000000000000000600052601160045260246000fd5b808201808211156102a0576102a0610e81565b818103818111156102a0576102a0610e81565b7f4e487b7100000000000000000000000000000000000000000000000000000000600052603260045260246000fd5b7f4e487b7100000000000000000000000000000000000000000000000000000000600052603160045260246000fdfea26469706673582212208eab0ff5c6eddf090b333e824bd39d1a00715de6ef8a3b94045f7be477d8364964736f6c63430008160033","linkReferences":{}},"methodIdentifiers":{"changeMaximumInternalSwapPercentTimes1000(bool)":"9d58e156","changeMaximumWhitelistedPools(bool)":"ce7e4ba2","isWhitelisted(bytes32)":"01a5e3fe","maximumInternalSwapPercentTimes1000()":"a2b85489","maximumWhitelistedPools()":"9d4f6d90","numberOfWhitelistedPools()":"4a03895b","owner()":"8da5cb5b","renounceOwnership()":"715018a6","tokenHasBeenWhitelisted(address,address,address)":"90e439bc","transferOwnership(address)":"f2fde38b","underlyingPoolTokens(bytes32)":"0e1c21a6","underlyingTokenPair(bytes32)":"c2fb9aac","unwhitelistPool(address,address,address)":"9384e1ef","whitelistPool(address,address,address)":"8be7ded4","whitelistedPools()":"43479885"},"id":91}