{"abi":[{"type":"constructor","inputs":[{"name":"beneficiaryAddress","type":"address","internalType":"address"},{"name":"startTimestamp","type":"uint64","internalType":"uint64"},{"name":"durationSeconds","type":"uint64","internalType":"uint64"}],"stateMutability":"payable"},{"type":"receive","stateMutability":"payable"},{"type":"function","name":"beneficiary","inputs":[],"outputs":[{"name":"","type":"address","internalType":"address"}],"stateMutability":"view"},{"type":"function","name":"duration","inputs":[],"outputs":[{"name":"","type":"uint256","internalType":"uint256"}],"stateMutability":"view"},{"type":"function","name":"releasable","inputs":[{"name":"token","type":"address","internalType":"address"}],"outputs":[{"name":"","type":"uint256","internalType":"uint256"}],"stateMutability":"view"},{"type":"function","name":"releasable","inputs":[],"outputs":[{"name":"","type":"uint256","internalType":"uint256"}],"stateMutability":"view"},{"type":"function","name":"release","inputs":[{"name":"token","type":"address","internalType":"address"}],"outputs":[],"stateMutability":"nonpayable"},{"type":"function","name":"release","inputs":[],"outputs":[],"stateMutability":"nonpayable"},{"type":"function","name":"released","inputs":[],"outputs":[{"name":"","type":"uint256","internalType":"uint256"}],"stateMutability":"view"},{"type":"function","name":"released","inputs":[{"name":"token","type":"address","internalType":"address"}],"outputs":[{"name":"","type":"uint256","internalType":"uint256"}],"stateMutability":"view"},{"type":"function","name":"start","inputs":[],"outputs":[{"name":"","type":"uint256","internalType":"uint256"}],"stateMutability":"view"},{"type":"function","name":"vestedAmount","inputs":[{"name":"timestamp","type":"uint64","internalType":"uint64"}],"outputs":[{"name":"","type":"uint256","internalType":"uint256"}],"stateMutability":"view"},{"type":"function","name":"vestedAmount","inputs":[{"name":"token","type":"address","internalType":"address"},{"name":"timestamp","type":"uint64","internalType":"uint64"}],"outputs":[{"name":"","type":"uint256","internalType":"uint256"}],"stateMutability":"view"},{"type":"event","name":"ERC20Released","inputs":[{"name":"token","type":"address","indexed":true,"internalType":"address"},{"name":"amount","type":"uint256","indexed":false,"internalType":"uint256"}],"anonymous":false},{"type":"event","name":"EtherReleased","inputs":[{"name":"amount","type":"uint256","indexed":false,"internalType":"uint256"}],"anonymous":false}],"bytecode":{"object":"0x60e0604052604051610f54380380610f54833981016040819052610022916100d0565b6001600160a01b03831661008f5760405162461bcd60e51b815260206004820152602a60248201527f56657374696e6757616c6c65743a2062656e6566696369617279206973207a65604482015269726f206164647265737360b01b606482015260840160405180910390fd5b6001600160a01b039092166080526001600160401b0390811660a0521660c052610121565b80516001600160401b03811681146100cb57600080fd5b919050565b6000806000606084860312156100e557600080fd5b83516001600160a01b03811681146100fc57600080fd5b925061010a602085016100b4565b9150610118604085016100b4565b90509250925092565b60805160a05160c051610dd36101816000396000818161010e0152818161058b01526105ee01526000818161026b0152818161053b015281816105af01526106190152600081816101850152818161036d01526104b90152610dd36000f3fe6080604052600436106100c05760003560e01c806386d1a69f11610074578063a3f8eace1161004e578063a3f8eace1461023c578063be9a65551461025c578063fbccedae1461029957600080fd5b806386d1a69f146101cf57806396132521146101e45780639852595c146101f957600080fd5b806319165587116100a5578063191655871461013c57806338af3eed1461015e578063810ec23b146101af57600080fd5b80630a17b06b146100cc5780630fb5a6b4146100ff57600080fd5b366100c757005b600080fd5b3480156100d857600080fd5b506100ec6100e7366004610b9d565b6102ae565b6040519081526020015b60405180910390f35b34801561010b57600080fd5b507f000000000000000000000000000000000000000000000000000000000000000067ffffffffffffffff166100ec565b34801561014857600080fd5b5061015c610157366004610bdc565b6102d2565b005b34801561016a57600080fd5b5060405173ffffffffffffffffffffffffffffffffffffffff7f00000000000000000000000000000000000000000000000000000000000000001681526020016100f6565b3480156101bb57600080fd5b506100ec6101ca366004610bf7565b610396565b3480156101db57600080fd5b5061015c61045f565b3480156101f057600080fd5b506000546100ec565b34801561020557600080fd5b506100ec610214366004610bdc565b73ffffffffffffffffffffffffffffffffffffffff1660009081526001602052604090205490565b34801561024857600080fd5b506100ec610257366004610bdc565b6104e1565b34801561026857600080fd5b507f000000000000000000000000000000000000000000000000000000000000000067ffffffffffffffff166100ec565b3480156102a557600080fd5b506100ec61051b565b60006102cc6102bc60005490565b6102c69047610c59565b83610537565b92915050565b60006102dd826104e1565b73ffffffffffffffffffffffffffffffffffffffff8316600090815260016020526040812080549293508392909190610317908490610c59565b909155505060405181815273ffffffffffffffffffffffffffffffffffffffff8316907fc0e523490dd523c33b1878c9eb14ff46991e3f5b2cd33710918618f2a39cba1b9060200160405180910390a2610392827f000000000000000000000000000000000000000000000000000000000000000083610671565b5050565b73ffffffffffffffffffffffffffffffffffffffff8216600090815260016020526040812054610458906040517f70a0823100000000000000000000000000000000000000000000000000000000815230600482015273ffffffffffffffffffffffffffffffffffffffff8616906370a0823190602401602060405180830381865afa15801561042a573d6000803e3d6000fd5b505050506040513d601f19601f8201168201806040525081019061044e9190610c6c565b6102c69190610c59565b9392505050565b600061046961051b565b90508060008082825461047c9190610c59565b90915550506040518181527fda9d4e5f101b8b9b1c5b76d0c5a9f7923571acfc02376aa076b75a8c080c956b9060200160405180910390a16104de7f000000000000000000000000000000000000000000000000000000000000000082610703565b50565b73ffffffffffffffffffffffffffffffffffffffff81166000908152600160205260408120546105118342610396565b6102cc9190610c85565b60008054610528426102ae565b6105329190610c85565b905090565b60007f000000000000000000000000000000000000000000000000000000000000000067ffffffffffffffff168267ffffffffffffffff16101561057d575060006102cc565b6105d467ffffffffffffffff7f00000000000000000000000000000000000000000000000000000000000000008116907f000000000000000000000000000000000000000000000000000000000000000016610c59565b8267ffffffffffffffff1611156105ec5750816102cc565b7f000000000000000000000000000000000000000000000000000000000000000067ffffffffffffffff167f000000000000000000000000000000000000000000000000000000000000000067ffffffffffffffff166106569067ffffffffffffffff8516610c85565b6106609085610c98565b61066a9190610caf565b90506102cc565b6040805173ffffffffffffffffffffffffffffffffffffffff8416602482015260448082018490528251808303909101815260649091019091526020810180517bffffffffffffffffffffffffffffffffffffffffffffffffffffffff167fa9059cbb000000000000000000000000000000000000000000000000000000001790526106fe908490610862565b505050565b80471015610772576040517f08c379a000000000000000000000000000000000000000000000000000000000815260206004820152601d60248201527f416464726573733a20696e73756666696369656e742062616c616e636500000060448201526064015b60405180910390fd5b60008273ffffffffffffffffffffffffffffffffffffffff168260405160006040518083038185875af1925050503d80600081146107cc576040519150601f19603f3d011682016040523d82523d6000602084013e6107d1565b606091505b50509050806106fe576040517f08c379a000000000000000000000000000000000000000000000000000000000815260206004820152603a60248201527f416464726573733a20756e61626c6520746f2073656e642076616c75652c207260448201527f6563697069656e74206d617920686176652072657665727465640000000000006064820152608401610769565b60006108c4826040518060400160405280602081526020017f5361666545524332303a206c6f772d6c6576656c2063616c6c206661696c65648152508573ffffffffffffffffffffffffffffffffffffffff166109719092919063ffffffff16565b90508051600014806108e55750808060200190518101906108e59190610cea565b6106fe576040517f08c379a000000000000000000000000000000000000000000000000000000000815260206004820152602a60248201527f5361666545524332303a204552433230206f7065726174696f6e20646964206e60448201527f6f742073756363656564000000000000000000000000000000000000000000006064820152608401610769565b60606109808484600085610988565b949350505050565b606082471015610a1a576040517f08c379a000000000000000000000000000000000000000000000000000000000815260206004820152602660248201527f416464726573733a20696e73756666696369656e742062616c616e636520666f60448201527f722063616c6c00000000000000000000000000000000000000000000000000006064820152608401610769565b6000808673ffffffffffffffffffffffffffffffffffffffff168587604051610a439190610d30565b60006040518083038185875af1925050503d8060008114610a80576040519150601f19603f3d011682016040523d82523d6000602084013e610a85565b606091505b5091509150610a9687838387610aa1565b979650505050505050565b60608315610b37578251600003610b305773ffffffffffffffffffffffffffffffffffffffff85163b610b30576040517f08c379a000000000000000000000000000000000000000000000000000000000815260206004820152601d60248201527f416464726573733a2063616c6c20746f206e6f6e2d636f6e74726163740000006044820152606401610769565b5081610980565b6109808383815115610b4c5781518083602001fd5b806040517f08c379a00000000000000000000000000000000000000000000000000000000081526004016107699190610d4c565b803567ffffffffffffffff81168114610b9857600080fd5b919050565b600060208284031215610baf57600080fd5b61045882610b80565b803573ffffffffffffffffffffffffffffffffffffffff81168114610b9857600080fd5b600060208284031215610bee57600080fd5b61045882610bb8565b60008060408385031215610c0a57600080fd5b610c1383610bb8565b9150610c2160208401610b80565b90509250929050565b7f4e487b7100000000000000000000000000000000000000000000000000000000600052601160045260246000fd5b808201808211156102cc576102cc610c2a565b600060208284031215610c7e57600080fd5b5051919050565b818103818111156102cc576102cc610c2a565b80820281158282048414176102cc576102cc610c2a565b600082610ce5577f4e487b7100000000000000000000000000000000000000000000000000000000600052601260045260246000fd5b500490565b600060208284031215610cfc57600080fd5b8151801515811461045857600080fd5b60005b83811015610d27578181015183820152602001610d0f565b50506000910152565b60008251610d42818460208701610d0c565b9190910192915050565b6020815260008251806020840152610d6b816040850160208701610d0c565b601f017fffffffffffffffffffffffffffffffffffffffffffffffffffffffffffffffe016919091016040019291505056fea264697066735822122024f1d8c29e029828c47aac8031ccd7bd785cc4336d9f22db16e000359574e85464736f6c63430008160033","linkReferences":{}},"methodIdentifiers":{"beneficiary()":"38af3eed","duration()":"0fb5a6b4","releasable()":"fbccedae","releasable(address)":"a3f8eace","release()":"86d1a69f","release(address)":"19165587","released()":"96132521","released(address)":"9852595c","start()":"be9a6555","vestedAmount(address,uint64)":"810ec23b","vestedAmount(uint64)":"0a17b06b"},"id":2}