{"abi":[{"type":"constructor","inputs":[{"name":"name","type":"string","internalType":"string"},{"name":"__decimals","type":"uint256","internalType":"uint256"}],"stateMutability":"nonpayable"},{"type":"function","name":"INITIAL_SUPPLY","inputs":[],"outputs":[{"name":"","type":"uint256","internalType":"uint256"}],"stateMutability":"view"},{"type":"function","name":"allowance","inputs":[{"name":"owner","type":"address","internalType":"address"},{"name":"spender","type":"address","internalType":"address"}],"outputs":[{"name":"","type":"uint256","internalType":"uint256"}],"stateMutability":"view"},{"type":"function","name":"approve","inputs":[{"name":"spender","type":"address","internalType":"address"},{"name":"amount","type":"uint256","internalType":"uint256"}],"outputs":[{"name":"","type":"bool","internalType":"bool"}],"stateMutability":"nonpayable"},{"type":"function","name":"balanceOf","inputs":[{"name":"account","type":"address","internalType":"address"}],"outputs":[{"name":"","type":"uint256","internalType":"uint256"}],"stateMutability":"view"},{"type":"function","name":"decimals","inputs":[],"outputs":[{"name":"","type":"uint8","internalType":"uint8"}],"stateMutability":"view"},{"type":"function","name":"decreaseAllowance","inputs":[{"name":"spender","type":"address","internalType":"address"},{"name":"subtractedValue","type":"uint256","internalType":"uint256"}],"outputs":[{"name":"","type":"bool","internalType":"bool"}],"stateMutability":"nonpayable"},{"type":"function","name":"increaseAllowance","inputs":[{"name":"spender","type":"address","internalType":"address"},{"name":"addedValue","type":"uint256","internalType":"uint256"}],"outputs":[{"name":"","type":"bool","internalType":"bool"}],"stateMutability":"nonpayable"},{"type":"function","name":"name","inputs":[],"outputs":[{"name":"","type":"string","internalType":"string"}],"stateMutability":"view"},{"type":"function","name":"symbol","inputs":[],"outputs":[{"name":"","type":"string","internalType":"string"}],"stateMutability":"view"},{"type":"function","name":"test","inputs":[],"outputs":[],"stateMutability":"nonpayable"},{"type":"function","name":"totalSupply","inputs":[],"outputs":[{"name":"","type":"uint256","internalType":"uint256"}],"stateMutability":"view"},{"type":"function","name":"transfer","inputs":[{"name":"to","type":"address","internalType":"address"},{"name":"amount","type":"uint256","internalType":"uint256"}],"outputs":[{"name":"","type":"bool","internalType":"bool"}],"stateMutability":"nonpayable"},{"type":"function","name":"transferFrom","inputs":[{"name":"from","type":"address","internalType":"address"},{"name":"to","type":"address","internalType":"address"},{"name":"amount","type":"uint256","internalType":"uint256"}],"outputs":[{"name":"","type":"bool","internalType":"bool"}],"stateMutability":"nonpayable"},{"type":"event","name":"Approval","inputs":[{"name":"owner","type":"address","indexed":true,"internalType":"address"},{"name":"spender","type":"address","indexed":true,"internalType":"address"},{"name":"value","type":"uint256","indexed":false,"internalType":"uint256"}],"anonymous":false},{"type":"event","name":"Transfer","inputs":[{"name":"from","type":"address","indexed":true,"internalType":"address"},{"name":"to","type":"address","indexed":true,"internalType":"address"},{"name":"value","type":"uint256","indexed":false,"internalType":"uint256"}],"anonymous":false}],"bytecode":{"object":"0x60806040523480156200001157600080fd5b506040516200106a3803806200106a833981016040819052620000349162000183565b81806003620000448282620002ee565b506004620000538282620002ee565b50506005805460ff191660ff8416908117909155620000759150600a620004cf565b620000889066038d7ea4c68000620004e7565b60068190556200009a903390620000a2565b505062000517565b6001600160a01b038216620000fd5760405162461bcd60e51b815260206004820152601f60248201527f45524332303a206d696e7420746f20746865207a65726f206164647265737300604482015260640160405180910390fd5b806002600082825462000111919062000501565b90915550506001600160a01b038216600081815260208181526040808320805486019055518481527fddf252ad1be2c89b69c2b068fc378daa952ba7f163c4a11628f55a4df523b3ef910160405180910390a35050565b505050565b634e487b7160e01b600052604160045260246000fd5b600080604083850312156200019757600080fd5b82516001600160401b0380821115620001af57600080fd5b818501915085601f830112620001c457600080fd5b815181811115620001d957620001d96200016d565b604051601f8201601f19908116603f011681019083821181831017156200020457620002046200016d565b816040528281526020935088848487010111156200022157600080fd5b600091505b8282101562000245578482018401518183018501529083019062000226565b6000928101840192909252509401519395939450505050565b600181811c908216806200027357607f821691505b6020821081036200029457634e487b7160e01b600052602260045260246000fd5b50919050565b601f82111562000168576000816000526020600020601f850160051c81016020861015620002c55750805b601f850160051c820191505b81811015620002e657828155600101620002d1565b505050505050565b81516001600160401b038111156200030a576200030a6200016d565b62000322816200031b84546200025e565b846200029a565b602080601f8311600181146200035a5760008415620003415750858301515b600019600386901b1c1916600185901b178555620002e6565b600085815260208120601f198616915b828110156200038b578886015182559484019460019091019084016200036a565b5085821015620003aa5787850151600019600388901b60f8161c191681555b5050505050600190811b01905550565b634e487b7160e01b600052601160045260246000fd5b600181815b8085111562000411578160001904821115620003f557620003f5620003ba565b808516156200040357918102915b93841c9390800290620003d5565b509250929050565b6000826200042a57506001620004c9565b816200043957506000620004c9565b81600181146200045257600281146200045d576200047d565b6001915050620004c9565b60ff841115620004715762000471620003ba565b50506001821b620004c9565b5060208310610133831016604e8410600b8410161715620004a2575081810a620004c9565b620004ae8383620003d0565b8060001904821115620004c557620004c5620003ba565b0290505b92915050565b6000620004e060ff84168362000419565b9392505050565b8082028115828204841417620004c957620004c9620003ba565b80820180821115620004c957620004c9620003ba565b610b4380620005276000396000f3fe608060405234801561001057600080fd5b50600436106100df5760003560e01c8063395093511161008c578063a457c2d711610066578063a457c2d7146101b9578063a9059cbb146101cc578063dd62ed3e146101df578063f8a8fd6d1461022557600080fd5b8063395093511461016857806370a082311461017b57806395d89b41146101b157600080fd5b806323b872dd116100bd57806323b872dd146101375780632ff2e9dc1461014a578063313ce5671461015357600080fd5b806306fdde03146100e4578063095ea7b31461010257806318160ddd14610125575b600080fd5b6100ec610227565b6040516100f9919061092f565b60405180910390f35b6101156101103660046109c5565b6102b9565b60405190151581526020016100f9565b6002545b6040519081526020016100f9565b6101156101453660046109ef565b6102d3565b61012960065481565b60055460405160ff90911681526020016100f9565b6101156101763660046109c5565b6102f7565b610129610189366004610a2b565b73ffffffffffffffffffffffffffffffffffffffff1660009081526020819052604090205490565b6100ec610343565b6101156101c73660046109c5565b610352565b6101156101da3660046109c5565b610428565b6101296101ed366004610a4d565b73ffffffffffffffffffffffffffffffffffffffff918216600090815260016020908152604080832093909416825291909152205490565b005b60606003805461023690610a80565b80601f016020809104026020016040519081016040528092919081815260200182805461026290610a80565b80156102af5780601f10610284576101008083540402835291602001916102af565b820191906000526020600020905b81548152906001019060200180831161029257829003601f168201915b5050505050905090565b6000336102c7818585610436565b60019150505b92915050565b6000336102e18582856105e9565b6102ec8585856106c0565b506001949350505050565b33600081815260016020908152604080832073ffffffffffffffffffffffffffffffffffffffff871684529091528120549091906102c7908290869061033e908790610ad3565b610436565b60606004805461023690610a80565b33600081815260016020908152604080832073ffffffffffffffffffffffffffffffffffffffff871684529091528120549091908381101561041b576040517f08c379a000000000000000000000000000000000000000000000000000000000815260206004820152602560248201527f45524332303a2064656372656173656420616c6c6f77616e63652062656c6f7760448201527f207a65726f00000000000000000000000000000000000000000000000000000060648201526084015b60405180910390fd5b6102ec8286868403610436565b6000336102c78185856106c0565b73ffffffffffffffffffffffffffffffffffffffff83166104d8576040517f08c379a0000000000000000000000000000000000000000000000000000000008152602060048201526024808201527f45524332303a20617070726f76652066726f6d20746865207a65726f2061646460448201527f72657373000000000000000000000000000000000000000000000000000000006064820152608401610412565b73ffffffffffffffffffffffffffffffffffffffff821661057b576040517f08c379a000000000000000000000000000000000000000000000000000000000815260206004820152602260248201527f45524332303a20617070726f766520746f20746865207a65726f20616464726560448201527f73730000000000000000000000000000000000000000000000000000000000006064820152608401610412565b73ffffffffffffffffffffffffffffffffffffffff83811660008181526001602090815260408083209487168084529482529182902085905590518481527f8c5be1e5ebec7d5bd14f71427d1e84f3dd0314c0f7b2291e5b200ac8c7c3b925910160405180910390a3505050565b73ffffffffffffffffffffffffffffffffffffffff8381166000908152600160209081526040808320938616835292905220547fffffffffffffffffffffffffffffffffffffffffffffffffffffffffffffffff81146106ba57818110156106ad576040517f08c379a000000000000000000000000000000000000000000000000000000000815260206004820152601d60248201527f45524332303a20696e73756666696369656e7420616c6c6f77616e63650000006044820152606401610412565b6106ba8484848403610436565b50505050565b73ffffffffffffffffffffffffffffffffffffffff8316610763576040517f08c379a000000000000000000000000000000000000000000000000000000000815260206004820152602560248201527f45524332303a207472616e736665722066726f6d20746865207a65726f20616460448201527f64726573730000000000000000000000000000000000000000000000000000006064820152608401610412565b73ffffffffffffffffffffffffffffffffffffffff8216610806576040517f08c379a000000000000000000000000000000000000000000000000000000000815260206004820152602360248201527f45524332303a207472616e7366657220746f20746865207a65726f206164647260448201527f65737300000000000000000000000000000000000000000000000000000000006064820152608401610412565b73ffffffffffffffffffffffffffffffffffffffff8316600090815260208190526040902054818110156108bc576040517f08c379a000000000000000000000000000000000000000000000000000000000815260206004820152602660248201527f45524332303a207472616e7366657220616d6f756e742065786365656473206260448201527f616c616e636500000000000000000000000000000000000000000000000000006064820152608401610412565b73ffffffffffffffffffffffffffffffffffffffff848116600081815260208181526040808320878703905593871680835291849020805487019055925185815290927fddf252ad1be2c89b69c2b068fc378daa952ba7f163c4a11628f55a4df523b3ef910160405180910390a36106ba565b60006020808352835180602085015260005b8181101561095d57858101830151858201604001528201610941565b5060006040828601015260407fffffffffffffffffffffffffffffffffffffffffffffffffffffffffffffffe0601f8301168501019250505092915050565b803573ffffffffffffffffffffffffffffffffffffffff811681146109c057600080fd5b919050565b600080604083850312156109d857600080fd5b6109e18361099c565b946020939093013593505050565b600080600060608486031215610a0457600080fd5b610a0d8461099c565b9250610a1b6020850161099c565b9150604084013590509250925092565b600060208284031215610a3d57600080fd5b610a468261099c565b9392505050565b60008060408385031215610a6057600080fd5b610a698361099c565b9150610a776020840161099c565b90509250929050565b600181811c90821680610a9457607f821691505b602082108103610acd577f4e487b7100000000000000000000000000000000000000000000000000000000600052602260045260246000fd5b50919050565b808201808211156102cd577f4e487b7100000000000000000000000000000000000000000000000000000000600052601160045260246000fdfea264697066735822122076ad9096fa2838c075f11a659d61cf63d43caa1bd848244fb5af318b6e176c3164736f6c63430008160033","linkReferences":{}},"methodIdentifiers":{"INITIAL_SUPPLY()":"2ff2e9dc","allowance(address,address)":"dd62ed3e","approve(address,uint256)":"095ea7b3","balanceOf(address)":"70a08231","decimals()":"313ce567","decreaseAllowance(address,uint256)":"a457c2d7","increaseAllowance(address,uint256)":"39509351","name()":"06fdde03","symbol()":"95d89b41","test()":"f8a8fd6d","totalSupply()":"18160ddd","transfer(address,uint256)":"a9059cbb","transferFrom(address,address,uint256)":"23b872dd"},"id":139}