{"abi":[{"type":"function","name":"arbitrageProfitsPercentPOL","inputs":[],"outputs":[{"name":"","type":"uint256","internalType":"uint256"}],"stateMutability":"view"},{"type":"function","name":"ballotMinimumDuration","inputs":[],"outputs":[{"name":"","type":"uint256","internalType":"uint256"}],"stateMutability":"view"},{"type":"function","name":"baseBallotQuorumPercentTimes1000","inputs":[],"outputs":[{"name":"","type":"uint256","internalType":"uint256"}],"stateMutability":"view"},{"type":"function","name":"bootstrappingRewards","inputs":[],"outputs":[{"name":"","type":"uint256","internalType":"uint256"}],"stateMutability":"view"},{"type":"function","name":"changeArbitrageProfitsPercentPOL","inputs":[{"name":"increase","type":"bool","internalType":"bool"}],"outputs":[],"stateMutability":"nonpayable"},{"type":"function","name":"changeBallotDuration","inputs":[{"name":"increase","type":"bool","internalType":"bool"}],"outputs":[],"stateMutability":"nonpayable"},{"type":"function","name":"changeBaseBallotQuorumPercent","inputs":[{"name":"increase","type":"bool","internalType":"bool"}],"outputs":[],"stateMutability":"nonpayable"},{"type":"function","name":"changeBootstrappingRewards","inputs":[{"name":"increase","type":"bool","internalType":"bool"}],"outputs":[],"stateMutability":"nonpayable"},{"type":"function","name":"changeMaxPendingTokensForWhitelisting","inputs":[{"name":"increase","type":"bool","internalType":"bool"}],"outputs":[],"stateMutability":"nonpayable"},{"type":"function","name":"changePercentPolRewardsBurned","inputs":[{"name":"increase","type":"bool","internalType":"bool"}],"outputs":[],"stateMutability":"nonpayable"},{"type":"function","name":"changeRequiredProposalPercentStake","inputs":[{"name":"increase","type":"bool","internalType":"bool"}],"outputs":[],"stateMutability":"nonpayable"},{"type":"function","name":"changeUpkeepRewardPercent","inputs":[{"name":"increase","type":"bool","internalType":"bool"}],"outputs":[],"stateMutability":"nonpayable"},{"type":"function","name":"maxPendingTokensForWhitelisting","inputs":[],"outputs":[{"name":"","type":"uint256","internalType":"uint256"}],"stateMutability":"view"},{"type":"function","name":"owner","inputs":[],"outputs":[{"name":"","type":"address","internalType":"address"}],"stateMutability":"view"},{"type":"function","name":"percentPolRewardsBurned","inputs":[],"outputs":[{"name":"","type":"uint256","internalType":"uint256"}],"stateMutability":"view"},{"type":"function","name":"renounceOwnership","inputs":[],"outputs":[],"stateMutability":"nonpayable"},{"type":"function","name":"requiredProposalPercentStakeTimes1000","inputs":[],"outputs":[{"name":"","type":"uint256","internalType":"uint256"}],"stateMutability":"view"},{"type":"function","name":"transferOwnership","inputs":[{"name":"newOwner","type":"address","internalType":"address"}],"outputs":[],"stateMutability":"nonpayable"},{"type":"function","name":"upkeepRewardPercent","inputs":[],"outputs":[{"name":"","type":"uint256","internalType":"uint256"}],"stateMutability":"view"},{"type":"event","name":"ArbitrageProfitsPercentPOLChanged","inputs":[{"name":"newArbitrageProfitsPercentPOL","type":"uint256","indexed":false,"internalType":"uint256"}],"anonymous":false},{"type":"event","name":"BallotDurationChanged","inputs":[{"name":"newBallotDuration","type":"uint256","indexed":false,"internalType":"uint256"}],"anonymous":false},{"type":"event","name":"BaseBallotQuorumPercentChanged","inputs":[{"name":"newBaseBallotQuorumPercentTimes1000","type":"uint256","indexed":false,"internalType":"uint256"}],"anonymous":false},{"type":"event","name":"BootstrappingRewardsChanged","inputs":[{"name":"newBootstrappingRewards","type":"uint256","indexed":false,"internalType":"uint256"}],"anonymous":false},{"type":"event","name":"MaxPendingTokensForWhitelistingChanged","inputs":[{"name":"newMaxPendingTokensForWhitelisting","type":"uint256","indexed":false,"internalType":"uint256"}],"anonymous":false},{"type":"event","name":"OwnershipTransferred","inputs":[{"name":"previousOwner","type":"address","indexed":true,"internalType":"address"},{"name":"newOwner","type":"address","indexed":true,"internalType":"address"}],"anonymous":false},{"type":"event","name":"PercentPolRewardsBurnedChanged","inputs":[{"name":"newPercentPolRewardsBurned","type":"uint256","indexed":false,"internalType":"uint256"}],"anonymous":false},{"type":"event","name":"RequiredProposalPercentStakeChanged","inputs":[{"name":"newRequiredProposalPercentStakeTimes1000","type":"uint256","indexed":false,"internalType":"uint256"}],"anonymous":false},{"type":"event","name":"UpkeepRewardPercentChanged","inputs":[{"name":"newUpkeepRewardPercent","type":"uint256","indexed":false,"internalType":"uint256"}],"anonymous":false}],"bytecode":{"object":"0x6080604052692a5a058fc295ed0000006001556032600255612710600355620d2f006004556101f460055560056006556014600755600560085534801561004557600080fd5b5061004f33610054565b6100a4565b600080546001600160a01b038381166001600160a01b0319831681178455604051919092169283917f8be0079c531659141344cd1fd0a4f28419497f9722a3daafe3b4186f6b6457e09190a35050565b6109f0806100b36000396000f3fe608060405234801561001057600080fd5b50600436106101515760003560e01c80637405f21c116100cd578063b423dd3811610081578063c00c1ec011610066578063c00c1ec01461025f578063e1c8642214610272578063f2fde38b1461027b57600080fd5b8063b423dd3814610243578063b58ab9f81461025657600080fd5b8063924c2335116100b2578063924c23351461021e578063aa046a3314610227578063ada4442d1461023a57600080fd5b80637405f21c146101e35780638da5cb5b146101f657600080fd5b806347e4d72f116101245780636255af22116101095780636255af22146101bf578063712907e0146101d2578063715018a6146101db57600080fd5b806347e4d72f146101a35780634fa1acb3146101b657600080fd5b806301baf94e146101565780630f9bc9fe1461016b57806318981ff41461017e578063189bfaa71461019a575b600080fd5b610169610164366004610900565b61028e565b005b610169610179366004610900565b610328565b61018760075481565b6040519081526020015b60405180910390f35b61018760035481565b6101696101b1366004610900565b6103ba565b61018760045481565b6101696101cd366004610900565b610448565b61018760085481565b6101696104de565b6101696101f1366004610900565b6104f2565b60005460405173ffffffffffffffffffffffffffffffffffffffff9091168152602001610191565b61018760055481565b610169610235366004610900565b610580565b61018760015481565b610169610251366004610900565b61060e565b61018760065481565b61016961026d366004610900565b61069c565b61018760025481565b610169610289366004610929565b61074e565b61029661080a565b80156102c6576107d060055410156102c1576064600560008282546102bb919061098e565b90915550505b6102ea565b606460055411156102ea576064600560008282546102e491906109a7565b90915550505b7fec4fb3b35ff924d7b72cc444a2c8bee91ca8fb8c7e799d4af2c032cf28139bc960055460405161031d91815260200190565b60405180910390a150565b61033061080a565b801561036157614e20600354101561035c576103e860036000828254610356919061098e565b90915550505b610387565b6113886003541115610387576103e86003600082825461038191906109a7565b90915550505b7fbdbf06bebcb2c449f899aa0cb3f0cf060795313778bbb046abfa33424204bc3f60035460405161031d91815260200190565b6103c261080a565b80156103f157600a60085410156103ec576001600860008282546103e6919061098e565b90915550505b610415565b600160085411156104155760016008600082825461040f91906109a7565b90915550505b7fb85024a2762d82caa0be62e9e9a7c51d3bf633d3ec8d83e303cc463f63c5890a60085460405161031d91815260200190565b61045061080a565b80156104835762127500600454101561047e576201518060046000828254610478919061098e565b90915550505b6104ab565b6203f48060045411156104ab5762015180600460008282546104a591906109a7565b90915550505b7fc3d87abb712f3f8ce1ac84510d9710b48ff353115a4d1f8d6f7267a75127c3ad60045460405161031d91815260200190565b6104e661080a565b6104f0600061088b565b565b6104fa61080a565b801561052957602d60075410156105245760056007600082825461051e919061098e565b90915550505b61054d565b600f600754111561054d5760056007600082825461054791906109a7565b90915550505b7f0cfddc020c506715f3ad142c56bcb3d04d82af754064c1cb1290b6d69dae960960075460405161031d91815260200190565b61058861080a565b80156105b757604b60025410156105b2576005600260008282546105ac919061098e565b90915550505b6105db565b601960025411156105db576005600260008282546105d591906109a7565b90915550505b7f1a56ed799763d1e64a3526853d712f7c4befe6e5e949117f1077f6835057bdf960025460405161031d91815260200190565b61061661080a565b801561064557600c60065410156106405760016006600082825461063a919061098e565b90915550505b610669565b600360065411156106695760016006600082825461066391906109a7565b90915550505b7f5179775de59a5daee858ab56aed55afcdce8fa24b659bcfd202816890981ad7f60065460405161031d91815260200190565b6106a461080a565b80156106e5576969e10de76676d080000060015410156106e057690a968163f0a57b400000600160008282546106da919061098e565b90915550505b61071b565b690a968163f0a57b400000600154111561071b57690a968163f0a57b4000006001600082825461071591906109a7565b90915550505b7f95b0fa355b3492624402476ebf6e97f810d5152678bb9ac060784f2786cac9fe60015460405161031d91815260200190565b61075661080a565b73ffffffffffffffffffffffffffffffffffffffff81166107fe576040517f08c379a000000000000000000000000000000000000000000000000000000000815260206004820152602660248201527f4f776e61626c653a206e6577206f776e657220697320746865207a65726f206160448201527f646472657373000000000000000000000000000000000000000000000000000060648201526084015b60405180910390fd5b6108078161088b565b50565b60005473ffffffffffffffffffffffffffffffffffffffff1633146104f0576040517f08c379a000000000000000000000000000000000000000000000000000000000815260206004820181905260248201527f4f776e61626c653a2063616c6c6572206973206e6f7420746865206f776e657260448201526064016107f5565b6000805473ffffffffffffffffffffffffffffffffffffffff8381167fffffffffffffffffffffffff0000000000000000000000000000000000000000831681178455604051919092169283917f8be0079c531659141344cd1fd0a4f28419497f9722a3daafe3b4186f6b6457e09190a35050565b60006020828403121561091257600080fd5b8135801515811461092257600080fd5b9392505050565b60006020828403121561093b57600080fd5b813573ffffffffffffffffffffffffffffffffffffffff8116811461092257600080fd5b7f4e487b7100000000000000000000000000000000000000000000000000000000600052601160045260246000fd5b808201808211156109a1576109a161095f565b92915050565b818103818111156109a1576109a161095f56fea264697066735822122062a9bb170ae16dec9cce87f73350c39ebebfd4977096db9271883ce1a7090b5064736f6c63430008160033","linkReferences":{}},"methodIdentifiers":{"arbitrageProfitsPercentPOL()":"18981ff4","ballotMinimumDuration()":"4fa1acb3","baseBallotQuorumPercentTimes1000()":"189bfaa7","bootstrappingRewards()":"ada4442d","changeArbitrageProfitsPercentPOL(bool)":"7405f21c","changeBallotDuration(bool)":"6255af22","changeBaseBallotQuorumPercent(bool)":"0f9bc9fe","changeBootstrappingRewards(bool)":"c00c1ec0","changeMaxPendingTokensForWhitelisting(bool)":"b423dd38","changePercentPolRewardsBurned(bool)":"aa046a33","changeRequiredProposalPercentStake(bool)":"01baf94e","changeUpkeepRewardPercent(bool)":"47e4d72f","maxPendingTokensForWhitelisting()":"b58ab9f8","owner()":"8da5cb5b","percentPolRewardsBurned()":"e1c86422","renounceOwnership()":"715018a6","requiredProposalPercentStakeTimes1000()":"924c2335","transferOwnership(address)":"f2fde38b","upkeepRewardPercent()":"712907e0"},"id":56}