{"abi":[{"type":"constructor","inputs":[],"stateMutability":"nonpayable"},{"type":"function","name":"allowance","inputs":[{"name":"owner","type":"address","internalType":"address"},{"name":"spender","type":"address","internalType":"address"}],"outputs":[{"name":"","type":"uint256","internalType":"uint256"}],"stateMutability":"view"},{"type":"function","name":"approve","inputs":[{"name":"spender","type":"address","internalType":"address"},{"name":"amount","type":"uint256","internalType":"uint256"}],"outputs":[{"name":"","type":"bool","internalType":"bool"}],"stateMutability":"nonpayable"},{"type":"function","name":"balanceOf","inputs":[{"name":"account","type":"address","internalType":"address"}],"outputs":[{"name":"","type":"uint256","internalType":"uint256"}],"stateMutability":"view"},{"type":"function","name":"burnTokensInContract","inputs":[],"outputs":[],"stateMutability":"nonpayable"},{"type":"function","name":"collateralAndLiquidity","inputs":[],"outputs":[{"name":"","type":"address","internalType":"contract ICollateralAndLiquidity"}],"stateMutability":"view"},{"type":"function","name":"decimals","inputs":[],"outputs":[{"name":"","type":"uint8","internalType":"uint8"}],"stateMutability":"view"},{"type":"function","name":"decreaseAllowance","inputs":[{"name":"spender","type":"address","internalType":"address"},{"name":"subtractedValue","type":"uint256","internalType":"uint256"}],"outputs":[{"name":"","type":"bool","internalType":"bool"}],"stateMutability":"nonpayable"},{"type":"function","name":"increaseAllowance","inputs":[{"name":"spender","type":"address","internalType":"address"},{"name":"addedValue","type":"uint256","internalType":"uint256"}],"outputs":[{"name":"","type":"bool","internalType":"bool"}],"stateMutability":"nonpayable"},{"type":"function","name":"mintTo","inputs":[{"name":"wallet","type":"address","internalType":"address"},{"name":"amount","type":"uint256","internalType":"uint256"}],"outputs":[],"stateMutability":"nonpayable"},{"type":"function","name":"name","inputs":[],"outputs":[{"name":"","type":"string","internalType":"string"}],"stateMutability":"view"},{"type":"function","name":"owner","inputs":[],"outputs":[{"name":"","type":"address","internalType":"address"}],"stateMutability":"view"},{"type":"function","name":"renounceOwnership","inputs":[],"outputs":[],"stateMutability":"nonpayable"},{"type":"function","name":"setCollateralAndLiquidity","inputs":[{"name":"_collateralAndLiquidity","type":"address","internalType":"contract ICollateralAndLiquidity"}],"outputs":[],"stateMutability":"nonpayable"},{"type":"function","name":"symbol","inputs":[],"outputs":[{"name":"","type":"string","internalType":"string"}],"stateMutability":"view"},{"type":"function","name":"totalSupply","inputs":[],"outputs":[{"name":"","type":"uint256","internalType":"uint256"}],"stateMutability":"view"},{"type":"function","name":"transfer","inputs":[{"name":"to","type":"address","internalType":"address"},{"name":"amount","type":"uint256","internalType":"uint256"}],"outputs":[{"name":"","type":"bool","internalType":"bool"}],"stateMutability":"nonpayable"},{"type":"function","name":"transferFrom","inputs":[{"name":"from","type":"address","internalType":"address"},{"name":"to","type":"address","internalType":"address"},{"name":"amount","type":"uint256","internalType":"uint256"}],"outputs":[{"name":"","type":"bool","internalType":"bool"}],"stateMutability":"nonpayable"},{"type":"function","name":"transferOwnership","inputs":[{"name":"newOwner","type":"address","internalType":"address"}],"outputs":[],"stateMutability":"nonpayable"},{"type":"event","name":"Approval","inputs":[{"name":"owner","type":"address","indexed":true,"internalType":"address"},{"name":"spender","type":"address","indexed":true,"internalType":"address"},{"name":"value","type":"uint256","indexed":false,"internalType":"uint256"}],"anonymous":false},{"type":"event","name":"OwnershipTransferred","inputs":[{"name":"previousOwner","type":"address","indexed":true,"internalType":"address"},{"name":"newOwner","type":"address","indexed":true,"internalType":"address"}],"anonymous":false},{"type":"event","name":"Transfer","inputs":[{"name":"from","type":"address","indexed":true,"internalType":"address"},{"name":"to","type":"address","indexed":true,"internalType":"address"},{"name":"value","type":"uint256","indexed":false,"internalType":"uint256"}],"anonymous":false},{"type":"event","name":"USDSMinted","inputs":[{"name":"to","type":"address","indexed":true,"internalType":"address"},{"name":"amount","type":"uint256","indexed":false,"internalType":"uint256"}],"anonymous":false},{"type":"event","name":"USDSTokensBurned","inputs":[{"name":"amount","type":"uint256","indexed":false,"internalType":"uint256"}],"anonymous":false}],"bytecode":{"object":"0x60806040523480156200001157600080fd5b506040805180820182526004808252635553445360e01b60208084018290528451808601909552918452908301529060036200004e83826200017d565b5060046200005d82826200017d565b5050506200007a620000746200008060201b60201c565b62000084565b62000249565b3390565b600580546001600160a01b038381166001600160a01b0319831681179093556040519116919082907f8be0079c531659141344cd1fd0a4f28419497f9722a3daafe3b4186f6b6457e090600090a35050565b634e487b7160e01b600052604160045260246000fd5b600181811c908216806200010157607f821691505b6020821081036200012257634e487b7160e01b600052602260045260246000fd5b50919050565b601f82111562000178576000816000526020600020601f850160051c81016020861015620001535750805b601f850160051c820191505b8181101562000174578281556001016200015f565b5050505b505050565b81516001600160401b03811115620001995762000199620000d6565b620001b181620001aa8454620000ec565b8462000128565b602080601f831160018114620001e95760008415620001d05750858301515b600019600386901b1c1916600185901b17855562000174565b600085815260208120601f198616915b828110156200021a57888601518255948401946001909101908401620001f9565b5085821015620002395787850151600019600388901b60f8161c191681555b5050505050600190811b01905550565b6112c280620002596000396000f3fe608060405234801561001057600080fd5b50600436106101365760003560e01c80635730c543116100b257806395d89b4111610081578063a9059cbb11610066578063a9059cbb146102af578063dd62ed3e146102c2578063f2fde38b1461030857600080fd5b806395d89b4114610294578063a457c2d71461029c57600080fd5b80635730c5431461023057806370a0823114610238578063715018a61461026e5780638da5cb5b1461027657600080fd5b806318160ddd11610109578063313ce567116100ee578063313ce567146101fb578063395093511461020a578063449a52f81461021d57600080fd5b806318160ddd146101d657806323b872dd146101e857600080fd5b806306fdde031461013b578063095ea7b3146101595780630e5c7fbb1461017c578063117986bb146101c1575b600080fd5b61014361031b565b60405161015091906110a6565b60405180910390f35b61016c610167366004611135565b6103ad565b6040519015158152602001610150565b60065461019c9073ffffffffffffffffffffffffffffffffffffffff1681565b60405173ffffffffffffffffffffffffffffffffffffffff9091168152602001610150565b6101d46101cf366004611161565b6103c7565b005b6002545b604051908152602001610150565b61016c6101f6366004611185565b61041a565b60405160128152602001610150565b61016c610218366004611135565b61043e565b6101d461022b366004611135565b61048a565b6101d46105fe565b6101da610246366004611161565b73ffffffffffffffffffffffffffffffffffffffff1660009081526020819052604090205490565b6101d461064f565b60055473ffffffffffffffffffffffffffffffffffffffff1661019c565b610143610663565b61016c6102aa366004611135565b610672565b61016c6102bd366004611135565b610743565b6101da6102d03660046111c6565b73ffffffffffffffffffffffffffffffffffffffff918216600090815260016020908152604080832093909416825291909152205490565b6101d4610316366004611161565b610751565b60606003805461032a906111ff565b80601f0160208091040260200160405190810160405280929190818152602001828054610356906111ff565b80156103a35780601f10610378576101008083540402835291602001916103a3565b820191906000526020600020905b81548152906001019060200180831161038657829003601f168201915b5050505050905090565b6000336103bb818585610805565b60019150505b92915050565b6103cf6109b9565b600680547fffffffffffffffffffffffff00000000000000000000000000000000000000001673ffffffffffffffffffffffffffffffffffffffff831617905561041761064f565b50565b600033610428858285610a3a565b610433858585610b11565b506001949350505050565b33600081815260016020908152604080832073ffffffffffffffffffffffffffffffffffffffff871684529091528120549091906103bb9082908690610485908790611252565b610805565b60065473ffffffffffffffffffffffffffffffffffffffff163314610536576040517f08c379a000000000000000000000000000000000000000000000000000000000815260206004820152603960248201527f555344532e6d696e74546f206973206f6e6c792063616c6c61626c652066726f60448201527f6d2074686520436f6c6c61746572616c20636f6e74726163740000000000000060648201526084015b60405180910390fd5b600081116105a0576040517f08c379a000000000000000000000000000000000000000000000000000000000815260206004820152601560248201527f43616e6e6f74206d696e74207a65726f20555344530000000000000000000000604482015260640161052d565b6105aa8282610d80565b8173ffffffffffffffffffffffffffffffffffffffff167fa40f4ce167c59e045ce46c79e48ee9c641b87091e0af6c136716b975aa2edf89826040516105f291815260200190565b60405180910390a25050565b30600081815260208190526040902054906106199082610e73565b6040518181527fa848e44691f54a7f02089a08fc0dccc0f1b23e21757f272ea8ef28f2449b4b789060200160405180910390a150565b6106576109b9565b610661600061102f565b565b60606004805461032a906111ff565b33600081815260016020908152604080832073ffffffffffffffffffffffffffffffffffffffff8716845290915281205490919083811015610736576040517f08c379a000000000000000000000000000000000000000000000000000000000815260206004820152602560248201527f45524332303a2064656372656173656420616c6c6f77616e63652062656c6f7760448201527f207a65726f000000000000000000000000000000000000000000000000000000606482015260840161052d565b6104338286868403610805565b6000336103bb818585610b11565b6107596109b9565b73ffffffffffffffffffffffffffffffffffffffff81166107fc576040517f08c379a000000000000000000000000000000000000000000000000000000000815260206004820152602660248201527f4f776e61626c653a206e6577206f776e657220697320746865207a65726f206160448201527f6464726573730000000000000000000000000000000000000000000000000000606482015260840161052d565b6104178161102f565b73ffffffffffffffffffffffffffffffffffffffff83166108a7576040517f08c379a0000000000000000000000000000000000000000000000000000000008152602060048201526024808201527f45524332303a20617070726f76652066726f6d20746865207a65726f2061646460448201527f7265737300000000000000000000000000000000000000000000000000000000606482015260840161052d565b73ffffffffffffffffffffffffffffffffffffffff821661094a576040517f08c379a000000000000000000000000000000000000000000000000000000000815260206004820152602260248201527f45524332303a20617070726f766520746f20746865207a65726f20616464726560448201527f7373000000000000000000000000000000000000000000000000000000000000606482015260840161052d565b73ffffffffffffffffffffffffffffffffffffffff83811660008181526001602090815260408083209487168084529482529182902085905590518481527f8c5be1e5ebec7d5bd14f71427d1e84f3dd0314c0f7b2291e5b200ac8c7c3b92591015b60405180910390a3505050565b60055473ffffffffffffffffffffffffffffffffffffffff163314610661576040517f08c379a000000000000000000000000000000000000000000000000000000000815260206004820181905260248201527f4f776e61626c653a2063616c6c6572206973206e6f7420746865206f776e6572604482015260640161052d565b73ffffffffffffffffffffffffffffffffffffffff8381166000908152600160209081526040808320938616835292905220547fffffffffffffffffffffffffffffffffffffffffffffffffffffffffffffffff8114610b0b5781811015610afe576040517f08c379a000000000000000000000000000000000000000000000000000000000815260206004820152601d60248201527f45524332303a20696e73756666696369656e7420616c6c6f77616e6365000000604482015260640161052d565b610b0b8484848403610805565b50505050565b73ffffffffffffffffffffffffffffffffffffffff8316610bb4576040517f08c379a000000000000000000000000000000000000000000000000000000000815260206004820152602560248201527f45524332303a207472616e736665722066726f6d20746865207a65726f20616460448201527f6472657373000000000000000000000000000000000000000000000000000000606482015260840161052d565b73ffffffffffffffffffffffffffffffffffffffff8216610c57576040517f08c379a000000000000000000000000000000000000000000000000000000000815260206004820152602360248201527f45524332303a207472616e7366657220746f20746865207a65726f206164647260448201527f6573730000000000000000000000000000000000000000000000000000000000606482015260840161052d565b73ffffffffffffffffffffffffffffffffffffffff831660009081526020819052604090205481811015610d0d576040517f08c379a000000000000000000000000000000000000000000000000000000000815260206004820152602660248201527f45524332303a207472616e7366657220616d6f756e742065786365656473206260448201527f616c616e63650000000000000000000000000000000000000000000000000000606482015260840161052d565b73ffffffffffffffffffffffffffffffffffffffff848116600081815260208181526040808320878703905593871680835291849020805487019055925185815290927fddf252ad1be2c89b69c2b068fc378daa952ba7f163c4a11628f55a4df523b3ef910160405180910390a3610b0b565b73ffffffffffffffffffffffffffffffffffffffff8216610dfd576040517f08c379a000000000000000000000000000000000000000000000000000000000815260206004820152601f60248201527f45524332303a206d696e7420746f20746865207a65726f206164647265737300604482015260640161052d565b8060026000828254610e0f9190611252565b909155505073ffffffffffffffffffffffffffffffffffffffff8216600081815260208181526040808320805486019055518481527fddf252ad1be2c89b69c2b068fc378daa952ba7f163c4a11628f55a4df523b3ef910160405180910390a35050565b73ffffffffffffffffffffffffffffffffffffffff8216610f16576040517f08c379a000000000000000000000000000000000000000000000000000000000815260206004820152602160248201527f45524332303a206275726e2066726f6d20746865207a65726f2061646472657360448201527f7300000000000000000000000000000000000000000000000000000000000000606482015260840161052d565b73ffffffffffffffffffffffffffffffffffffffff821660009081526020819052604090205481811015610fcc576040517f08c379a000000000000000000000000000000000000000000000000000000000815260206004820152602260248201527f45524332303a206275726e20616d6f756e7420657863656564732062616c616e60448201527f6365000000000000000000000000000000000000000000000000000000000000606482015260840161052d565b73ffffffffffffffffffffffffffffffffffffffff83166000818152602081815260408083208686039055600280548790039055518581529192917fddf252ad1be2c89b69c2b068fc378daa952ba7f163c4a11628f55a4df523b3ef91016109ac565b6005805473ffffffffffffffffffffffffffffffffffffffff8381167fffffffffffffffffffffffff0000000000000000000000000000000000000000831681179093556040519116919082907f8be0079c531659141344cd1fd0a4f28419497f9722a3daafe3b4186f6b6457e090600090a35050565b60006020808352835180602085015260005b818110156110d4578581018301518582016040015282016110b8565b5060006040828601015260407fffffffffffffffffffffffffffffffffffffffffffffffffffffffffffffffe0601f8301168501019250505092915050565b73ffffffffffffffffffffffffffffffffffffffff8116811461041757600080fd5b6000806040838503121561114857600080fd5b823561115381611113565b946020939093013593505050565b60006020828403121561117357600080fd5b813561117e81611113565b9392505050565b60008060006060848603121561119a57600080fd5b83356111a581611113565b925060208401356111b581611113565b929592945050506040919091013590565b600080604083850312156111d957600080fd5b82356111e481611113565b915060208301356111f481611113565b809150509250929050565b600181811c9082168061121357607f821691505b60208210810361124c577f4e487b7100000000000000000000000000000000000000000000000000000000600052602260045260246000fd5b50919050565b808201808211156103c1577f4e487b7100000000000000000000000000000000000000000000000000000000600052601160045260246000fdfea26469706673582212202b66c07a5a2e1c25ded3456973c1f3b9f892f83fe0b1ec55315c0a4d7f600e8764736f6c63430008160033","linkReferences":{}},"methodIdentifiers":{"allowance(address,address)":"dd62ed3e","approve(address,uint256)":"095ea7b3","balanceOf(address)":"70a08231","burnTokensInContract()":"5730c543","collateralAndLiquidity()":"0e5c7fbb","decimals()":"313ce567","decreaseAllowance(address,uint256)":"a457c2d7","increaseAllowance(address,uint256)":"39509351","mintTo(address,uint256)":"449a52f8","name()":"06fdde03","owner()":"8da5cb5b","renounceOwnership()":"715018a6","setCollateralAndLiquidity(address)":"117986bb","symbol()":"95d89b41","totalSupply()":"18160ddd","transfer(address,uint256)":"a9059cbb","transferFrom(address,address,uint256)":"23b872dd","transferOwnership(address)":"f2fde38b"},"id":151}