{"abi":[{"type":"constructor","inputs":[{"name":"_wbtc","type":"address","internalType":"contract IERC20"},{"name":"_weth","type":"address","internalType":"contract IERC20"},{"name":"_usdc","type":"address","internalType":"contract IERC20"},{"name":"_UNISWAP_V3_WBTC_WETH","type":"address","internalType":"address"},{"name":"_UNISWAP_V3_WETH_USDC","type":"address","internalType":"address"}],"stateMutability":"nonpayable"},{"type":"function","name":"TWAP_PERIOD","inputs":[],"outputs":[{"name":"","type":"uint256","internalType":"uint256"}],"stateMutability":"view"},{"type":"function","name":"UNISWAP_V3_WBTC_WETH","inputs":[],"outputs":[{"name":"","type":"address","internalType":"contract IUniswapV3Pool"}],"stateMutability":"view"},{"type":"function","name":"UNISWAP_V3_WETH_USDC","inputs":[],"outputs":[{"name":"","type":"address","internalType":"contract IUniswapV3Pool"}],"stateMutability":"view"},{"type":"function","name":"_getUniswapTwapWei","inputs":[{"name":"pool","type":"address","internalType":"contract IUniswapV3Pool"},{"name":"twapInterval","type":"uint256","internalType":"uint256"}],"outputs":[{"name":"","type":"uint256","internalType":"uint256"}],"stateMutability":"view"},{"type":"function","name":"getPriceBTC","inputs":[],"outputs":[{"name":"","type":"uint256","internalType":"uint256"}],"stateMutability":"view"},{"type":"function","name":"getPriceETH","inputs":[],"outputs":[{"name":"","type":"uint256","internalType":"uint256"}],"stateMutability":"view"},{"type":"function","name":"getTwapWBTC","inputs":[{"name":"twapInterval","type":"uint256","internalType":"uint256"}],"outputs":[{"name":"","type":"uint256","internalType":"uint256"}],"stateMutability":"view"},{"type":"function","name":"getTwapWETH","inputs":[{"name":"twapInterval","type":"uint256","internalType":"uint256"}],"outputs":[{"name":"","type":"uint256","internalType":"uint256"}],"stateMutability":"view"},{"type":"function","name":"getUniswapTwapWei","inputs":[{"name":"pool","type":"address","internalType":"contract IUniswapV3Pool"},{"name":"twapInterval","type":"uint256","internalType":"uint256"}],"outputs":[{"name":"","type":"uint256","internalType":"uint256"}],"stateMutability":"view"},{"type":"function","name":"usdc","inputs":[],"outputs":[{"name":"","type":"address","internalType":"contract IERC20"}],"stateMutability":"view"},{"type":"function","name":"wbtc","inputs":[],"outputs":[{"name":"","type":"address","internalType":"contract IERC20"}],"stateMutability":"view"},{"type":"function","name":"wbtc_wethFlipped","inputs":[],"outputs":[{"name":"","type":"bool","internalType":"bool"}],"stateMutability":"view"},{"type":"function","name":"weth","inputs":[],"outputs":[{"name":"","type":"address","internalType":"contract IERC20"}],"stateMutability":"view"},{"type":"function","name":"weth_usdcFlipped","inputs":[],"outputs":[{"name":"","type":"bool","internalType":"bool"}],"stateMutability":"view"},{"type":"error","name":"T","inputs":[]}],"bytecode":{"object":"0x6101606040523480156200001257600080fd5b50604051620015883803806200158883398101604081905262000035916200008b565b6001600160a01b03918216608052811660a05290811661010081905292811660c0819052911660e08190529081106101205211610140526200010b565b6001600160a01b03811681146200008857600080fd5b50565b600080600080600060a08688031215620000a457600080fd5b8551620000b18162000072565b6020870151909550620000c48162000072565b6040870151909450620000d78162000072565b6060870151909350620000ea8162000072565b6080870151909250620000fd8162000072565b809150509295509295909350565b60805160a05160c05160e0516101005161012051610140516113f8620001906000396000818161010f0152818161077a01526108780152600081816102510152610836015260006101b9015260006101e0015260006101460152600081816101920152818161074001526107f301526000818161028b01526107c501526113f86000f3fe608060405234801561001057600080fd5b50600436106100ea5760003560e01c80635ba7c62e1161008c5780637ca25184116100665780637ca25184146102435780637ff5aef81461024c578063ad09702e14610273578063f9af08dd1461028657600080fd5b80635ba7c62e1461021557806367de08a71461021d57806373c148141461023057600080fd5b80633d744095116100c85780633d7440951461018d5780633e413bee146101b45780633fc8cef3146101db5780635865d1241461020257600080fd5b8063039ba6be146100ef57806316cf56bb1461010a5780633cdc538914610141575b600080fd5b6100f76102ad565b6040519081526020015b60405180910390f35b6101317f000000000000000000000000000000000000000000000000000000000000000081565b6040519015158152602001610101565b6101687f000000000000000000000000000000000000000000000000000000000000000081565b60405173ffffffffffffffffffffffffffffffffffffffff9091168152602001610101565b6101687f000000000000000000000000000000000000000000000000000000000000000081565b6101687f000000000000000000000000000000000000000000000000000000000000000081565b6101687f000000000000000000000000000000000000000000000000000000000000000081565b6100f7610210366004610e22565b6102bf565b6100f761072b565b6100f761022b366004610e4e565b610738565b6100f761023e366004610e4e565b6107bd565b6100f761070881565b6101317f000000000000000000000000000000000000000000000000000000000000000081565b6100f7610281366004610e22565b6108dc565b6101687f000000000000000000000000000000000000000000000000000000000000000081565b60006102ba610708610738565b905090565b6040805160028082526060820183526000928392919060208301908036833701905050905082816000815181106102f8576102f8610e96565b602002602001019063ffffffff16908163ffffffff168152505060008160018151811061032757610327610e96565b63ffffffff909216602092830291909101909101526040517f883bdbfd00000000000000000000000000000000000000000000000000000000815260009073ffffffffffffffffffffffffffffffffffffffff86169063883bdbfd90610391908590600401610ec5565b600060405180830381865afa1580156103ae573d6000803e3d6000fd5b505050506040513d6000823e601f3d9081017fffffffffffffffffffffffffffffffffffffffffffffffffffffffffffffffe01682016040526103f49190810190610ffa565b5090506000848260008151811061040d5761040d610e96565b60200260200101518360018151811061042857610428610e96565b602002602001015161043a91906110f5565b6104449190611169565b90506000610451826109c6565b9050600061048373ffffffffffffffffffffffffffffffffffffffff8316806c01000000000000000000000000610d2d565b905060008873ffffffffffffffffffffffffffffffffffffffff16630dfe16816040518163ffffffff1660e01b8152600401602060405180830381865afa1580156104d2573d6000803e3d6000fd5b505050506040513d601f19601f820116820180604052508101906104f691906111dd565b73ffffffffffffffffffffffffffffffffffffffff1663313ce5676040518163ffffffff1660e01b8152600401602060405180830381865afa158015610540573d6000803e3d6000fd5b505050506040513d601f19601f8201168201806040525081019061056491906111fa565b905060008973ffffffffffffffffffffffffffffffffffffffff1663d21220a76040518163ffffffff1660e01b8152600401602060405180830381865afa1580156105b3573d6000803e3d6000fd5b505050506040513d601f19601f820116820180604052508101906105d791906111dd565b73ffffffffffffffffffffffffffffffffffffffff1663313ce5676040518163ffffffff1660e01b8152600401602060405180830381865afa158015610621573d6000803e3d6000fd5b505050506040513d601f19601f8201168201806040525081019061064591906111fa565b90508160ff168160ff16111561069b5761068d8261066483601261121d565b61066e9190611236565b61067990600a61136f565b6c0100000000000000000000000085610d2d565b975050505050505050610725565b8060ff168260ff1611156106f1576106b38183611236565b6106be90600a61136f565b6106c8908461137e565b6106e76c01000000000000000000000000670de0b6b3a764000061137e565b61068d9190611395565b826107116c01000000000000000000000000670de0b6b3a764000061137e565b61071b9190611395565b9750505050505050505b92915050565b60006102ba6107086107bd565b6000806107657f0000000000000000000000000000000000000000000000000000000000000000846108dc565b9050806000036107785750600092915050565b7f0000000000000000000000000000000000000000000000000000000000000000610725576107b6816ec097ce7bc90715b34b9f1000000000611395565b9392505050565b6000806107ea7f0000000000000000000000000000000000000000000000000000000000000000846108dc565b905060006108187f0000000000000000000000000000000000000000000000000000000000000000856108dc565b9050811580610825575080155b15610834575060009392505050565b7f00000000000000000000000000000000000000000000000000000000000000001561087657610873826ec097ce7bc90715b34b9f1000000000611395565b91505b7f00000000000000000000000000000000000000000000000000000000000000006108b7576108b4816ec097ce7bc90715b34b9f1000000000611395565b90505b816108ca82670de0b6b3a764000061137e565b6108d49190611395565b949350505050565b6040517f5865d12400000000000000000000000000000000000000000000000000000000815273ffffffffffffffffffffffffffffffffffffffff831660048201526024810182905260009081903090635865d12490604401602060405180830381865afa92505050801561098c575060408051601f3d9081017fffffffffffffffffffffffffffffffffffffffffffffffffffffffffffffffe0168201909252610989918101906113a9565b60015b6108d4573d8080156109ba576040519150601f19603f3d011682016040523d82523d6000602084013e6109bf565b606091505b50506107b6565b60008060008360020b126109dd578260020b6109e5565b8260020b6000035b9050620d89e8811115610a24576040517f2bc80f3a00000000000000000000000000000000000000000000000000000000815260040160405180910390fd5b600081600116600003610a4857700100000000000000000000000000000000610a5a565b6ffffcb933bd6fad37aa2d162d1a5940015b70ffffffffffffffffffffffffffffffffff1690506002821615610a8e576ffff97272373d413259a46990580e213a0260801c5b6004821615610aad576ffff2e50f5f656932ef12357cf3c7fdcc0260801c5b6008821615610acc576fffe5caca7e10e4e61c3624eaa0941cd00260801c5b6010821615610aeb576fffcb9843d60f6159c9db58835c9266440260801c5b6020821615610b0a576fff973b41fa98c081472e6896dfb254c00260801c5b6040821615610b29576fff2ea16466c96a3843ec78b326b528610260801c5b6080821615610b48576ffe5dee046a99a2a811c461f1969c30530260801c5b610100821615610b68576ffcbe86c7900a88aedcffc83b479aa3a40260801c5b610200821615610b88576ff987a7253ac413176f2b074cf7815e540260801c5b610400821615610ba8576ff3392b0822b70005940c7a398e4b70f30260801c5b610800821615610bc8576fe7159475a2c29b7443b29c7fa6e889d90260801c5b611000821615610be8576fd097f3bdfd2022b8845ad8f792aa58250260801c5b612000821615610c08576fa9f746462d870fdf8a65dc1f90e061e50260801c5b614000821615610c28576f70d869a156d2a1b890bb3df62baf32f70260801c5b618000821615610c48576f31be135f97d08fd981231505542fcfa60260801c5b62010000821615610c69576f09aa508b5b7a84e1c677de54f3e99bc90260801c5b62020000821615610c89576e5d6af8dedb81196699c329225ee6040260801c5b62040000821615610ca8576d2216e584f5fa1ea926041bedfe980260801c5b62080000821615610cc5576b048a170391f7dc42444e8fa20260801c5b60008460020b1315610d0457807fffffffffffffffffffffffffffffffffffffffffffffffffffffffffffffffff81610d0057610d0061113a565b0490505b640100000000810615610d18576001610d1b565b60005b60ff16602082901c0192505050919050565b600080807fffffffffffffffffffffffffffffffffffffffffffffffffffffffffffffffff85870985870292508281108382030391505080600003610d845760008411610d7957600080fd5b5082900490506107b6565b808411610d9057600080fd5b6000848688096000868103871696879004966002600389028118808a02820302808a02820302808a02820302808a02820302808a02820302808a02909103029181900381900460010186841190950394909402919094039290920491909117919091029150509392505050565b73ffffffffffffffffffffffffffffffffffffffff81168114610e1f57600080fd5b50565b60008060408385031215610e3557600080fd5b8235610e4081610dfd565b946020939093013593505050565b600060208284031215610e6057600080fd5b5035919050565b7f4e487b7100000000000000000000000000000000000000000000000000000000600052604160045260246000fd5b7f4e487b7100000000000000000000000000000000000000000000000000000000600052603260045260246000fd5b6020808252825182820181905260009190848201906040850190845b81811015610f0357835163ffffffff1683529284019291840191600101610ee1565b50909695505050505050565b604051601f82017fffffffffffffffffffffffffffffffffffffffffffffffffffffffffffffffe016810167ffffffffffffffff81118282101715610f5657610f56610e67565b604052919050565b600067ffffffffffffffff821115610f7857610f78610e67565b5060051b60200190565b600082601f830112610f9357600080fd5b81516020610fa8610fa383610f5e565b610f0f565b8083825260208201915060208460051b870101935086841115610fca57600080fd5b602086015b84811015610fef578051610fe281610dfd565b8352918301918301610fcf565b509695505050505050565b6000806040838503121561100d57600080fd5b825167ffffffffffffffff8082111561102557600080fd5b818501915085601f83011261103957600080fd5b81516020611049610fa383610f5e565b82815260059290921b8401810191818101908984111561106857600080fd5b948201945b838610156110965785518060060b81146110875760008081fd5b8252948201949082019061106d565b918801519196509093505050808211156110af57600080fd5b506110bc85828601610f82565b9150509250929050565b7f4e487b7100000000000000000000000000000000000000000000000000000000600052601160045260246000fd5b600682810b9082900b037fffffffffffffffffffffffffffffffffffffffffffffffffff800000000000008112667fffffffffffff82131715610725576107256110c6565b7f4e487b7100000000000000000000000000000000000000000000000000000000600052601260045260246000fd5b60008160060b8360060b806111805761118061113a565b7fffffffffffffffffffffffffffffffffffffffffffffffffffffffffffffffff81147fffffffffffffffffffffffffffffffffffffffffffffffffff80000000000000831416156111d4576111d46110c6565b90059392505050565b6000602082840312156111ef57600080fd5b81516107b681610dfd565b60006020828403121561120c57600080fd5b815160ff811681146107b657600080fd5b60ff8181168382160190811115610725576107256110c6565b60ff8281168282160390811115610725576107256110c6565b600181815b808511156112a857817fffffffffffffffffffffffffffffffffffffffffffffffffffffffffffffffff0482111561128e5761128e6110c6565b8085161561129b57918102915b93841c9390800290611254565b509250929050565b6000826112bf57506001610725565b816112cc57506000610725565b81600181146112e257600281146112ec57611308565b6001915050610725565b60ff8411156112fd576112fd6110c6565b50506001821b610725565b5060208310610133831016604e8410600b841016171561132b575081810a610725565b611335838361124f565b807fffffffffffffffffffffffffffffffffffffffffffffffffffffffffffffffff04821115611367576113676110c6565b029392505050565b60006107b660ff8416836112b0565b8082028115828204841417610725576107256110c6565b6000826113a4576113a461113a565b500490565b6000602082840312156113bb57600080fd5b505191905056fea26469706673582212201cf03ed572be0f7b9aa6b4128a3e7f0d2215d7464d302bb75e9a19970508ac1b64736f6c63430008160033","linkReferences":{}},"methodIdentifiers":{"TWAP_PERIOD()":"7ca25184","UNISWAP_V3_WBTC_WETH()":"f9af08dd","UNISWAP_V3_WETH_USDC()":"3d744095","_getUniswapTwapWei(address,uint256)":"5865d124","getPriceBTC()":"5ba7c62e","getPriceETH()":"039ba6be","getTwapWBTC(uint256)":"73c14814","getTwapWETH(uint256)":"67de08a7","getUniswapTwapWei(address,uint256)":"ad09702e","usdc()":"3e413bee","wbtc()":"3cdc5389","wbtc_wethFlipped()":"7ff5aef8","weth()":"3fc8cef3","weth_usdcFlipped()":"16cf56bb"},"id":102}