{"abi":[{"type":"function","name":"DUST","inputs":[],"outputs":[{"name":"","type":"uint256","internalType":"uint256"}],"stateMutability":"view"},{"type":"function","name":"STAKED_SALT","inputs":[],"outputs":[{"name":"","type":"bytes32","internalType":"bytes32"}],"stateMutability":"view"}],"bytecode":{"object":"0x6098610038600b82828239805160001a607314602b57634e487b7160e01b600052600060045260246000fd5b30600052607381538281f3fe7300000000000000000000000000000000000000003014608060405260043610603d5760003560e01c80634e0cd79914604257806374766e7414605b575b600080fd5b6049606481565b60405190815260200160405180910390f35b604960008156fea264697066735822122091d71b88e31d34d3fdd6d22d8c7c3e11dded68160aeb502772a06065730b86d964736f6c63430008160033","linkReferences":{}},"methodIdentifiers":{"DUST()":"4e0cd799","STAKED_SALT()":"74766e74"},"id":89}