{"abi":[{"type":"constructor","inputs":[{"name":"_staking","type":"address","internalType":"contract IStaking"},{"name":"_exchangeConfig","type":"address","internalType":"contract IExchangeConfig"},{"name":"_poolsConfig","type":"address","internalType":"contract IPoolsConfig"},{"name":"_daoConfig","type":"address","internalType":"contract IDAOConfig"}],"stateMutability":"nonpayable"},{"type":"function","name":"ballotForID","inputs":[{"name":"ballotID","type":"uint256","internalType":"uint256"}],"outputs":[{"name":"","type":"tuple","internalType":"struct Ballot","components":[{"name":"ballotID","type":"uint256","internalType":"uint256"},{"name":"ballotIsLive","type":"bool","internalType":"bool"},{"name":"ballotType","type":"uint8","internalType":"enum BallotType"},{"name":"ballotName","type":"string","internalType":"string"},{"name":"address1","type":"address","internalType":"address"},{"name":"number1","type":"uint256","internalType":"uint256"},{"name":"string1","type":"string","internalType":"string"},{"name":"description","type":"string","internalType":"string"},{"name":"ballotMinimumEndTime","type":"uint256","internalType":"uint256"}]}],"stateMutability":"view"},{"type":"function","name":"ballotIsApproved","inputs":[{"name":"ballotID","type":"uint256","internalType":"uint256"}],"outputs":[{"name":"","type":"bool","internalType":"bool"}],"stateMutability":"view"},{"type":"function","name":"ballots","inputs":[{"name":"","type":"uint256","internalType":"uint256"}],"outputs":[{"name":"ballotID","type":"uint256","internalType":"uint256"},{"name":"ballotIsLive","type":"bool","internalType":"bool"},{"name":"ballotType","type":"uint8","internalType":"enum BallotType"},{"name":"ballotName","type":"string","internalType":"string"},{"name":"address1","type":"address","internalType":"address"},{"name":"number1","type":"uint256","internalType":"uint256"},{"name":"string1","type":"string","internalType":"string"},{"name":"description","type":"string","internalType":"string"},{"name":"ballotMinimumEndTime","type":"uint256","internalType":"uint256"}],"stateMutability":"view"},{"type":"function","name":"canFinalizeBallot","inputs":[{"name":"ballotID","type":"uint256","internalType":"uint256"}],"outputs":[{"name":"","type":"bool","internalType":"bool"}],"stateMutability":"view"},{"type":"function","name":"castVote","inputs":[{"name":"ballotID","type":"uint256","internalType":"uint256"},{"name":"vote","type":"uint8","internalType":"enum Vote"}],"outputs":[],"stateMutability":"nonpayable"},{"type":"function","name":"createConfirmationProposal","inputs":[{"name":"ballotName","type":"string","internalType":"string"},{"name":"ballotType","type":"uint8","internalType":"enum BallotType"},{"name":"address1","type":"address","internalType":"address"},{"name":"string1","type":"string","internalType":"string"},{"name":"description","type":"string","internalType":"string"}],"outputs":[{"name":"ballotID","type":"uint256","internalType":"uint256"}],"stateMutability":"nonpayable"},{"type":"function","name":"daoConfig","inputs":[],"outputs":[{"name":"","type":"address","internalType":"contract IDAOConfig"}],"stateMutability":"view"},{"type":"function","name":"exchangeConfig","inputs":[],"outputs":[{"name":"","type":"address","internalType":"contract IExchangeConfig"}],"stateMutability":"view"},{"type":"function","name":"lastUserVoteForBallot","inputs":[{"name":"ballotID","type":"uint256","internalType":"uint256"},{"name":"user","type":"address","internalType":"address"}],"outputs":[{"name":"","type":"tuple","internalType":"struct UserVote","components":[{"name":"vote","type":"uint8","internalType":"enum Vote"},{"name":"votingPower","type":"uint256","internalType":"uint256"}]}],"stateMutability":"view"},{"type":"function","name":"markBallotAsFinalized","inputs":[{"name":"ballotID","type":"uint256","internalType":"uint256"}],"outputs":[],"stateMutability":"nonpayable"},{"type":"function","name":"nextBallotID","inputs":[],"outputs":[{"name":"","type":"uint256","internalType":"uint256"}],"stateMutability":"view"},{"type":"function","name":"openBallots","inputs":[],"outputs":[{"name":"","type":"uint256[]","internalType":"uint256[]"}],"stateMutability":"view"},{"type":"function","name":"openBallotsByName","inputs":[{"name":"","type":"string","internalType":"string"}],"outputs":[{"name":"","type":"uint256","internalType":"uint256"}],"stateMutability":"view"},{"type":"function","name":"openBallotsForTokenWhitelisting","inputs":[],"outputs":[{"name":"","type":"uint256[]","internalType":"uint256[]"}],"stateMutability":"view"},{"type":"function","name":"poolsConfig","inputs":[],"outputs":[{"name":"","type":"address","internalType":"contract IPoolsConfig"}],"stateMutability":"view"},{"type":"function","name":"proposeCallContract","inputs":[{"name":"contractAddress","type":"address","internalType":"address"},{"name":"number","type":"uint256","internalType":"uint256"},{"name":"description","type":"string","internalType":"string"}],"outputs":[{"name":"ballotID","type":"uint256","internalType":"uint256"}],"stateMutability":"nonpayable"},{"type":"function","name":"proposeCountryExclusion","inputs":[{"name":"country","type":"string","internalType":"string"},{"name":"description","type":"string","internalType":"string"}],"outputs":[{"name":"ballotID","type":"uint256","internalType":"uint256"}],"stateMutability":"nonpayable"},{"type":"function","name":"proposeCountryInclusion","inputs":[{"name":"country","type":"string","internalType":"string"},{"name":"description","type":"string","internalType":"string"}],"outputs":[{"name":"ballotID","type":"uint256","internalType":"uint256"}],"stateMutability":"nonpayable"},{"type":"function","name":"proposeParameterBallot","inputs":[{"name":"parameterType","type":"uint256","internalType":"uint256"},{"name":"description","type":"string","internalType":"string"}],"outputs":[{"name":"ballotID","type":"uint256","internalType":"uint256"}],"stateMutability":"nonpayable"},{"type":"function","name":"proposeSendSALT","inputs":[{"name":"wallet","type":"address","internalType":"address"},{"name":"amount","type":"uint256","internalType":"uint256"},{"name":"description","type":"string","internalType":"string"}],"outputs":[{"name":"ballotID","type":"uint256","internalType":"uint256"}],"stateMutability":"nonpayable"},{"type":"function","name":"proposeSetContractAddress","inputs":[{"name":"contractName","type":"string","internalType":"string"},{"name":"newAddress","type":"address","internalType":"address"},{"name":"description","type":"string","internalType":"string"}],"outputs":[{"name":"ballotID","type":"uint256","internalType":"uint256"}],"stateMutability":"nonpayable"},{"type":"function","name":"proposeTokenUnwhitelisting","inputs":[{"name":"token","type":"address","internalType":"contract IERC20"},{"name":"tokenIconURL","type":"string","internalType":"string"},{"name":"description","type":"string","internalType":"string"}],"outputs":[{"name":"ballotID","type":"uint256","internalType":"uint256"}],"stateMutability":"nonpayable"},{"type":"function","name":"proposeTokenWhitelisting","inputs":[{"name":"token","type":"address","internalType":"contract IERC20"},{"name":"tokenIconURL","type":"string","internalType":"string"},{"name":"description","type":"string","internalType":"string"}],"outputs":[{"name":"_ballotID","type":"uint256","internalType":"uint256"}],"stateMutability":"nonpayable"},{"type":"function","name":"proposeWebsiteUpdate","inputs":[{"name":"newWebsiteURL","type":"string","internalType":"string"},{"name":"description","type":"string","internalType":"string"}],"outputs":[{"name":"ballotID","type":"uint256","internalType":"uint256"}],"stateMutability":"nonpayable"},{"type":"function","name":"requiredQuorumForBallotType","inputs":[{"name":"ballotType","type":"uint8","internalType":"enum BallotType"}],"outputs":[{"name":"requiredQuorum","type":"uint256","internalType":"uint256"}],"stateMutability":"view"},{"type":"function","name":"salt","inputs":[],"outputs":[{"name":"","type":"address","internalType":"contract ISalt"}],"stateMutability":"view"},{"type":"function","name":"staking","inputs":[],"outputs":[{"name":"","type":"address","internalType":"contract IStaking"}],"stateMutability":"view"},{"type":"function","name":"tokenWhitelistingBallotWithTheMostVotes","inputs":[],"outputs":[{"name":"","type":"uint256","internalType":"uint256"}],"stateMutability":"view"},{"type":"function","name":"totalVotesCastForBallot","inputs":[{"name":"ballotID","type":"uint256","internalType":"uint256"}],"outputs":[{"name":"","type":"uint256","internalType":"uint256"}],"stateMutability":"view"},{"type":"function","name":"userHasActiveProposal","inputs":[{"name":"user","type":"address","internalType":"address"}],"outputs":[{"name":"","type":"bool","internalType":"bool"}],"stateMutability":"view"},{"type":"function","name":"votesCastForBallot","inputs":[{"name":"ballotID","type":"uint256","internalType":"uint256"},{"name":"vote","type":"uint8","internalType":"enum Vote"}],"outputs":[{"name":"","type":"uint256","internalType":"uint256"}],"stateMutability":"view"},{"type":"function","name":"winningParameterVote","inputs":[{"name":"ballotID","type":"uint256","internalType":"uint256"}],"outputs":[{"name":"","type":"uint8","internalType":"enum Vote"}],"stateMutability":"view"},{"type":"event","name":"BallotFinalized","inputs":[{"name":"ballotID","type":"uint256","indexed":true,"internalType":"uint256"}],"anonymous":false},{"type":"event","name":"ProposalCreated","inputs":[{"name":"ballotID","type":"uint256","indexed":true,"internalType":"uint256"},{"name":"ballotType","type":"uint8","indexed":false,"internalType":"enum BallotType"},{"name":"ballotName","type":"string","indexed":false,"internalType":"string"}],"anonymous":false},{"type":"event","name":"VoteCast","inputs":[{"name":"voter","type":"address","indexed":true,"internalType":"address"},{"name":"ballotID","type":"uint256","indexed":true,"internalType":"uint256"},{"name":"vote","type":"uint8","indexed":false,"internalType":"enum Vote"},{"name":"votingPower","type":"uint256","indexed":false,"internalType":"uint256"}],"anonymous":false}],"bytecode":{"object":"0x61014060405260016003556200001942623b5380620000ee565b610120523480156200002a57600080fd5b5060405162005ca238038062005ca28339810160408190526200004d916200012f565b60016000556001600160a01b0380851660805283811660a081905283821660c05290821660e0526040805163bfa0b13360e01b8152905163bfa0b133916004808201926020929091908290030181865afa158015620000b0573d6000803e3d6000fd5b505050506040513d601f19601f82011682018060405250810190620000d6919062000197565b6001600160a01b03166101005250620001be92505050565b808201808211156200011057634e487b7160e01b600052601160045260246000fd5b92915050565b6001600160a01b03811681146200012c57600080fd5b50565b600080600080608085870312156200014657600080fd5b8451620001538162000116565b6020860151909450620001668162000116565b6040860151909350620001798162000116565b60608601519092506200018c8162000116565b939692955090935050565b600060208284031215620001aa57600080fd5b8151620001b78162000116565b9392505050565b60805160a05160c05160e05161010051610120516159c9620002d96000396000613bd201526000610491015260008181610563015281816130ab0152818161319a015281816132380152818161357a01528181613de3015261421d015260008181610336015281816122b5015281816136ac0152818161373b015261383d01526000818161023a015281816116a201528181611fb50152818161205f015281816122f2015281816123810152818161251f01528181612628015281816127310152818161283a0152818161294301528181612b3c015281816132eb0152818161387a015281816139090152613c6801526000818161030f015281816113bf01528181612f9401528181613d590152613f0e01526159c96000f3fe608060405234801561001057600080fd5b50600436106101f05760003560e01c806369907b751161010f578063cae26e5d116100a2578063e671f77711610071578063e671f777146104ff578063ebf2e8bd14610538578063f26c5f561461054b578063fa05dd001461055e57600080fd5b8063cae26e5d146104b3578063d095a4d5146104c6578063d8782dae146104d9578063e2fb7e09146104ec57600080fd5b80639af712e4116100de5780639af712e41461043b578063ac4236ae1461044e578063b43f4e1014610479578063bfa0b1331461048c57600080fd5b806369907b75146103b057806384526cec146103c3578063880d266c146104085780639534c9f31461041b57600080fd5b8063450748871161018757806356781388116101565780635678138814610358578063568d86d71461036d5780635c4db523146103805780635c632b381461038857600080fd5b806345074887146102d75780634b844692146102f75780634cf088d91461030a57806352c19b5a1461033157600080fd5b8063312aab9e116101c3578063312aab9e146102965780633b958e2f146102a95780633c2edb39146102bc5780633f276a84146102cf57600080fd5b80630bb44e76146101f55780630bc88fed1461021e5780630e2789bb146102355780632bd3256414610281575b600080fd5b610208610203366004614b53565b610585565b6040516102159190614baf565b60405180910390f35b61022760035481565b604051908152602001610215565b61025c7f000000000000000000000000000000000000000000000000000000000000000081565b60405173ffffffffffffffffffffffffffffffffffffffff9091168152602001610215565b6102896105f8565b6040516102159190614bbd565b6102276102a4366004614b53565b610609565b6102276102b7366004614c4a565b6108e7565b6102276102ca366004614cb6565b610a18565b610227610ab6565b6102ea6102e5366004614b53565b610b4b565b6040516102159190614d80565b610227610305366004614e93565b610e0c565b61025c7f000000000000000000000000000000000000000000000000000000000000000081565b61025c7f000000000000000000000000000000000000000000000000000000000000000081565b61036b610366366004614f18565b610f30565b005b61036b61037b366004614b53565b611698565b6102896118e0565b61039b610396366004614b53565b6118ec565b60405161021599989796959493929190614f4c565b6102276103be366004614c4a565b611af1565b6103f86103d1366004614b53565b60009081526008602090815260408083206004845290915280822054600383529120541190565b6040519015158152602001610215565b6103f8610416366004614b53565b611c10565b61042e610429366004614fdd565b611ebb565b6040516102159190615002565b610227610449366004615023565b611f44565b61022761045c3660046150a2565b805160208183018101805160018252928201919093012091525481565b610227610487366004615171565b6122a9565b61025c7f000000000000000000000000000000000000000000000000000000000000000081565b6102276104c1366004614f18565b612aef565b6102276104d43660046151ea565b612b38565b6102276104e7366004615023565b612d21565b6102276104fa366004614c4a565b612e32565b6103f861050d3660046152ac565b73ffffffffffffffffffffffffffffffffffffffff166000908152600a602052604090205460ff1690565b6102276105463660046152c9565b612f60565b610227610559366004615171565b613418565b61025c7f000000000000000000000000000000000000000000000000000000000000000081565b6000818152600860209081526040808320838052918290528083205460018452818420546002855291842054909190818311156105d057808311156105d05750600095945050505050565b828211156105ec57808211156105ec5750600195945050505050565b50600295945050505050565b60606106046006613b68565b905090565b60008181526008602090815260408083206002835281842082516101208101845281548152600182015460ff80821615159683019690965292948694919391840191610100900416600a81111561066257610662614b6c565b600a81111561067357610673614b6c565b8152602001600282018054610687906152e4565b80601f01602080910402602001604051908101604052809291908181526020018280546106b3906152e4565b80156107005780601f106106d557610100808354040283529160200191610700565b820191906000526020600020905b8154815290600101906020018083116106e357829003601f168201915b5050509183525050600382015473ffffffffffffffffffffffffffffffffffffffff16602082015260048201546040820152600582018054606090920191610747906152e4565b80601f0160208091040260200160405190810160405280929190818152602001828054610773906152e4565b80156107c05780601f10610795576101008083540402835291602001916107c0565b820191906000526020600020905b8154815290600101906020018083116107a357829003601f168201915b505050505081526020016006820180546107d9906152e4565b80601f0160208091040260200160405190810160405280929190818152602001828054610805906152e4565b80156108525780601f1061082757610100808354040283529160200191610852565b820191906000526020600020905b81548152906001019060200180831161083557829003601f168201915b505050918352505060079190910154602090910152905060008160400151600a81111561088157610881614b6c565b036108c457600260009081526020839052604080822054600183528183205483805291909220546108b29190615366565b6108bc9190615366565b949350505050565b600460009081526020839052604080822054600383529120546108bc9190615366565b60006108f1613b75565b6002841461096c5760405162461bcd60e51b815260206004820152602860248201527f436f756e747279206d75737420626520616e2049534f203331363620416c706860448201527f612d3220436f646500000000000000000000000000000000000000000000000060648201526084015b60405180910390fd5b60008585604051602001610981929190615379565b6040516020818303038152906040529050610a0b8160056000808a8a8080601f01602080910402602001604051908101604052809392919081815260200183838082843760009201919091525050604080516020601f8e018190048102820181019092528c815292508c91508b9081908401838280828437600092019190915250613bce92505050565b9150506108bc6001600055565b6000610a22613b75565b6000610a2d85614571565b604051602001610a3d91906153b2565b6040516020818303038152906040529050610aa281600080886040518060200160405280600081525089898080601f016020809104026020016040519081016040528093929190818152602001838380828437600092019190915250613bce92505050565b915050610aaf6001600055565b9392505050565b600080610ac36001612f60565b905060008060005b610ad5600661462f565b811015610b42576000610ae9600683614639565b60008181526008602090815260408083206003845290915280822054600483529120549192509086610b1b8284615366565b10610b375780821115610b375784821115610b37578295508194505b505050600101610acb565b50909392505050565b610bb060408051610120810182526000808252602082018190529091820190815260200160608152602001600073ffffffffffffffffffffffffffffffffffffffff168152602001600081526020016060815260200160608152602001600081525090565b60008281526002602090815260409182902082516101208101845281548152600182015460ff808216151594830194909452909391929184019161010090910416600a811115610c0257610c02614b6c565b600a811115610c1357610c13614b6c565b8152602001600282018054610c27906152e4565b80601f0160208091040260200160405190810160405280929190818152602001828054610c53906152e4565b8015610ca05780601f10610c7557610100808354040283529160200191610ca0565b820191906000526020600020905b815481529060010190602001808311610c8357829003601f168201915b5050509183525050600382015473ffffffffffffffffffffffffffffffffffffffff16602082015260048201546040820152600582018054606090920191610ce7906152e4565b80601f0160208091040260200160405190810160405280929190818152602001828054610d13906152e4565b8015610d605780601f10610d3557610100808354040283529160200191610d60565b820191906000526020600020905b815481529060010190602001808311610d4357829003601f168201915b50505050508152602001600682018054610d79906152e4565b80601f0160208091040260200160405190810160405280929190818152602001828054610da5906152e4565b8015610df25780601f10610dc757610100808354040283529160200191610df2565b820191906000526020600020905b815481529060010190602001808311610dd557829003601f168201915b505050505081526020016007820154815250509050919050565b6000610e16613b75565b73ffffffffffffffffffffffffffffffffffffffff8416610e9f5760405162461bcd60e51b815260206004820152602560248201527f50726f706f73656420616464726573732063616e6e6f7420626520616464726560448201527f73732830290000000000000000000000000000000000000000000000000000006064820152608401610963565b60008686604051602001610eb49291906153f7565b6040516020818303038152906040529050610f1a8160078760006040518060200160405280600081525089898080601f016020809104026020016040519081016040528093929190818152602001838380828437600092019190915250613bce92505050565b915050610f276001600055565b95945050505050565b610f38613b75565b600082815260026020908152604080832081516101208101835281548152600182015460ff8082161515958301959095529093919284019161010090910416600a811115610f8857610f88614b6c565b600a811115610f9957610f99614b6c565b8152602001600282018054610fad906152e4565b80601f0160208091040260200160405190810160405280929190818152602001828054610fd9906152e4565b80156110265780601f10610ffb57610100808354040283529160200191611026565b820191906000526020600020905b81548152906001019060200180831161100957829003601f168201915b5050509183525050600382015473ffffffffffffffffffffffffffffffffffffffff1660208201526004820154604082015260058201805460609092019161106d906152e4565b80601f0160208091040260200160405190810160405280929190818152602001828054611099906152e4565b80156110e65780601f106110bb576101008083540402835291602001916110e6565b820191906000526020600020905b8154815290600101906020018083116110c957829003601f168201915b505050505081526020016006820180546110ff906152e4565b80601f016020809104026020016040519081016040528092919081815260200182805461112b906152e4565b80156111785780601f1061114d57610100808354040283529160200191611178565b820191906000526020600020905b81548152906001019060200180831161115b57829003601f168201915b50505050508152602001600782015481525050905080602001516112045760405162461bcd60e51b815260206004820152602b60248201527f546865207370656369666965642062616c6c6f74206973206e6f74206f70656e60448201527f20666f7220766f74696e670000000000000000000000000000000000000000006064820152608401610963565b60008160400151600a81111561121c5761121c614b6c565b036112e557600082600481111561123557611235614b6c565b14806112525750600182600481111561125057611250614b6c565b145b8061126e5750600282600481111561126c5761126c614b6c565b145b6112e05760405162461bcd60e51b815260206004820152602560248201527f496e76616c696420566f74655479706520666f7220506172616d65746572204260448201527f616c6c6f740000000000000000000000000000000000000000000000000000006064820152608401610963565b611387565b60038260048111156112f9576112f9614b6c565b14806113165750600482600481111561131457611314614b6c565b145b6113875760405162461bcd60e51b8152602060048201526024808201527f496e76616c696420566f74655479706520666f7220417070726f76616c20426160448201527f6c6c6f74000000000000000000000000000000000000000000000000000000006064820152608401610963565b6040517f97146776000000000000000000000000000000000000000000000000000000008152336004820152600060248201819052907f000000000000000000000000000000000000000000000000000000000000000073ffffffffffffffffffffffffffffffffffffffff1690639714677690604401602060405180830381865afa15801561141b573d6000803e3d6000fd5b505050506040513d601f19601f8201168201806040525081019061143f9190615430565b9050600081116114915760405162461bcd60e51b815260206004820152601c60248201527f5374616b65642053414c5420726571756972656420746f20766f7465000000006044820152606401610963565b600084815260096020908152604080832033845290915280822081518083019092528054829060ff1660048111156114cb576114cb614b6c565b60048111156114dc576114dc614b6c565b81526001919091015460209182015281015190915015611555576020808201516000878152600890925260408220835191929091600481111561152157611521614b6c565b600481111561153257611532614b6c565b8152602001908152602001600020600082825461154f9190615449565b90915550505b6000858152600860205260408120839186600481111561157757611577614b6c565b600481111561158857611588614b6c565b815260200190815260200160002060008282546115a59190615366565b9250508190555060405180604001604052808560048111156115c9576115c9614b6c565b815260209081018490526000878152600982526040808220338352909252208151815482907fffffffffffffffffffffffffffffffffffffffffffffffffffffffffffffff0016600183600481111561162457611624614b6c565b021790555060208201518160010155905050843373ffffffffffffffffffffffffffffffffffffffff167f2c9deb38f462962eadbd85a9d3a4120503ee091f1582eaaa10aa8c6797651d29868560405161167f92919061545c565b60405180910390a35050506116946001600055565b5050565b6116a0613b75565b7f000000000000000000000000000000000000000000000000000000000000000073ffffffffffffffffffffffffffffffffffffffff16634162169f6040518163ffffffff1660e01b8152600401602060405180830381865afa15801561170b573d6000803e3d6000fd5b505050506040513d601f19601f8201168201806040525081019061172f9190615477565b73ffffffffffffffffffffffffffffffffffffffff163373ffffffffffffffffffffffffffffffffffffffff16146117cf5760405162461bcd60e51b815260206004820152602b60248201527f4f6e6c79207468652044414f2063616e206d61726b20612062616c6c6f74206160448201527f732066696e616c697a65640000000000000000000000000000000000000000006064820152608401610963565b6000818152600260205260409020600180820154610100900460ff16600a8111156117fc576117fc614b6c565b0361180e5761180c600683614645565b505b611819600483614645565b50600180820180547fffffffffffffffffffffffffffffffffffffffffffffffffffffffffffffff009081169091556000848152600b602090815260408083205473ffffffffffffffffffffffffffffffffffffffff16808452600a90925291829020805490931690925551909190611896906002850190615494565b90815260405190819003602001812060009081905584917fd470bb0d3dcb39ff5a62757e0a1cdfe60f8200eba22fd0d82383630d457f86869190a250506118dd6001600055565b50565b60606106046004613b68565b6002602081905260009182526040909120805460018201549282018054919360ff808216946101009092041692909190611925906152e4565b80601f0160208091040260200160405190810160405280929190818152602001828054611951906152e4565b801561199e5780601f106119735761010080835404028352916020019161199e565b820191906000526020600020905b81548152906001019060200180831161198157829003601f168201915b5050505060038301546004840154600585018054949573ffffffffffffffffffffffffffffffffffffffff90931694919350906119da906152e4565b80601f0160208091040260200160405190810160405280929190818152602001828054611a06906152e4565b8015611a535780601f10611a2857610100808354040283529160200191611a53565b820191906000526020600020905b815481529060010190602001808311611a3657829003601f168201915b505050505090806006018054611a68906152e4565b80601f0160208091040260200160405190810160405280929190818152602001828054611a94906152e4565b8015611ae15780601f10611ab657610100808354040283529160200191611ae1565b820191906000526020600020905b815481529060010190602001808311611ac457829003601f168201915b5050505050908060070154905089565b6000611afb613b75565b60028414611b715760405162461bcd60e51b815260206004820152602860248201527f436f756e747279206d75737420626520616e2049534f203331363620416c706860448201527f612d3220436f64650000000000000000000000000000000000000000000000006064820152608401610963565b60008585604051602001611b86929190615528565b6040516020818303038152906040529050610a0b8160066000808a8a8080601f01602080910402602001604051908101604052809392919081815260200183838082843760009201919091525050604080516020601f8e018190048102820181019092528c815292508c91508b9081908401838280828437600092019190915250613bce92505050565b600081815260026020908152604080832081516101208101835281548152600182015460ff8082161515958301959095528594919384019161010090910416600a811115611c6057611c60614b6c565b600a811115611c7157611c71614b6c565b8152602001600282018054611c85906152e4565b80601f0160208091040260200160405190810160405280929190818152602001828054611cb1906152e4565b8015611cfe5780601f10611cd357610100808354040283529160200191611cfe565b820191906000526020600020905b815481529060010190602001808311611ce157829003601f168201915b5050509183525050600382015473ffffffffffffffffffffffffffffffffffffffff16602082015260048201546040820152600582018054606090920191611d45906152e4565b80601f0160208091040260200160405190810160405280929190818152602001828054611d71906152e4565b8015611dbe5780601f10611d9357610100808354040283529160200191611dbe565b820191906000526020600020905b815481529060010190602001808311611da157829003601f168201915b50505050508152602001600682018054611dd7906152e4565b80601f0160208091040260200160405190810160405280929190818152602001828054611e03906152e4565b8015611e505780601f10611e2557610100808354040283529160200191611e50565b820191906000526020600020905b815481529060010190602001808311611e3357829003601f168201915b5050505050815260200160078201548152505090508060200151611e775750600092915050565b806101000151421015611e8d5750600092915050565b611e9a8160400151612f60565b611ea384610609565b1015611eb25750600092915050565b50600192915050565b604080518082018252600080825260208083018290528582526009815283822073ffffffffffffffffffffffffffffffffffffffff86168352905282902082518084019093528054919291829060ff166004811115611f1c57611f1c614b6c565b6004811115611f2d57611f2d614b6c565b815260200160018201548152505090505b92915050565b6000611f4e613b75565b73ffffffffffffffffffffffffffffffffffffffff8516611fb15760405162461bcd60e51b815260206004820152601e60248201527f43616e6e6f742073656e642053414c5420746f206164647265737328302900006044820152606401610963565b60007f000000000000000000000000000000000000000000000000000000000000000073ffffffffffffffffffffffffffffffffffffffff1663bfa0b1336040518163ffffffff1660e01b8152600401602060405180830381865afa15801561201e573d6000803e3d6000fd5b505050506040513d601f19601f820116820180604052508101906120429190615477565b73ffffffffffffffffffffffffffffffffffffffff166370a082317f000000000000000000000000000000000000000000000000000000000000000073ffffffffffffffffffffffffffffffffffffffff16634162169f6040518163ffffffff1660e01b8152600401602060405180830381865afa1580156120c8573d6000803e3d6000fd5b505050506040513d601f19601f820116820180604052508101906120ec9190615477565b6040517fffffffff0000000000000000000000000000000000000000000000000000000060e084901b16815273ffffffffffffffffffffffffffffffffffffffff9091166004820152602401602060405180830381865afa158015612155573d6000803e3d6000fd5b505050506040513d601f19601f820116820180604052508101906121799190615430565b90506000606461218a836005615561565b6121949190615578565b90508086111561220c5760405162461bcd60e51b815260206004820152603060248201527f43616e6e6f742073656e64206d6f7265207468616e203525206f66207468652060448201527f44414f2053414c542062616c616e6365000000000000000000000000000000006064820152608401610963565b60006040518060400160405280600881526020017f73656e6453414c54000000000000000000000000000000000000000000000000815250905061229a8160038a8a604051806020016040528060008152508b8b8080601f016020809104026020016040519081016040528093929190818152602001838380828437600092019190915250613bce92505050565b93505050506108bc6001600055565b60006122b3613b75565b7f000000000000000000000000000000000000000000000000000000000000000073ffffffffffffffffffffffffffffffffffffffff166390e439bc877f000000000000000000000000000000000000000000000000000000000000000073ffffffffffffffffffffffffffffffffffffffff16633cdc53896040518163ffffffff1660e01b8152600401602060405180830381865afa15801561235b573d6000803e3d6000fd5b505050506040513d601f19601f8201168201806040525081019061237f9190615477565b7f000000000000000000000000000000000000000000000000000000000000000073ffffffffffffffffffffffffffffffffffffffff16633fc8cef36040518163ffffffff1660e01b8152600401602060405180830381865afa1580156123ea573d6000803e3d6000fd5b505050506040513d601f19601f8201168201806040525081019061240e9190615477565b60405160e085901b7fffffffff0000000000000000000000000000000000000000000000000000000016815273ffffffffffffffffffffffffffffffffffffffff938416600482015291831660248301529091166044820152606401602060405180830381865afa158015612487573d6000803e3d6000fd5b505050506040513d601f19601f820116820180604052508101906124ab91906155b3565b61251d5760405162461bcd60e51b815260206004820152602860248201527f43616e206f6e6c7920756e77686974656c69737420612077686974656c69737460448201527f656420746f6b656e0000000000000000000000000000000000000000000000006064820152608401610963565b7f000000000000000000000000000000000000000000000000000000000000000073ffffffffffffffffffffffffffffffffffffffff16633cdc53896040518163ffffffff1660e01b8152600401602060405180830381865afa158015612588573d6000803e3d6000fd5b505050506040513d601f19601f820116820180604052508101906125ac9190615477565b73ffffffffffffffffffffffffffffffffffffffff168673ffffffffffffffffffffffffffffffffffffffff16036126265760405162461bcd60e51b815260206004820152601760248201527f43616e6e6f7420756e77686974656c69737420574254430000000000000000006044820152606401610963565b7f000000000000000000000000000000000000000000000000000000000000000073ffffffffffffffffffffffffffffffffffffffff16633fc8cef36040518163ffffffff1660e01b8152600401602060405180830381865afa158015612691573d6000803e3d6000fd5b505050506040513d601f19601f820116820180604052508101906126b59190615477565b73ffffffffffffffffffffffffffffffffffffffff168673ffffffffffffffffffffffffffffffffffffffff160361272f5760405162461bcd60e51b815260206004820152601760248201527f43616e6e6f7420756e77686974656c69737420574554480000000000000000006044820152606401610963565b7f000000000000000000000000000000000000000000000000000000000000000073ffffffffffffffffffffffffffffffffffffffff1663f4b9fa756040518163ffffffff1660e01b8152600401602060405180830381865afa15801561279a573d6000803e3d6000fd5b505050506040513d601f19601f820116820180604052508101906127be9190615477565b73ffffffffffffffffffffffffffffffffffffffff168673ffffffffffffffffffffffffffffffffffffffff16036128385760405162461bcd60e51b815260206004820152601660248201527f43616e6e6f7420756e77686974656c69737420444149000000000000000000006044820152606401610963565b7f000000000000000000000000000000000000000000000000000000000000000073ffffffffffffffffffffffffffffffffffffffff16634cf282fb6040518163ffffffff1660e01b8152600401602060405180830381865afa1580156128a3573d6000803e3d6000fd5b505050506040513d601f19601f820116820180604052508101906128c79190615477565b73ffffffffffffffffffffffffffffffffffffffff168673ffffffffffffffffffffffffffffffffffffffff16036129415760405162461bcd60e51b815260206004820152601760248201527f43616e6e6f7420756e77686974656c69737420555344530000000000000000006044820152606401610963565b7f000000000000000000000000000000000000000000000000000000000000000073ffffffffffffffffffffffffffffffffffffffff1663bfa0b1336040518163ffffffff1660e01b8152600401602060405180830381865afa1580156129ac573d6000803e3d6000fd5b505050506040513d601f19601f820116820180604052508101906129d09190615477565b73ffffffffffffffffffffffffffffffffffffffff168673ffffffffffffffffffffffffffffffffffffffff1603612a4a5760405162461bcd60e51b815260206004820152601760248201527f43616e6e6f7420756e77686974656c6973742053414c540000000000000000006044820152606401610963565b6000612a5587614651565b604051602001612a6591906155d5565b6040516020818303038152906040529050610f1a8160028960008a8a8080601f01602080910402602001604051908101604052809392919081815260200183838082843760009201919091525050604080516020601f8e018190048102820181019092528c815292508c91508b9081908401838280828437600092019190915250613bce92505050565b600082815260086020526040812081836004811115612b1057612b10614b6c565b6004811115612b2157612b21614b6c565b815260200190815260200160002054905092915050565b60007f000000000000000000000000000000000000000000000000000000000000000073ffffffffffffffffffffffffffffffffffffffff16634162169f6040518163ffffffff1660e01b8152600401602060405180830381865afa158015612ba5573d6000803e3d6000fd5b505050506040513d601f19601f82011682018060405250810190612bc99190615477565b73ffffffffffffffffffffffffffffffffffffffff163373ffffffffffffffffffffffffffffffffffffffff1614612c695760405162461bcd60e51b815260206004820152602f60248201527f4f6e6c79207468652044414f2063616e20637265617465206120636f6e66697260448201527f6d6174696f6e2070726f706f73616c00000000000000000000000000000000006064820152608401610963565b612d1489898080601f0160208091040260200160405190810160405280939291908181526020018383808284376000920182905250604080516020601f8d018190048102820181019092528b81528e95508d94509192508b908b908190840183828082843760009201919091525050604080516020601f8d018190048102820181019092528b815292508b91508a9081908401838280828437600092019190915250613bce92505050565b9998505050505050505050565b6000612d2b613b75565b73ffffffffffffffffffffffffffffffffffffffff8516612db45760405162461bcd60e51b815260206004820152602560248201527f436f6e747261637420616464726573732063616e6e6f7420626520616464726560448201527f73732830290000000000000000000000000000000000000000000000000000006064820152608401610963565b6000612dbf86614651565b604051602001612dcf919061561a565b6040516020818303038152906040529050610a0b816004888888888080601f016020809104026020016040519081016040528093929190818152602001838380828437600092018290525060408051602081019091529081529250613bce915050565b6000612e3c613b75565b6040805160008152602081018083528151902091612e5e91889188910161565f565b6040516020818303038152906040528051906020012003612ec15760405162461bcd60e51b815260206004820152601d60248201527f6e65775765627369746555524c2063616e6e6f7420626520656d7074790000006044820152606401610963565b60008585604051602001612ed692919061566f565b6040516020818303038152906040529050610a0b8160086000808a8a8080601f01602080910402602001604051908101604052809392919081815260200183838082843760009201919091525050604080516020601f8e018190048102820181019092528c815292508c91508b9081908401838280828437600092019190915250613bce92505050565b6040517f12e8d5940000000000000000000000000000000000000000000000000000000081526000600482018190529081907f000000000000000000000000000000000000000000000000000000000000000073ffffffffffffffffffffffffffffffffffffffff16906312e8d59490602401602060405180830381865afa158015612ff0573d6000803e3d6000fd5b505050506040513d601f19601f820116820180604052508101906130149190615430565b90508060000361308c5760405162461bcd60e51b815260206004820152602e60248201527f53414c54207374616b65642063616e6e6f74206265207a65726f20746f20646560448201527f7465726d696e652071756f72756d0000000000000000000000000000000000006064820152608401610963565b600083600a8111156130a0576130a0614b6c565b0361315e57620186a07f000000000000000000000000000000000000000000000000000000000000000073ffffffffffffffffffffffffffffffffffffffff1663189bfaa76040518163ffffffff1660e01b8152600401602060405180830381865afa158015613114573d6000803e3d6000fd5b505050506040513d601f19601f820116820180604052508101906131389190615430565b613143836001615561565b61314d9190615561565b6131579190615578565b91506132e7565b600183600a81111561317257613172614b6c565b148061318f5750600283600a81111561318d5761318d614b6c565b145b1561323257620186a07f000000000000000000000000000000000000000000000000000000000000000073ffffffffffffffffffffffffffffffffffffffff1663189bfaa76040518163ffffffff1660e01b8152600401602060405180830381865afa158015613203573d6000803e3d6000fd5b505050506040513d601f19601f820116820180604052508101906132279190615430565b613143836002615561565b620186a07f000000000000000000000000000000000000000000000000000000000000000073ffffffffffffffffffffffffffffffffffffffff1663189bfaa76040518163ffffffff1660e01b8152600401602060405180830381865afa1580156132a1573d6000803e3d6000fd5b505050506040513d601f19601f820116820180604052508101906132c59190615430565b6132d0836003615561565b6132da9190615561565b6132e49190615578565b91505b60007f000000000000000000000000000000000000000000000000000000000000000073ffffffffffffffffffffffffffffffffffffffff1663bfa0b1336040518163ffffffff1660e01b8152600401602060405180830381865afa158015613354573d6000803e3d6000fd5b505050506040513d601f19601f820116820180604052508101906133789190615477565b73ffffffffffffffffffffffffffffffffffffffff166318160ddd6040518163ffffffff1660e01b8152600401602060405180830381865afa1580156133c2573d6000803e3d6000fd5b505050506040513d601f19601f820116820180604052508101906133e69190615430565b905060006103e86133f8836005615561565b6134029190615578565b905080841015613410578093505b505050919050565b6000613422613b75565b73ffffffffffffffffffffffffffffffffffffffff86166134855760405162461bcd60e51b815260206004820152601a60248201527f746f6b656e2063616e6e6f7420626520616464726573732830290000000000006044820152606401610963565b6dffffffffffffffffffffffffffff80168673ffffffffffffffffffffffffffffffffffffffff166318160ddd6040518163ffffffff1660e01b8152600401602060405180830381865afa1580156134e1573d6000803e3d6000fd5b505050506040513d601f19601f820116820180604052508101906135059190615430565b106135785760405162461bcd60e51b815260206004820152602660248201527f546f6b656e20737570706c792063616e6e6f74206578636565642075696e743160448201527f31322e6d617800000000000000000000000000000000000000000000000000006064820152608401610963565b7f000000000000000000000000000000000000000000000000000000000000000073ffffffffffffffffffffffffffffffffffffffff1663b58ab9f86040518163ffffffff1660e01b8152600401602060405180830381865afa1580156135e3573d6000803e3d6000fd5b505050506040513d601f19601f820116820180604052508101906136079190615430565b613611600661462f565b106136aa5760405162461bcd60e51b815260206004820152604660248201527f546865206d6178696d756d206e756d626572206f6620746f6b656e207768697460448201527f656c697374696e672070726f706f73616c732061726520616c7265616479207060648201527f656e64696e670000000000000000000000000000000000000000000000000000608482015260a401610963565b7f000000000000000000000000000000000000000000000000000000000000000073ffffffffffffffffffffffffffffffffffffffff16639d4f6d906040518163ffffffff1660e01b8152600401602060405180830381865afa158015613715573d6000803e3d6000fd5b505050506040513d601f19601f820116820180604052508101906137399190615430565b7f000000000000000000000000000000000000000000000000000000000000000073ffffffffffffffffffffffffffffffffffffffff16634a03895b6040518163ffffffff1660e01b8152600401602060405180830381865afa1580156137a4573d6000803e3d6000fd5b505050506040513d601f19601f820116820180604052508101906137c89190615430565b1061383b5760405162461bcd60e51b815260206004820152603360248201527f4d6178696d756d206e756d626572206f662077686974656c697374656420706f60448201527f6f6c7320616c72656164792072656163686564000000000000000000000000006064820152608401610963565b7f000000000000000000000000000000000000000000000000000000000000000073ffffffffffffffffffffffffffffffffffffffff166390e439bc877f000000000000000000000000000000000000000000000000000000000000000073ffffffffffffffffffffffffffffffffffffffff16633cdc53896040518163ffffffff1660e01b8152600401602060405180830381865afa1580156138e3573d6000803e3d6000fd5b505050506040513d601f19601f820116820180604052508101906139079190615477565b7f000000000000000000000000000000000000000000000000000000000000000073ffffffffffffffffffffffffffffffffffffffff16633fc8cef36040518163ffffffff1660e01b8152600401602060405180830381865afa158015613972573d6000803e3d6000fd5b505050506040513d601f19601f820116820180604052508101906139969190615477565b60405160e085901b7fffffffff0000000000000000000000000000000000000000000000000000000016815273ffffffffffffffffffffffffffffffffffffffff938416600482015291831660248301529091166044820152606401602060405180830381865afa158015613a0f573d6000803e3d6000fd5b505050506040513d601f19601f82011682018060405250810190613a3391906155b3565b15613aa65760405162461bcd60e51b815260206004820152602660248201527f54686520746f6b656e2068617320616c7265616479206265656e20776869746560448201527f6c697374656400000000000000000000000000000000000000000000000000006064820152608401610963565b6000613ab187614651565b604051602001613ac191906156a8565b60405160208183030381529060405290506000613b4d8260018a60008b8b8080601f01602080910402602001604051908101604052809392919081815260200183838082843760009201919091525050604080516020601f8f018190048102820181019092528d815292508d91508c9081908401838280828437600092019190915250613bce92505050565b9050613b5a600682614674565b50915050610f276001600055565b60606000610aaf83614680565b600260005403613bc75760405162461bcd60e51b815260206004820152601f60248201527f5265656e7472616e637947756172643a207265656e7472616e742063616c6c006044820152606401610963565b6002600055565b60007f0000000000000000000000000000000000000000000000000000000000000000421015613c665760405162461bcd60e51b815260206004820152603d60248201527f43616e6e6f742070726f706f73652062616c6c6f74732077697468696e20746860448201527f652066697273742034352064617973206f66206465706c6f796d656e740000006064820152608401610963565b7f000000000000000000000000000000000000000000000000000000000000000073ffffffffffffffffffffffffffffffffffffffff16634162169f6040518163ffffffff1660e01b8152600401602060405180830381865afa158015613cd1573d6000803e3d6000fd5b505050506040513d601f19601f82011682018060405250810190613cf59190615477565b73ffffffffffffffffffffffffffffffffffffffff163373ffffffffffffffffffffffffffffffffffffffff1614614090576040517f12e8d594000000000000000000000000000000000000000000000000000000008152600060048201819052907f000000000000000000000000000000000000000000000000000000000000000073ffffffffffffffffffffffffffffffffffffffff16906312e8d59490602401602060405180830381865afa158015613db5573d6000803e3d6000fd5b505050506040513d601f19601f82011682018060405250810190613dd99190615430565b90506000620186a07f000000000000000000000000000000000000000000000000000000000000000073ffffffffffffffffffffffffffffffffffffffff1663924c23356040518163ffffffff1660e01b8152600401602060405180830381865afa158015613e4c573d6000803e3d6000fd5b505050506040513d601f19601f82011682018060405250810190613e709190615430565b613e7a9084615561565b613e849190615578565b905060008111613ed65760405162461bcd60e51b815260206004820152601c60248201527f72657175697265645853616c742063616e6e6f74206265207a65726f000000006044820152606401610963565b6040517f97146776000000000000000000000000000000000000000000000000000000008152336004820152600060248201819052907f000000000000000000000000000000000000000000000000000000000000000073ffffffffffffffffffffffffffffffffffffffff1690639714677690604401602060405180830381865afa158015613f6a573d6000803e3d6000fd5b505050506040513d601f19601f82011682018060405250810190613f8e9190615430565b9050818110156140065760405162461bcd60e51b815260206004820152603660248201527f53656e64657220646f6573206e6f74206861766520656e6f756768207853414c60448201527f5420746f206d616b65207468652070726f706f73616c000000000000000000006064820152608401610963565b336000908152600a602052604090205460ff161561408c5760405162461bcd60e51b815260206004820152603160248201527f55736572732063616e206f6e6c792068617665206f6e6520616374697665207060448201527f726f706f73616c20617420612074696d650000000000000000000000000000006064820152608401610963565b5050505b6001876040516140a091906156e0565b9081526020016040518091039020546000146141245760405162461bcd60e51b815260206004820152603f60248201527f43616e6e6f742063726561746520612070726f706f73616c2073696d696c617260448201527f20746f20612062616c6c6f742074686174206973207374696c6c206f70656e006064820152608401610963565b60018760405160200161413791906156fc565b604080517fffffffffffffffffffffffffffffffffffffffffffffffffffffffffffffffe08184030181529082905261416f916156e0565b9081526020016040518091039020546000146142195760405162461bcd60e51b815260206004820152604360248201527f43616e6e6f742063726561746520612070726f706f73616c20666f722061206260448201527f616c6c6f7420776974682061207365636f6e6461727920636f6e6669726d617460648201527f696f6e0000000000000000000000000000000000000000000000000000000000608482015260a401610963565b60007f000000000000000000000000000000000000000000000000000000000000000073ffffffffffffffffffffffffffffffffffffffff16634fa1acb36040518163ffffffff1660e01b8152600401602060405180830381865afa158015614286573d6000803e3d6000fd5b505050506040513d601f19601f820116820180604052508101906142aa9190615430565b6142b49042615366565b6003805491925060006142c68361573d565b90915550604080516101208101825282815260016020820152919350810188600a8111156142f6576142f6614b6c565b815260208082018b905273ffffffffffffffffffffffffffffffffffffffff8916604080840191909152606083018990526080830188905260a0830187905260c090920184905260008581526002825282902083518155908301516001820180549115157fffffffffffffffffffffffffffffffffffffffffffffffffffffffffffffff0083168117825593850151929390917fffffffffffffffffffffffffffffffffffffffffffffffffffffffffffff00ff9091167fffffffffffffffffffffffffffffffffffffffffffffffffffffffffffff00009091161761010083600a8111156143e7576143e7614b6c565b02179055506060820151600282019061440090826157c6565b5060808201516003820180547fffffffffffffffffffffffff00000000000000000000000000000000000000001673ffffffffffffffffffffffffffffffffffffffff90921691909117905560a0820151600482015560c0820151600582019061446a90826157c6565b5060e0820151600682019061447f90826157c6565b5061010082015181600701559050508160018960405161449f91906156e0565b908152604051908190036020019020556144ba600483614674565b50336000818152600a6020908152604080832080547fffffffffffffffffffffffffffffffffffffffffffffffffffffffffffffff00166001179055858352600b9091529081902080547fffffffffffffffffffffffff0000000000000000000000000000000000000000169092179091555182907f2d6a2a1a504050a1fa6107e44f49971fd89dbe544b433d65f1c572ce5fa3b7d19061455e908a908c906158e0565b60405180910390a2509695505050505050565b6060600061457e836146dc565b600101905060008167ffffffffffffffff81111561459e5761459e615073565b6040519080825280601f01601f1916602001820160405280156145c8576020820181803683370190505b5090508181016020015b7fffffffffffffffffffffffffffffffffffffffffffffffffffffffffffffffff017f3031323334353637383961626364656600000000000000000000000000000000600a86061a8153600a85049450846145d257509392505050565b6000611f3e825490565b6000610aaf83836147be565b6000610aaf83836147e8565b6060611f3e73ffffffffffffffffffffffffffffffffffffffff831660146148db565b6000610aaf8383614b04565b6060816000018054806020026020016040519081016040528092919081815260200182805480156146d057602002820191906000526020600020905b8154815260200190600101908083116146bc575b50505050509050919050565b6000807a184f03e93ff9f4daa797ed6e38ed64bf6a1f0100000000000000008310614725577a184f03e93ff9f4daa797ed6e38ed64bf6a1f010000000000000000830492506040015b6d04ee2d6d415b85acef81000000008310614751576d04ee2d6d415b85acef8100000000830492506020015b662386f26fc10000831061476f57662386f26fc10000830492506010015b6305f5e1008310614787576305f5e100830492506008015b612710831061479b57612710830492506004015b606483106147ad576064830492506002015b600a8310611f3e5760010192915050565b60008260000182815481106147d5576147d5615900565b9060005260206000200154905092915050565b600081815260018301602052604081205480156148d157600061480c600183615449565b855490915060009061482090600190615449565b905081811461488557600086600001828154811061484057614840615900565b906000526020600020015490508087600001848154811061486357614863615900565b6000918252602080832090910192909255918252600188019052604090208390555b85548690806148965761489661592f565b600190038181906000526020600020016000905590558560010160008681526020019081526020016000206000905560019350505050611f3e565b6000915050611f3e565b606060006148ea836002615561565b6148f5906002615366565b67ffffffffffffffff81111561490d5761490d615073565b6040519080825280601f01601f191660200182016040528015614937576020820181803683370190505b5090507f30000000000000000000000000000000000000000000000000000000000000008160008151811061496e5761496e615900565b60200101907effffffffffffffffffffffffffffffffffffffffffffffffffffffffffffff1916908160001a9053507f7800000000000000000000000000000000000000000000000000000000000000816001815181106149d1576149d1615900565b60200101907effffffffffffffffffffffffffffffffffffffffffffffffffffffffffffff1916908160001a9053506000614a0d846002615561565b614a18906001615366565b90505b6001811115614ab5577f303132333435363738396162636465660000000000000000000000000000000085600f1660108110614a5957614a59615900565b1a60f81b828281518110614a6f57614a6f615900565b60200101907effffffffffffffffffffffffffffffffffffffffffffffffffffffffffffff1916908160001a90535060049490941c93614aae8161595e565b9050614a1b565b508315610aaf5760405162461bcd60e51b815260206004820181905260248201527f537472696e67733a20686578206c656e67746820696e73756666696369656e746044820152606401610963565b6000818152600183016020526040812054614b4b57508154600181810184556000848152602080822090930184905584548482528286019093526040902091909155611f3e565b506000611f3e565b600060208284031215614b6557600080fd5b5035919050565b7f4e487b7100000000000000000000000000000000000000000000000000000000600052602160045260246000fd5b60058110614bab57614bab614b6c565b9052565b60208101611f3e8284614b9b565b6020808252825182820181905260009190848201906040850190845b81811015614bf557835183529284019291840191600101614bd9565b50909695505050505050565b60008083601f840112614c1357600080fd5b50813567ffffffffffffffff811115614c2b57600080fd5b602083019150836020828501011115614c4357600080fd5b9250929050565b60008060008060408587031215614c6057600080fd5b843567ffffffffffffffff80821115614c7857600080fd5b614c8488838901614c01565b90965094506020870135915080821115614c9d57600080fd5b50614caa87828801614c01565b95989497509550505050565b600080600060408486031215614ccb57600080fd5b83359250602084013567ffffffffffffffff811115614ce957600080fd5b614cf586828701614c01565b9497909650939450505050565b600b8110614bab57614bab614b6c565b60005b83811015614d2d578181015183820152602001614d15565b50506000910152565b60008151808452614d4e816020860160208601614d12565b601f017fffffffffffffffffffffffffffffffffffffffffffffffffffffffffffffffe0169290920160200192915050565b602081528151602082015260006020830151614da0604084018215159052565b506040830151614db36060840182614d02565b506060830151610120806080850152614dd0610140850183614d36565b91506080850151614df960a086018273ffffffffffffffffffffffffffffffffffffffff169052565b5060a085015160c085015260c08501517fffffffffffffffffffffffffffffffffffffffffffffffffffffffffffffffe0808685030160e0870152614e3e8483614d36565b935060e08701519150610100818786030181880152614e5d8584614d36565b970151959092019490945250929392505050565b73ffffffffffffffffffffffffffffffffffffffff811681146118dd57600080fd5b600080600080600060608688031215614eab57600080fd5b853567ffffffffffffffff80821115614ec357600080fd5b614ecf89838a01614c01565b909750955060208801359150614ee482614e71565b90935060408701359080821115614efa57600080fd5b50614f0788828901614c01565b969995985093965092949392505050565b60008060408385031215614f2b57600080fd5b82359150602083013560058110614f4157600080fd5b809150509250929050565b60006101208b83528a15156020840152614f69604084018b614d02565b806060840152614f7b8184018a614d36565b905073ffffffffffffffffffffffffffffffffffffffff881660808401528660a084015282810360c0840152614fb18187614d36565b905082810360e0840152614fc58186614d36565b915050826101008301529a9950505050505050505050565b60008060408385031215614ff057600080fd5b823591506020830135614f4181614e71565b6000604082019050615015828451614b9b565b602092830151919092015290565b6000806000806060858703121561503957600080fd5b843561504481614e71565b935060208501359250604085013567ffffffffffffffff81111561506757600080fd5b614caa87828801614c01565b7f4e487b7100000000000000000000000000000000000000000000000000000000600052604160045260246000fd5b6000602082840312156150b457600080fd5b813567ffffffffffffffff808211156150cc57600080fd5b818401915084601f8301126150e057600080fd5b8135818111156150f2576150f2615073565b604051601f82017fffffffffffffffffffffffffffffffffffffffffffffffffffffffffffffffe0908116603f0116810190838211818310171561513857615138615073565b8160405282815287602084870101111561515157600080fd5b826020860160208301376000928101602001929092525095945050505050565b60008060008060006060868803121561518957600080fd5b853561519481614e71565b9450602086013567ffffffffffffffff808211156151b157600080fd5b6151bd89838a01614c01565b90965094506040880135915080821115614efa57600080fd5b8035600b81106151e557600080fd5b919050565b60008060008060008060008060a0898b03121561520657600080fd5b883567ffffffffffffffff8082111561521e57600080fd5b61522a8c838d01614c01565b909a50985088915061523e60208c016151d6565b975060408b0135915061525082614e71565b90955060608a0135908082111561526657600080fd5b6152728c838d01614c01565b909650945060808b013591508082111561528b57600080fd5b506152988b828c01614c01565b999c989b5096995094979396929594505050565b6000602082840312156152be57600080fd5b8135610aaf81614e71565b6000602082840312156152db57600080fd5b610aaf826151d6565b600181811c908216806152f857607f821691505b602082108103615331577f4e487b7100000000000000000000000000000000000000000000000000000000600052602260045260246000fd5b50919050565b7f4e487b7100000000000000000000000000000000000000000000000000000000600052601160045260246000fd5b80820180821115611f3e57611f3e615337565b7f696e636c7564653a00000000000000000000000000000000000000000000000081528183600883013760009101600801908152919050565b7f706172616d657465723a000000000000000000000000000000000000000000008152600082516153ea81600a850160208701614d12565b91909101600a0192915050565b7f736574436f6e74726163743a000000000000000000000000000000000000000081528183600c83013760009101600c01908152919050565b60006020828403121561544257600080fd5b5051919050565b81810381811115611f3e57611f3e615337565b6040810161546a8285614b9b565b8260208301529392505050565b60006020828403121561548957600080fd5b8151610aaf81614e71565b60008083546154a2816152e4565b600182811680156154ba57600181146154ed5761551c565b7fffffffffffffffffffffffffffffffffffffffffffffffffffffffffffffff008416875282151583028701945061551c565b8760005260208060002060005b858110156155135781548a8201529084019082016154fa565b50505082870194505b50929695505050505050565b7f6578636c7564653a00000000000000000000000000000000000000000000000081528183600883013760009101600801908152919050565b8082028115828204841417611f3e57611f3e615337565b6000826155ae577f4e487b7100000000000000000000000000000000000000000000000000000000600052601260045260246000fd5b500490565b6000602082840312156155c557600080fd5b81518015158114610aaf57600080fd5b7f756e77686974656c6973743a000000000000000000000000000000000000000081526000825161560d81600c850160208701614d12565b91909101600c0192915050565b7f63616c6c436f6e74726163743a0000000000000000000000000000000000000081526000825161565281600d850160208701614d12565b91909101600d0192915050565b8183823760009101908152919050565b7f73657455524c3a0000000000000000000000000000000000000000000000000081528183600783013760009101600701908152919050565b7f77686974656c6973743a000000000000000000000000000000000000000000008152600082516153ea81600a850160208701614d12565b600082516156f2818460208701614d12565b9190910192915050565b6000825161570e818460208701614d12565b7f5f636f6e6669726d000000000000000000000000000000000000000000000000920191825250600801919050565b60007fffffffffffffffffffffffffffffffffffffffffffffffffffffffffffffffff820361576e5761576e615337565b5060010190565b601f8211156157c1576000816000526020600020601f850160051c8101602086101561579e5750805b601f850160051c820191505b818110156157bd578281556001016157aa565b5050505b505050565b815167ffffffffffffffff8111156157e0576157e0615073565b6157f4816157ee84546152e4565b84615775565b602080601f83116001811461584757600084156158115750858301515b7fffffffffffffffffffffffffffffffffffffffffffffffffffffffffffffffff600386901b1c1916600185901b1785556157bd565b6000858152602081207fffffffffffffffffffffffffffffffffffffffffffffffffffffffffffffffe08616915b8281101561589457888601518255948401946001909101908401615875565b50858210156158d057878501517fffffffffffffffffffffffffffffffffffffffffffffffffffffffffffffffff600388901b60f8161c191681555b5050505050600190811b01905550565b6158ea8184614d02565b6040602082015260006108bc6040830184614d36565b7f4e487b7100000000000000000000000000000000000000000000000000000000600052603260045260246000fd5b7f4e487b7100000000000000000000000000000000000000000000000000000000600052603160045260246000fd5b60008161596d5761596d615337565b507fffffffffffffffffffffffffffffffffffffffffffffffffffffffffffffffff019056fea2646970667358221220d9b96996b6cf633b8cd88d16e42f7e3eeee2ea3b35a187b659c92531761c8f6764736f6c63430008160033","linkReferences":{}},"methodIdentifiers":{"ballotForID(uint256)":"45074887","ballotIsApproved(uint256)":"84526cec","ballots(uint256)":"5c632b38","canFinalizeBallot(uint256)":"880d266c","castVote(uint256,uint8)":"56781388","createConfirmationProposal(string,uint8,address,string,string)":"d095a4d5","daoConfig()":"fa05dd00","exchangeConfig()":"0e2789bb","lastUserVoteForBallot(uint256,address)":"9534c9f3","markBallotAsFinalized(uint256)":"568d86d7","nextBallotID()":"0bc88fed","openBallots()":"5c4db523","openBallotsByName(string)":"ac4236ae","openBallotsForTokenWhitelisting()":"2bd32564","poolsConfig()":"52c19b5a","proposeCallContract(address,uint256,string)":"d8782dae","proposeCountryExclusion(string,string)":"69907b75","proposeCountryInclusion(string,string)":"3b958e2f","proposeParameterBallot(uint256,string)":"3c2edb39","proposeSendSALT(address,uint256,string)":"9af712e4","proposeSetContractAddress(string,address,string)":"4b844692","proposeTokenUnwhitelisting(address,string,string)":"b43f4e10","proposeTokenWhitelisting(address,string,string)":"f26c5f56","proposeWebsiteUpdate(string,string)":"e2fb7e09","requiredQuorumForBallotType(uint8)":"ebf2e8bd","salt()":"bfa0b133","staking()":"4cf088d9","tokenWhitelistingBallotWithTheMostVotes()":"3f276a84","totalVotesCastForBallot(uint256)":"312aab9e","userHasActiveProposal(address)":"e671f777","votesCastForBallot(uint256,uint8)":"cae26e5d","winningParameterVote(uint256)":"0bb44e76"},"id":58}