{"abi":[{"type":"constructor","inputs":[{"name":"_wbtc","type":"address","internalType":"contract IERC20"},{"name":"_weth","type":"address","internalType":"contract IERC20"},{"name":"_usdc","type":"address","internalType":"contract IERC20"},{"name":"_UNISWAP_V3_WBTC_WETH","type":"address","internalType":"address"},{"name":"_UNISWAP_V3_WETH_USDC","type":"address","internalType":"address"}],"stateMutability":"nonpayable"},{"type":"function","name":"TWAP_PERIOD","inputs":[],"outputs":[{"name":"","type":"uint256","internalType":"uint256"}],"stateMutability":"view"},{"type":"function","name":"UNISWAP_V3_WBTC_WETH","inputs":[],"outputs":[{"name":"","type":"address","internalType":"contract IUniswapV3Pool"}],"stateMutability":"view"},{"type":"function","name":"UNISWAP_V3_WETH_USDC","inputs":[],"outputs":[{"name":"","type":"address","internalType":"contract IUniswapV3Pool"}],"stateMutability":"view"},{"type":"function","name":"_getUniswapTwapWei","inputs":[{"name":"pool","type":"address","internalType":"contract IUniswapV3Pool"},{"name":"twapInterval","type":"uint256","internalType":"uint256"}],"outputs":[{"name":"","type":"uint256","internalType":"uint256"}],"stateMutability":"view"},{"type":"function","name":"forcedTWAP_WBTC_WETH","inputs":[],"outputs":[{"name":"","type":"uint256","internalType":"uint256"}],"stateMutability":"view"},{"type":"function","name":"forcedTWAP_WETH_USDC","inputs":[],"outputs":[{"name":"","type":"uint256","internalType":"uint256"}],"stateMutability":"view"},{"type":"function","name":"getPriceBTC","inputs":[],"outputs":[{"name":"","type":"uint256","internalType":"uint256"}],"stateMutability":"view"},{"type":"function","name":"getPriceETH","inputs":[],"outputs":[{"name":"","type":"uint256","internalType":"uint256"}],"stateMutability":"view"},{"type":"function","name":"getTwapWBTC","inputs":[{"name":"twapInterval","type":"uint256","internalType":"uint256"}],"outputs":[{"name":"","type":"uint256","internalType":"uint256"}],"stateMutability":"view"},{"type":"function","name":"getTwapWETH","inputs":[{"name":"twapInterval","type":"uint256","internalType":"uint256"}],"outputs":[{"name":"","type":"uint256","internalType":"uint256"}],"stateMutability":"view"},{"type":"function","name":"getUniswapTwapWei","inputs":[{"name":"pool","type":"address","internalType":"contract IUniswapV3Pool"},{"name":"twapInterval","type":"uint256","internalType":"uint256"}],"outputs":[{"name":"","type":"uint256","internalType":"uint256"}],"stateMutability":"view"},{"type":"function","name":"revertNext","inputs":[],"outputs":[{"name":"","type":"bool","internalType":"bool"}],"stateMutability":"view"},{"type":"function","name":"setRevertNext","inputs":[],"outputs":[],"stateMutability":"nonpayable"},{"type":"function","name":"setTwapWBTC_WETH","inputs":[{"name":"twap","type":"uint256","internalType":"uint256"}],"outputs":[],"stateMutability":"nonpayable"},{"type":"function","name":"setTwapWETH_USDC","inputs":[{"name":"twap","type":"uint256","internalType":"uint256"}],"outputs":[],"stateMutability":"nonpayable"},{"type":"function","name":"test","inputs":[],"outputs":[],"stateMutability":"nonpayable"},{"type":"function","name":"usdc","inputs":[],"outputs":[{"name":"","type":"address","internalType":"contract IERC20"}],"stateMutability":"view"},{"type":"function","name":"wbtc","inputs":[],"outputs":[{"name":"","type":"address","internalType":"contract IERC20"}],"stateMutability":"view"},{"type":"function","name":"wbtc_wethFlipped","inputs":[],"outputs":[{"name":"","type":"bool","internalType":"bool"}],"stateMutability":"view"},{"type":"function","name":"weth","inputs":[],"outputs":[{"name":"","type":"address","internalType":"contract IERC20"}],"stateMutability":"view"},{"type":"function","name":"weth_usdcFlipped","inputs":[],"outputs":[{"name":"","type":"bool","internalType":"bool"}],"stateMutability":"view"},{"type":"error","name":"T","inputs":[]}],"bytecode":{"object":"0x6101606040526000805460ff191690553480156200001c57600080fd5b50604051620017e8380380620017e88339810160408190526200003f9162000095565b6001600160a01b03918216608052811660a05290811661010081905292811660c0819052911660e081905290811061012052116101405262000115565b6001600160a01b03811681146200009257600080fd5b50565b600080600080600060a08688031215620000ae57600080fd5b8551620000bb816200007c565b6020870151909550620000ce816200007c565b6040870151909450620000e1816200007c565b6060870151909350620000f4816200007c565b608087015190925062000107816200007c565b809150509295509295909350565b60805160a05160c05160e051610100516101205161014051611640620001a86000396000818161019c0152818161087e015261097c01526000818161030f015261093a0152600061026e01526000610295015260006101fb01526000818161024701528181610844015281816108f70152610ab801526000818161038f015281816108c90152610a5401526116406000f3fe608060405234801561001057600080fd5b50600436106101775760003560e01c806360d7b15d116100d8578063ad09702e1161008c578063d27cb8b411610066578063d27cb8b414610381578063f8a8fd6d146101e1578063f9af08dd1461038a57600080fd5b8063ad09702e14610331578063c701240014610344578063d0c0b3301461037457600080fd5b806373c14814116100bd57806373c14814146102ee5780637ca25184146103015780637ff5aef81461030a57600080fd5b806360d7b15d146102d257806367de08a7146102db57600080fd5b80633d7440951161012f5780633fc8cef3116101145780633fc8cef3146102905780635865d124146102b75780635ba7c62e146102ca57600080fd5b80633d744095146102425780633e413bee1461026957600080fd5b806317f738b41161016057806317f738b4146101ce5780631de1b57b146101e35780633cdc5389146101f657600080fd5b8063039ba6be1461017c57806316cf56bb14610197575b600080fd5b6101846103b1565b6040519081526020015b60405180910390f35b6101be7f000000000000000000000000000000000000000000000000000000000000000081565b604051901515815260200161018e565b6101e16101dc366004611045565b600255565b005b6101e16101f1366004611045565b600155565b61021d7f000000000000000000000000000000000000000000000000000000000000000081565b60405173ffffffffffffffffffffffffffffffffffffffff909116815260200161018e565b61021d7f000000000000000000000000000000000000000000000000000000000000000081565b61021d7f000000000000000000000000000000000000000000000000000000000000000081565b61021d7f000000000000000000000000000000000000000000000000000000000000000081565b6101846102c5366004611083565b6103c3565b61018461082f565b61018460015481565b6101846102e9366004611045565b61083c565b6101846102fc366004611045565b6108c1565b61018461070881565b6101be7f000000000000000000000000000000000000000000000000000000000000000081565b61018461033f366004611083565b6109e0565b6101e1600080547fffffffffffffffffffffffffffffffffffffffffffffffffffffffffffffff00166001179055565b6000546101be9060ff1681565b61018460025481565b61021d7f000000000000000000000000000000000000000000000000000000000000000081565b60006103be61070861083c565b905090565b6040805160028082526060820183526000928392919060208301908036833701905050905082816000815181106103fc576103fc6110de565b602002602001019063ffffffff16908163ffffffff168152505060008160018151811061042b5761042b6110de565b63ffffffff909216602092830291909101909101526040517f883bdbfd00000000000000000000000000000000000000000000000000000000815260009073ffffffffffffffffffffffffffffffffffffffff86169063883bdbfd9061049590859060040161110d565b600060405180830381865afa1580156104b2573d6000803e3d6000fd5b505050506040513d6000823e601f3d9081017fffffffffffffffffffffffffffffffffffffffffffffffffffffffffffffffe01682016040526104f89190810190611242565b50905060008482600081518110610511576105116110de565b60200260200101518360018151811061052c5761052c6110de565b602002602001015161053e919061133d565b61054891906113b1565b9050600061055582610b24565b9050600061058773ffffffffffffffffffffffffffffffffffffffff8316806c01000000000000000000000000610e8b565b905060008873ffffffffffffffffffffffffffffffffffffffff16630dfe16816040518163ffffffff1660e01b8152600401602060405180830381865afa1580156105d6573d6000803e3d6000fd5b505050506040513d601f19601f820116820180604052508101906105fa9190611425565b73ffffffffffffffffffffffffffffffffffffffff1663313ce5676040518163ffffffff1660e01b8152600401602060405180830381865afa158015610644573d6000803e3d6000fd5b505050506040513d601f19601f820116820180604052508101906106689190611442565b905060008973ffffffffffffffffffffffffffffffffffffffff1663d21220a76040518163ffffffff1660e01b8152600401602060405180830381865afa1580156106b7573d6000803e3d6000fd5b505050506040513d601f19601f820116820180604052508101906106db9190611425565b73ffffffffffffffffffffffffffffffffffffffff1663313ce5676040518163ffffffff1660e01b8152600401602060405180830381865afa158015610725573d6000803e3d6000fd5b505050506040513d601f19601f820116820180604052508101906107499190611442565b90508160ff168160ff16111561079f5761079182610768836012611465565b610772919061147e565b61077d90600a6115b7565b6c0100000000000000000000000085610e8b565b975050505050505050610829565b8060ff168260ff1611156107f5576107b7818361147e565b6107c290600a6115b7565b6107cc90846115c6565b6107eb6c01000000000000000000000000670de0b6b3a76400006115c6565b61079191906115dd565b826108156c01000000000000000000000000670de0b6b3a76400006115c6565b61081f91906115dd565b9750505050505050505b92915050565b60006103be6107086108c1565b6000806108697f0000000000000000000000000000000000000000000000000000000000000000846109e0565b90508060000361087c5750600092915050565b7f0000000000000000000000000000000000000000000000000000000000000000610829576108ba816ec097ce7bc90715b34b9f10000000006115dd565b9392505050565b6000806108ee7f0000000000000000000000000000000000000000000000000000000000000000846109e0565b9050600061091c7f0000000000000000000000000000000000000000000000000000000000000000856109e0565b9050811580610929575080155b15610938575060009392505050565b7f00000000000000000000000000000000000000000000000000000000000000001561097a57610977826ec097ce7bc90715b34b9f10000000006115dd565b91505b7f00000000000000000000000000000000000000000000000000000000000000006109bb576109b8816ec097ce7bc90715b34b9f10000000006115dd565b90505b816109ce82670de0b6b3a76400006115c6565b6109d891906115dd565b949350505050565b6000805460ff1615610a52576040517f08c379a000000000000000000000000000000000000000000000000000000000815260206004820152601260248201527f7265766572744e65787420697320747275650000000000000000000000000000604482015260640160405180910390fd5b7f000000000000000000000000000000000000000000000000000000000000000073ffffffffffffffffffffffffffffffffffffffff168373ffffffffffffffffffffffffffffffffffffffff1603610ab65760015415610ab65750600154610829565b7f000000000000000000000000000000000000000000000000000000000000000073ffffffffffffffffffffffffffffffffffffffff168373ffffffffffffffffffffffffffffffffffffffff1603610b1a5760025415610b1a5750600254610829565b6108ba8383610f5b565b60008060008360020b12610b3b578260020b610b43565b8260020b6000035b9050620d89e8811115610b82576040517f2bc80f3a00000000000000000000000000000000000000000000000000000000815260040160405180910390fd5b600081600116600003610ba657700100000000000000000000000000000000610bb8565b6ffffcb933bd6fad37aa2d162d1a5940015b70ffffffffffffffffffffffffffffffffff1690506002821615610bec576ffff97272373d413259a46990580e213a0260801c5b6004821615610c0b576ffff2e50f5f656932ef12357cf3c7fdcc0260801c5b6008821615610c2a576fffe5caca7e10e4e61c3624eaa0941cd00260801c5b6010821615610c49576fffcb9843d60f6159c9db58835c9266440260801c5b6020821615610c68576fff973b41fa98c081472e6896dfb254c00260801c5b6040821615610c87576fff2ea16466c96a3843ec78b326b528610260801c5b6080821615610ca6576ffe5dee046a99a2a811c461f1969c30530260801c5b610100821615610cc6576ffcbe86c7900a88aedcffc83b479aa3a40260801c5b610200821615610ce6576ff987a7253ac413176f2b074cf7815e540260801c5b610400821615610d06576ff3392b0822b70005940c7a398e4b70f30260801c5b610800821615610d26576fe7159475a2c29b7443b29c7fa6e889d90260801c5b611000821615610d46576fd097f3bdfd2022b8845ad8f792aa58250260801c5b612000821615610d66576fa9f746462d870fdf8a65dc1f90e061e50260801c5b614000821615610d86576f70d869a156d2a1b890bb3df62baf32f70260801c5b618000821615610da6576f31be135f97d08fd981231505542fcfa60260801c5b62010000821615610dc7576f09aa508b5b7a84e1c677de54f3e99bc90260801c5b62020000821615610de7576e5d6af8dedb81196699c329225ee6040260801c5b62040000821615610e06576d2216e584f5fa1ea926041bedfe980260801c5b62080000821615610e23576b048a170391f7dc42444e8fa20260801c5b60008460020b1315610e6257807fffffffffffffffffffffffffffffffffffffffffffffffffffffffffffffffff81610e5e57610e5e611382565b0490505b640100000000810615610e76576001610e79565b60005b60ff16602082901c0192505050919050565b600080807fffffffffffffffffffffffffffffffffffffffffffffffffffffffffffffffff85870985870292508281108382030391505080600003610ee25760008411610ed757600080fd5b5082900490506108ba565b808411610eee57600080fd5b6000848688096000868103871696879004966002600389028118808a02820302808a02820302808a02820302808a02820302808a02820302808a02909103029181900381900460010186841190950394909402919094039290920491909117919091029150509392505050565b6040517f5865d12400000000000000000000000000000000000000000000000000000000815273ffffffffffffffffffffffffffffffffffffffff831660048201526024810182905260009081903090635865d12490604401602060405180830381865afa92505050801561100b575060408051601f3d9081017fffffffffffffffffffffffffffffffffffffffffffffffffffffffffffffffe0168201909252611008918101906115f1565b60015b6109d8573d808015611039576040519150601f19603f3d011682016040523d82523d6000602084013e61103e565b606091505b50506108ba565b60006020828403121561105757600080fd5b5035919050565b73ffffffffffffffffffffffffffffffffffffffff8116811461108057600080fd5b50565b6000806040838503121561109657600080fd5b82356110a18161105e565b946020939093013593505050565b7f4e487b7100000000000000000000000000000000000000000000000000000000600052604160045260246000fd5b7f4e487b7100000000000000000000000000000000000000000000000000000000600052603260045260246000fd5b6020808252825182820181905260009190848201906040850190845b8181101561114b57835163ffffffff1683529284019291840191600101611129565b50909695505050505050565b604051601f82017fffffffffffffffffffffffffffffffffffffffffffffffffffffffffffffffe016810167ffffffffffffffff8111828210171561119e5761119e6110af565b604052919050565b600067ffffffffffffffff8211156111c0576111c06110af565b5060051b60200190565b600082601f8301126111db57600080fd5b815160206111f06111eb836111a6565b611157565b8083825260208201915060208460051b87010193508684111561121257600080fd5b602086015b8481101561123757805161122a8161105e565b8352918301918301611217565b509695505050505050565b6000806040838503121561125557600080fd5b825167ffffffffffffffff8082111561126d57600080fd5b818501915085601f83011261128157600080fd5b815160206112916111eb836111a6565b82815260059290921b840181019181810190898411156112b057600080fd5b948201945b838610156112de5785518060060b81146112cf5760008081fd5b825294820194908201906112b5565b918801519196509093505050808211156112f757600080fd5b50611304858286016111ca565b9150509250929050565b7f4e487b7100000000000000000000000000000000000000000000000000000000600052601160045260246000fd5b600682810b9082900b037fffffffffffffffffffffffffffffffffffffffffffffffffff800000000000008112667fffffffffffff821317156108295761082961130e565b7f4e487b7100000000000000000000000000000000000000000000000000000000600052601260045260246000fd5b60008160060b8360060b806113c8576113c8611382565b7fffffffffffffffffffffffffffffffffffffffffffffffffffffffffffffffff81147fffffffffffffffffffffffffffffffffffffffffffffffffff800000000000008314161561141c5761141c61130e565b90059392505050565b60006020828403121561143757600080fd5b81516108ba8161105e565b60006020828403121561145457600080fd5b815160ff811681146108ba57600080fd5b60ff81811683821601908111156108295761082961130e565b60ff82811682821603908111156108295761082961130e565b600181815b808511156114f057817fffffffffffffffffffffffffffffffffffffffffffffffffffffffffffffffff048211156114d6576114d661130e565b808516156114e357918102915b93841c939080029061149c565b509250929050565b60008261150757506001610829565b8161151457506000610829565b816001811461152a576002811461153457611550565b6001915050610829565b60ff8411156115455761154561130e565b50506001821b610829565b5060208310610133831016604e8410600b8410161715611573575081810a610829565b61157d8383611497565b807fffffffffffffffffffffffffffffffffffffffffffffffffffffffffffffffff048211156115af576115af61130e565b029392505050565b60006108ba60ff8416836114f8565b80820281158282048414176108295761082961130e565b6000826115ec576115ec611382565b500490565b60006020828403121561160357600080fd5b505191905056fea2646970667358221220f46544fececb5ed40a240b67fa3a358d0523b9bb3e20764aa18cc5a81cbb9f0664736f6c63430008160033","linkReferences":{}},"methodIdentifiers":{"TWAP_PERIOD()":"7ca25184","UNISWAP_V3_WBTC_WETH()":"f9af08dd","UNISWAP_V3_WETH_USDC()":"3d744095","_getUniswapTwapWei(address,uint256)":"5865d124","forcedTWAP_WBTC_WETH()":"60d7b15d","forcedTWAP_WETH_USDC()":"d27cb8b4","getPriceBTC()":"5ba7c62e","getPriceETH()":"039ba6be","getTwapWBTC(uint256)":"73c14814","getTwapWETH(uint256)":"67de08a7","getUniswapTwapWei(address,uint256)":"ad09702e","revertNext()":"d0c0b330","setRevertNext()":"c7012400","setTwapWBTC_WETH(uint256)":"1de1b57b","setTwapWETH_USDC(uint256)":"17f738b4","test()":"f8a8fd6d","usdc()":"3e413bee","wbtc()":"3cdc5389","wbtc_wethFlipped()":"7ff5aef8","weth()":"3fc8cef3","weth_usdcFlipped()":"16cf56bb"},"id":117}