{"abi":[{"type":"constructor","inputs":[{"name":"_exchangeConfig","type":"address","internalType":"contract IExchangeConfig"},{"name":"_poolsConfig","type":"address","internalType":"contract IPoolsConfig"},{"name":"_stakingConfig","type":"address","internalType":"contract IStakingConfig"}],"stateMutability":"nonpayable"},{"type":"function","name":"addSALTRewards","inputs":[{"name":"addedRewards","type":"tuple[]","internalType":"struct AddedReward[]","components":[{"name":"poolID","type":"bytes32","internalType":"bytes32"},{"name":"amountToAdd","type":"uint256","internalType":"uint256"}]}],"outputs":[],"stateMutability":"nonpayable"},{"type":"function","name":"calculateUnstake","inputs":[{"name":"unstakedXSALT","type":"uint256","internalType":"uint256"},{"name":"numWeeks","type":"uint256","internalType":"uint256"}],"outputs":[{"name":"","type":"uint256","internalType":"uint256"}],"stateMutability":"view"},{"type":"function","name":"cancelUnstake","inputs":[{"name":"unstakeID","type":"uint256","internalType":"uint256"}],"outputs":[],"stateMutability":"nonpayable"},{"type":"function","name":"claimAllRewards","inputs":[{"name":"poolIDs","type":"bytes32[]","internalType":"bytes32[]"}],"outputs":[{"name":"claimableRewards","type":"uint256","internalType":"uint256"}],"stateMutability":"nonpayable"},{"type":"function","name":"exchangeConfig","inputs":[],"outputs":[{"name":"","type":"address","internalType":"contract IExchangeConfig"}],"stateMutability":"view"},{"type":"function","name":"nextUnstakeID","inputs":[],"outputs":[{"name":"","type":"uint256","internalType":"uint256"}],"stateMutability":"view"},{"type":"function","name":"poolsConfig","inputs":[],"outputs":[{"name":"","type":"address","internalType":"contract IPoolsConfig"}],"stateMutability":"view"},{"type":"function","name":"recoverSALT","inputs":[{"name":"unstakeID","type":"uint256","internalType":"uint256"}],"outputs":[],"stateMutability":"nonpayable"},{"type":"function","name":"salt","inputs":[],"outputs":[{"name":"","type":"address","internalType":"contract ISalt"}],"stateMutability":"view"},{"type":"function","name":"stakeSALT","inputs":[{"name":"amountToStake","type":"uint256","internalType":"uint256"}],"outputs":[],"stateMutability":"nonpayable"},{"type":"function","name":"stakingConfig","inputs":[],"outputs":[{"name":"","type":"address","internalType":"contract IStakingConfig"}],"stateMutability":"view"},{"type":"function","name":"totalRewards","inputs":[{"name":"","type":"bytes32","internalType":"bytes32"}],"outputs":[{"name":"","type":"uint256","internalType":"uint256"}],"stateMutability":"view"},{"type":"function","name":"totalRewardsForPools","inputs":[{"name":"poolIDs","type":"bytes32[]","internalType":"bytes32[]"}],"outputs":[{"name":"rewards","type":"uint256[]","internalType":"uint256[]"}],"stateMutability":"view"},{"type":"function","name":"totalShares","inputs":[{"name":"","type":"bytes32","internalType":"bytes32"}],"outputs":[{"name":"","type":"uint256","internalType":"uint256"}],"stateMutability":"view"},{"type":"function","name":"totalSharesForPools","inputs":[{"name":"poolIDs","type":"bytes32[]","internalType":"bytes32[]"}],"outputs":[{"name":"shares","type":"uint256[]","internalType":"uint256[]"}],"stateMutability":"view"},{"type":"function","name":"transferStakedSaltFromAirdropToUser","inputs":[{"name":"wallet","type":"address","internalType":"address"},{"name":"amountToTransfer","type":"uint256","internalType":"uint256"}],"outputs":[],"stateMutability":"nonpayable"},{"type":"function","name":"unstake","inputs":[{"name":"amountUnstaked","type":"uint256","internalType":"uint256"},{"name":"numWeeks","type":"uint256","internalType":"uint256"}],"outputs":[{"name":"unstakeID","type":"uint256","internalType":"uint256"}],"stateMutability":"nonpayable"},{"type":"function","name":"unstakeByID","inputs":[{"name":"id","type":"uint256","internalType":"uint256"}],"outputs":[{"name":"","type":"tuple","internalType":"struct Unstake","components":[{"name":"status","type":"uint8","internalType":"enum UnstakeState"},{"name":"wallet","type":"address","internalType":"address"},{"name":"unstakedXSALT","type":"uint256","internalType":"uint256"},{"name":"claimableSALT","type":"uint256","internalType":"uint256"},{"name":"completionTime","type":"uint256","internalType":"uint256"},{"name":"unstakeID","type":"uint256","internalType":"uint256"}]}],"stateMutability":"view"},{"type":"function","name":"unstakesForUser","inputs":[{"name":"user","type":"address","internalType":"address"}],"outputs":[{"name":"","type":"tuple[]","internalType":"struct Unstake[]","components":[{"name":"status","type":"uint8","internalType":"enum UnstakeState"},{"name":"wallet","type":"address","internalType":"address"},{"name":"unstakedXSALT","type":"uint256","internalType":"uint256"},{"name":"claimableSALT","type":"uint256","internalType":"uint256"},{"name":"completionTime","type":"uint256","internalType":"uint256"},{"name":"unstakeID","type":"uint256","internalType":"uint256"}]}],"stateMutability":"view"},{"type":"function","name":"unstakesForUser","inputs":[{"name":"user","type":"address","internalType":"address"},{"name":"start","type":"uint256","internalType":"uint256"},{"name":"end","type":"uint256","internalType":"uint256"}],"outputs":[{"name":"","type":"tuple[]","internalType":"struct Unstake[]","components":[{"name":"status","type":"uint8","internalType":"enum UnstakeState"},{"name":"wallet","type":"address","internalType":"address"},{"name":"unstakedXSALT","type":"uint256","internalType":"uint256"},{"name":"claimableSALT","type":"uint256","internalType":"uint256"},{"name":"completionTime","type":"uint256","internalType":"uint256"},{"name":"unstakeID","type":"uint256","internalType":"uint256"}]}],"stateMutability":"view"},{"type":"function","name":"userCooldowns","inputs":[{"name":"wallet","type":"address","internalType":"address"},{"name":"poolIDs","type":"bytes32[]","internalType":"bytes32[]"}],"outputs":[{"name":"cooldowns","type":"uint256[]","internalType":"uint256[]"}],"stateMutability":"view"},{"type":"function","name":"userRewardForPool","inputs":[{"name":"wallet","type":"address","internalType":"address"},{"name":"poolID","type":"bytes32","internalType":"bytes32"}],"outputs":[{"name":"","type":"uint256","internalType":"uint256"}],"stateMutability":"view"},{"type":"function","name":"userRewardsForPools","inputs":[{"name":"wallet","type":"address","internalType":"address"},{"name":"poolIDs","type":"bytes32[]","internalType":"bytes32[]"}],"outputs":[{"name":"rewards","type":"uint256[]","internalType":"uint256[]"}],"stateMutability":"view"},{"type":"function","name":"userShareForPool","inputs":[{"name":"wallet","type":"address","internalType":"address"},{"name":"poolID","type":"bytes32","internalType":"bytes32"}],"outputs":[{"name":"","type":"uint256","internalType":"uint256"}],"stateMutability":"view"},{"type":"function","name":"userShareForPools","inputs":[{"name":"wallet","type":"address","internalType":"address"},{"name":"poolIDs","type":"bytes32[]","internalType":"bytes32[]"}],"outputs":[{"name":"shares","type":"uint256[]","internalType":"uint256[]"}],"stateMutability":"view"},{"type":"function","name":"userUnstakeIDs","inputs":[{"name":"user","type":"address","internalType":"address"}],"outputs":[{"name":"","type":"uint256[]","internalType":"uint256[]"}],"stateMutability":"view"},{"type":"function","name":"userVirtualRewardsForPool","inputs":[{"name":"wallet","type":"address","internalType":"address"},{"name":"poolID","type":"bytes32","internalType":"bytes32"}],"outputs":[{"name":"","type":"uint256","internalType":"uint256"}],"stateMutability":"view"},{"type":"function","name":"userXSalt","inputs":[{"name":"wallet","type":"address","internalType":"address"}],"outputs":[{"name":"","type":"uint256","internalType":"uint256"}],"stateMutability":"view"},{"type":"event","name":"RewardsClaimed","inputs":[{"name":"wallet","type":"address","indexed":true,"internalType":"address"},{"name":"claimedRewards","type":"uint256","indexed":false,"internalType":"uint256"}],"anonymous":false},{"type":"event","name":"SALTRecovered","inputs":[{"name":"user","type":"address","indexed":true,"internalType":"address"},{"name":"unstakeID","type":"uint256","indexed":true,"internalType":"uint256"},{"name":"saltRecovered","type":"uint256","indexed":false,"internalType":"uint256"},{"name":"expeditedUnstakeFee","type":"uint256","indexed":false,"internalType":"uint256"}],"anonymous":false},{"type":"event","name":"SALTStaked","inputs":[{"name":"user","type":"address","indexed":true,"internalType":"address"},{"name":"amountStaked","type":"uint256","indexed":false,"internalType":"uint256"}],"anonymous":false},{"type":"event","name":"SaltRewardsAdded","inputs":[{"name":"poolID","type":"bytes32","indexed":true,"internalType":"bytes32"},{"name":"amountAdded","type":"uint256","indexed":false,"internalType":"uint256"}],"anonymous":false},{"type":"event","name":"UnstakeCancelled","inputs":[{"name":"user","type":"address","indexed":true,"internalType":"address"},{"name":"unstakeID","type":"uint256","indexed":true,"internalType":"uint256"}],"anonymous":false},{"type":"event","name":"UnstakeInitiated","inputs":[{"name":"user","type":"address","indexed":true,"internalType":"address"},{"name":"unstakeID","type":"uint256","indexed":true,"internalType":"uint256"},{"name":"amountUnstaked","type":"uint256","indexed":false,"internalType":"uint256"},{"name":"claimableSALT","type":"uint256","indexed":false,"internalType":"uint256"},{"name":"numWeeks","type":"uint256","indexed":false,"internalType":"uint256"}],"anonymous":false},{"type":"event","name":"UserShareDecreased","inputs":[{"name":"wallet","type":"address","indexed":true,"internalType":"address"},{"name":"poolID","type":"bytes32","indexed":true,"internalType":"bytes32"},{"name":"amountDecreased","type":"uint256","indexed":false,"internalType":"uint256"},{"name":"claimedRewards","type":"uint256","indexed":false,"internalType":"uint256"}],"anonymous":false},{"type":"event","name":"UserShareIncreased","inputs":[{"name":"wallet","type":"address","indexed":true,"internalType":"address"},{"name":"poolID","type":"bytes32","indexed":true,"internalType":"bytes32"},{"name":"amountIncreased","type":"uint256","indexed":false,"internalType":"uint256"}],"anonymous":false},{"type":"event","name":"XSALTTransferredFromAirdrop","inputs":[{"name":"toUser","type":"address","indexed":true,"internalType":"address"},{"name":"amountTransferred","type":"uint256","indexed":false,"internalType":"uint256"}],"anonymous":false}],"bytecode":{"object":"0x6101006040523480156200001257600080fd5b50604051620039b3380380620039b38339810160408190526200003591620000f0565b60016000556001600160a01b0380841660a081905281841660e05290821660c0526040805163bfa0b13360e01b8152905185928592859263bfa0b133916004808201926020929091908290030181865afa15801562000098573d6000803e3d6000fd5b505050506040513d601f19601f82011682018060405250810190620000be919062000144565b6001600160a01b0316608052506200016b945050505050565b6001600160a01b0381168114620000ed57600080fd5b50565b6000806000606084860312156200010657600080fd5b83516200011381620000d7565b60208501519093506200012681620000d7565b60408501519092506200013981620000d7565b809150509250925092565b6000602082840312156200015757600080fd5b81516200016481620000d7565b9392505050565b60805160a05160c05160e05161379062000223600039600081816102ef0152818161055301526123a8015260008181610288015281816119a301528181611a3601528181611ac9015281816126360152612ad50152600081816101ce0152818161072e0152818161138e015281816124fc015261299b015260008181610465015281816106c10152818161084601528181611e3e01528181611e7d01528181611f1c015281816120970152612d2d01526137906000f3fe608060405234801561001057600080fd5b50600436106101c45760003560e01c80638a99256c116100f95780639f71cc3d11610097578063d8382d6d11610071578063d8382d6d14610487578063de6448491461049a578063e970e29e146104ba578063f38a851e146104cd57600080fd5b80639f71cc3d1461043a578063be466eb11461044d578063bfa0b1331461046057600080fd5b8063934f4fe2116100d3578063934f4fe2146103a957806394c64eaa146103b257806397146776146103d25780639e2c8a5b1461042757600080fd5b80638a99256c146103705780638ce5146b146103835780638f3680451461039657600080fd5b80633a5266ae1161016657806370c512d21161014057806370c512d21461032457806371481a7e14610337578063798248931461034a5780637eed72261461035d57600080fd5b80633a5266ae146102ca57806352c19b5a146102ea57806352e01deb1461031157600080fd5b806320545c37116101a257806320545c371461025d5780632b187b2b1461027057806336829dfc1461028357806338c56364146102aa57600080fd5b80630e2789bb146101c9578063112ad3441461021a57806312e8d5941461022f575b600080fd5b6101f07f000000000000000000000000000000000000000000000000000000000000000081565b60405173ffffffffffffffffffffffffffffffffffffffff90911681526020015b60405180910390f35b61022d6102283660046130f9565b6104e0565b005b61024f61023d36600461316e565b60036020526000908152604090205481565b604051908152602001610211565b61022d61026b36600461316e565b6106f8565b61022d61027e36600461316e565b6108b0565b6101f07f000000000000000000000000000000000000000000000000000000000000000081565b6102bd6102b83660046131f5565b610ad0565b604051610211919061324a565b6102dd6102d8366004613282565b610be0565b6040516102119190613357565b6101f07f000000000000000000000000000000000000000000000000000000000000000081565b6102dd61031f366004613399565b610cf8565b6102bd6103323660046131f5565b61108f565b6102bd6103453660046133ce565b611129565b6102bd6103583660046131f5565b6111d4565b61024f61036b366004613410565b6112b5565b6102bd61037e366004613282565b611313565b61022d610391366004613410565b61138c565b61024f6103a4366004613282565b61154f565b61024f60065481565b6103c56103c036600461316e565b611597565b604051610211919061343c565b61024f6103e0366004613410565b73ffffffffffffffffffffffffffffffffffffffff91909116600090815260016020908152604080832093835292905220546fffffffffffffffffffffffffffffffff1690565b61024f61043536600461344a565b61167d565b6102bd6104483660046133ce565b6118fa565b61024f61045b36600461344a565b61199e565b6101f07f000000000000000000000000000000000000000000000000000000000000000081565b61022d61049536600461316e565b611c6d565b61024f6104a836600461316e565b60026020526000908152604090205481565b61024f6104c83660046133ce565b611f92565b61024f6104db366004613410565b6120ff565b6104e861223e565b6000805b828110156106a05760008484838181106105085761050861346c565b90506040020180360381019061051e91906134ca565b80516040517f01a5e3fe00000000000000000000000000000000000000000000000000000000815260048101829052919250907f000000000000000000000000000000000000000000000000000000000000000073ffffffffffffffffffffffffffffffffffffffff16906301a5e3fe90602401602060405180830381865afa1580156105af573d6000803e3d6000fd5b505050506040513d601f19601f820116820180604052508101906105d39190613540565b6106245760405162461bcd60e51b815260206004820152600c60248201527f496e76616c696420706f6f6c000000000000000000000000000000000000000060448201526064015b60405180910390fd5b6020808301516000838152600290925260408220805491928392610649908490613591565b9091555061065990508186613591565b9450817f1a3928ff1b0861fed322d892257f1e66f67b3e6c080f3d6d0fe12753bf2368578260405161068d91815260200190565b60405180910390a25050506001016104ec565b5080156106e9576106e973ffffffffffffffffffffffffffffffffffffffff7f000000000000000000000000000000000000000000000000000000000000000016333084612297565b506106f46001600055565b5050565b61070061223e565b6040517fcf4a66510000000000000000000000000000000000000000000000000000000081523360048201527f000000000000000000000000000000000000000000000000000000000000000073ffffffffffffffffffffffffffffffffffffffff169063cf4a665190602401602060405180830381865afa15801561078a573d6000803e3d6000fd5b505050506040513d601f19601f820116820180604052508101906107ae9190613540565b61081f5760405162461bcd60e51b8152602060048201526024808201527f53656e64657220646f6573206e6f7420686176652065786368616e676520616360448201527f6365737300000000000000000000000000000000000000000000000000000000606482015260840161061b565b61082c3360008381612379565b61086e73ffffffffffffffffffffffffffffffffffffffff7f000000000000000000000000000000000000000000000000000000000000000016333084612297565b60405181815233907f1209b85873f9c846d383ff7abc23c109087fb4b13b286a3c4c413a03171ac3d79060200160405180910390a26108ad6001600055565b50565b6108b861223e565b60008181526005602052604090206001815460ff1660038111156108de576108de61329f565b146109515760405162461bcd60e51b815260206004820152602660248201527f4f6e6c792050454e44494e4720756e7374616b65732063616e2062652063616e60448201527f63656c6c65640000000000000000000000000000000000000000000000000000606482015260840161061b565b806003015442106109ca5760405162461bcd60e51b815260206004820152603860248201527f556e7374616b65732074686174206861766520616c726561647920636f6d706c60448201527f657465642063616e6e6f742062652063616e63656c6c65640000000000000000606482015260840161061b565b8054610100900473ffffffffffffffffffffffffffffffffffffffff163314610a5b5760405162461bcd60e51b815260206004820152602160248201527f53656e646572206973206e6f7420746865206f726967696e616c207374616b6560448201527f7200000000000000000000000000000000000000000000000000000000000000606482015260840161061b565b610a6f336000801b83600101546000612379565b80547fffffffffffffffffffffffffffffffffffffffffffffffffffffffffffffff00166002178155604051829033907f02fbe69eb5474cc010b6c0c236dd70755556cee48c19373e79147100e04de70b90600090a3506108ad6001600055565b60608167ffffffffffffffff811115610aeb57610aeb61349b565b604051908082528060200260200182016040528015610b14578160200160208202803683370190505b5073ffffffffffffffffffffffffffffffffffffffff851660009081526001602052604081209192505b8251811015610bd7576000826000878785818110610b5e57610b5e61346c565b905060200201358152602001908152602001600020600101549050804210610ba5576000848381518110610b9457610b9461346c565b602002602001018181525050610bce565b610baf42826135a4565b848381518110610bc157610bc161346c565b6020026020010181815250505b50600101610b3e565b50509392505050565b73ffffffffffffffffffffffffffffffffffffffff81166000908152600460209081526040808320805482518185028101850190935280835260609493830182828015610c4c57602002820191906000526020600020905b815481526020019060010190808311610c38575b505050505090508051600003610cdd576040805160008082526020820190925290610cd5565b610cc26040805160c081019091528060008152602001600073ffffffffffffffffffffffffffffffffffffffff168152602001600081526020016000815260200160008152602001600081525090565b815260200190600190039081610c725790505b509392505050565b610cf18360006001845161031f91906135a4565b9392505050565b606082821015610d705760405162461bcd60e51b815260206004820152602c60248201527f496e76616c69642072616e67653a20656e642063616e6e6f74206265206c657360448201527f73207468616e2073746172740000000000000000000000000000000000000000606482015260840161061b565b73ffffffffffffffffffffffffffffffffffffffff8416600090815260046020908152604080832080548251818502810185019093528083529192909190830182828015610ddd57602002820191906000526020600020905b815481526020019060010190808311610dc9575b5050505050905082815111610e5a5760405162461bcd60e51b815260206004820152602360248201527f496e76616c69642072616e67653a20656e64206973206f7574206f6620626f7560448201527f6e64730000000000000000000000000000000000000000000000000000000000606482015260840161061b565b80518410610ed05760405162461bcd60e51b815260206004820152602560248201527f496e76616c69642072616e67653a207374617274206973206f7574206f66206260448201527f6f756e6473000000000000000000000000000000000000000000000000000000606482015260840161061b565b6000610edc85856135a4565b610ee7906001613591565b67ffffffffffffffff811115610eff57610eff61349b565b604051908082528060200260200182016040528015610f8057816020015b610f6d6040805160c081019091528060008152602001600073ffffffffffffffffffffffffffffffffffffffff168152602001600081526020016000815260200160008152602001600081525090565b815260200190600190039081610f1d5790505b5090506000855b8581116110835760056000858381518110610fa457610fa461346c565b602002602001015181526020019081526020016000206040518060c00160405290816000820160009054906101000a900460ff166003811115610fe957610fe961329f565b6003811115610ffa57610ffa61329f565b81528154610100900473ffffffffffffffffffffffffffffffffffffffff16602082015260018201546040820152600282015460608201526003820154608082015260049091015460a0909101528383611053816135b7565b9450815181106110655761106561346c565b6020026020010181905250808061107b906135b7565b915050610f87565b50909695505050505050565b60608167ffffffffffffffff8111156110aa576110aa61349b565b6040519080825280602002602001820160405280156110d3578160200160208202803683370190505b50905060005b8151811015610cd557611104858585848181106110f8576110f861346c565b905060200201356120ff565b8282815181106111165761111661346c565b60209081029190910101526001016110d9565b60608167ffffffffffffffff8111156111445761114461349b565b60405190808252806020026020018201604052801561116d578160200160208202803683370190505b50905060005b81518110156111cd57600260008585848181106111925761119261346c565b905060200201358152602001908152602001600020548282815181106111ba576111ba61346c565b6020908102919091010152600101611173565b5092915050565b60608167ffffffffffffffff8111156111ef576111ef61349b565b604051908082528060200260200182016040528015611218578160200160208202803683370190505b50905060005b8151811015610cd55773ffffffffffffffffffffffffffffffffffffffff851660009081526001602052604081209085858481811061125f5761125f61346c565b602090810292909201358352508101919091526040016000205482516fffffffffffffffffffffffffffffffff909116908390839081106112a2576112a261346c565b602090810291909101015260010161121e565b73ffffffffffffffffffffffffffffffffffffffff8216600090815260016020908152604080832084845290915290205470010000000000000000000000000000000090046fffffffffffffffffffffffffffffffff165b92915050565b73ffffffffffffffffffffffffffffffffffffffff811660009081526004602090815260409182902080548351818402810184019094528084526060939283018282801561138057602002820191906000526020600020905b81548152602001906001019080831161136c575b50505050509050919050565b7f000000000000000000000000000000000000000000000000000000000000000073ffffffffffffffffffffffffffffffffffffffff16633884d6356040518163ffffffff1660e01b8152600401602060405180830381865afa1580156113f7573d6000803e3d6000fd5b505050506040513d601f19601f8201168201806040525081019061141b91906135ef565b73ffffffffffffffffffffffffffffffffffffffff163373ffffffffffffffffffffffffffffffffffffffff16146114e15760405162461bcd60e51b815260206004820152605660248201527f5374616b696e672e7472616e736665725374616b656453616c7446726f6d416960448201527f7264726f70546f55736572206973206f6e6c792063616c6c61626c652066726f60648201527f6d207468652041697264726f7020636f6e747261637400000000000000000000608482015260a40161061b565b6114ee336000838161288a565b6114fb8260008381612379565b8173ffffffffffffffffffffffffffffffffffffffff167f35b2dc25675295208c90a800e8992cdaa643a53aef97c340fc11833101c1b79d8260405161154391815260200190565b60405180910390a25050565b73ffffffffffffffffffffffffffffffffffffffff811660009081526001602090815260408083208380529091528120546fffffffffffffffffffffffffffffffff1661130d565b6115e76040805160c081019091528060008152602001600073ffffffffffffffffffffffffffffffffffffffff168152602001600081526020016000815260200160008152602001600081525090565b60008281526005602052604090819020815160c081019092528054829060ff1660038111156116185761161861329f565b60038111156116295761162961329f565b81528154610100900473ffffffffffffffffffffffffffffffffffffffff16602082015260018201546040820152600282015460608201526003820154608082015260049091015460a09091015292915050565b600061168761223e565b33600090815260016020908152604080832083805290915290205483906fffffffffffffffffffffffffffffffff16101561172a5760405162461bcd60e51b815260206004820152602a60248201527f43616e6e6f7420756e7374616b65206d6f7265207468616e2074686520616d6f60448201527f756e74207374616b656400000000000000000000000000000000000000000000606482015260840161061b565b6000611736848461199e565b905060006117478462093a8061360c565b6117519042613591565b600680549192506000611763836135b7565b91905055925060006040518060c00160405280600160038111156117895761178961329f565b81523360208083019190915260408083018a9052606083018790526080830186905260a0909201879052600087815260059091522081518154929350839282907fffffffffffffffffffffffffffffffffffffffffffffffffffffffffffffff001660018360038111156117ff576117ff61329f565b0217905550602082810151825473ffffffffffffffffffffffffffffffffffffffff909116610100027fffffffffffffffffffffff0000000000000000000000000000000000000000ff909116178255604080840151600180850191909155606085015160028501556080850151600385015560a0909401516004938401553360008181529383529083208054948501815583529082209092018690556118a89190888161288a565b6040805187815260208101859052908101869052849033907f6a3db3ac47525d11b2c87b5c8214a9e67787e1b875e2a2f4944f6bb409018c109060600160405180910390a350505061130d6001600055565b60608167ffffffffffffffff8111156119155761191561349b565b60405190808252806020026020018201604052801561193e578160200160208202803683370190505b50905060005b81518110156111cd57600360008585848181106119635761196361346c565b9050602002013581526020019081526020016000205482828151811061198b5761198b61346c565b6020908102919091010152600101611944565b6000807f000000000000000000000000000000000000000000000000000000000000000073ffffffffffffffffffffffffffffffffffffffff166390d609656040518163ffffffff1660e01b8152600401602060405180830381865afa158015611a0c573d6000803e3d6000fd5b505050506040513d601f19601f82011682018060405250810190611a309190613623565b905060007f000000000000000000000000000000000000000000000000000000000000000073ffffffffffffffffffffffffffffffffffffffff16631d3703806040518163ffffffff1660e01b8152600401602060405180830381865afa158015611a9f573d6000803e3d6000fd5b505050506040513d601f19601f82011682018060405250810190611ac39190613623565b905060007f000000000000000000000000000000000000000000000000000000000000000073ffffffffffffffffffffffffffffffffffffffff166340cf22746040518163ffffffff1660e01b8152600401602060405180830381865afa158015611b32573d6000803e3d6000fd5b505050506040513d601f19601f82011682018060405250810190611b569190613623565b905082851015611ba85760405162461bcd60e51b815260206004820152601c60248201527f556e7374616b696e67206475726174696f6e20746f6f2073686f727400000000604482015260640161061b565b81851115611bf85760405162461bcd60e51b815260206004820152601b60248201527f556e7374616b696e67206475726174696f6e20746f6f206c6f6e670000000000604482015260640161061b565b6000611c058260646135a4565b90506000611c1385856135a4565b90506000611c2186896135a4565b611c2b908461360c565b611c35838661360c565b611c3f9190613591565b611c49908a61360c565b9050611c5682606461360c565b611c60908261363c565b9998505050505050505050565b611c7561223e565b60008181526005602052604090206001815460ff166003811115611c9b57611c9b61329f565b14611d0d5760405162461bcd60e51b8152602060048201526024808201527f4f6e6c792050454e44494e4720756e7374616b65732063616e20626520636c6160448201527f696d656400000000000000000000000000000000000000000000000000000000606482015260840161061b565b8060030154421015611d615760405162461bcd60e51b815260206004820152601d60248201527f556e7374616b6520686173206e6f7420636f6d706c6574656420796574000000604482015260640161061b565b8054610100900473ffffffffffffffffffffffffffffffffffffffff163314611df25760405162461bcd60e51b815260206004820152602160248201527f53656e646572206973206e6f7420746865206f726967696e616c207374616b6560448201527f7200000000000000000000000000000000000000000000000000000000000000606482015260840161061b565b80547fffffffffffffffffffffffffffffffffffffffffffffffffffffffffffffff0016600317815560028101546001820154600091611e31916135a4565b90508015611efc57611e7b7f000000000000000000000000000000000000000000000000000000000000000073ffffffffffffffffffffffffffffffffffffffff81169083612db1565b7f000000000000000000000000000000000000000000000000000000000000000073ffffffffffffffffffffffffffffffffffffffff16635730c5436040518163ffffffff1660e01b8152600401600060405180830381600087803b158015611ee357600080fd5b505af1158015611ef7573d6000803e3d6000fd5b505050505b6002820154611f449073ffffffffffffffffffffffffffffffffffffffff7f000000000000000000000000000000000000000000000000000000000000000016903390612db1565b60028201546040805191825260208201839052849133917f42f43190fef8e03bebb084bfe4b83bec1dad44df47d8687cc8d81a40e1530e78910160405180910390a350506108ad6001600055565b6000611f9c61223e565b50336000908152600160205260408120815b83811015612076576000858583818110611fca57611fca61346c565b9050602002013590506000611fdf33836120ff565b60008381526020869052604090208054919250829160109061202890849070010000000000000000000000000000000090046fffffffffffffffffffffffffffffffff16613677565b92506101000a8154816fffffffffffffffffffffffffffffffff02191690836fffffffffffffffffffffffffffffffff160217905550808561206a9190613591565b94505050600101611fae565b5081156120f4576120be73ffffffffffffffffffffffffffffffffffffffff7f0000000000000000000000000000000000000000000000000000000000000000163384612db1565b60405182815233907ffc30cddea38e2bf4d6ea7d3f9ed3b6ad7f176419f4963bd81318067a4aee73fe9060200160405180910390a25b5061130d6001600055565b600081815260036020526040812054810361211c5750600061130d565b73ffffffffffffffffffffffffffffffffffffffff831660009081526001602081815260408084208685528252808420815160608101835281546fffffffffffffffffffffffffffffffff8082168084527001000000000000000000000000000000009092041694820194909452930154908301529091036121a257600091505061130d565b600083815260036020908152604080832054845160029093529083205490916121df916fffffffffffffffffffffffffffffffff9091169061360c565b6121e9919061363c565b90508082602001516fffffffffffffffffffffffffffffffff1611156122145760009250505061130d565b6020820151612235906fffffffffffffffffffffffffffffffff16826135a4565b95945050505050565b6002600054036122905760405162461bcd60e51b815260206004820152601f60248201527f5265656e7472616e637947756172643a207265656e7472616e742063616c6c00604482015260640161061b565b6002600055565b60405173ffffffffffffffffffffffffffffffffffffffff808516602483015283166044820152606481018290526123739085907f23b872dd00000000000000000000000000000000000000000000000000000000906084015b604080517fffffffffffffffffffffffffffffffffffffffffffffffffffffffffffffffe08184030181529190526020810180517bffffffffffffffffffffffffffffffffffffffffffffffffffffffff167fffffffff0000000000000000000000000000000000000000000000000000000090931692909217909152612e0c565b50505050565b6040517f01a5e3fe000000000000000000000000000000000000000000000000000000008152600481018490527f000000000000000000000000000000000000000000000000000000000000000073ffffffffffffffffffffffffffffffffffffffff16906301a5e3fe90602401602060405180830381865afa158015612404573d6000803e3d6000fd5b505050506040513d601f19601f820116820180604052508101906124289190613540565b6124745760405162461bcd60e51b815260206004820152600c60248201527f496e76616c696420706f6f6c0000000000000000000000000000000000000000604482015260640161061b565b816000036124c45760405162461bcd60e51b815260206004820152601a60248201527f43616e6e6f7420696e637265617365207a65726f207368617265000000000000604482015260640161061b565b73ffffffffffffffffffffffffffffffffffffffff84166000908152600160209081526040808320868452909152902081156126d3577f000000000000000000000000000000000000000000000000000000000000000073ffffffffffffffffffffffffffffffffffffffff16634162169f6040518163ffffffff1660e01b8152600401602060405180830381865afa158015612565573d6000803e3d6000fd5b505050506040513d601f19601f8201168201806040525081019061258991906135ef565b73ffffffffffffffffffffffffffffffffffffffff163373ffffffffffffffffffffffffffffffffffffffff16146126d35780600101544210156126345760405162461bcd60e51b8152602060048201526024808201527f4d757374207761697420666f722074686520636f6f6c646f776e20746f20657860448201527f7069726500000000000000000000000000000000000000000000000000000000606482015260840161061b565b7f000000000000000000000000000000000000000000000000000000000000000073ffffffffffffffffffffffffffffffffffffffff16639852e4196040518163ffffffff1660e01b8152600401602060405180830381865afa15801561269f573d6000803e3d6000fd5b505050506040513d601f19601f820116820180604052508101906126c39190613623565b6126cd9042613591565b60018201555b60008481526003602052604090205480156127bb5760008581526002602052604081205461270c9061270690879061360c565b83612f01565b83549091508190849060109061274990849070010000000000000000000000000000000090046fffffffffffffffffffffffffffffffff16613677565b92506101000a8154816fffffffffffffffffffffffffffffffff02191690836fffffffffffffffffffffffffffffffff160217905550806fffffffffffffffffffffffffffffffff166002600088815260200190815260200160002060008282546127b49190613591565b9091555050505b8154849083906000906127e19084906fffffffffffffffffffffffffffffffff16613677565b92506101000a8154816fffffffffffffffffffffffffffffffff02191690836fffffffffffffffffffffffffffffffff16021790555083816128239190613591565b6000868152600360209081526040918290209290925551858152869173ffffffffffffffffffffffffffffffffffffffff8916917f2d42c28eb0a06d672788615e7fbf33f445d2a9a2e6529cf1a719320b67b6289a910160405180910390a3505050505050565b816000036128da5760405162461bcd60e51b815260206004820152601a60248201527f43616e6e6f74206465637265617365207a65726f207368617265000000000000604482015260640161061b565b73ffffffffffffffffffffffffffffffffffffffff84166000908152600160209081526040808320868452909152902080546fffffffffffffffffffffffffffffffff168311156129935760405162461bcd60e51b815260206004820152602d60248201527f43616e6e6f74206465637265617365206d6f7265207468616e2065786973746960448201527f6e67207573657220736861726500000000000000000000000000000000000000606482015260840161061b565b8115612b72577f000000000000000000000000000000000000000000000000000000000000000073ffffffffffffffffffffffffffffffffffffffff16634162169f6040518163ffffffff1660e01b8152600401602060405180830381865afa158015612a04573d6000803e3d6000fd5b505050506040513d601f19601f82011682018060405250810190612a2891906135ef565b73ffffffffffffffffffffffffffffffffffffffff163373ffffffffffffffffffffffffffffffffffffffff1614612b72578060010154421015612ad35760405162461bcd60e51b8152602060048201526024808201527f4d757374207761697420666f722074686520636f6f6c646f776e20746f20657860448201527f7069726500000000000000000000000000000000000000000000000000000000606482015260840161061b565b7f000000000000000000000000000000000000000000000000000000000000000073ffffffffffffffffffffffffffffffffffffffff16639852e4196040518163ffffffff1660e01b8152600401602060405180830381865afa158015612b3e573d6000803e3d6000fd5b505050506040513d601f19601f82011682018060405250810190612b629190613623565b612b6c9042613591565b60018201555b6000848152600360209081526040808320546002909252822054612b9790869061360c565b612ba1919061363c565b82549091506000906fffffffffffffffffffffffffffffffff80821691612bde91889170010000000000000000000000000000000090041661360c565b612be8919061363c565b905081600260008881526020019081526020016000206000828254612c0d91906135a4565b909155505060008681526003602052604081208054879290612c309084906135a4565b9091555050825485908490600090612c5b9084906fffffffffffffffffffffffffffffffff166136a0565b92506101000a8154816fffffffffffffffffffffffffffffffff02191690836fffffffffffffffffffffffffffffffff160217905550808360000160108282829054906101000a90046fffffffffffffffffffffffffffffffff16612cc091906136a0565b92506101000a8154816fffffffffffffffffffffffffffffffff02191690836fffffffffffffffffffffffffffffffff160217905550600082821015612d0d57612d0a82846135a4565b90505b8015612d5457612d5473ffffffffffffffffffffffffffffffffffffffff7f0000000000000000000000000000000000000000000000000000000000000000168983612db1565b6040805187815260208101839052889173ffffffffffffffffffffffffffffffffffffffff8b16917ff3ff952bb635509e33aac00d3bce385321c4a0e4ea2b60d92c7c5d3ddd24f6d0910160405180910390a35050505050505050565b60405173ffffffffffffffffffffffffffffffffffffffff8316602482015260448101829052612e079084907fa9059cbb00000000000000000000000000000000000000000000000000000000906064016122f1565b505050565b6000612e6e826040518060400160405280602081526020017f5361666545524332303a206c6f772d6c6576656c2063616c6c206661696c65648152508573ffffffffffffffffffffffffffffffffffffffff16612f389092919063ffffffff16565b9050805160001480612e8f575080806020019051810190612e8f9190613540565b612e075760405162461bcd60e51b815260206004820152602a60248201527f5361666545524332303a204552433230206f7065726174696f6e20646964206e60448201527f6f74207375636365656400000000000000000000000000000000000000000000606482015260840161061b565b60008215612f2f5781612f156001856135a4565b612f1f919061363c565b612f2a906001613591565b610cf1565b60009392505050565b6060612f478484600085612f4f565b949350505050565b606082471015612fc75760405162461bcd60e51b815260206004820152602660248201527f416464726573733a20696e73756666696369656e742062616c616e636520666f60448201527f722063616c6c0000000000000000000000000000000000000000000000000000606482015260840161061b565b6000808673ffffffffffffffffffffffffffffffffffffffff168587604051612ff091906136ed565b60006040518083038185875af1925050503d806000811461302d576040519150601f19603f3d011682016040523d82523d6000602084013e613032565b606091505b50915091506130438783838761304e565b979650505050505050565b606083156130ca5782516000036130c35773ffffffffffffffffffffffffffffffffffffffff85163b6130c35760405162461bcd60e51b815260206004820152601d60248201527f416464726573733a2063616c6c20746f206e6f6e2d636f6e7472616374000000604482015260640161061b565b5081612f47565b612f4783838151156130df5781518083602001fd5b8060405162461bcd60e51b815260040161061b9190613709565b6000806020838503121561310c57600080fd5b823567ffffffffffffffff8082111561312457600080fd5b818501915085601f83011261313857600080fd5b81358181111561314757600080fd5b8660208260061b850101111561315c57600080fd5b60209290920196919550909350505050565b60006020828403121561318057600080fd5b5035919050565b73ffffffffffffffffffffffffffffffffffffffff811681146108ad57600080fd5b60008083601f8401126131bb57600080fd5b50813567ffffffffffffffff8111156131d357600080fd5b6020830191508360208260051b85010111156131ee57600080fd5b9250929050565b60008060006040848603121561320a57600080fd5b833561321581613187565b9250602084013567ffffffffffffffff81111561323157600080fd5b61323d868287016131a9565b9497909650939450505050565b6020808252825182820181905260009190848201906040850190845b8181101561108357835183529284019291840191600101613266565b60006020828403121561329457600080fd5b8135610cf181613187565b7f4e487b7100000000000000000000000000000000000000000000000000000000600052602160045260246000fd5b805160048110613307577f4e487b7100000000000000000000000000000000000000000000000000000000600052602160045260246000fd5b8083525073ffffffffffffffffffffffffffffffffffffffff602082015116602083015260408101516040830152606081015160608301526080810151608083015260a081015160a08301525050565b6020808252825182820181905260009190848201906040850190845b81811015611083576133868385516132ce565b9284019260c09290920191600101613373565b6000806000606084860312156133ae57600080fd5b83356133b981613187565b95602085013595506040909401359392505050565b600080602083850312156133e157600080fd5b823567ffffffffffffffff8111156133f857600080fd5b613404858286016131a9565b90969095509350505050565b6000806040838503121561342357600080fd5b823561342e81613187565b946020939093013593505050565b60c0810161130d82846132ce565b6000806040838503121561345d57600080fd5b50508035926020909101359150565b7f4e487b7100000000000000000000000000000000000000000000000000000000600052603260045260246000fd5b7f4e487b7100000000000000000000000000000000000000000000000000000000600052604160045260246000fd5b6000604082840312156134dc57600080fd5b6040516040810181811067ffffffffffffffff82111715613526577f4e487b7100000000000000000000000000000000000000000000000000000000600052604160045260246000fd5b604052823581526020928301359281019290925250919050565b60006020828403121561355257600080fd5b81518015158114610cf157600080fd5b7f4e487b7100000000000000000000000000000000000000000000000000000000600052601160045260246000fd5b8082018082111561130d5761130d613562565b8181038181111561130d5761130d613562565b60007fffffffffffffffffffffffffffffffffffffffffffffffffffffffffffffffff82036135e8576135e8613562565b5060010190565b60006020828403121561360157600080fd5b8151610cf181613187565b808202811582820484141761130d5761130d613562565b60006020828403121561363557600080fd5b5051919050565b600082613672577f4e487b7100000000000000000000000000000000000000000000000000000000600052601260045260246000fd5b500490565b6fffffffffffffffffffffffffffffffff8181168382160190808211156111cd576111cd613562565b6fffffffffffffffffffffffffffffffff8281168282160390808211156111cd576111cd613562565b60005b838110156136e45781810151838201526020016136cc565b50506000910152565b600082516136ff8184602087016136c9565b9190910192915050565b60208152600082518060208401526137288160408501602087016136c9565b601f017fffffffffffffffffffffffffffffffffffffffffffffffffffffffffffffffe016919091016040019291505056fea264697066735822122020aa077c0f724222f36909bd8f9365e81faffc266a8977c58aff013a7d77670a64736f6c63430008160033","linkReferences":{}},"methodIdentifiers":{"addSALTRewards((bytes32,uint256)[])":"112ad344","calculateUnstake(uint256,uint256)":"be466eb1","cancelUnstake(uint256)":"2b187b2b","claimAllRewards(bytes32[])":"e970e29e","exchangeConfig()":"0e2789bb","nextUnstakeID()":"934f4fe2","poolsConfig()":"52c19b5a","recoverSALT(uint256)":"d8382d6d","salt()":"bfa0b133","stakeSALT(uint256)":"20545c37","stakingConfig()":"36829dfc","totalRewards(bytes32)":"de644849","totalRewardsForPools(bytes32[])":"71481a7e","totalShares(bytes32)":"12e8d594","totalSharesForPools(bytes32[])":"9f71cc3d","transferStakedSaltFromAirdropToUser(address,uint256)":"8ce5146b","unstake(uint256,uint256)":"9e2c8a5b","unstakeByID(uint256)":"94c64eaa","unstakesForUser(address)":"3a5266ae","unstakesForUser(address,uint256,uint256)":"52e01deb","userCooldowns(address,bytes32[])":"38c56364","userRewardForPool(address,bytes32)":"f38a851e","userRewardsForPools(address,bytes32[])":"70c512d2","userShareForPool(address,bytes32)":"97146776","userShareForPools(address,bytes32[])":"79824893","userUnstakeIDs(address)":"8a99256c","userVirtualRewardsForPool(address,bytes32)":"7eed7226","userXSalt(address)":"8f368045"},"id":161}