{"abi":[{"type":"constructor","inputs":[{"name":"_dao","type":"address","internalType":"contract IDAO"}],"stateMutability":"nonpayable"},{"type":"function","name":"dao","inputs":[],"outputs":[{"name":"","type":"address","internalType":"contract IDAO"}],"stateMutability":"view"},{"type":"function","name":"excludedCountriesUpdated","inputs":[],"outputs":[],"stateMutability":"nonpayable"},{"type":"function","name":"geoVersion","inputs":[],"outputs":[{"name":"","type":"uint256","internalType":"uint256"}],"stateMutability":"view"},{"type":"function","name":"grantAccess","inputs":[{"name":"signature","type":"bytes","internalType":"bytes"}],"outputs":[],"stateMutability":"nonpayable"},{"type":"function","name":"walletHasAccess","inputs":[{"name":"wallet","type":"address","internalType":"address"}],"outputs":[{"name":"","type":"bool","internalType":"bool"}],"stateMutability":"view"},{"type":"event","name":"AccessGranted","inputs":[{"name":"wallet","type":"address","indexed":true,"internalType":"address"},{"name":"geoVersion","type":"uint256","indexed":false,"internalType":"uint256"}],"anonymous":false}],"bytecode":{"object":"0x60a060405234801561001057600080fd5b506040516106da3803806106da83398101604081905261002f91610040565b6001600160a01b0316608052610070565b60006020828403121561005257600080fd5b81516001600160a01b038116811461006957600080fd5b9392505050565b60805161064961009160003960008181607101526102b301526106496000f3fe608060405234801561001057600080fd5b50600436106100675760003560e01c8063783af99711610050578063783af997146100d2578063a5e293b0146100da578063cf4a6651146100f157600080fd5b80634162169f1461006c5780634e25bada146100bd575b600080fd5b6100937f000000000000000000000000000000000000000000000000000000000000000081565b60405173ffffffffffffffffffffffffffffffffffffffff90911681526020015b60405180910390f35b6100d06100cb36600461052a565b610146565b005b6100d061029b565b6100e360015481565b6040519081526020016100b4565b6101366100ff36600461059c565b60015460009081526020818152604080832073ffffffffffffffffffffffffffffffffffffffff9094168352929052205460ff1690565b60405190151581526020016100b4565b6101863383838080601f01602080910402602001604051908101604052809392919081815260200183838082843760009201919091525061037992505050565b610217576040517f08c379a000000000000000000000000000000000000000000000000000000000815260206004820152602d60248201527f496e636f7272656374204163636573734d616e616765722e6772616e7441636360448201527f657373207369676e61746f72790000000000000000000000000000000000000060648201526084015b60405180910390fd5b600180546000908152602081815260408083203380855292529182902080547fffffffffffffffffffffffffffffffffffffffffffffffffffffffffffffff001684179055915490517fb4c6779ceb4a20f448e76a0e11f39bd183cff9c9dbac53df6bfcc202e2eb32f19161028f9190815260200190565b60405180910390a25050565b3373ffffffffffffffffffffffffffffffffffffffff7f00000000000000000000000000000000000000000000000000000000000000001614610360576040517f08c379a000000000000000000000000000000000000000000000000000000000815260206004820152603f60248201527f4163636573734d616e616765722e6578636c75646564436f756e74726965645560448201527f706461746564206f6e6c792063616c6c61626c65206279207468652044414f00606482015260840161020e565b600180600082825461037291906105d9565b9091555050565b60008046600154856040516020016103c993929190928352602083019190915260601b7fffffffffffffffffffffffffffffffffffffffff00000000000000000000000016604082015260540190565b6040516020818303038152906040528051906020012090506103eb81846103f5565b9150505b92915050565b60008151604114610462576040517f08c379a000000000000000000000000000000000000000000000000000000000815260206004820152601860248201527f496e76616c6964207369676e6174757265206c656e6774680000000000000000604482015260640161020e565b60208281015160408085015160418601518251600080825295810180855289905260ff8216938101939093526060830184905260808301829052929390929160019060a0016020604051602081039080840390855afa1580156104c9573d6000803e3d6000fd5b50506040517fffffffffffffffffffffffffffffffffffffffffffffffffffffffffffffffe0015173ffffffffffffffffffffffffffffffffffffffff16731234519dca2ef23207e1ca7fd70b96f281893baa149550505050505092915050565b6000806020838503121561053d57600080fd5b823567ffffffffffffffff8082111561055557600080fd5b818501915085601f83011261056957600080fd5b81358181111561057857600080fd5b86602082850101111561058a57600080fd5b60209290920196919550909350505050565b6000602082840312156105ae57600080fd5b813573ffffffffffffffffffffffffffffffffffffffff811681146105d257600080fd5b9392505050565b808201808211156103ef577f4e487b7100000000000000000000000000000000000000000000000000000000600052601160045260246000fdfea2646970667358221220b8f2b33cd7368195411e5a15c4b56caa5cd2be46ea8c9d0c476cb3c634a1c23864736f6c63430008160033","linkReferences":{}},"methodIdentifiers":{"dao()":"4162169f","excludedCountriesUpdated()":"783af997","geoVersion()":"a5e293b0","grantAccess(bytes)":"4e25bada","walletHasAccess(address)":"cf4a6651"},"id":43}