{"abi":[{"type":"constructor","inputs":[],"stateMutability":"nonpayable"},{"type":"function","name":"INITIAL_SUPPLY","inputs":[],"outputs":[{"name":"","type":"uint256","internalType":"uint256"}],"stateMutability":"view"},{"type":"function","name":"allowance","inputs":[{"name":"owner","type":"address","internalType":"address"},{"name":"spender","type":"address","internalType":"address"}],"outputs":[{"name":"","type":"uint256","internalType":"uint256"}],"stateMutability":"view"},{"type":"function","name":"approve","inputs":[{"name":"spender","type":"address","internalType":"address"},{"name":"amount","type":"uint256","internalType":"uint256"}],"outputs":[{"name":"","type":"bool","internalType":"bool"}],"stateMutability":"nonpayable"},{"type":"function","name":"balanceOf","inputs":[{"name":"account","type":"address","internalType":"address"}],"outputs":[{"name":"","type":"uint256","internalType":"uint256"}],"stateMutability":"view"},{"type":"function","name":"decimals","inputs":[],"outputs":[{"name":"","type":"uint8","internalType":"uint8"}],"stateMutability":"view"},{"type":"function","name":"decreaseAllowance","inputs":[{"name":"spender","type":"address","internalType":"address"},{"name":"subtractedValue","type":"uint256","internalType":"uint256"}],"outputs":[{"name":"","type":"bool","internalType":"bool"}],"stateMutability":"nonpayable"},{"type":"function","name":"deposit","inputs":[],"outputs":[],"stateMutability":"payable"},{"type":"function","name":"increaseAllowance","inputs":[{"name":"spender","type":"address","internalType":"address"},{"name":"addedValue","type":"uint256","internalType":"uint256"}],"outputs":[{"name":"","type":"bool","internalType":"bool"}],"stateMutability":"nonpayable"},{"type":"function","name":"name","inputs":[],"outputs":[{"name":"","type":"string","internalType":"string"}],"stateMutability":"view"},{"type":"function","name":"symbol","inputs":[],"outputs":[{"name":"","type":"string","internalType":"string"}],"stateMutability":"view"},{"type":"function","name":"test","inputs":[],"outputs":[],"stateMutability":"nonpayable"},{"type":"function","name":"totalSupply","inputs":[],"outputs":[{"name":"","type":"uint256","internalType":"uint256"}],"stateMutability":"view"},{"type":"function","name":"transfer","inputs":[{"name":"to","type":"address","internalType":"address"},{"name":"amount","type":"uint256","internalType":"uint256"}],"outputs":[{"name":"","type":"bool","internalType":"bool"}],"stateMutability":"nonpayable"},{"type":"function","name":"transferFrom","inputs":[{"name":"from","type":"address","internalType":"address"},{"name":"to","type":"address","internalType":"address"},{"name":"amount","type":"uint256","internalType":"uint256"}],"outputs":[{"name":"","type":"bool","internalType":"bool"}],"stateMutability":"nonpayable"},{"type":"function","name":"withdraw","inputs":[{"name":"wad","type":"uint256","internalType":"uint256"}],"outputs":[],"stateMutability":"nonpayable"},{"type":"event","name":"Approval","inputs":[{"name":"owner","type":"address","indexed":true,"internalType":"address"},{"name":"spender","type":"address","indexed":true,"internalType":"address"},{"name":"value","type":"uint256","indexed":false,"internalType":"uint256"}],"anonymous":false},{"type":"event","name":"Transfer","inputs":[{"name":"from","type":"address","indexed":true,"internalType":"address"},{"name":"to","type":"address","indexed":true,"internalType":"address"},{"name":"value","type":"uint256","indexed":false,"internalType":"uint256"}],"anonymous":false}],"bytecode":{"object":"0x60806040523480156200001157600080fd5b50604051806040016040528060088152602001670a8cae6e8ae8aa8960c31b815250604051806040016040528060048152602001630ae8aa8960e31b81525081600390816200006191906200022c565b5060046200007082826200022c565b50506005805460ff19166012908117909155620000909150600a6200040d565b620000a39066038d7ea4c6800062000425565b6006819055620000b5903390620000bb565b62000455565b6001600160a01b038216620001165760405162461bcd60e51b815260206004820152601f60248201527f45524332303a206d696e7420746f20746865207a65726f206164647265737300604482015260640160405180910390fd5b80600260008282546200012a91906200043f565b90915550506001600160a01b038216600081815260208181526040808320805486019055518481527fddf252ad1be2c89b69c2b068fc378daa952ba7f163c4a11628f55a4df523b3ef910160405180910390a35050565b505050565b634e487b7160e01b600052604160045260246000fd5b600181811c90821680620001b157607f821691505b602082108103620001d257634e487b7160e01b600052602260045260246000fd5b50919050565b601f82111562000181576000816000526020600020601f850160051c81016020861015620002035750805b601f850160051c820191505b8181101562000224578281556001016200020f565b505050505050565b81516001600160401b0381111562000248576200024862000186565b62000260816200025984546200019c565b84620001d8565b602080601f8311600181146200029857600084156200027f5750858301515b600019600386901b1c1916600185901b17855562000224565b600085815260208120601f198616915b82811015620002c957888601518255948401946001909101908401620002a8565b5085821015620002e85787850151600019600388901b60f8161c191681555b5050505050600190811b01905550565b634e487b7160e01b600052601160045260246000fd5b600181815b808511156200034f578160001904821115620003335762000333620002f8565b808516156200034157918102915b93841c939080029062000313565b509250929050565b600082620003685750600162000407565b81620003775750600062000407565b81600181146200039057600281146200039b57620003bb565b600191505062000407565b60ff841115620003af57620003af620002f8565b50506001821b62000407565b5060208310610133831016604e8410600b8410161715620003e0575081810a62000407565b620003ec83836200030e565b8060001904821115620004035762000403620002f8565b0290505b92915050565b60006200041e60ff84168362000357565b9392505050565b8082028115828204841417620004075762000407620002f8565b80820180821115620004075762000407620002f8565b610f4880620004656000396000f3fe6080604052600436106100e85760003560e01c8063395093511161008a578063a9059cbb11610059578063a9059cbb14610279578063d0e30db014610299578063dd62ed3e146102a1578063f8a8fd6d146102f457600080fd5b806339509351146101e157806370a082311461020157806395d89b4114610244578063a457c2d71461025957600080fd5b806323b872dd116100c657806323b872dd146101675780632e1a7d4d146101875780632ff2e9dc146101a9578063313ce567146101bf57600080fd5b806306fdde03146100ed578063095ea7b31461011857806318160ddd14610148575b600080fd5b3480156100f957600080fd5b50610102610300565b60405161010f9190610d1b565b60405180910390f35b34801561012457600080fd5b50610138610133366004610db1565b610392565b604051901515815260200161010f565b34801561015457600080fd5b506002545b60405190815260200161010f565b34801561017357600080fd5b50610138610182366004610ddb565b6103ac565b34801561019357600080fd5b506101a76101a2366004610e17565b6103d0565b005b3480156101b557600080fd5b5061015960065481565b3480156101cb57600080fd5b5060055460405160ff909116815260200161010f565b3480156101ed57600080fd5b506101386101fc366004610db1565b610427565b34801561020d57600080fd5b5061015961021c366004610e30565b73ffffffffffffffffffffffffffffffffffffffff1660009081526020819052604090205490565b34801561025057600080fd5b50610102610473565b34801561026557600080fd5b50610138610274366004610db1565b610482565b34801561028557600080fd5b50610138610294366004610db1565b610558565b6101a7610566565b3480156102ad57600080fd5b506101596102bc366004610e52565b73ffffffffffffffffffffffffffffffffffffffff918216600090815260016020908152604080832093909416825291909152205490565b3480156101a757600080fd5b60606003805461030f90610e85565b80601f016020809104026020016040519081016040528092919081815260200182805461033b90610e85565b80156103885780601f1061035d57610100808354040283529160200191610388565b820191906000526020600020905b81548152906001019060200180831161036b57829003601f168201915b5050505050905090565b6000336103a0818585610572565b60019150505b92915050565b6000336103ba858285610726565b6103c58585856107fd565b506001949350505050565b336000908152602081905260409020548111156103ec57600080fd5b6103f63382610a6c565b604051339082156108fc029083906000818181858888f19350505050158015610423573d6000803e3d6000fd5b5050565b33600081815260016020908152604080832073ffffffffffffffffffffffffffffffffffffffff871684529091528120549091906103a0908290869061046e908790610ed8565b610572565b60606004805461030f90610e85565b33600081815260016020908152604080832073ffffffffffffffffffffffffffffffffffffffff871684529091528120549091908381101561054b576040517f08c379a000000000000000000000000000000000000000000000000000000000815260206004820152602560248201527f45524332303a2064656372656173656420616c6c6f77616e63652062656c6f7760448201527f207a65726f00000000000000000000000000000000000000000000000000000060648201526084015b60405180910390fd5b6103c58286868403610572565b6000336103a08185856107fd565b6105703334610c28565b565b73ffffffffffffffffffffffffffffffffffffffff8316610614576040517f08c379a0000000000000000000000000000000000000000000000000000000008152602060048201526024808201527f45524332303a20617070726f76652066726f6d20746865207a65726f2061646460448201527f72657373000000000000000000000000000000000000000000000000000000006064820152608401610542565b73ffffffffffffffffffffffffffffffffffffffff82166106b7576040517f08c379a000000000000000000000000000000000000000000000000000000000815260206004820152602260248201527f45524332303a20617070726f766520746f20746865207a65726f20616464726560448201527f73730000000000000000000000000000000000000000000000000000000000006064820152608401610542565b73ffffffffffffffffffffffffffffffffffffffff83811660008181526001602090815260408083209487168084529482529182902085905590518481527f8c5be1e5ebec7d5bd14f71427d1e84f3dd0314c0f7b2291e5b200ac8c7c3b92591015b60405180910390a3505050565b73ffffffffffffffffffffffffffffffffffffffff8381166000908152600160209081526040808320938616835292905220547fffffffffffffffffffffffffffffffffffffffffffffffffffffffffffffffff81146107f757818110156107ea576040517f08c379a000000000000000000000000000000000000000000000000000000000815260206004820152601d60248201527f45524332303a20696e73756666696369656e7420616c6c6f77616e63650000006044820152606401610542565b6107f78484848403610572565b50505050565b73ffffffffffffffffffffffffffffffffffffffff83166108a0576040517f08c379a000000000000000000000000000000000000000000000000000000000815260206004820152602560248201527f45524332303a207472616e736665722066726f6d20746865207a65726f20616460448201527f64726573730000000000000000000000000000000000000000000000000000006064820152608401610542565b73ffffffffffffffffffffffffffffffffffffffff8216610943576040517f08c379a000000000000000000000000000000000000000000000000000000000815260206004820152602360248201527f45524332303a207472616e7366657220746f20746865207a65726f206164647260448201527f65737300000000000000000000000000000000000000000000000000000000006064820152608401610542565b73ffffffffffffffffffffffffffffffffffffffff8316600090815260208190526040902054818110156109f9576040517f08c379a000000000000000000000000000000000000000000000000000000000815260206004820152602660248201527f45524332303a207472616e7366657220616d6f756e742065786365656473206260448201527f616c616e636500000000000000000000000000000000000000000000000000006064820152608401610542565b73ffffffffffffffffffffffffffffffffffffffff848116600081815260208181526040808320878703905593871680835291849020805487019055925185815290927fddf252ad1be2c89b69c2b068fc378daa952ba7f163c4a11628f55a4df523b3ef910160405180910390a36107f7565b73ffffffffffffffffffffffffffffffffffffffff8216610b0f576040517f08c379a000000000000000000000000000000000000000000000000000000000815260206004820152602160248201527f45524332303a206275726e2066726f6d20746865207a65726f2061646472657360448201527f73000000000000000000000000000000000000000000000000000000000000006064820152608401610542565b73ffffffffffffffffffffffffffffffffffffffff821660009081526020819052604090205481811015610bc5576040517f08c379a000000000000000000000000000000000000000000000000000000000815260206004820152602260248201527f45524332303a206275726e20616d6f756e7420657863656564732062616c616e60448201527f63650000000000000000000000000000000000000000000000000000000000006064820152608401610542565b73ffffffffffffffffffffffffffffffffffffffff83166000818152602081815260408083208686039055600280548790039055518581529192917fddf252ad1be2c89b69c2b068fc378daa952ba7f163c4a11628f55a4df523b3ef9101610719565b73ffffffffffffffffffffffffffffffffffffffff8216610ca5576040517f08c379a000000000000000000000000000000000000000000000000000000000815260206004820152601f60248201527f45524332303a206d696e7420746f20746865207a65726f2061646472657373006044820152606401610542565b8060026000828254610cb79190610ed8565b909155505073ffffffffffffffffffffffffffffffffffffffff8216600081815260208181526040808320805486019055518481527fddf252ad1be2c89b69c2b068fc378daa952ba7f163c4a11628f55a4df523b3ef910160405180910390a35050565b60006020808352835180602085015260005b81811015610d4957858101830151858201604001528201610d2d565b5060006040828601015260407fffffffffffffffffffffffffffffffffffffffffffffffffffffffffffffffe0601f8301168501019250505092915050565b803573ffffffffffffffffffffffffffffffffffffffff81168114610dac57600080fd5b919050565b60008060408385031215610dc457600080fd5b610dcd83610d88565b946020939093013593505050565b600080600060608486031215610df057600080fd5b610df984610d88565b9250610e0760208501610d88565b9150604084013590509250925092565b600060208284031215610e2957600080fd5b5035919050565b600060208284031215610e4257600080fd5b610e4b82610d88565b9392505050565b60008060408385031215610e6557600080fd5b610e6e83610d88565b9150610e7c60208401610d88565b90509250929050565b600181811c90821680610e9957607f821691505b602082108103610ed2577f4e487b7100000000000000000000000000000000000000000000000000000000600052602260045260246000fd5b50919050565b808201808211156103a6577f4e487b7100000000000000000000000000000000000000000000000000000000600052601160045260246000fdfea264697066735822122043fceca128e62322c032bf889345d055097b8ac3e4b5eff0ca934d13c5886e5464736f6c63430008160033","linkReferences":{}},"methodIdentifiers":{"INITIAL_SUPPLY()":"2ff2e9dc","allowance(address,address)":"dd62ed3e","approve(address,uint256)":"095ea7b3","balanceOf(address)":"70a08231","decimals()":"313ce567","decreaseAllowance(address,uint256)":"a457c2d7","deposit()":"d0e30db0","increaseAllowance(address,uint256)":"39509351","name()":"06fdde03","symbol()":"95d89b41","test()":"f8a8fd6d","totalSupply()":"18160ddd","transfer(address,uint256)":"a9059cbb","transferFrom(address,address,uint256)":"23b872dd","withdraw(uint256)":"2e1a7d4d"},"id":140}