{"abi":[{"type":"constructor","inputs":[{"name":"_salt","type":"address","internalType":"contract ISalt"},{"name":"_poolsConfig","type":"address","internalType":"contract IPoolsConfig"},{"name":"_emissions","type":"address","internalType":"contract IEmissions"},{"name":"_bootstrapBallot","type":"address","internalType":"contract IBootstrapBallot"},{"name":"_dao","type":"address","internalType":"contract IDAO"},{"name":"_daoVestingWallet","type":"address","internalType":"contract VestingWallet"},{"name":"_teamVestingWallet","type":"address","internalType":"contract VestingWallet"},{"name":"_airdrop","type":"address","internalType":"contract IAirdrop"},{"name":"_saltRewards","type":"address","internalType":"contract ISaltRewards"},{"name":"_collateralAndLiquidity","type":"address","internalType":"contract ICollateralAndLiquidity"}],"stateMutability":"nonpayable"},{"type":"function","name":"MILLION_ETHER","inputs":[],"outputs":[{"name":"","type":"uint256","internalType":"uint256"}],"stateMutability":"view"},{"type":"function","name":"airdrop","inputs":[],"outputs":[{"name":"","type":"address","internalType":"contract IAirdrop"}],"stateMutability":"view"},{"type":"function","name":"bootstrapBallot","inputs":[],"outputs":[{"name":"","type":"address","internalType":"contract IBootstrapBallot"}],"stateMutability":"view"},{"type":"function","name":"collateralAndLiquidity","inputs":[],"outputs":[{"name":"","type":"address","internalType":"contract ICollateralAndLiquidity"}],"stateMutability":"view"},{"type":"function","name":"dao","inputs":[],"outputs":[{"name":"","type":"address","internalType":"contract IDAO"}],"stateMutability":"view"},{"type":"function","name":"daoVestingWallet","inputs":[],"outputs":[{"name":"","type":"address","internalType":"contract VestingWallet"}],"stateMutability":"view"},{"type":"function","name":"distributionApproved","inputs":[],"outputs":[],"stateMutability":"nonpayable"},{"type":"function","name":"emissions","inputs":[],"outputs":[{"name":"","type":"address","internalType":"contract IEmissions"}],"stateMutability":"view"},{"type":"function","name":"poolsConfig","inputs":[],"outputs":[{"name":"","type":"address","internalType":"contract IPoolsConfig"}],"stateMutability":"view"},{"type":"function","name":"salt","inputs":[],"outputs":[{"name":"","type":"address","internalType":"contract ISalt"}],"stateMutability":"view"},{"type":"function","name":"saltRewards","inputs":[],"outputs":[{"name":"","type":"address","internalType":"contract ISaltRewards"}],"stateMutability":"view"},{"type":"function","name":"teamVestingWallet","inputs":[],"outputs":[{"name":"","type":"address","internalType":"contract VestingWallet"}],"stateMutability":"view"}],"bytecode":{"object":"0x6101c06040523480156200001257600080fd5b50604051620010cc380380620010cc833981016040819052620000359162000098565b6001600160a01b03998a1660805297891660a05295881660c05293871660e05291861661010052851661012052841661014052831661016052821661018052166101a05262000186565b6001600160a01b03811681146200009557600080fd5b50565b6000806000806000806000806000806101408b8d031215620000b957600080fd5b8a51620000c6816200007f565b60208c0151909a50620000d9816200007f565b60408c0151909950620000ec816200007f565b60608c0151909850620000ff816200007f565b60808c015190975062000112816200007f565b60a08c015190965062000125816200007f565b60c08c015190955062000138816200007f565b60e08c01519094506200014b816200007f565b6101008c01519093506200015f816200007f565b6101208c015190925062000173816200007f565b809150509295989b9194979a5092959850565b60805160a05160c05160e05161010051610120516101405161016051610180516101a051610e7e6200024e600039600060de01526000818161012f0152818161074e01526107990152600081816101a6015281816105e0015261061601526000818161029001526105a701526000818161021b015261056e015260006101cd01526000818161024201526102ca01526000818161017f01526104f70152600081816101f40152610698015260008181610269015281816103e501526105420152610e7e6000f3fe608060405234801561001057600080fd5b50600436106100d45760003560e01c80634162169f11610081578063bd1d4b281161005b578063bd1d4b281461023d578063bfa0b13314610264578063fb3d924a1461028b57600080fd5b80634162169f146101c857806352c19b5a146101ef5780638286e4cd1461021657600080fd5b80631a3619d0116100b25780631a3619d01461015b5780632267716c1461017a5780633884d635146101a157600080fd5b80630e5c7fbb146100d957806315261eb61461012a57806317eb7f5814610151575b600080fd5b6101007f000000000000000000000000000000000000000000000000000000000000000081565b60405173ffffffffffffffffffffffffffffffffffffffff90911681526020015b60405180910390f35b6101007f000000000000000000000000000000000000000000000000000000000000000081565b6101596102b2565b005b61016c69d3c21bcecceda100000081565b604051908152602001610121565b6101007f000000000000000000000000000000000000000000000000000000000000000081565b6101007f000000000000000000000000000000000000000000000000000000000000000081565b6101007f000000000000000000000000000000000000000000000000000000000000000081565b6101007f000000000000000000000000000000000000000000000000000000000000000081565b6101007f000000000000000000000000000000000000000000000000000000000000000081565b6101007f000000000000000000000000000000000000000000000000000000000000000081565b6101007f000000000000000000000000000000000000000000000000000000000000000081565b6101007f000000000000000000000000000000000000000000000000000000000000000081565b3373ffffffffffffffffffffffffffffffffffffffff7f000000000000000000000000000000000000000000000000000000000000000016146103a2576040517f08c379a000000000000000000000000000000000000000000000000000000000815260206004820152605d60248201527f496e697469616c446973747269627574696f6e2e646973747269627574696f6e60448201527f417070726f7665642063616e206f6e6c792062652063616c6c65642066726f6d60648201527f2074686520426f6f74737472617042616c6c6f7420636f6e7472616374000000608482015260a4015b60405180910390fd5b6103b769d3c21bcecceda10000006064610bd6565b6040517f70a082310000000000000000000000000000000000000000000000000000000081523060048201527f000000000000000000000000000000000000000000000000000000000000000073ffffffffffffffffffffffffffffffffffffffff16906370a0823190602401602060405180830381865afa158015610441573d6000803e3d6000fd5b505050506040513d601f19601f820116820180604052508101906104659190610c1a565b146104f2576040517f08c379a000000000000000000000000000000000000000000000000000000000815260206004820152602c60248201527f53414c542068617320616c7265616479206265656e2073656e742066726f6d2060448201527f74686520636f6e747261637400000000000000000000000000000000000000006064820152608401610399565b6105697f000000000000000000000000000000000000000000000000000000000000000061052b69d3c21bcecceda10000006034610bd6565b73ffffffffffffffffffffffffffffffffffffffff7f0000000000000000000000000000000000000000000000000000000000000000169190610826565b6105a27f000000000000000000000000000000000000000000000000000000000000000061052b69d3c21bcecceda10000006019610bd6565b6105db7f000000000000000000000000000000000000000000000000000000000000000061052b69d3c21bcecceda1000000600a610bd6565b6106147f000000000000000000000000000000000000000000000000000000000000000061052b69d3c21bcecceda10000006005610bd6565b7f000000000000000000000000000000000000000000000000000000000000000073ffffffffffffffffffffffffffffffffffffffff1663de7333976040518163ffffffff1660e01b8152600401600060405180830381600087803b15801561067c57600080fd5b505af1158015610690573d6000803e3d6000fd5b5050505060007f000000000000000000000000000000000000000000000000000000000000000073ffffffffffffffffffffffffffffffffffffffff1663434798856040518163ffffffff1660e01b8152600401600060405180830381865afa158015610701573d6000803e3d6000fd5b505050506040513d6000823e601f3d9081017fffffffffffffffffffffffffffffffffffffffffffffffffffffffffffffffe01682016040526107479190810190610c62565b90506107827f000000000000000000000000000000000000000000000000000000000000000061052b69d3c21bcecceda10000006008610bd6565b73ffffffffffffffffffffffffffffffffffffffff7f00000000000000000000000000000000000000000000000000000000000000001663d2b09b7a6107d369d3c21bcecceda10000006005610bd6565b836040518363ffffffff1660e01b81526004016107f1929190610d3e565b600060405180830381600087803b15801561080b57600080fd5b505af115801561081f573d6000803e3d6000fd5b5050505050565b6040805173ffffffffffffffffffffffffffffffffffffffff8416602482015260448082018490528251808303909101815260649091019091526020810180517bffffffffffffffffffffffffffffffffffffffffffffffffffffffff167fa9059cbb000000000000000000000000000000000000000000000000000000001790526108b39084906108b8565b505050565b600061091a826040518060400160405280602081526020017f5361666545524332303a206c6f772d6c6576656c2063616c6c206661696c65648152508573ffffffffffffffffffffffffffffffffffffffff166109c79092919063ffffffff16565b905080516000148061093b57508080602001905181019061093b9190610d8e565b6108b3576040517f08c379a000000000000000000000000000000000000000000000000000000000815260206004820152602a60248201527f5361666545524332303a204552433230206f7065726174696f6e20646964206e60448201527f6f742073756363656564000000000000000000000000000000000000000000006064820152608401610399565b60606109d684846000856109de565b949350505050565b606082471015610a70576040517f08c379a000000000000000000000000000000000000000000000000000000000815260206004820152602660248201527f416464726573733a20696e73756666696369656e742062616c616e636520666f60448201527f722063616c6c00000000000000000000000000000000000000000000000000006064820152608401610399565b6000808673ffffffffffffffffffffffffffffffffffffffff168587604051610a999190610ddb565b60006040518083038185875af1925050503d8060008114610ad6576040519150601f19603f3d011682016040523d82523d6000602084013e610adb565b606091505b5091509150610aec87838387610af7565b979650505050505050565b60608315610b8d578251600003610b865773ffffffffffffffffffffffffffffffffffffffff85163b610b86576040517f08c379a000000000000000000000000000000000000000000000000000000000815260206004820152601d60248201527f416464726573733a2063616c6c20746f206e6f6e2d636f6e74726163740000006044820152606401610399565b50816109d6565b6109d68383815115610ba25781518083602001fd5b806040517f08c379a00000000000000000000000000000000000000000000000000000000081526004016103999190610df7565b8082028115828204841417610c14577f4e487b7100000000000000000000000000000000000000000000000000000000600052601160045260246000fd5b92915050565b600060208284031215610c2c57600080fd5b5051919050565b7f4e487b7100000000000000000000000000000000000000000000000000000000600052604160045260246000fd5b60006020808385031215610c7557600080fd5b825167ffffffffffffffff80821115610c8d57600080fd5b818501915085601f830112610ca157600080fd5b815181811115610cb357610cb3610c33565b8060051b6040517fffffffffffffffffffffffffffffffffffffffffffffffffffffffffffffffe0603f83011681018181108582111715610cf657610cf6610c33565b604052918252848201925083810185019188831115610d1457600080fd5b938501935b82851015610d3257845184529385019392850192610d19565b98975050505050505050565b60006040820184835260206040602085015281855180845260608601915060208701935060005b81811015610d8157845183529383019391830191600101610d65565b5090979650505050505050565b600060208284031215610da057600080fd5b81518015158114610db057600080fd5b9392505050565b60005b83811015610dd2578181015183820152602001610dba565b50506000910152565b60008251610ded818460208701610db7565b9190910192915050565b6020815260008251806020840152610e16816040850160208701610db7565b601f017fffffffffffffffffffffffffffffffffffffffffffffffffffffffffffffffe016919091016040019291505056fea26469706673582212209fa346c14c174ee8aba3432f269b6dbb6567746ef12d36650fd93725cc25bd0764736f6c63430008160033","linkReferences":{}},"methodIdentifiers":{"MILLION_ETHER()":"1a3619d0","airdrop()":"3884d635","bootstrapBallot()":"bd1d4b28","collateralAndLiquidity()":"0e5c7fbb","dao()":"4162169f","daoVestingWallet()":"8286e4cd","distributionApproved()":"17eb7f58","emissions()":"2267716c","poolsConfig()":"52c19b5a","salt()":"bfa0b133","saltRewards()":"15261eb6","teamVestingWallet()":"fb3d924a"},"id":80}