{"abi":[{"type":"constructor","inputs":[{"name":"_salt","type":"address","internalType":"contract ISalt"},{"name":"_wbtc","type":"address","internalType":"contract IERC20"},{"name":"_weth","type":"address","internalType":"contract IERC20"},{"name":"_dai","type":"address","internalType":"contract IERC20"},{"name":"_usds","type":"address","internalType":"contract IUSDS"},{"name":"_managedTeamWallet","type":"address","internalType":"contract IManagedWallet"}],"stateMutability":"nonpayable"},{"type":"function","name":"accessManager","inputs":[],"outputs":[{"name":"","type":"address","internalType":"contract IAccessManager"}],"stateMutability":"view"},{"type":"function","name":"airdrop","inputs":[],"outputs":[{"name":"","type":"address","internalType":"contract IAirdrop"}],"stateMutability":"view"},{"type":"function","name":"dai","inputs":[],"outputs":[{"name":"","type":"address","internalType":"contract IERC20"}],"stateMutability":"view"},{"type":"function","name":"dao","inputs":[],"outputs":[{"name":"","type":"address","internalType":"contract IDAO"}],"stateMutability":"view"},{"type":"function","name":"daoVestingWallet","inputs":[],"outputs":[{"name":"","type":"address","internalType":"contract VestingWallet"}],"stateMutability":"view"},{"type":"function","name":"initialDistribution","inputs":[],"outputs":[{"name":"","type":"address","internalType":"contract IInitialDistribution"}],"stateMutability":"view"},{"type":"function","name":"managedTeamWallet","inputs":[],"outputs":[{"name":"","type":"address","internalType":"contract IManagedWallet"}],"stateMutability":"view"},{"type":"function","name":"owner","inputs":[],"outputs":[{"name":"","type":"address","internalType":"address"}],"stateMutability":"view"},{"type":"function","name":"renounceOwnership","inputs":[],"outputs":[],"stateMutability":"nonpayable"},{"type":"function","name":"salt","inputs":[],"outputs":[{"name":"","type":"address","internalType":"contract ISalt"}],"stateMutability":"view"},{"type":"function","name":"setAccessManager","inputs":[{"name":"_accessManager","type":"address","internalType":"contract IAccessManager"}],"outputs":[],"stateMutability":"nonpayable"},{"type":"function","name":"setContracts","inputs":[{"name":"_dao","type":"address","internalType":"contract IDAO"},{"name":"_upkeep","type":"address","internalType":"contract IUpkeep"},{"name":"_initialDistribution","type":"address","internalType":"contract IInitialDistribution"},{"name":"_airdrop","type":"address","internalType":"contract IAirdrop"},{"name":"_teamVestingWallet","type":"address","internalType":"contract VestingWallet"},{"name":"_daoVestingWallet","type":"address","internalType":"contract VestingWallet"}],"outputs":[],"stateMutability":"nonpayable"},{"type":"function","name":"teamVestingWallet","inputs":[],"outputs":[{"name":"","type":"address","internalType":"contract VestingWallet"}],"stateMutability":"view"},{"type":"function","name":"transferOwnership","inputs":[{"name":"newOwner","type":"address","internalType":"address"}],"outputs":[],"stateMutability":"nonpayable"},{"type":"function","name":"upkeep","inputs":[],"outputs":[{"name":"","type":"address","internalType":"contract IUpkeep"}],"stateMutability":"view"},{"type":"function","name":"usds","inputs":[],"outputs":[{"name":"","type":"address","internalType":"contract IUSDS"}],"stateMutability":"view"},{"type":"function","name":"walletHasAccess","inputs":[{"name":"wallet","type":"address","internalType":"address"}],"outputs":[{"name":"","type":"bool","internalType":"bool"}],"stateMutability":"view"},{"type":"function","name":"wbtc","inputs":[],"outputs":[{"name":"","type":"address","internalType":"contract IERC20"}],"stateMutability":"view"},{"type":"function","name":"weth","inputs":[],"outputs":[{"name":"","type":"address","internalType":"contract IERC20"}],"stateMutability":"view"},{"type":"event","name":"AccessManagerSet","inputs":[{"name":"accessManager","type":"address","indexed":true,"internalType":"contract IAccessManager"}],"anonymous":false},{"type":"event","name":"OwnershipTransferred","inputs":[{"name":"previousOwner","type":"address","indexed":true,"internalType":"address"},{"name":"newOwner","type":"address","indexed":true,"internalType":"address"}],"anonymous":false}],"bytecode":{"object":"0x61014060405234801561001157600080fd5b50604051610ba8380380610ba8833981016040819052610030916100d0565b61003933610068565b6001600160a01b0395861660805293851660a05291841660c052831660e0528216610100521661012052610157565b600080546001600160a01b038381166001600160a01b0319831681178455604051919092169283917f8be0079c531659141344cd1fd0a4f28419497f9722a3daafe3b4186f6b6457e09190a35050565b6001600160a01b03811681146100cd57600080fd5b50565b60008060008060008060c087890312156100e957600080fd5b86516100f4816100b8565b6020880151909650610105816100b8565b6040880151909550610116816100b8565b6060880151909450610127816100b8565b6080880151909350610138816100b8565b60a0880151909250610149816100b8565b809150509295509295509295565b60805160a05160c05160e0516101005161012051610a026101a660003960006102d5015260006102480152600061036c01526000610201015260006101da015260006102fc0152610a026000f3fe608060405234801561001057600080fd5b50600436106101515760003560e01c80638da5cb5b116100cd578063cf4a665111610081578063f4b9fa7511610066578063f4b9fa7514610367578063fb3d924a1461038e578063fdcb6068146103ae57600080fd5b8063cf4a665114610331578063f2fde38b1461035457600080fd5b806395a11821116100b257806395a11821146102d0578063bfa0b133146102f7578063c95808041461031e57600080fd5b80638da5cb5b1461029257806395645e34146102b057600080fd5b80633fc8cef3116101245780634cf282fb116101095780634cf282fb14610243578063715018a61461026a5780638286e4cd1461027257600080fd5b80633fc8cef3146101fc5780634162169f1461022357600080fd5b80632463a55a146101565780632cf4704a1461016b5780633884d635146101b55780633cdc5389146101d5575b600080fd5b610169610164366004610904565b6103ce565b005b60025461018b9073ffffffffffffffffffffffffffffffffffffffff1681565b60405173ffffffffffffffffffffffffffffffffffffffff90911681526020015b60405180910390f35b60045461018b9073ffffffffffffffffffffffffffffffffffffffff1681565b61018b7f000000000000000000000000000000000000000000000000000000000000000081565b61018b7f000000000000000000000000000000000000000000000000000000000000000081565b60015461018b9073ffffffffffffffffffffffffffffffffffffffff1681565b61018b7f000000000000000000000000000000000000000000000000000000000000000081565b610169610514565b60065461018b9073ffffffffffffffffffffffffffffffffffffffff1681565b60005473ffffffffffffffffffffffffffffffffffffffff1661018b565b60035461018b9073ffffffffffffffffffffffffffffffffffffffff1681565b61018b7f000000000000000000000000000000000000000000000000000000000000000081565b61018b7f000000000000000000000000000000000000000000000000000000000000000081565b61016961032c366004610986565b610528565b61034461033f366004610986565b610642565b60405190151581526020016101ac565b610169610362366004610986565b610735565b61018b7f000000000000000000000000000000000000000000000000000000000000000081565b60055461018b9073ffffffffffffffffffffffffffffffffffffffff1681565b60075461018b9073ffffffffffffffffffffffffffffffffffffffff1681565b6103d66107ec565b60015473ffffffffffffffffffffffffffffffffffffffff1615610480576040517f08c379a0000000000000000000000000000000000000000000000000000000008152602060048201526024808201527f736574436f6e7472616374732063616e206f6e6c792062652063616c6c65642060448201527f6f6e63650000000000000000000000000000000000000000000000000000000060648201526084015b60405180910390fd5b600180547fffffffffffffffffffffffff000000000000000000000000000000000000000090811673ffffffffffffffffffffffffffffffffffffffff98891617909155600280548216968816969096179095556003805486169487169490941790935560048054851692861692909217909155600580548416918516919091179055600680549092169216919091179055565b61051c6107ec565b610526600061086d565b565b6105306107ec565b73ffffffffffffffffffffffffffffffffffffffff81166105d3576040517f08c379a000000000000000000000000000000000000000000000000000000000815260206004820152602360248201527f5f6163636573734d616e616765722063616e6e6f74206265206164647265737360448201527f28302900000000000000000000000000000000000000000000000000000000006064820152608401610477565b600780547fffffffffffffffffffffffff00000000000000000000000000000000000000001673ffffffffffffffffffffffffffffffffffffffff83169081179091556040517f391c64632c0403c9ba8088e09b1151451ed60a349977a0d52e633ea71e9ac47090600090a250565b60015460009073ffffffffffffffffffffffffffffffffffffffff9081169083160361067057506001919050565b60045473ffffffffffffffffffffffffffffffffffffffff9081169083160361069b57506001919050565b6007546040517fcf4a665100000000000000000000000000000000000000000000000000000000815273ffffffffffffffffffffffffffffffffffffffff84811660048301529091169063cf4a665190602401602060405180830381865afa15801561070b573d6000803e3d6000fd5b505050506040513d601f19601f8201168201806040525081019061072f91906109aa565b92915050565b61073d6107ec565b73ffffffffffffffffffffffffffffffffffffffff81166107e0576040517f08c379a000000000000000000000000000000000000000000000000000000000815260206004820152602660248201527f4f776e61626c653a206e6577206f776e657220697320746865207a65726f206160448201527f64647265737300000000000000000000000000000000000000000000000000006064820152608401610477565b6107e98161086d565b50565b60005473ffffffffffffffffffffffffffffffffffffffff163314610526576040517f08c379a000000000000000000000000000000000000000000000000000000000815260206004820181905260248201527f4f776e61626c653a2063616c6c6572206973206e6f7420746865206f776e65726044820152606401610477565b6000805473ffffffffffffffffffffffffffffffffffffffff8381167fffffffffffffffffffffffff0000000000000000000000000000000000000000831681178455604051919092169283917f8be0079c531659141344cd1fd0a4f28419497f9722a3daafe3b4186f6b6457e09190a35050565b73ffffffffffffffffffffffffffffffffffffffff811681146107e957600080fd5b60008060008060008060c0878903121561091d57600080fd5b8635610928816108e2565b95506020870135610938816108e2565b94506040870135610948816108e2565b93506060870135610958816108e2565b92506080870135610968816108e2565b915060a0870135610978816108e2565b809150509295509295509295565b60006020828403121561099857600080fd5b81356109a3816108e2565b9392505050565b6000602082840312156109bc57600080fd5b815180151581146109a357600080fdfea2646970667358221220cbbc485bb6a119b86bf53dc464bfa4bc2e7a161faebd3394a591fda4b2db132c64736f6c63430008160033","linkReferences":{}},"methodIdentifiers":{"accessManager()":"fdcb6068","airdrop()":"3884d635","dai()":"f4b9fa75","dao()":"4162169f","daoVestingWallet()":"8286e4cd","initialDistribution()":"95645e34","managedTeamWallet()":"95a11821","owner()":"8da5cb5b","renounceOwnership()":"715018a6","salt()":"bfa0b133","setAccessManager(address)":"c9580804","setContracts(address,address,address,address,address,address)":"2463a55a","teamVestingWallet()":"fb3d924a","transferOwnership(address)":"f2fde38b","upkeep()":"2cf4704a","usds()":"4cf282fb","walletHasAccess(address)":"cf4a6651","wbtc()":"3cdc5389","weth()":"3fc8cef3"},"id":44}