{"abi":[{"type":"constructor","inputs":[{"name":"_exchangeConfig","type":"address","internalType":"contract IExchangeConfig"},{"name":"_airdrop","type":"address","internalType":"contract IAirdrop"},{"name":"ballotDuration","type":"uint256","internalType":"uint256"}],"stateMutability":"nonpayable"},{"type":"function","name":"airdrop","inputs":[],"outputs":[{"name":"","type":"address","internalType":"contract IAirdrop"}],"stateMutability":"view"},{"type":"function","name":"ballotFinalized","inputs":[],"outputs":[{"name":"","type":"bool","internalType":"bool"}],"stateMutability":"view"},{"type":"function","name":"completionTimestamp","inputs":[],"outputs":[{"name":"","type":"uint256","internalType":"uint256"}],"stateMutability":"view"},{"type":"function","name":"exchangeConfig","inputs":[],"outputs":[{"name":"","type":"address","internalType":"contract IExchangeConfig"}],"stateMutability":"view"},{"type":"function","name":"finalizeBallot","inputs":[],"outputs":[],"stateMutability":"nonpayable"},{"type":"function","name":"hasVoted","inputs":[{"name":"","type":"address","internalType":"address"}],"outputs":[{"name":"","type":"bool","internalType":"bool"}],"stateMutability":"view"},{"type":"function","name":"startExchangeApproved","inputs":[],"outputs":[{"name":"","type":"bool","internalType":"bool"}],"stateMutability":"view"},{"type":"function","name":"startExchangeNo","inputs":[],"outputs":[{"name":"","type":"uint256","internalType":"uint256"}],"stateMutability":"view"},{"type":"function","name":"startExchangeYes","inputs":[],"outputs":[{"name":"","type":"uint256","internalType":"uint256"}],"stateMutability":"view"},{"type":"function","name":"vote","inputs":[{"name":"voteStartExchangeYes","type":"bool","internalType":"bool"},{"name":"signature","type":"bytes","internalType":"bytes"}],"outputs":[],"stateMutability":"nonpayable"},{"type":"event","name":"BallotFinalized","inputs":[{"name":"startExchange","type":"bool","indexed":false,"internalType":"bool"}],"anonymous":false}],"bytecode":{"object":"0x60e060405234801561001057600080fd5b50604051610d85380380610d8583398101604081905261002f916100c6565b6001600055806100855760405162461bcd60e51b815260206004820152601d60248201527f62616c6c6f744475726174696f6e2063616e6e6f74206265207a65726f000000604482015260640160405180910390fd5b6001600160a01b03808416608052821660a0526100a28142610109565b60c05250610130915050565b6001600160a01b03811681146100c357600080fd5b50565b6000806000606084860312156100db57600080fd5b83516100e6816100ae565b60208501519093506100f7816100ae565b80925050604084015190509250925092565b8082018082111561012a57634e487b7160e01b600052601160045260246000fd5b92915050565b60805160a05160c051610c0a61017b600039600081816101ac015261055b01526000818161014c015261043d015260008181610100015281816105f101526106df0152610c0a6000f3fe608060405234801561001057600080fd5b50600436106100be5760003560e01c80638d72cf2a11610076578063bbc57a081161005b578063bbc57a08146101ce578063cb936cc1146101d7578063d4f8ecb8146101e957600080fd5b80638d72cf2a146101905780638f239a76146101a757600080fd5b80633884d635116100a75780633884d635146101475780633a0dc4e81461016e5780633df36f991461018357600080fd5b806309eef43e146100c35780630e2789bb146100fb575b600080fd5b6100e66100d1366004610aaa565b60026020526000908152604090205460ff1681565b60405190151581526020015b60405180910390f35b6101227f000000000000000000000000000000000000000000000000000000000000000081565b60405173ffffffffffffffffffffffffffffffffffffffff90911681526020016100f2565b6101227f000000000000000000000000000000000000000000000000000000000000000081565b61018161017c366004610ace565b6101f1565b005b6001546100e69060ff1681565b61019960035481565b6040519081526020016100f2565b6101997f000000000000000000000000000000000000000000000000000000000000000081565b61019960045481565b6001546100e690610100900460ff1681565b6101816104be565b6101f96108dd565b3360009081526002602052604090205460ff1615610278576040517f08c379a000000000000000000000000000000000000000000000000000000000815260206004820152601260248201527f5573657220616c726561647920766f746564000000000000000000000000000060448201526064015b60405180910390fd5b600046336040516020016102bb92919091825260601b7fffffffffffffffffffffffffffffffffffffffff00000000000000000000000016602082015260340190565b6040516020818303038152906040528051906020012090506103138184848080601f01602080910402602001604051908101604052809392919081815260200183838082843760009201919091525061095092505050565b61039f576040517f08c379a000000000000000000000000000000000000000000000000000000000815260206004820152602860248201527f496e636f727265637420426f6f74737472617042616c6c6f742e766f7465207360448201527f69676e61746f7279000000000000000000000000000000000000000000000000606482015260840161026f565b83156103bf57600380549060006103b583610b58565b91905055506103d5565b600480549060006103cf83610b58565b91905055505b336000818152600260205260409081902080547fffffffffffffffffffffffffffffffffffffffffffffffffffffffffffffff00166001179055517ffbeaa8b100000000000000000000000000000000000000000000000000000000815260048101919091527f000000000000000000000000000000000000000000000000000000000000000073ffffffffffffffffffffffffffffffffffffffff169063fbeaa8b190602401600060405180830381600087803b15801561049657600080fd5b505af11580156104aa573d6000803e3d6000fd5b50505050506104b96001600055565b505050565b6104c66108dd565b60015460ff1615610559576040517f08c379a000000000000000000000000000000000000000000000000000000000815260206004820152602160248201527f42616c6c6f742068617320616c7265616479206265656e2066696e616c697a6560448201527f6400000000000000000000000000000000000000000000000000000000000000606482015260840161026f565b7f00000000000000000000000000000000000000000000000000000000000000004210156105e3576040517f08c379a000000000000000000000000000000000000000000000000000000000815260206004820152601a60248201527f42616c6c6f74206973206e6f742079657420636f6d706c657465000000000000604482015260640161026f565b6004546003541115610866577f000000000000000000000000000000000000000000000000000000000000000073ffffffffffffffffffffffffffffffffffffffff166395645e346040518163ffffffff1660e01b8152600401602060405180830381865afa15801561065a573d6000803e3d6000fd5b505050506040513d601f19601f8201168201806040525081019061067e9190610bb7565b73ffffffffffffffffffffffffffffffffffffffff166317eb7f586040518163ffffffff1660e01b8152600401600060405180830381600087803b1580156106c557600080fd5b505af11580156106d9573d6000803e3d6000fd5b505050507f000000000000000000000000000000000000000000000000000000000000000073ffffffffffffffffffffffffffffffffffffffff16634162169f6040518163ffffffff1660e01b8152600401602060405180830381865afa158015610748573d6000803e3d6000fd5b505050506040513d601f19601f8201168201806040525081019061076c9190610bb7565b73ffffffffffffffffffffffffffffffffffffffff1663c5c51dca6040518163ffffffff1660e01b8152600401602060405180830381865afa1580156107b6573d6000803e3d6000fd5b505050506040513d601f19601f820116820180604052508101906107da9190610bb7565b73ffffffffffffffffffffffffffffffffffffffff1663cb936cc16040518163ffffffff1660e01b8152600401600060405180830381600087803b15801561082157600080fd5b505af1158015610835573d6000803e3d6000fd5b5050600180547fffffffffffffffffffffffffffffffffffffffffffffffffffffffffffff00ff1661010017905550505b7f3dbddc8560bfc4f281e4137b43e5dd189c4cc02ae731948bd944501d6eef6c6060018054906101000a900460ff166040516108a6911515815260200190565b60405180910390a1600180547fffffffffffffffffffffffffffffffffffffffffffffffffffffffffffffff001681178155600055565b600260005403610949576040517f08c379a000000000000000000000000000000000000000000000000000000000815260206004820152601f60248201527f5265656e7472616e637947756172643a207265656e7472616e742063616c6c00604482015260640161026f565b6002600055565b600081516041146109bd576040517f08c379a000000000000000000000000000000000000000000000000000000000815260206004820152601860248201527f496e76616c6964207369676e6174757265206c656e6774680000000000000000604482015260640161026f565b60208281015160408085015160418601518251600080825295810180855289905260ff8216938101939093526060830184905260808301829052929390929160019060a0016020604051602081039080840390855afa158015610a24573d6000803e3d6000fd5b50506040517fffffffffffffffffffffffffffffffffffffffffffffffffffffffffffffffe0015173ffffffffffffffffffffffffffffffffffffffff16731234519dca2ef23207e1ca7fd70b96f281893baa149550505050505092915050565b73ffffffffffffffffffffffffffffffffffffffff81168114610aa757600080fd5b50565b600060208284031215610abc57600080fd5b8135610ac781610a85565b9392505050565b600080600060408486031215610ae357600080fd5b83358015158114610af357600080fd5b9250602084013567ffffffffffffffff80821115610b1057600080fd5b818601915086601f830112610b2457600080fd5b813581811115610b3357600080fd5b876020828501011115610b4557600080fd5b6020830194508093505050509250925092565b60007fffffffffffffffffffffffffffffffffffffffffffffffffffffffffffffffff8203610bb0577f4e487b7100000000000000000000000000000000000000000000000000000000600052601160045260246000fd5b5060010190565b600060208284031215610bc957600080fd5b8151610ac781610a8556fea264697066735822122086f95407f915d12e89554ce21583eeac3cfa38d3a920c1676cd333c345394d1f64736f6c63430008160033","linkReferences":{}},"methodIdentifiers":{"airdrop()":"3884d635","ballotFinalized()":"3df36f99","completionTimestamp()":"8f239a76","exchangeConfig()":"0e2789bb","finalizeBallot()":"d4f8ecb8","hasVoted(address)":"09eef43e","startExchangeApproved()":"cb936cc1","startExchangeNo()":"bbc57a08","startExchangeYes()":"8d72cf2a","vote(bool,bytes)":"3a0dc4e8"},"id":79}