{"abi":[{"type":"constructor","inputs":[{"name":"_exchangeConfig","type":"address","internalType":"contract IExchangeConfig"},{"name":"_poolsConfig","type":"address","internalType":"contract IPoolsConfig"}],"stateMutability":"nonpayable"},{"type":"function","name":"MIDPOINT_PRECISION","inputs":[],"outputs":[{"name":"","type":"uint256","internalType":"uint256"}],"stateMutability":"view"},{"type":"function","name":"_arbitrageIndicies","inputs":[{"name":"","type":"bytes32","internalType":"bytes32"}],"outputs":[{"name":"index1","type":"uint64","internalType":"uint64"},{"name":"index2","type":"uint64","internalType":"uint64"},{"name":"index3","type":"uint64","internalType":"uint64"}],"stateMutability":"view"},{"type":"function","name":"_arbitrageProfits","inputs":[{"name":"","type":"bytes32","internalType":"bytes32"}],"outputs":[{"name":"","type":"uint256","internalType":"uint256"}],"stateMutability":"view"},{"type":"function","name":"_attemptArbitrage","inputs":[{"name":"swapTokenIn","type":"address","internalType":"contract IERC20"},{"name":"swapTokenOut","type":"address","internalType":"contract IERC20"},{"name":"swapAmountIn","type":"uint256","internalType":"uint256"}],"outputs":[{"name":"arbitrageProfit","type":"uint256","internalType":"uint256"}],"stateMutability":"nonpayable"},{"type":"function","name":"_weth","inputs":[],"outputs":[{"name":"","type":"address","internalType":"contract IERC20"}],"stateMutability":"view"},{"type":"function","name":"addLiquidity","inputs":[{"name":"tokenA","type":"address","internalType":"contract IERC20"},{"name":"tokenB","type":"address","internalType":"contract IERC20"},{"name":"maxAmountA","type":"uint256","internalType":"uint256"},{"name":"maxAmountB","type":"uint256","internalType":"uint256"},{"name":"minLiquidityReceived","type":"uint256","internalType":"uint256"},{"name":"totalLiquidity","type":"uint256","internalType":"uint256"}],"outputs":[{"name":"addedAmountA","type":"uint256","internalType":"uint256"},{"name":"addedAmountB","type":"uint256","internalType":"uint256"},{"name":"addedLiquidity","type":"uint256","internalType":"uint256"}],"stateMutability":"nonpayable"},{"type":"function","name":"arbitrageIndicies","inputs":[{"name":"poolID","type":"bytes32","internalType":"bytes32"}],"outputs":[{"name":"","type":"tuple","internalType":"struct IPoolStats.ArbitrageIndicies","components":[{"name":"index1","type":"uint64","internalType":"uint64"},{"name":"index2","type":"uint64","internalType":"uint64"},{"name":"index3","type":"uint64","internalType":"uint64"}]}],"stateMutability":"view"},{"type":"function","name":"clearProfitsForPools","inputs":[],"outputs":[],"stateMutability":"nonpayable"},{"type":"function","name":"collateralAndLiquidity","inputs":[],"outputs":[{"name":"","type":"address","internalType":"contract ICollateralAndLiquidity"}],"stateMutability":"view"},{"type":"function","name":"dao","inputs":[],"outputs":[{"name":"","type":"address","internalType":"contract IDAO"}],"stateMutability":"view"},{"type":"function","name":"deposit","inputs":[{"name":"token","type":"address","internalType":"contract IERC20"},{"name":"amount","type":"uint256","internalType":"uint256"}],"outputs":[],"stateMutability":"nonpayable"},{"type":"function","name":"depositDoubleSwapWithdraw","inputs":[{"name":"swapTokenIn","type":"address","internalType":"contract IERC20"},{"name":"swapTokenMiddle","type":"address","internalType":"contract IERC20"},{"name":"swapTokenOut","type":"address","internalType":"contract IERC20"},{"name":"swapAmountIn","type":"uint256","internalType":"uint256"},{"name":"minAmountOut","type":"uint256","internalType":"uint256"},{"name":"deadline","type":"uint256","internalType":"uint256"}],"outputs":[{"name":"swapAmountOut","type":"uint256","internalType":"uint256"}],"stateMutability":"nonpayable"},{"type":"function","name":"depositSwapWithdraw","inputs":[{"name":"swapTokenIn","type":"address","internalType":"contract IERC20"},{"name":"swapTokenOut","type":"address","internalType":"contract IERC20"},{"name":"swapAmountIn","type":"uint256","internalType":"uint256"},{"name":"minAmountOut","type":"uint256","internalType":"uint256"},{"name":"deadline","type":"uint256","internalType":"uint256"}],"outputs":[{"name":"swapAmountOut","type":"uint256","internalType":"uint256"}],"stateMutability":"nonpayable"},{"type":"function","name":"depositedUserBalance","inputs":[{"name":"user","type":"address","internalType":"address"},{"name":"token","type":"address","internalType":"contract IERC20"}],"outputs":[{"name":"","type":"uint256","internalType":"uint256"}],"stateMutability":"view"},{"type":"function","name":"exchangeConfig","inputs":[],"outputs":[{"name":"","type":"address","internalType":"contract IExchangeConfig"}],"stateMutability":"view"},{"type":"function","name":"exchangeIsLive","inputs":[],"outputs":[{"name":"","type":"bool","internalType":"bool"}],"stateMutability":"view"},{"type":"function","name":"getPoolReserves","inputs":[{"name":"tokenA","type":"address","internalType":"contract IERC20"},{"name":"tokenB","type":"address","internalType":"contract IERC20"}],"outputs":[{"name":"reserveA","type":"uint256","internalType":"uint256"},{"name":"reserveB","type":"uint256","internalType":"uint256"}],"stateMutability":"view"},{"type":"function","name":"owner","inputs":[],"outputs":[{"name":"","type":"address","internalType":"address"}],"stateMutability":"view"},{"type":"function","name":"poolsConfig","inputs":[],"outputs":[{"name":"","type":"address","internalType":"contract IPoolsConfig"}],"stateMutability":"view"},{"type":"function","name":"profitsForWhitelistedPools","inputs":[],"outputs":[{"name":"_calculatedProfits","type":"uint256[]","internalType":"uint256[]"}],"stateMutability":"view"},{"type":"function","name":"removeLiquidity","inputs":[{"name":"tokenA","type":"address","internalType":"contract IERC20"},{"name":"tokenB","type":"address","internalType":"contract IERC20"},{"name":"liquidityToRemove","type":"uint256","internalType":"uint256"},{"name":"minReclaimedA","type":"uint256","internalType":"uint256"},{"name":"minReclaimedB","type":"uint256","internalType":"uint256"},{"name":"totalLiquidity","type":"uint256","internalType":"uint256"}],"outputs":[{"name":"reclaimedA","type":"uint256","internalType":"uint256"},{"name":"reclaimedB","type":"uint256","internalType":"uint256"}],"stateMutability":"nonpayable"},{"type":"function","name":"renounceOwnership","inputs":[],"outputs":[],"stateMutability":"nonpayable"},{"type":"function","name":"salt","inputs":[],"outputs":[{"name":"","type":"address","internalType":"contract ISalt"}],"stateMutability":"view"},{"type":"function","name":"setContracts","inputs":[{"name":"_dao","type":"address","internalType":"contract IDAO"},{"name":"_collateralAndLiquidity","type":"address","internalType":"contract ICollateralAndLiquidity"}],"outputs":[],"stateMutability":"nonpayable"},{"type":"function","name":"startExchangeApproved","inputs":[],"outputs":[],"stateMutability":"nonpayable"},{"type":"function","name":"swap","inputs":[{"name":"swapTokenIn","type":"address","internalType":"contract IERC20"},{"name":"swapTokenOut","type":"address","internalType":"contract IERC20"},{"name":"swapAmountIn","type":"uint256","internalType":"uint256"},{"name":"minAmountOut","type":"uint256","internalType":"uint256"},{"name":"deadline","type":"uint256","internalType":"uint256"}],"outputs":[{"name":"swapAmountOut","type":"uint256","internalType":"uint256"}],"stateMutability":"nonpayable"},{"type":"function","name":"transferOwnership","inputs":[{"name":"newOwner","type":"address","internalType":"address"}],"outputs":[],"stateMutability":"nonpayable"},{"type":"function","name":"updateArbitrageIndicies","inputs":[],"outputs":[],"stateMutability":"nonpayable"},{"type":"function","name":"wbtc","inputs":[],"outputs":[{"name":"","type":"address","internalType":"contract IERC20"}],"stateMutability":"view"},{"type":"function","name":"weth","inputs":[],"outputs":[{"name":"","type":"address","internalType":"contract IERC20"}],"stateMutability":"view"},{"type":"function","name":"withdraw","inputs":[{"name":"token","type":"address","internalType":"contract IERC20"},{"name":"amount","type":"uint256","internalType":"uint256"}],"outputs":[],"stateMutability":"nonpayable"},{"type":"event","name":"LiquidityAdded","inputs":[{"name":"tokenA","type":"address","indexed":true,"internalType":"contract IERC20"},{"name":"tokenB","type":"address","indexed":true,"internalType":"contract IERC20"},{"name":"addedAmountA","type":"uint256","indexed":false,"internalType":"uint256"},{"name":"addedAmountB","type":"uint256","indexed":false,"internalType":"uint256"},{"name":"addedLiquidity","type":"uint256","indexed":false,"internalType":"uint256"}],"anonymous":false},{"type":"event","name":"LiquidityRemoved","inputs":[{"name":"tokenA","type":"address","indexed":true,"internalType":"contract IERC20"},{"name":"tokenB","type":"address","indexed":true,"internalType":"contract IERC20"},{"name":"reclaimedA","type":"uint256","indexed":false,"internalType":"uint256"},{"name":"reclaimedB","type":"uint256","indexed":false,"internalType":"uint256"},{"name":"removedLiquidity","type":"uint256","indexed":false,"internalType":"uint256"}],"anonymous":false},{"type":"event","name":"OwnershipTransferred","inputs":[{"name":"previousOwner","type":"address","indexed":true,"internalType":"address"},{"name":"newOwner","type":"address","indexed":true,"internalType":"address"}],"anonymous":false},{"type":"event","name":"SwapAndArbitrage","inputs":[{"name":"user","type":"address","indexed":true,"internalType":"address"},{"name":"swapTokenIn","type":"address","indexed":true,"internalType":"contract IERC20"},{"name":"swapTokenOut","type":"address","indexed":true,"internalType":"contract IERC20"},{"name":"swapAmountIn","type":"uint256","indexed":false,"internalType":"uint256"},{"name":"swapAmountOut","type":"uint256","indexed":false,"internalType":"uint256"},{"name":"arbitrageProfit","type":"uint256","indexed":false,"internalType":"uint256"}],"anonymous":false},{"type":"event","name":"TokenDeposit","inputs":[{"name":"user","type":"address","indexed":true,"internalType":"address"},{"name":"token","type":"address","indexed":true,"internalType":"contract IERC20"},{"name":"amount","type":"uint256","indexed":false,"internalType":"uint256"}],"anonymous":false},{"type":"event","name":"TokenWithdrawal","inputs":[{"name":"user","type":"address","indexed":true,"internalType":"address"},{"name":"token","type":"address","indexed":true,"internalType":"contract IERC20"},{"name":"amount","type":"uint256","indexed":false,"internalType":"uint256"}],"anonymous":false}],"bytecode":{"object":"0x6101406040523480156200001257600080fd5b5060405162004016380380620040168339810160408190526200003591620002c1565b60016000556001600160a01b03808316608081905290821660a05260408051633fc8cef360e01b81529051849283928592633fc8cef3916004808201926020929091908290030181865afa15801562000092573d6000803e3d6000fd5b505050506040513d601f19601f82011682018060405250810190620000b8919062000300565b6001600160a01b031660c0816001600160a01b0316815250505050806001600160a01b0316633cdc53896040518163ffffffff1660e01b8152600401602060405180830381865afa15801562000112573d6000803e3d6000fd5b505050506040513d601f19601f8201168201806040525081019062000138919062000300565b6001600160a01b031660e0816001600160a01b031681525050806001600160a01b0316633fc8cef36040518163ffffffff1660e01b8152600401602060405180830381865afa15801562000190573d6000803e3d6000fd5b505050506040513d601f19601f82011682018060405250810190620001b6919062000300565b6001600160a01b0316610100816001600160a01b031681525050806001600160a01b031663bfa0b1336040518163ffffffff1660e01b8152600401602060405180830381865afa1580156200020f573d6000803e3d6000fd5b505050506040513d601f19601f8201168201806040525081019062000235919062000300565b6001600160a01b031661012052506200024e3362000256565b505062000327565b600380546001600160a01b038381166001600160a01b0319831681179093556040519116919082907f8be0079c531659141344cd1fd0a4f28419497f9722a3daafe3b4186f6b6457e090600090a35050565b6001600160a01b0381168114620002be57600080fd5b50565b60008060408385031215620002d557600080fd5b8251620002e281620002a8565b6020840151909250620002f581620002a8565b809150509250929050565b6000602082840312156200031357600080fd5b81516200032081620002a8565b9392505050565b60805160a05160c05160e0516101005161012051613bd462000442600039600081816105a201528181612b750152612c420152600081816102eb0152818161172301528181611766015281816129cc01528181612a2c01528181612afe01528181612b9b01528181612c8b01528181612d0801528181612e9c01528181612ed70152612f360152600081816102c401528181612aab01528181612b5201528181612bee01528181612c6501528181612cdf0152612d5f01526000818161054801528181611458015281816114af0152818161150a01526115490152600081816103fa0152818161064c015281816112d9015281816113b901526119200152600081816101ef015281816117c90152611af50152613bd46000f3fe608060405234801561001057600080fd5b50600436106101e55760003560e01c8063715018a61161010f578063c4de1782116100a2578063d8952a4911610071578063d8952a49146105fa578063e2f7c4801461060d578063f2fde38b14610620578063f3fef3a31461063357600080fd5b8063c4de1782146105c4578063c74e31c8146105cc578063cb936cc1146105df578063d4469c3e146105e757600080fd5b8063a1764595116100de578063a176459514610543578063af42bb1a1461056a578063b4d818751461058a578063bfa0b1331461059d57600080fd5b8063715018a6146105025780637a950f991461050a57806385876e951461051d5780638da5cb5b1461052557600080fd5b806340a83c9911610187578063516a5c2511610156578063516a5c251461037857806352c19b5a146103f5578063634040b31461041c578063647e77d01461045157600080fd5b806340a83c991461030d5780634162169f1461031b57806344483d531461033b57806347e7ef241461036357600080fd5b80632c662857116101c35780632c662857146102705780633351733f146102915780633cdc5389146102bf5780633fc8cef3146102e657600080fd5b80630e2789bb146101ea5780630e5c7fbb1461023b5780631959df061461025b575b600080fd5b6102117f000000000000000000000000000000000000000000000000000000000000000081565b60405173ffffffffffffffffffffffffffffffffffffffff90911681526020015b60405180910390f35b6005546102119073ffffffffffffffffffffffffffffffffffffffff1681565b610263610646565b60405161023291906135e5565b61028361027e36600461364b565b610751565b604051908152602001610232565b6102a461029f366004613684565b61078b565b60408051938452602084019290925290820152606001610232565b6102117f000000000000000000000000000000000000000000000000000000000000000081565b6102117f000000000000000000000000000000000000000000000000000000000000000081565b61028366038d7ea4c6800081565b6004546102119073ffffffffffffffffffffffffffffffffffffffff1681565b61034e610349366004613684565b610b95565b60408051928352602083019190915201610232565b6103766103713660046136dd565b610ff0565b005b6103ca610386366004613709565b60026020526000908152604090205467ffffffffffffffff808216916801000000000000000081048216917001000000000000000000000000000000009091041683565b6040805167ffffffffffffffff94851681529284166020840152921691810191909152606001610232565b6102117f000000000000000000000000000000000000000000000000000000000000000081565b6005546104419074010000000000000000000000000000000000000000900460ff1681565b6040519015158152602001610232565b6104cf61045f366004613709565b6040805160608082018352600080835260208084018290529284018190529384526002825292829020825193840183525467ffffffffffffffff80821685526801000000000000000082048116928501929092527001000000000000000000000000000000009004169082015290565b60408051825167ffffffffffffffff90811682526020808501518216908301529282015190921690820152606001610232565b61037661110c565b610283610518366004613722565b611120565b6103766112d5565b60035473ffffffffffffffffffffffffffffffffffffffff16610211565b6102117f000000000000000000000000000000000000000000000000000000000000000081565b610283610578366004613709565b60016020526000908152604090205481565b610283610598366004613773565b6116e9565b6102117f000000000000000000000000000000000000000000000000000000000000000081565b6103766117c7565b6102836105da3660046137b4565b611a18565b610376611aeb565b61034e6105f536600461364b565b611d07565b61037661060836600461364b565b611d82565b61028361061b366004613722565b611de7565b61037661062e366004613819565b611e9e565b6103766106413660046136dd565b611f3b565b606060007f000000000000000000000000000000000000000000000000000000000000000073ffffffffffffffffffffffffffffffffffffffff1663434798856040518163ffffffff1660e01b8152600401600060405180830381865afa1580156106b5573d6000803e3d6000fd5b505050506040513d6000823e601f3d9081017fffffffffffffffffffffffffffffffffffffffffffffffffffffffffffffffe01682016040526106fb9190810190613865565b9050805167ffffffffffffffff81111561071757610717613836565b604051908082528060200260200182016040528015610740578160200160208202803683370190505b50915061074d81836120ea565b5090565b73ffffffffffffffffffffffffffffffffffffffff8083166000908152600760209081526040808320938516835292905220545b92915050565b600080600061079861228a565b60055473ffffffffffffffffffffffffffffffffffffffff1633146108505760405162461bcd60e51b815260206004820152604c60248201527f506f6f6c732e6164644c6971756964697479206973206f6e6c792063616c6c6160448201527f626c652066726f6d2074686520436f6c6c61746572616c416e644c697175696460648201527f69747920636f6e74726163740000000000000000000000000000000000000000608482015260a4015b60405180910390fd5b60055474010000000000000000000000000000000000000000900460ff166108ba5760405162461bcd60e51b815260206004820152601c60248201527f5468652065786368616e6765206973206e6f7420796574206c697665000000006044820152606401610847565b8773ffffffffffffffffffffffffffffffffffffffff168973ffffffffffffffffffffffffffffffffffffffff160361095b5760405162461bcd60e51b815260206004820152602960248201527f43616e6e6f7420616464206c697175696469747920666f72206475706c69636160448201527f746520746f6b656e7300000000000000000000000000000000000000000000006064820152608401610847565b606487116109d15760405162461bcd60e51b815260206004820152602860248201527f54686520616d6f756e74206f6620746f6b656e4120746f20616464206973207460448201527f6f6f20736d616c6c0000000000000000000000000000000000000000000000006064820152608401610847565b60648611610a475760405162461bcd60e51b815260206004820152602860248201527f54686520616d6f756e74206f6620746f6b656e4220746f20616464206973207460448201527f6f6f20736d616c6c0000000000000000000000000000000000000000000000006064820152608401610847565b600080610a548b8b6122e3565b915091508015610a7757610a6a82898b896123d7565b9096509094509250610a8b565b610a83828a8a896123d7565b919650945092505b86831015610adb5760405162461bcd60e51b815260206004820152601d60248201527f546f6f206c6974746c65206c69717569646974792072656365697665640000006044820152606401610847565b610afd73ffffffffffffffffffffffffffffffffffffffff8c16333088612655565b610b1f73ffffffffffffffffffffffffffffffffffffffff8b16333087612655565b604080518681526020810186905290810184905273ffffffffffffffffffffffffffffffffffffffff808c1691908d16907f4a1a2a6176e9646d9e3157f7c2ab3c499f18337c0b0828cfb28e0a61de4a11f79060600160405180910390a35050610b896001600055565b96509650969350505050565b600080610ba061228a565b60055473ffffffffffffffffffffffffffffffffffffffff163314610c535760405162461bcd60e51b815260206004820152604f60248201527f506f6f6c732e72656d6f76654c6971756964697479206973206f6e6c7920636160448201527f6c6c61626c652066726f6d2074686520436f6c6c61746572616c416e644c697160648201527f75696469747920636f6e74726163740000000000000000000000000000000000608482015260a401610847565b60008611610cc95760405162461bcd60e51b815260206004820152602e60248201527f54686520616d6f756e74206f66206c6971756964697479546f52656d6f76652060448201527f63616e6e6f74206265207a65726f0000000000000000000000000000000000006064820152608401610847565b600080610cd68a8a6122e3565b60008281526006602052604090208054929450909250908690610d0c908b906fffffffffffffffffffffffffffffffff16613970565b610d1691906139b6565b81549095508690610d4e908b9070010000000000000000000000000000000090046fffffffffffffffffffffffffffffffff16613970565b610d5891906139b6565b815490945085908290600090610d819084906fffffffffffffffffffffffffffffffff166139f1565b92506101000a8154816fffffffffffffffffffffffffffffffff02191690836fffffffffffffffffffffffffffffffff160217905550838160000160108282829054906101000a90046fffffffffffffffffffffffffffffffff16610de691906139f1565b82546101009290920a6fffffffffffffffffffffffffffffffff8181021990931691831602179091558254606491161080159150610e3a5750805460646fffffffffffffffffffffffffffffffff90911610155b610eac5760405162461bcd60e51b815260206004820152602d60248201527f496e73756666696369656e74207265736572766573206166746572206c69717560448201527f69646974792072656d6f76616c000000000000000000000000000000000000006064820152608401610847565b8115610eb6579293925b878510158015610ec65750868410155b610f385760405162461bcd60e51b815260206004820152602760248201527f496e73756666696369656e7420756e6465726c79696e6720746f6b656e73207260448201527f657475726e6564000000000000000000000000000000000000000000000000006064820152608401610847565b610f5973ffffffffffffffffffffffffffffffffffffffff8c163387612737565b610f7a73ffffffffffffffffffffffffffffffffffffffff8b163386612737565b60408051868152602081018690529081018a905273ffffffffffffffffffffffffffffffffffffffff808c1691908d16907fbc7d19d505c7ec4db83f3b51f19fb98c4c8a99922e7839d1ee608dfbee29501b9060600160405180910390a3505050610fe56001600055565b965096945050505050565b610ff861228a565b606481116110485760405162461bcd60e51b815260206004820152601860248201527f4465706f73697420616d6f756e7420746f6f20736d616c6c00000000000000006044820152606401610847565b33600090815260076020908152604080832073ffffffffffffffffffffffffffffffffffffffff8616845290915281208054839290611088908490613a21565b909155506110b0905073ffffffffffffffffffffffffffffffffffffffff8316333084612655565b60405181815273ffffffffffffffffffffffffffffffffffffffff83169033907f98c09d9949722bae4bd0d988d4050091c3ae7ec6d51d3c6bbfe4233593944e9e906020015b60405180910390a36111086001600055565b5050565b61111461278d565b61111e60006127f4565b565b600061112a61228a565b818042111561117b5760405162461bcd60e51b815260206004820152600a60248201527f54582045585049524544000000000000000000000000000000000000000000006044820152606401610847565b33600090815260076020908152604080832073ffffffffffffffffffffffffffffffffffffffff8b16845291829052909120548611156112235760405162461bcd60e51b815260206004820152603560248201527f496e73756666696369656e74206465706f736974656420746f6b656e2062616c60448201527f616e6365206f6620696e697469616c20746f6b656e00000000000000000000006064820152608401610847565b73ffffffffffffffffffffffffffffffffffffffff881660009081526020829052604081208054889290611258908490613a34565b9091555061126a90508888888861286b565b9250828160008973ffffffffffffffffffffffffffffffffffffffff1673ffffffffffffffffffffffffffffffffffffffff16815260200190815260200160002060008282546112ba9190613a21565b90915550506001600055506112cc9050565b95945050505050565b60007f000000000000000000000000000000000000000000000000000000000000000073ffffffffffffffffffffffffffffffffffffffff1663434798856040518163ffffffff1660e01b8152600401600060405180830381865afa158015611342573d6000803e3d6000fd5b505050506040513d6000823e601f3d9081017fffffffffffffffffffffffffffffffffffffffffffffffffffffffffffffffe01682016040526113889190810190613865565b905060005b81518110156111085760008282815181106113aa576113aa613a47565b602002602001015190506000807f000000000000000000000000000000000000000000000000000000000000000073ffffffffffffffffffffffffffffffffffffffff1663c2fb9aac846040518263ffffffff1660e01b815260040161141291815260200190565b6040805180830381865afa15801561142e573d6000803e3d6000fd5b505050506040513d601f19601f820116820180604052508101906114529190613a76565b915091507f000000000000000000000000000000000000000000000000000000000000000073ffffffffffffffffffffffffffffffffffffffff168273ffffffffffffffffffffffffffffffffffffffff16141580156114fe57507f000000000000000000000000000000000000000000000000000000000000000073ffffffffffffffffffffffffffffffffffffffff168173ffffffffffffffffffffffffffffffffffffffff1614155b156116de5760006115307f00000000000000000000000000000000000000000000000000000000000000008488612969565b9050600061153f848489612969565b9050600061156e847f00000000000000000000000000000000000000000000000000000000000000008a612969565b6000878152600260209081526040918290208251606081018452905467ffffffffffffffff8082168084526801000000000000000083048216948401949094527001000000000000000000000000000000009091048116938201939093529293509085161415806115f75750806020015167ffffffffffffffff168367ffffffffffffffff1614155b8061161a5750806040015167ffffffffffffffff168267ffffffffffffffff1614155b156116d9576040805160608101825267ffffffffffffffff8087168252858116602080840191825286831684860190815260008d8152600290925294902092518354915194518316700100000000000000000000000000000000027fffffffffffffffff0000000000000000ffffffffffffffffffffffffffffffff95841668010000000000000000027fffffffffffffffffffffffffffffffff00000000000000000000000000000000909316919093161717929092169190911790555b505050505b50505060010161138d565b6000806116f685846129c8565b90508060000361170a5760009150506117c0565b6000806117178787612aa6565b915091506000806117487f000000000000000000000000000000000000000000000000000000000000000085611d07565b915091506000806117598686611d07565b9150915060008061178a877f0000000000000000000000000000000000000000000000000000000000000000611d07565b91509150600061179f8a888888888888612d8a565b905080156117b5576117b2898983612e94565b9a505b505050505050505050505b9392505050565b7f000000000000000000000000000000000000000000000000000000000000000073ffffffffffffffffffffffffffffffffffffffff16632cf4704a6040518163ffffffff1660e01b8152600401602060405180830381865afa158015611832573d6000803e3d6000fd5b505050506040513d601f19601f820116820180604052508101906118569190613aa5565b73ffffffffffffffffffffffffffffffffffffffff163373ffffffffffffffffffffffffffffffffffffffff161461191c5760405162461bcd60e51b815260206004820152604860248201527f506f6f6c53746174732e636c65617250726f66697473466f72506f6f6c73206960448201527f73206f6e6c792063616c6c61626c652066726f6d207468652055706b6565702060648201527f636f6e7472616374000000000000000000000000000000000000000000000000608482015260a401610847565b60007f000000000000000000000000000000000000000000000000000000000000000073ffffffffffffffffffffffffffffffffffffffff1663434798856040518163ffffffff1660e01b8152600401600060405180830381865afa158015611989573d6000803e3d6000fd5b505050506040513d6000823e601f3d9081017fffffffffffffffffffffffffffffffffffffffffffffffffffffffffffffffe01682016040526119cf9190810190613865565b905060005b8151811015611108576000600160008484815181106119f5576119f5613a47565b6020908102919091018101518252810191909152604001600020556001016119d4565b6000611a2261228a565b8180421115611a735760405162461bcd60e51b815260206004820152600a60248201527f54582045585049524544000000000000000000000000000000000000000000006044820152606401610847565b611a9573ffffffffffffffffffffffffffffffffffffffff8916333088612655565b6000611aa4898988600061286b565b9050611ab28888838861286b565b9250611ad573ffffffffffffffffffffffffffffffffffffffff88163385612737565b5050611ae16001600055565b9695505050505050565b611af361228a565b7f000000000000000000000000000000000000000000000000000000000000000073ffffffffffffffffffffffffffffffffffffffff166395645e346040518163ffffffff1660e01b8152600401602060405180830381865afa158015611b5e573d6000803e3d6000fd5b505050506040513d601f19601f82011682018060405250810190611b829190613aa5565b73ffffffffffffffffffffffffffffffffffffffff1663bd1d4b286040518163ffffffff1660e01b8152600401602060405180830381865afa158015611bcc573d6000803e3d6000fd5b505050506040513d601f19601f82011682018060405250810190611bf09190613aa5565b73ffffffffffffffffffffffffffffffffffffffff163373ffffffffffffffffffffffffffffffffffffffff1614611cb65760405162461bcd60e51b815260206004820152605060248201527f506f6f6c732e737461727445786368616e6765417070726f7665642063616e2060448201527f6f6e6c792062652063616c6c65642066726f6d2074686520426f6f747374726160648201527f7042616c6c6f7420636f6e747261637400000000000000000000000000000000608482015260a401610847565b611cbe6112d5565b600580547fffffffffffffffffffffff00ffffffffffffffffffffffffffffffffffffffff167401000000000000000000000000000000000000000017905561111e6001600055565b600080600080611d1786866122e3565b6000828152600660209081526040918290208251808401909352546fffffffffffffffffffffffffffffffff808216808552700100000000000000000000000000000000909204169183018290529750955091935091508115611d78579293925b5050509250929050565b611d8a61278d565b6004805473ffffffffffffffffffffffffffffffffffffffff8085167fffffffffffffffffffffffff000000000000000000000000000000000000000092831617909255600580549284169290911691909117905561110861110c565b6000611df161228a565b8180421115611e425760405162461bcd60e51b815260206004820152600a60248201527f54582045585049524544000000000000000000000000000000000000000000006044820152606401610847565b611e6473ffffffffffffffffffffffffffffffffffffffff8816333088612655565b611e708787878761286b565b9150611e9373ffffffffffffffffffffffffffffffffffffffff87163384612737565b506112cc6001600055565b611ea661278d565b73ffffffffffffffffffffffffffffffffffffffff8116611f2f5760405162461bcd60e51b815260206004820152602660248201527f4f776e61626c653a206e6577206f776e657220697320746865207a65726f206160448201527f64647265737300000000000000000000000000000000000000000000000000006064820152608401610847565b611f38816127f4565b50565b611f4361228a565b33600090815260076020908152604080832073ffffffffffffffffffffffffffffffffffffffff86168452909152902054811115611fe95760405162461bcd60e51b815260206004820152603160248201527f496e73756666696369656e742062616c616e636520746f20776974686472617760448201527f2073706563696669656420616d6f756e740000000000000000000000000000006064820152608401610847565b606481116120395760405162461bcd60e51b815260206004820152601960248201527f576974686472617720616d6f756e7420746f6f20736d616c6c000000000000006044820152606401610847565b33600090815260076020908152604080832073ffffffffffffffffffffffffffffffffffffffff8616845290915281208054839290612079908490613a34565b909155506120a0905073ffffffffffffffffffffffffffffffffffffffff83163383612737565b60405181815273ffffffffffffffffffffffffffffffffffffffff83169033907f42856d0378dde02337bb59ae41747abc77ded8ebdbbc5cbdd1e53693b7554938906020016110f6565b60005b825181101561228557600083828151811061210a5761210a613a47565b6020026020010151905060006003600160008481526020019081526020016000205461213691906139b6565b9050801561227b576000828152600260209081526040918290208251606081018452905467ffffffffffffffff80821680845268010000000000000000830482169484019490945270010000000000000000000000000000000090910481169382019390935291146121db578185826000015167ffffffffffffffff16815181106121c3576121c3613a47565b602002602001018181516121d79190613a21565b9052505b602081015167ffffffffffffffff9081161461222a578185826020015167ffffffffffffffff168151811061221257612212613a47565b602002602001018181516122269190613a21565b9052505b604081015167ffffffffffffffff90811614612279578185826040015167ffffffffffffffff168151811061226157612261613a47565b602002602001018181516122759190613a21565b9052505b505b50506001016120ed565b505050565b6002600054036122dc5760405162461bcd60e51b815260206004820152601f60248201527f5265656e7472616e637947756172643a207265656e7472616e742063616c6c006044820152606401610847565b6002600055565b6000808373ffffffffffffffffffffffffffffffffffffffff168373ffffffffffffffffffffffffffffffffffffffff161015612377576040517fffffffffffffffffffffffffffffffffffffffff000000000000000000000000606085811b8216602084015286901b166034820152604801604051602081830303815290604052805190602001206001915091506123d0565b6040517fffffffffffffffffffffffffffffffffffffffff000000000000000000000000606086811b8216602084015285901b166034820152604801604051602081830303815290604052805190602001206000915091505b9250929050565b60008481526006602052604081208054829182916fffffffffffffffffffffffffffffffff80821691700100000000000000000000000000000000900416811580612420575080155b156125025782548990849060009061244b9084906fffffffffffffffffffffffffffffffff16613ac2565b92506101000a8154816fffffffffffffffffffffffffffffffff02191690836fffffffffffffffffffffffffffffffff160217905550878360000160108282829054906101000a90046fffffffffffffffffffffffffffffffff166124b09190613ac2565b92506101000a8154816fffffffffffffffffffffffffffffffff02191690836fffffffffffffffffffffffffffffffff1602179055508888898b6124f49190613a21565b95509550955050505061264b565b60008261250f838c613970565b61251991906139b6565b905088811115612542578161252e848b613970565b61253891906139b6565b9650889550612549565b8996508095505b83548790859060009061256f9084906fffffffffffffffffffffffffffffffff16613ac2565b92506101000a8154816fffffffffffffffffffffffffffffffff02191690836fffffffffffffffffffffffffffffffff160217905550858460000160108282829054906101000a90046fffffffffffffffffffffffffffffffff166125d49190613ac2565b92506101000a8154816fffffffffffffffffffffffffffffffff02191690836fffffffffffffffffffffffffffffffff1602179055508587111561262e578261261d888a613970565b61262791906139b6565b9450612646565b81612639878a613970565b61264391906139b6565b94505b505050505b9450945094915050565b60405173ffffffffffffffffffffffffffffffffffffffff808516602483015283166044820152606481018290526127319085907f23b872dd00000000000000000000000000000000000000000000000000000000906084015b604080517fffffffffffffffffffffffffffffffffffffffffffffffffffffffffffffffe08184030181529190526020810180517bffffffffffffffffffffffffffffffffffffffffffffffffffffffff167fffffffff0000000000000000000000000000000000000000000000000000000090931692909217909152612f8e565b50505050565b60405173ffffffffffffffffffffffffffffffffffffffff83166024820152604481018290526122859084907fa9059cbb00000000000000000000000000000000000000000000000000000000906064016126af565b60035473ffffffffffffffffffffffffffffffffffffffff16331461111e5760405162461bcd60e51b815260206004820181905260248201527f4f776e61626c653a2063616c6c6572206973206e6f7420746865206f776e65726044820152606401610847565b6003805473ffffffffffffffffffffffffffffffffffffffff8381167fffffffffffffffffffffffff0000000000000000000000000000000000000000831681179093556040519116919082907f8be0079c531659141344cd1fd0a4f28419497f9722a3daafe3b4186f6b6457e090600090a35050565b6000612878858585613083565b9050818110156128f05760405162461bcd60e51b815260206004820152602360248201527f496e73756666696369656e7420726573756c74696e6720746f6b656e20616d6f60448201527f756e7400000000000000000000000000000000000000000000000000000000006064820152608401610847565b60006128fd8686866116e9565b604080518681526020810185905290810182905290915073ffffffffffffffffffffffffffffffffffffffff808716919088169033907f1195a8db0f3ef828b684c3193db62af33dae2817d69fa75433df4c896c00be189060600160405180910390a450949350505050565b6000806129768585613255565b905060005b83518110156129b55783818151811061299657612996613a47565b602002602001015182036129ad5791506117c09050565b60010161297b565b5067ffffffffffffffff95945050505050565b60007f000000000000000000000000000000000000000000000000000000000000000073ffffffffffffffffffffffffffffffffffffffff168373ffffffffffffffffffffffffffffffffffffffff1603612a24575080610785565b600080612a517f000000000000000000000000000000000000000000000000000000000000000086611d07565b915091506064821080612a645750606481105b15612a7457600092505050610785565b80612a7f8386613970565b612a8991906139b6565b925060648311612a9e57600092505050610785565b505092915050565b6000807f000000000000000000000000000000000000000000000000000000000000000073ffffffffffffffffffffffffffffffffffffffff168473ffffffffffffffffffffffffffffffffffffffff1603612b99577f000000000000000000000000000000000000000000000000000000000000000073ffffffffffffffffffffffffffffffffffffffff168373ffffffffffffffffffffffffffffffffffffffff1603612b9957507f000000000000000000000000000000000000000000000000000000000000000090507f00000000000000000000000000000000000000000000000000000000000000006123d0565b7f000000000000000000000000000000000000000000000000000000000000000073ffffffffffffffffffffffffffffffffffffffff168473ffffffffffffffffffffffffffffffffffffffff1603612c89577f000000000000000000000000000000000000000000000000000000000000000073ffffffffffffffffffffffffffffffffffffffff168373ffffffffffffffffffffffffffffffffffffffff1603612c8957507f000000000000000000000000000000000000000000000000000000000000000090507f00000000000000000000000000000000000000000000000000000000000000006123d0565b7f000000000000000000000000000000000000000000000000000000000000000073ffffffffffffffffffffffffffffffffffffffff168473ffffffffffffffffffffffffffffffffffffffff1603612d0657507f00000000000000000000000000000000000000000000000000000000000000009050816123d0565b7f000000000000000000000000000000000000000000000000000000000000000073ffffffffffffffffffffffffffffffffffffffff168373ffffffffffffffffffffffffffffffffffffffff1603612d8357508290507f00000000000000000000000000000000000000000000000000000000000000006123d0565b5090929050565b6000606487111580612d9d575060648611155b80612da9575060648511155b80612db5575060648411155b80612dc1575060648311155b80612dcd575060648211155b15612dda57506000612e89565b600788901c600289901c890160005b6008811015612e215782820160011c612e07818c8c8c8c8c8c61333e565b15612e1457809350612e18565b8092505b50600101612de9565b5081810160011c9250600089840189850281612e3f57612e3f613987565b04905080880181880281612e5557612e55613987565b04905080860181860281612e6b57612e6b613987565b04905060648482031215612e855760009350505050612e89565b5050505b979650505050505050565b600080612ec27f00000000000000000000000000000000000000000000000000000000000000008685613083565b9050612ecf858583613083565b9050612efc847f000000000000000000000000000000000000000000000000000000000000000083613083565b9050612f088382613a34565b60045473ffffffffffffffffffffffffffffffffffffffff90811660009081526007602090815260408083207f0000000000000000000000000000000000000000000000000000000000000000909416835292905290812080549294508492909190612f75908490613a21565b90915550612f8690508585846133f8565b509392505050565b6000612ff0826040518060400160405280602081526020017f5361666545524332303a206c6f772d6c6576656c2063616c6c206661696c65648152508573ffffffffffffffffffffffffffffffffffffffff166134349092919063ffffffff16565b90508051600014806130115750808060200190518101906130119190613aeb565b6122855760405162461bcd60e51b815260206004820152602a60248201527f5361666545524332303a204552433230206f7065726174696f6e20646964206e60448201527f6f742073756363656564000000000000000000000000000000000000000000006064820152608401610847565b600080600061309286866122e3565b60008281526006602052604090208054929450909250906fffffffffffffffffffffffffffffffff80821691700100000000000000000000000000000000900416606482108015906130e5575060648110155b6131575760405162461bcd60e51b815260206004820152602160248201527f496e73756666696369656e74207265736572766573206265666f72652073776160448201527f70000000000000000000000000000000000000000000000000000000000000006064820152608401610847565b8315613191576131678782613a21565b9050806131748884613970565b61317e91906139b6565b955061318a8683613a34565b91506131c1565b61319b8783613a21565b9150816131a88883613970565b6131b291906139b6565b95506131be8682613a34565b90505b606482101580156131d3575060648110155b61321f5760405162461bcd60e51b815260206004820181905260248201527f496e73756666696369656e7420726573657276657320616674657220737761706044820152606401610847565b6fffffffffffffffffffffffffffffffff9081167001000000000000000000000000000000000291161790555090949350505050565b60008273ffffffffffffffffffffffffffffffffffffffff168273ffffffffffffffffffffffffffffffffffffffff1610156132e4576040517fffffffffffffffffffffffffffffffffffffffff000000000000000000000000606084811b8216602084015285901b166034820152604801604051602081830303815290604052805190602001209050610785565b6040517fffffffffffffffffffffffffffffffffffffffff000000000000000000000000606085811b8216602084015284901b16603482015260480160405160208183030381529060405280519060200120905092915050565b6000808888018988028161335457613354613987565b0490508086018186028161336a5761336a613987565b0490508084018184028161338057613380613987565b049050888103606481121561339a57600092505050612e89565b66038d7ea4c680008a0199508989018a8902816133b9576133b9613987565b049150818701828702816133cf576133cf613987565b049150818501828502816133e5576133e5613987565b048a900313915050979650505050505050565b60006134048484613255565b9050816001600083815260200190815260200160002060008282546134299190613a21565b909155505050505050565b6060613443848460008561344b565b949350505050565b6060824710156134c35760405162461bcd60e51b815260206004820152602660248201527f416464726573733a20696e73756666696369656e742062616c616e636520666f60448201527f722063616c6c00000000000000000000000000000000000000000000000000006064820152608401610847565b6000808673ffffffffffffffffffffffffffffffffffffffff1685876040516134ec9190613b31565b60006040518083038185875af1925050503d8060008114613529576040519150601f19603f3d011682016040523d82523d6000602084013e61352e565b606091505b5091509150612e8987838387606083156135b65782516000036135af5773ffffffffffffffffffffffffffffffffffffffff85163b6135af5760405162461bcd60e51b815260206004820152601d60248201527f416464726573733a2063616c6c20746f206e6f6e2d636f6e74726163740000006044820152606401610847565b5081613443565b61344383838151156135cb5781518083602001fd5b8060405162461bcd60e51b81526004016108479190613b4d565b6020808252825182820181905260009190848201906040850190845b8181101561361d57835183529284019291840191600101613601565b50909695505050505050565b73ffffffffffffffffffffffffffffffffffffffff81168114611f3857600080fd5b6000806040838503121561365e57600080fd5b823561366981613629565b9150602083013561367981613629565b809150509250929050565b60008060008060008060c0878903121561369d57600080fd5b86356136a881613629565b955060208701356136b881613629565b95989597505050506040840135936060810135936080820135935060a0909101359150565b600080604083850312156136f057600080fd5b82356136fb81613629565b946020939093013593505050565b60006020828403121561371b57600080fd5b5035919050565b600080600080600060a0868803121561373a57600080fd5b853561374581613629565b9450602086013561375581613629565b94979496505050506040830135926060810135926080909101359150565b60008060006060848603121561378857600080fd5b833561379381613629565b925060208401356137a381613629565b929592945050506040919091013590565b60008060008060008060c087890312156137cd57600080fd5b86356137d881613629565b955060208701356137e881613629565b945060408701356137f881613629565b959894975094956060810135955060808101359460a0909101359350915050565b60006020828403121561382b57600080fd5b81356117c081613629565b7f4e487b7100000000000000000000000000000000000000000000000000000000600052604160045260246000fd5b6000602080838503121561387857600080fd5b825167ffffffffffffffff8082111561389057600080fd5b818501915085601f8301126138a457600080fd5b8151818111156138b6576138b6613836565b8060051b6040517fffffffffffffffffffffffffffffffffffffffffffffffffffffffffffffffe0603f830116810181811085821117156138f9576138f9613836565b60405291825284820192508381018501918883111561391757600080fd5b938501935b828510156139355784518452938501939285019261391c565b98975050505050505050565b7f4e487b7100000000000000000000000000000000000000000000000000000000600052601160045260246000fd5b808202811582820484141761078557610785613941565b7f4e487b7100000000000000000000000000000000000000000000000000000000600052601260045260246000fd5b6000826139ec577f4e487b7100000000000000000000000000000000000000000000000000000000600052601260045260246000fd5b500490565b6fffffffffffffffffffffffffffffffff828116828216039080821115613a1a57613a1a613941565b5092915050565b8082018082111561078557610785613941565b8181038181111561078557610785613941565b7f4e487b7100000000000000000000000000000000000000000000000000000000600052603260045260246000fd5b60008060408385031215613a8957600080fd5b8251613a9481613629565b602084015190925061367981613629565b600060208284031215613ab757600080fd5b81516117c081613629565b6fffffffffffffffffffffffffffffffff818116838216019080821115613a1a57613a1a613941565b600060208284031215613afd57600080fd5b815180151581146117c057600080fd5b60005b83811015613b28578181015183820152602001613b10565b50506000910152565b60008251613b43818460208701613b0d565b9190910192915050565b6020815260008251806020840152613b6c816040850160208701613b0d565b601f017fffffffffffffffffffffffffffffffffffffffffffffffffffffffffffffffe016919091016040019291505056fea2646970667358221220395f88efbb2c0d9d10c064c7c907118ca229b77ac93b464a5dea8982f5af22ad64736f6c63430008160033","linkReferences":{}},"methodIdentifiers":{"MIDPOINT_PRECISION()":"40a83c99","_arbitrageIndicies(bytes32)":"516a5c25","_arbitrageProfits(bytes32)":"af42bb1a","_attemptArbitrage(address,address,uint256)":"b4d81875","_weth()":"a1764595","addLiquidity(address,address,uint256,uint256,uint256,uint256)":"3351733f","arbitrageIndicies(bytes32)":"647e77d0","clearProfitsForPools()":"c4de1782","collateralAndLiquidity()":"0e5c7fbb","dao()":"4162169f","deposit(address,uint256)":"47e7ef24","depositDoubleSwapWithdraw(address,address,address,uint256,uint256,uint256)":"c74e31c8","depositSwapWithdraw(address,address,uint256,uint256,uint256)":"e2f7c480","depositedUserBalance(address,address)":"2c662857","exchangeConfig()":"0e2789bb","exchangeIsLive()":"634040b3","getPoolReserves(address,address)":"d4469c3e","owner()":"8da5cb5b","poolsConfig()":"52c19b5a","profitsForWhitelistedPools()":"1959df06","removeLiquidity(address,address,uint256,uint256,uint256,uint256)":"44483d53","renounceOwnership()":"715018a6","salt()":"bfa0b133","setContracts(address,address)":"d8952a49","startExchangeApproved()":"cb936cc1","swap(address,address,uint256,uint256,uint256)":"7a950f99","transferOwnership(address)":"f2fde38b","updateArbitrageIndicies()":"85876e95","wbtc()":"3cdc5389","weth()":"3fc8cef3","withdraw(address,uint256)":"f3fef3a3"},"id":90}