{"abi":[{"type":"constructor","inputs":[{"name":"_stakingRewardsEmitter","type":"address","internalType":"contract IRewardsEmitter"},{"name":"_liquidityRewardsEmitter","type":"address","internalType":"contract IRewardsEmitter"},{"name":"_exchangeConfig","type":"address","internalType":"contract IExchangeConfig"},{"name":"_rewardsConfig","type":"address","internalType":"contract IRewardsConfig"}],"stateMutability":"nonpayable"},{"type":"function","name":"exchangeConfig","inputs":[],"outputs":[{"name":"","type":"address","internalType":"contract IExchangeConfig"}],"stateMutability":"view"},{"type":"function","name":"liquidityRewardsEmitter","inputs":[],"outputs":[{"name":"","type":"address","internalType":"contract IRewardsEmitter"}],"stateMutability":"view"},{"type":"function","name":"performUpkeep","inputs":[{"name":"poolIDs","type":"bytes32[]","internalType":"bytes32[]"},{"name":"profitsForPools","type":"uint256[]","internalType":"uint256[]"}],"outputs":[],"stateMutability":"nonpayable"},{"type":"function","name":"rewardsConfig","inputs":[],"outputs":[{"name":"","type":"address","internalType":"contract IRewardsConfig"}],"stateMutability":"view"},{"type":"function","name":"salt","inputs":[],"outputs":[{"name":"","type":"address","internalType":"contract ISalt"}],"stateMutability":"view"},{"type":"function","name":"sendInitialLiquidityRewards","inputs":[{"name":"liquidityBootstrapAmount","type":"uint256","internalType":"uint256"},{"name":"poolIDs","type":"bytes32[]","internalType":"bytes32[]"}],"outputs":[],"stateMutability":"nonpayable"},{"type":"function","name":"sendInitialSaltRewards","inputs":[{"name":"liquidityBootstrapAmount","type":"uint256","internalType":"uint256"},{"name":"poolIDs","type":"bytes32[]","internalType":"bytes32[]"}],"outputs":[],"stateMutability":"nonpayable"},{"type":"function","name":"sendInitialStakingRewards","inputs":[{"name":"stakingBootstrapAmount","type":"uint256","internalType":"uint256"}],"outputs":[],"stateMutability":"nonpayable"},{"type":"function","name":"sendLiquidityRewards","inputs":[{"name":"liquidityRewardsAmount","type":"uint256","internalType":"uint256"},{"name":"directSaltUSDSRewardsAmount","type":"uint256","internalType":"uint256"},{"name":"poolIDs","type":"bytes32[]","internalType":"bytes32[]"},{"name":"profitsForPools","type":"uint256[]","internalType":"uint256[]"}],"outputs":[],"stateMutability":"nonpayable"},{"type":"function","name":"sendStakingRewards","inputs":[{"name":"stakingRewardsAmount","type":"uint256","internalType":"uint256"}],"outputs":[],"stateMutability":"nonpayable"},{"type":"function","name":"stakingRewardsEmitter","inputs":[],"outputs":[{"name":"","type":"address","internalType":"contract IRewardsEmitter"}],"stateMutability":"view"},{"type":"function","name":"test","inputs":[],"outputs":[],"stateMutability":"nonpayable"}],"bytecode":{"object":"0x6101406040523480156200001257600080fd5b506040516200181c3803806200181c833981016040819052620000359162000319565b6001600160a01b0380851660805280841660a05280831660c081905290821660e0526040805163bfa0b13360e01b8152905186928692869286929163bfa0b1339160048083019260209291908290030181865afa1580156200009b573d6000803e3d6000fd5b505050506040513d601f19601f82011682018060405250810190620000c1919062000381565b6001600160a01b0316610100816001600160a01b0316815250506200014e61010051836001600160a01b0316634cf282fb6040518163ffffffff1660e01b8152600401602060405180830381865afa15801562000122573d6000803e3d6000fd5b505050506040513d601f19601f8201168201806040525081019062000148919062000381565b6200025e565b610120526101005160805160405163095ea7b360e01b81526001600160a01b039182166004820152600019602482015291169063095ea7b3906044016020604051808303816000875af1158015620001aa573d6000803e3d6000fd5b505050506040513d601f19601f82011682018060405250810190620001d09190620003a8565b506101005160a05160405163095ea7b360e01b81526001600160a01b039182166004820152600019602482015291169063095ea7b3906044016020604051808303816000875af115801562000229573d6000803e3d6000fd5b505050506040513d601f19601f820116820180604052508101906200024f9190620003a8565b505050505050505050620003cc565b6000826001600160a01b0316826001600160a01b03161015620002bd576040516001600160601b0319606084811b8216602084015285901b166034820152604801604051602081830303815290604052805190602001209050620002fa565b6040516001600160601b0319606085811b8216602084015284901b1660348201526048016040516020818303038152906040528051906020012090505b92915050565b6001600160a01b03811681146200031657600080fd5b50565b600080600080608085870312156200033057600080fd5b84516200033d8162000300565b6020860151909450620003508162000300565b6040860151909350620003638162000300565b6060860151909250620003768162000300565b939692955090935050565b6000602082840312156200039457600080fd5b8151620003a18162000300565b9392505050565b600060208284031215620003bb57600080fd5b81518015158114620003a157600080fd5b60805160a05160c05160e05161010051610120516113c26200045a6000396000610db30152600081816101cb0152818161042301526106b601526000818161019101528181610796015261084d01526000818160de0152818161024201526104af01526000818161016a01528181610c170152610e5f01526000818161012e0152610a9a01526113c26000f3fe608060405234801561001057600080fd5b50600436106100d45760003560e01c8063a61d8fb311610081578063ebbe9aa31161005b578063ebbe9aa314610200578063f8a8fd6d14610163578063fb0feca11461021357600080fd5b8063a61d8fb3146101b3578063bfa0b133146101c6578063d2b09b7a146101ed57600080fd5b806373e88703116100b257806373e88703146101505780637af0eb391461016557806396ceac341461018c57600080fd5b80630e2789bb146100d957806333c6ae711461012957806369176cd314610150575b600080fd5b6101007f000000000000000000000000000000000000000000000000000000000000000081565b60405173ffffffffffffffffffffffffffffffffffffffff909116815260200160405180910390f35b6101007f000000000000000000000000000000000000000000000000000000000000000081565b61016361015e366004610ec2565b610226565b005b6101007f000000000000000000000000000000000000000000000000000000000000000081565b6101007f000000000000000000000000000000000000000000000000000000000000000081565b6101636101c1366004610fec565b610232565b6101007f000000000000000000000000000000000000000000000000000000000000000081565b6101636101fb36600461107f565b610240565b61016361020e3660046110cb565b6104ad565b610163610221366004611137565b610996565b61022f816109e7565b50565b61023c8282610b05565b5050565b7f000000000000000000000000000000000000000000000000000000000000000073ffffffffffffffffffffffffffffffffffffffff166395645e346040518163ffffffff1660e01b8152600401602060405180830381865afa1580156102ab573d6000803e3d6000fd5b505050506040513d601f19601f820116820180604052508101906102cf9190611224565b73ffffffffffffffffffffffffffffffffffffffff163373ffffffffffffffffffffffffffffffffffffffff16146103b4576040517f08c379a000000000000000000000000000000000000000000000000000000000815260206004820152605560248201527f53616c74526577617264732e73656e64496e697469616c52657761726473206960448201527f73206f6e6c792063616c6c61626c652066726f6d2074686520496e697469616c60648201527f446973747269627574696f6e20636f6e74726163740000000000000000000000608482015260a4015b60405180910390fd5b6103f183838380806020026020016040519081016040528093929190818152602001838360200280828437600092019190915250610b0592505050565b6040517f70a082310000000000000000000000000000000000000000000000000000000081523060048201526104a8907f000000000000000000000000000000000000000000000000000000000000000073ffffffffffffffffffffffffffffffffffffffff16906370a0823190602401602060405180830381865afa15801561047f573d6000803e3d6000fd5b505050506040513d601f19601f820116820180604052508101906104a39190611248565b6109e7565b505050565b7f000000000000000000000000000000000000000000000000000000000000000073ffffffffffffffffffffffffffffffffffffffff16632cf4704a6040518163ffffffff1660e01b8152600401602060405180830381865afa158015610518573d6000803e3d6000fd5b505050506040513d601f19601f8201168201806040525081019061053c9190611224565b73ffffffffffffffffffffffffffffffffffffffff163373ffffffffffffffffffffffffffffffffffffffff161461061c576040517f08c379a000000000000000000000000000000000000000000000000000000000815260206004820152604360248201527f53616c74526577617264732e706572666f726d55706b656570206973206f6e6c60448201527f792063616c6c61626c652066726f6d207468652055706b65657020636f6e747260648201527f6163740000000000000000000000000000000000000000000000000000000000608482015260a4016103ab565b828114610685576040517f08c379a000000000000000000000000000000000000000000000000000000000815260206004820152601a60248201527f496e636f6d70617469626c65206172726179206c656e6774687300000000000060448201526064016103ab565b6040517f70a082310000000000000000000000000000000000000000000000000000000081523060048201526000907f000000000000000000000000000000000000000000000000000000000000000073ffffffffffffffffffffffffffffffffffffffff16906370a0823190602401602060405180830381865afa158015610712573d6000803e3d6000fd5b505050506040513d601f19601f820116820180604052508101906107369190611248565b9050806000036107465750610990565b6000805b858110156107805784848281811061076457610764611261565b905060200201358261077691906112bf565b915060010161074a565b5080600003610790575050610990565b600060647f000000000000000000000000000000000000000000000000000000000000000073ffffffffffffffffffffffffffffffffffffffff1663e73b9f326040518163ffffffff1660e01b8152600401602060405180830381865afa1580156107ff573d6000803e3d6000fd5b505050506040513d601f19601f820116820180604052508101906108239190611248565b61082d90856112d8565b61083791906112ef565b90506000610845828561132a565b9050600060647f000000000000000000000000000000000000000000000000000000000000000073ffffffffffffffffffffffffffffffffffffffff166370ef62586040518163ffffffff1660e01b8152600401602060405180830381865afa1580156108b6573d6000803e3d6000fd5b505050506040513d601f19601f820116820180604052508101906108da9190611248565b6108e490846112d8565b6108ee91906112ef565b905060006108fc828461132a565b9050610907826109e7565b61098981858c8c80806020026020016040519081016040528093929190818152602001838360200280828437600081840152601f19601f820116905080830192505050505050508b8b808060200260200160405190810160405280939291908181526020018383602002808284376000920191909152508c9250610c84915050565b5050505050505b50505050565b6000805b83518110156109d2578281815181106109b5576109b5611261565b6020026020010151826109c891906112bf565b915060010161099a565b506109e08585858585610c84565b5050505050565b604080516001808252818301909252600091816020015b60408051808201909152600080825260208201528152602001906001900390816109fe57905050905060405180604001604052806000801b81526020018381525081600081518110610a5257610a52611261565b60209081029190910101526040517f112ad34400000000000000000000000000000000000000000000000000000000815273ffffffffffffffffffffffffffffffffffffffff7f0000000000000000000000000000000000000000000000000000000000000000169063112ad34490610acf90849060040161133d565b600060405180830381600087803b158015610ae957600080fd5b505af1158015610afd573d6000803e3d6000fd5b505050505050565b6000815183610b1491906112ef565b90506000825167ffffffffffffffff811115610b3257610b32610edb565b604051908082528060200260200182016040528015610b7757816020015b6040805180820190915260008082526020820152815260200190600190039081610b505790505b50905060005b8151811015610bd9576040518060400160405280858381518110610ba357610ba3611261565b6020026020010151815260200184815250828281518110610bc657610bc6611261565b6020908102919091010152600101610b7d565b506040517f112ad34400000000000000000000000000000000000000000000000000000000815273ffffffffffffffffffffffffffffffffffffffff7f0000000000000000000000000000000000000000000000000000000000000000169063112ad34490610c4c90849060040161133d565b600060405180830381600087803b158015610c6657600080fd5b505af1158015610c7a573d6000803e3d6000fd5b5050505050505050565b8151835114610cef576040517f08c379a000000000000000000000000000000000000000000000000000000000815260206004820152601a60248201527f496e636f6d70617469626c65206172726179206c656e6774687300000000000060448201526064016103ab565b6000835167ffffffffffffffff811115610d0b57610d0b610edb565b604051908082528060200260200182016040528015610d5057816020015b6040805180820190915260008082526020820152815260200190600190039081610d295790505b50905060005b8151811015610e21576000858281518110610d7357610d73611261565b60200260200101519050600084868481518110610d9257610d92611261565b60200260200101518a610da591906112d8565b610daf91906112ef565b90507f00000000000000000000000000000000000000000000000000000000000000008203610de557610de288826112bf565b90505b604051806040016040528083815260200182815250848481518110610e0c57610e0c611261565b60209081029190910101525050600101610d56565b506040517f112ad34400000000000000000000000000000000000000000000000000000000815273ffffffffffffffffffffffffffffffffffffffff7f0000000000000000000000000000000000000000000000000000000000000000169063112ad34490610e9490849060040161133d565b600060405180830381600087803b158015610eae57600080fd5b505af1158015610989573d6000803e3d6000fd5b600060208284031215610ed457600080fd5b5035919050565b7f4e487b7100000000000000000000000000000000000000000000000000000000600052604160045260246000fd5b604051601f82017fffffffffffffffffffffffffffffffffffffffffffffffffffffffffffffffe016810167ffffffffffffffff81118282101715610f5157610f51610edb565b604052919050565b600067ffffffffffffffff821115610f7357610f73610edb565b5060051b60200190565b600082601f830112610f8e57600080fd5b81356020610fa3610f9e83610f59565b610f0a565b8083825260208201915060208460051b870101935086841115610fc557600080fd5b602086015b84811015610fe15780358352918301918301610fca565b509695505050505050565b60008060408385031215610fff57600080fd5b82359150602083013567ffffffffffffffff81111561101d57600080fd5b61102985828601610f7d565b9150509250929050565b60008083601f84011261104557600080fd5b50813567ffffffffffffffff81111561105d57600080fd5b6020830191508360208260051b850101111561107857600080fd5b9250929050565b60008060006040848603121561109457600080fd5b83359250602084013567ffffffffffffffff8111156110b257600080fd5b6110be86828701611033565b9497909650939450505050565b600080600080604085870312156110e157600080fd5b843567ffffffffffffffff808211156110f957600080fd5b61110588838901611033565b9096509450602087013591508082111561111e57600080fd5b5061112b87828801611033565b95989497509550505050565b6000806000806080858703121561114d57600080fd5b843593506020808601359350604086013567ffffffffffffffff8082111561117457600080fd5b61118089838a01610f7d565b9450606088013591508082111561119657600080fd5b508601601f810188136111a857600080fd5b80356111b6610f9e82610f59565b81815260059190911b8201830190838101908a8311156111d557600080fd5b928401925b828410156111f3578335825292840192908401906111da565b979a9699509497505050505050565b73ffffffffffffffffffffffffffffffffffffffff8116811461022f57600080fd5b60006020828403121561123657600080fd5b815161124181611202565b9392505050565b60006020828403121561125a57600080fd5b5051919050565b7f4e487b7100000000000000000000000000000000000000000000000000000000600052603260045260246000fd5b7f4e487b7100000000000000000000000000000000000000000000000000000000600052601160045260246000fd5b808201808211156112d2576112d2611290565b92915050565b80820281158282048414176112d2576112d2611290565b600082611325577f4e487b7100000000000000000000000000000000000000000000000000000000600052601260045260246000fd5b500490565b818103818111156112d2576112d2611290565b602080825282518282018190526000919060409081850190868401855b8281101561137f5781518051855286015186850152928401929085019060010161135a565b509197965050505050505056fea2646970667358221220081d1687cb228f3b426e78925b8f5d22fc18ad675a075d014672f0459e7c8a3464736f6c63430008160033","linkReferences":{}},"methodIdentifiers":{"exchangeConfig()":"0e2789bb","liquidityRewardsEmitter()":"7af0eb39","performUpkeep(bytes32[],uint256[])":"ebbe9aa3","rewardsConfig()":"96ceac34","salt()":"bfa0b133","sendInitialLiquidityRewards(uint256,bytes32[])":"a61d8fb3","sendInitialSaltRewards(uint256,bytes32[])":"d2b09b7a","sendInitialStakingRewards(uint256)":"73e88703","sendLiquidityRewards(uint256,uint256,bytes32[],uint256[])":"fb0feca1","sendStakingRewards(uint256)":"69176cd3","stakingRewardsEmitter()":"33c6ae71","test()":"f8a8fd6d"},"id":129}