{"abi":[{"type":"constructor","inputs":[{"name":"_stakingRewards","type":"address","internalType":"contract IStakingRewards"},{"name":"_exchangeConfig","type":"address","internalType":"contract IExchangeConfig"},{"name":"_poolsConfig","type":"address","internalType":"contract IPoolsConfig"},{"name":"_rewardsConfig","type":"address","internalType":"contract IRewardsConfig"},{"name":"_isForCollateralAndLiquidity","type":"bool","internalType":"bool"}],"stateMutability":"nonpayable"},{"type":"function","name":"MAX_TIME_SINCE_LAST_UPKEEP","inputs":[],"outputs":[{"name":"","type":"uint256","internalType":"uint256"}],"stateMutability":"view"},{"type":"function","name":"addSALTRewards","inputs":[{"name":"addedRewards","type":"tuple[]","internalType":"struct AddedReward[]","components":[{"name":"poolID","type":"bytes32","internalType":"bytes32"},{"name":"amountToAdd","type":"uint256","internalType":"uint256"}]}],"outputs":[],"stateMutability":"nonpayable"},{"type":"function","name":"exchangeConfig","inputs":[],"outputs":[{"name":"","type":"address","internalType":"contract IExchangeConfig"}],"stateMutability":"view"},{"type":"function","name":"pendingRewards","inputs":[{"name":"","type":"bytes32","internalType":"bytes32"}],"outputs":[{"name":"","type":"uint256","internalType":"uint256"}],"stateMutability":"view"},{"type":"function","name":"pendingRewardsForPools","inputs":[{"name":"pools","type":"bytes32[]","internalType":"bytes32[]"}],"outputs":[{"name":"","type":"uint256[]","internalType":"uint256[]"}],"stateMutability":"view"},{"type":"function","name":"performUpkeep","inputs":[{"name":"timeSinceLastUpkeep","type":"uint256","internalType":"uint256"}],"outputs":[],"stateMutability":"nonpayable"},{"type":"function","name":"poolsConfig","inputs":[],"outputs":[{"name":"","type":"address","internalType":"contract IPoolsConfig"}],"stateMutability":"view"},{"type":"function","name":"rewardsConfig","inputs":[],"outputs":[{"name":"","type":"address","internalType":"contract IRewardsConfig"}],"stateMutability":"view"},{"type":"function","name":"salt","inputs":[],"outputs":[{"name":"","type":"address","internalType":"contract ISalt"}],"stateMutability":"view"},{"type":"function","name":"stakingRewards","inputs":[],"outputs":[{"name":"","type":"address","internalType":"contract IStakingRewards"}],"stateMutability":"view"}],"bytecode":{"object":"0x6101406040523480156200001257600080fd5b506040516200160838038062001608833981016040819052620000359162000180565b60016000556001600160a01b0380861660805284811660a081905284821660c05290831660e052811515610120526040805163bfa0b13360e01b8152905163bfa0b133916004808201926020929091908290030181865afa1580156200009f573d6000803e3d6000fd5b505050506040513d601f19601f82011682018060405250810190620000c59190620001fb565b6001600160a01b0390811661010081905260805160405163095ea7b360e01b81529216600483015260001960248301529063095ea7b3906044016020604051808303816000875af11580156200011f573d6000803e3d6000fd5b505050506040513d601f19601f8201168201806040525081019062000145919062000222565b50505050505062000240565b6001600160a01b03811681146200016757600080fd5b50565b805180151581146200017b57600080fd5b919050565b600080600080600060a086880312156200019957600080fd5b8551620001a68162000151565b6020870151909550620001b98162000151565b6040870151909450620001cc8162000151565b6060870151909350620001df8162000151565b9150620001ef608087016200016a565b90509295509295909350565b6000602082840312156200020e57600080fd5b81516200021b8162000151565b9392505050565b6000602082840312156200023557600080fd5b6200021b826200016a565b60805160a05160c05160e051610100516101205161134f620002b960003960006105b10152600081816101ce01526103fc0152600081816101a7015261074a015260008181610159015281816102b001526105d701526000818160c8015261043501526000818161018001526108f3015261134f6000f3fe608060405234801561001057600080fd5b50600436106100be5760003560e01c806364b87a7011610076578063bfa0b1331161005b578063bfa0b133146101c9578063db89678f146101f0578063f626d8dd1461021057600080fd5b806364b87a701461017b57806396ceac34146101a257600080fd5b80631b020e23116100a75780631b020e23146101295780633164f3f21461014157806352c19b5a1461015457600080fd5b80630e2789bb146100c3578063112ad34414610114575b600080fd5b6100ea7f000000000000000000000000000000000000000000000000000000000000000081565b60405173ffffffffffffffffffffffffffffffffffffffff90911681526020015b60405180910390f35b610127610122366004610e43565b610230565b005b6101336201518081565b60405190815260200161010b565b61012761014f366004610eb8565b610433565b6100ea7f000000000000000000000000000000000000000000000000000000000000000081565b6100ea7f000000000000000000000000000000000000000000000000000000000000000081565b6100ea7f000000000000000000000000000000000000000000000000000000000000000081565b6100ea7f000000000000000000000000000000000000000000000000000000000000000081565b6101336101fe366004610eb8565b60016020526000908152604090205481565b61022361021e366004610ed1565b610962565b60405161010b9190610f34565b610238610a12565b6000805b828110156103db57600084848381811061025857610258610f78565b90506040020180360381019061026e9190611025565b80516040517f01a5e3fe00000000000000000000000000000000000000000000000000000000815291925073ffffffffffffffffffffffffffffffffffffffff7f000000000000000000000000000000000000000000000000000000000000000016916301a5e3fe916102e79160040190815260200190565b602060405180830381865afa158015610304573d6000803e3d6000fd5b505050506040513d601f19601f820116820180604052508101906103289190611074565b610393576040517f08c379a000000000000000000000000000000000000000000000000000000000815260206004820152600c60248201527f496e76616c696420706f6f6c000000000000000000000000000000000000000060448201526064015b60405180910390fd5b602081015180156103d1578151600090815260016020526040812080548392906103be9084906110cc565b909155506103ce905081856110cc565b93505b505060010161023c565b5080156104245761042473ffffffffffffffffffffffffffffffffffffffff7f000000000000000000000000000000000000000000000000000000000000000016333084610a85565b5061042f6001600055565b5050565b7f000000000000000000000000000000000000000000000000000000000000000073ffffffffffffffffffffffffffffffffffffffff16632cf4704a6040518163ffffffff1660e01b8152600401602060405180830381865afa15801561049e573d6000803e3d6000fd5b505050506040513d601f19601f820116820180604052508101906104c291906110df565b73ffffffffffffffffffffffffffffffffffffffff163373ffffffffffffffffffffffffffffffffffffffff16146105a2576040517f08c379a000000000000000000000000000000000000000000000000000000000815260206004820152604660248201527f52657761726473456d69747465722e706572666f726d55706b6565702069732060448201527f6f6e6c792063616c6c61626c652066726f6d207468652055706b65657020636f60648201527f6e74726163740000000000000000000000000000000000000000000000000000608482015260a40161038a565b806000036105ad5750565b60607f00000000000000000000000000000000000000000000000000000000000000001561068d577f000000000000000000000000000000000000000000000000000000000000000073ffffffffffffffffffffffffffffffffffffffff1663434798856040518163ffffffff1660e01b8152600401600060405180830381865afa158015610640573d6000803e3d6000fd5b505050506040513d6000823e601f3d9081017fffffffffffffffffffffffffffffffffffffffffffffffffffffffffffffffe01682016040526106869190810190611115565b90506106d1565b60408051600180825281830190925290602080830190803683370190505090506000801b816000815181106106c4576106c4610f78565b6020026020010181815250505b6201518082106106e2576201518091505b6000815167ffffffffffffffff8111156106fe576106fe610fa7565b60405190808252806020026020018201604052801561074357816020015b604080518082019091526000808252602082015281526020019060019003908161071c5790505b50905060007f000000000000000000000000000000000000000000000000000000000000000073ffffffffffffffffffffffffffffffffffffffff1663dab2e5c36040518163ffffffff1660e01b8152600401602060405180830381865afa1580156107b3573d6000803e3d6000fd5b505050506040513d601f19601f820116820180604052508101906107d791906111bb565b6107e190856111d4565b9050640202fbf0006000805b85518110156108b557600086828151811061080a5761080a610f78565b6020026020010151905060008486600160008581526020019081526020016000205461083691906111d4565b61084091906111eb565b905080156108795760008281526001602052604081208054839290610866908490611226565b90915550610876905081856110cc565b93505b6040518060400160405280838152602001828152508784815181106108a0576108a0610f78565b602090810291909101015250506001016107ed565b506040517f112ad34400000000000000000000000000000000000000000000000000000000815273ffffffffffffffffffffffffffffffffffffffff7f0000000000000000000000000000000000000000000000000000000000000000169063112ad34490610928908790600401611239565b600060405180830381600087803b15801561094257600080fd5b505af1158015610956573d6000803e3d6000fd5b50505050505050505050565b606060008267ffffffffffffffff81111561097f5761097f610fa7565b6040519080825280602002602001820160405280156109a8578160200160208202803683370190505b50905060005b8151811015610a0857600160008686848181106109cd576109cd610f78565b905060200201358152602001908152602001600020548282815181106109f5576109f5610f78565b60209081029190910101526001016109ae565b5090505b92915050565b600260005403610a7e576040517f08c379a000000000000000000000000000000000000000000000000000000000815260206004820152601f60248201527f5265656e7472616e637947756172643a207265656e7472616e742063616c6c00604482015260640161038a565b6002600055565b6040805173ffffffffffffffffffffffffffffffffffffffff85811660248301528416604482015260648082018490528251808303909101815260849091019091526020810180517bffffffffffffffffffffffffffffffffffffffffffffffffffffffff167f23b872dd00000000000000000000000000000000000000000000000000000000179052610b1a908590610b20565b50505050565b6000610b82826040518060400160405280602081526020017f5361666545524332303a206c6f772d6c6576656c2063616c6c206661696c65648152508573ffffffffffffffffffffffffffffffffffffffff16610c349092919063ffffffff16565b9050805160001480610ba3575080806020019051810190610ba39190611074565b610c2f576040517f08c379a000000000000000000000000000000000000000000000000000000000815260206004820152602a60248201527f5361666545524332303a204552433230206f7065726174696f6e20646964206e60448201527f6f74207375636365656400000000000000000000000000000000000000000000606482015260840161038a565b505050565b6060610c438484600085610c4b565b949350505050565b606082471015610cdd576040517f08c379a000000000000000000000000000000000000000000000000000000000815260206004820152602660248201527f416464726573733a20696e73756666696369656e742062616c616e636520666f60448201527f722063616c6c0000000000000000000000000000000000000000000000000000606482015260840161038a565b6000808673ffffffffffffffffffffffffffffffffffffffff168587604051610d0691906112ac565b60006040518083038185875af1925050503d8060008114610d43576040519150601f19603f3d011682016040523d82523d6000602084013e610d48565b606091505b5091509150610d5987838387610d64565b979650505050505050565b60608315610dfa578251600003610df35773ffffffffffffffffffffffffffffffffffffffff85163b610df3576040517f08c379a000000000000000000000000000000000000000000000000000000000815260206004820152601d60248201527f416464726573733a2063616c6c20746f206e6f6e2d636f6e7472616374000000604482015260640161038a565b5081610c43565b610c438383815115610e0f5781518083602001fd5b806040517f08c379a000000000000000000000000000000000000000000000000000000000815260040161038a91906112c8565b60008060208385031215610e5657600080fd5b823567ffffffffffffffff80821115610e6e57600080fd5b818501915085601f830112610e8257600080fd5b813581811115610e9157600080fd5b8660208260061b8501011115610ea657600080fd5b60209290920196919550909350505050565b600060208284031215610eca57600080fd5b5035919050565b60008060208385031215610ee457600080fd5b823567ffffffffffffffff80821115610efc57600080fd5b818501915085601f830112610f1057600080fd5b813581811115610f1f57600080fd5b8660208260051b8501011115610ea657600080fd5b6020808252825182820181905260009190848201906040850190845b81811015610f6c57835183529284019291840191600101610f50565b50909695505050505050565b7f4e487b7100000000000000000000000000000000000000000000000000000000600052603260045260246000fd5b7f4e487b7100000000000000000000000000000000000000000000000000000000600052604160045260246000fd5b604051601f82017fffffffffffffffffffffffffffffffffffffffffffffffffffffffffffffffe016810167ffffffffffffffff8111828210171561101d5761101d610fa7565b604052919050565b60006040828403121561103757600080fd5b6040516040810181811067ffffffffffffffff8211171561105a5761105a610fa7565b604052823581526020928301359281019290925250919050565b60006020828403121561108657600080fd5b8151801515811461109657600080fd5b9392505050565b7f4e487b7100000000000000000000000000000000000000000000000000000000600052601160045260246000fd5b80820180821115610a0c57610a0c61109d565b6000602082840312156110f157600080fd5b815173ffffffffffffffffffffffffffffffffffffffff8116811461109657600080fd5b6000602080838503121561112857600080fd5b825167ffffffffffffffff8082111561114057600080fd5b818501915085601f83011261115457600080fd5b81518181111561116657611166610fa7565b8060051b9150611177848301610fd6565b818152918301840191848101908884111561119157600080fd5b938501935b838510156111af57845182529385019390850190611196565b98975050505050505050565b6000602082840312156111cd57600080fd5b5051919050565b8082028115828204841417610a0c57610a0c61109d565b600082611221577f4e487b7100000000000000000000000000000000000000000000000000000000600052601260045260246000fd5b500490565b81810381811115610a0c57610a0c61109d565b602080825282518282018190526000919060409081850190868401855b8281101561127b57815180518552860151868501529284019290850190600101611256565b5091979650505050505050565b60005b838110156112a357818101518382015260200161128b565b50506000910152565b600082516112be818460208701611288565b9190910192915050565b60208152600082518060208401526112e7816040850160208701611288565b601f017fffffffffffffffffffffffffffffffffffffffffffffffffffffffffffffffe016919091016040019291505056fea2646970667358221220df6542da03541da9b5d71d3f3a0e6a79be3824819aa1f97cbee83b316aed6c9f64736f6c63430008160033","linkReferences":{}},"methodIdentifiers":{"MAX_TIME_SINCE_LAST_UPKEEP()":"1b020e23","addSALTRewards((bytes32,uint256)[])":"112ad344","exchangeConfig()":"0e2789bb","pendingRewards(bytes32)":"db89678f","pendingRewardsForPools(bytes32[])":"f626d8dd","performUpkeep(uint256)":"3164f3f2","poolsConfig()":"52c19b5a","rewardsConfig()":"96ceac34","salt()":"bfa0b133","stakingRewards()":"64b87a70"},"id":120}