{"abi":[{"type":"constructor","inputs":[{"name":"_pools","type":"address","internalType":"contract IPools"},{"name":"_exchangeConfig","type":"address","internalType":"contract IExchangeConfig"},{"name":"_poolsConfig","type":"address","internalType":"contract IPoolsConfig"},{"name":"_daoConfig","type":"address","internalType":"contract IDAOConfig"},{"name":"_stableConfig","type":"address","internalType":"contract IStableConfig"},{"name":"_priceAggregator","type":"address","internalType":"contract IPriceAggregator"},{"name":"_saltRewards","type":"address","internalType":"contract ISaltRewards"},{"name":"_collateralAndLiquidity","type":"address","internalType":"contract ICollateralAndLiquidity"},{"name":"_emissions","type":"address","internalType":"contract IEmissions"},{"name":"_dao","type":"address","internalType":"contract IDAO"},{"name":"_flawedStep","type":"uint256","internalType":"uint256"}],"stateMutability":"nonpayable"},{"type":"function","name":"_step1","inputs":[],"outputs":[],"stateMutability":"nonpayable"},{"type":"function","name":"_step10","inputs":[],"outputs":[],"stateMutability":"nonpayable"},{"type":"function","name":"_step11","inputs":[],"outputs":[],"stateMutability":"nonpayable"},{"type":"function","name":"_step2","inputs":[{"name":"receiver","type":"address","internalType":"address"}],"outputs":[],"stateMutability":"nonpayable"},{"type":"function","name":"_step3","inputs":[],"outputs":[],"stateMutability":"nonpayable"},{"type":"function","name":"_step4","inputs":[],"outputs":[],"stateMutability":"nonpayable"},{"type":"function","name":"_step5","inputs":[],"outputs":[],"stateMutability":"nonpayable"},{"type":"function","name":"_step6","inputs":[],"outputs":[],"stateMutability":"nonpayable"},{"type":"function","name":"_step7","inputs":[],"outputs":[],"stateMutability":"nonpayable"},{"type":"function","name":"_step8","inputs":[],"outputs":[],"stateMutability":"nonpayable"},{"type":"function","name":"_step9","inputs":[],"outputs":[],"stateMutability":"nonpayable"},{"type":"function","name":"collateralAndLiquidity","inputs":[],"outputs":[{"name":"","type":"address","internalType":"contract ICollateralAndLiquidity"}],"stateMutability":"view"},{"type":"function","name":"currentRewardsForCallingPerformUpkeep","inputs":[],"outputs":[{"name":"","type":"uint256","internalType":"uint256"}],"stateMutability":"view"},{"type":"function","name":"dai","inputs":[],"outputs":[{"name":"","type":"address","internalType":"contract IERC20"}],"stateMutability":"view"},{"type":"function","name":"dao","inputs":[],"outputs":[{"name":"","type":"address","internalType":"contract IDAO"}],"stateMutability":"view"},{"type":"function","name":"daoConfig","inputs":[],"outputs":[{"name":"","type":"address","internalType":"contract IDAOConfig"}],"stateMutability":"view"},{"type":"function","name":"emissions","inputs":[],"outputs":[{"name":"","type":"address","internalType":"contract IEmissions"}],"stateMutability":"view"},{"type":"function","name":"exchangeConfig","inputs":[],"outputs":[{"name":"","type":"address","internalType":"contract IExchangeConfig"}],"stateMutability":"view"},{"type":"function","name":"flawedStep","inputs":[],"outputs":[{"name":"","type":"uint256","internalType":"uint256"}],"stateMutability":"view"},{"type":"function","name":"lastUpkeepTimeEmissions","inputs":[],"outputs":[{"name":"","type":"uint256","internalType":"uint256"}],"stateMutability":"view"},{"type":"function","name":"lastUpkeepTimeRewardsEmitters","inputs":[],"outputs":[{"name":"","type":"uint256","internalType":"uint256"}],"stateMutability":"view"},{"type":"function","name":"performFlawedUpkeep","inputs":[],"outputs":[],"stateMutability":"nonpayable"},{"type":"function","name":"performUpkeep","inputs":[],"outputs":[],"stateMutability":"nonpayable"},{"type":"function","name":"pools","inputs":[],"outputs":[{"name":"","type":"address","internalType":"contract IPools"}],"stateMutability":"view"},{"type":"function","name":"poolsConfig","inputs":[],"outputs":[{"name":"","type":"address","internalType":"contract IPoolsConfig"}],"stateMutability":"view"},{"type":"function","name":"priceAggregator","inputs":[],"outputs":[{"name":"","type":"address","internalType":"contract IPriceAggregator"}],"stateMutability":"view"},{"type":"function","name":"salt","inputs":[],"outputs":[{"name":"","type":"address","internalType":"contract ISalt"}],"stateMutability":"view"},{"type":"function","name":"saltRewards","inputs":[],"outputs":[{"name":"","type":"address","internalType":"contract ISaltRewards"}],"stateMutability":"view"},{"type":"function","name":"stableConfig","inputs":[],"outputs":[{"name":"","type":"address","internalType":"contract IStableConfig"}],"stateMutability":"view"},{"type":"function","name":"step1","inputs":[],"outputs":[],"stateMutability":"nonpayable"},{"type":"function","name":"step10","inputs":[],"outputs":[],"stateMutability":"nonpayable"},{"type":"function","name":"step11","inputs":[],"outputs":[],"stateMutability":"nonpayable"},{"type":"function","name":"step2","inputs":[{"name":"receiver","type":"address","internalType":"address"}],"outputs":[],"stateMutability":"nonpayable"},{"type":"function","name":"step3","inputs":[],"outputs":[],"stateMutability":"nonpayable"},{"type":"function","name":"step4","inputs":[],"outputs":[],"stateMutability":"nonpayable"},{"type":"function","name":"step5","inputs":[],"outputs":[],"stateMutability":"nonpayable"},{"type":"function","name":"step6","inputs":[],"outputs":[],"stateMutability":"nonpayable"},{"type":"function","name":"step7","inputs":[],"outputs":[],"stateMutability":"nonpayable"},{"type":"function","name":"step8","inputs":[],"outputs":[],"stateMutability":"nonpayable"},{"type":"function","name":"step9","inputs":[],"outputs":[],"stateMutability":"nonpayable"},{"type":"function","name":"test","inputs":[],"outputs":[],"stateMutability":"nonpayable"},{"type":"function","name":"usds","inputs":[],"outputs":[{"name":"","type":"address","internalType":"contract IUSDS"}],"stateMutability":"view"},{"type":"function","name":"weth","inputs":[],"outputs":[{"name":"","type":"address","internalType":"contract IERC20"}],"stateMutability":"view"},{"type":"event","name":"UpkeepError","inputs":[{"name":"description","type":"string","indexed":false,"internalType":"string"},{"name":"error","type":"bytes","indexed":false,"internalType":"bytes"}],"anonymous":false}],"bytecode":{"object":"0x6102406040523480156200001257600080fd5b506040516200516f3803806200516f833981016040819052620000359162000355565b60016000556001600160a01b03808c16608052808b1660a0819052818b1660c052818a1660e05281891661010052818816610120528187166101405281861661016052818516610180529083166101a05260408051633fc8cef360e01b815290518d928d928d928d928d928d928d928d928d928d9291633fc8cef39160048083019260209291908290030181865afa158015620000d6573d6000803e3d6000fd5b505050506040513d601f19601f82011682018060405250810190620000fc919062000449565b6001600160a01b03166101c0816001600160a01b031681525050886001600160a01b031663bfa0b1336040518163ffffffff1660e01b8152600401602060405180830381865afa15801562000155573d6000803e3d6000fd5b505050506040513d601f19601f820116820180604052508101906200017b919062000449565b6001600160a01b03166101e0816001600160a01b031681525050886001600160a01b0316634cf282fb6040518163ffffffff1660e01b8152600401602060405180830381865afa158015620001d4573d6000803e3d6000fd5b505050506040513d601f19601f82011682018060405250810190620001fa919062000449565b6001600160a01b0316610200816001600160a01b031681525050886001600160a01b031663f4b9fa756040518163ffffffff1660e01b8152600401602060405180830381865afa15801562000253573d6000803e3d6000fd5b505050506040513d601f19601f8201168201806040525081019062000279919062000449565b6001600160a01b03908116610220524260018190556002556101c05160805160405163095ea7b360e01b81529083166004820152600019602482015291169063095ea7b3906044016020604051808303816000875af1158015620002e1573d6000803e3d6000fd5b505050506040513d601f19601f8201168201806040525081019062000307919062000470565b505050505050505050505080600381905550505050505050505050505062000494565b6001600160a01b03811681146200034057600080fd5b50565b805162000350816200032a565b919050565b60008060008060008060008060008060006101608c8e0312156200037857600080fd5b8b5162000385816200032a565b60208d0151909b5062000398816200032a565b60408d0151909a50620003ab816200032a565b60608d0151909950620003be816200032a565b60808d0151909850620003d1816200032a565b60a08d0151909750620003e4816200032a565b60c08d0151909650620003f7816200032a565b60e08d01519095506200040a816200032a565b6101008d01519094506200041e816200032a565b92506200042f6101208d0162000343565b91506101408c015190509295989b509295989b9093969950565b6000602082840312156200045c57600080fd5b815162000469816200032a565b9392505050565b6000602082840312156200048357600080fd5b815180151581146200046957600080fd5b60805160a05160c05160e05161010051610120516101405161016051610180516101a0516101c0516101e0516102005161022051614af16200067e600039600081816105f201526135c1015260008181610497015281816135a00152613d41015260008181610574015281816113b40152818161147e01528181612bef015281816138580152818161399b01528181613b180152613d20015260008181610441015281816112c20152818161138c0152818161152e0152818161256c015281816126b40152818161346501528181613be501528181613e890152613f8201526000818161046801528181611506015281816121a5015281816140560152818161409701526141170152600081816103c4015261369d01526000818161036501526131dc015260008181610395015281816114a0015281816128b3015281816129ae0152612f69015260006103f301526000818161041a01526134f8015260008181610619015281816115cc015281816125f70152613c780152600081816104c60152612e7a015260008181610319015281816124a201528181612b250152818161378e015281816138d10152613a0601526000818161059b015281816113f30152818161155b01528181612dc501528181612fd401528181613ed80152613fcb0152614af16000f3fe608060405234801561001057600080fd5b50600436106102e95760003560e01c80637fbaadba11610191578063c5c51dca116100e3578063eb7c6f7211610097578063f8a8fd6d11610071578063f8a8fd6d146102f6578063fa05dd0014610614578063fb5d73761461063b57600080fd5b8063eb7c6f72146105dd578063ec8fca69146105e5578063f4b9fa75146105ed57600080fd5b8063d40a71fb116100c8578063d40a71fb146105c5578063dd57bd80146105cd578063df4ec249146105d557600080fd5b8063c5c51dca14610596578063d2857a4e146105bd57600080fd5b8063a26ed57911610145578063ae88bab61161011f578063ae88bab61461055f578063bddd3a6b14610567578063bfa0b1331461056f57600080fd5b8063a26ed5791461053c578063a3221c8e1461054f578063ade094b41461055757600080fd5b80638f21c459116101765780638f21c459146105185780639a14b4e1146105205780639c6d55c31461052957600080fd5b80637fbaadba146105085780638322ad401461051057600080fd5b80633ed908611161024a5780634fb4bcec116101fe5780635f56bd29116101d85780635f56bd29146104f05780636e4d243a146104f85780636fdfcae31461050057600080fd5b80634fb4bcec146104b957806352c19b5a146104c1578063566f0a7a146104e857600080fd5b80634162169f1161022f5780634162169f1461046357806349a609011461048a5780634cf282fb1461049257600080fd5b80633ed90861146104155780633fc8cef31461043c57600080fd5b806315261eb6116102a15780632267716c116102865780632267716c146103bf57806329d0828f146103e65780633078fff5146103ee57600080fd5b806315261eb6146103905780631ddebb83146103b757600080fd5b80630e2789bb116102d25780630e2789bb146103145780630e5c7fbb14610360578063104d70441461038757600080fd5b80630b6fbcc7146102ee5780630b9f4d2c146102f8575b600080fd5b6102f6610643565b005b61030160025481565b6040519081526020015b60405180910390f35b61033b7f000000000000000000000000000000000000000000000000000000000000000081565b60405173ffffffffffffffffffffffffffffffffffffffff909116815260200161030b565b61033b7f000000000000000000000000000000000000000000000000000000000000000081565b61030160035481565b61033b7f000000000000000000000000000000000000000000000000000000000000000081565b6102f6610ed0565b61033b7f000000000000000000000000000000000000000000000000000000000000000081565b6102f6610ffe565b61033b7f000000000000000000000000000000000000000000000000000000000000000081565b61033b7f000000000000000000000000000000000000000000000000000000000000000081565b61033b7f000000000000000000000000000000000000000000000000000000000000000081565b61033b7f000000000000000000000000000000000000000000000000000000000000000081565b6102f661110d565b61033b7f000000000000000000000000000000000000000000000000000000000000000081565b6102f661121c565b61033b7f000000000000000000000000000000000000000000000000000000000000000081565b6103016114c9565b6102f6611673565b6102f6611782565b6102f661201f565b6102f661212e565b6102f661220b565b6102f661231a565b61030160015481565b6102f6610537366004614453565b612429565b6102f661054a366004614453565b6126e1565b6102f661282a565b6102f6612aae565b6102f6612c3d565b6102f6612d4c565b61033b7f000000000000000000000000000000000000000000000000000000000000000081565b61033b7f000000000000000000000000000000000000000000000000000000000000000081565b6102f6613056565b6102f6613165565b6102f66132b0565b6102f66133bf565b6102f66135e6565b6102f6613715565b61033b7f000000000000000000000000000000000000000000000000000000000000000081565b61033b7f000000000000000000000000000000000000000000000000000000000000000081565b6102f6613b3f565b3073ffffffffffffffffffffffffffffffffffffffff16638f21c4596040518163ffffffff1660e01b8152600401600060405180830381600087803b15801561068b57600080fd5b505af192505050801561069c575060015b610709573d8080156106ca576040519150601f19603f3d011682016040523d82523d6000602084013e6106cf565b606091505b507fe7762b0651bfbbd5079233caae4d6b1d1b6dd07dfc6e4c9cadd09d7494af833e816040516106ff91906144e5565b60405180910390a1505b6040517fa26ed579000000000000000000000000000000000000000000000000000000008152336004820152309063a26ed57990602401600060405180830381600087803b15801561075a57600080fd5b505af192505050801561076b575060015b6107d8573d808015610799576040519150601f19603f3d011682016040523d82523d6000602084013e61079e565b606091505b507fe7762b0651bfbbd5079233caae4d6b1d1b6dd07dfc6e4c9cadd09d7494af833e816040516107ce919061452c565b60405180910390a1505b3073ffffffffffffffffffffffffffffffffffffffff1663ae88bab66040518163ffffffff1660e01b8152600401600060405180830381600087803b15801561082057600080fd5b505af1925050508015610831575060015b61089e573d80801561085f576040519150601f19603f3d011682016040523d82523d6000602084013e610864565b606091505b507fe7762b0651bfbbd5079233caae4d6b1d1b6dd07dfc6e4c9cadd09d7494af833e816040516108949190614573565b60405180910390a1505b3073ffffffffffffffffffffffffffffffffffffffff16631ddebb836040518163ffffffff1660e01b8152600401600060405180830381600087803b1580156108e657600080fd5b505af19250505080156108f7575060015b610964573d808015610925576040519150601f19603f3d011682016040523d82523d6000602084013e61092a565b606091505b507fe7762b0651bfbbd5079233caae4d6b1d1b6dd07dfc6e4c9cadd09d7494af833e8160405161095a91906145ba565b60405180910390a1505b3073ffffffffffffffffffffffffffffffffffffffff166329d0828f6040518163ffffffff1660e01b8152600401600060405180830381600087803b1580156109ac57600080fd5b505af19250505080156109bd575060015b610a2a573d8080156109eb576040519150601f19603f3d011682016040523d82523d6000602084013e6109f0565b606091505b507fe7762b0651bfbbd5079233caae4d6b1d1b6dd07dfc6e4c9cadd09d7494af833e81604051610a209190614601565b60405180910390a1505b3073ffffffffffffffffffffffffffffffffffffffff1663d2857a4e6040518163ffffffff1660e01b8152600401600060405180830381600087803b158015610a7257600080fd5b505af1925050508015610a83575060015b610af0573d808015610ab1576040519150601f19603f3d011682016040523d82523d6000602084013e610ab6565b606091505b507fe7762b0651bfbbd5079233caae4d6b1d1b6dd07dfc6e4c9cadd09d7494af833e81604051610ae69190614648565b60405180910390a1505b3073ffffffffffffffffffffffffffffffffffffffff16635f56bd296040518163ffffffff1660e01b8152600401600060405180830381600087803b158015610b3857600080fd5b505af1925050508015610b49575060015b610bb6573d808015610b77576040519150601f19603f3d011682016040523d82523d6000602084013e610b7c565b606091505b507fe7762b0651bfbbd5079233caae4d6b1d1b6dd07dfc6e4c9cadd09d7494af833e81604051610bac919061468f565b60405180910390a1505b3073ffffffffffffffffffffffffffffffffffffffff16636fdfcae36040518163ffffffff1660e01b8152600401600060405180830381600087803b158015610bfe57600080fd5b505af1925050508015610c0f575060015b610c7c573d808015610c3d576040519150601f19603f3d011682016040523d82523d6000602084013e610c42565b606091505b507fe7762b0651bfbbd5079233caae4d6b1d1b6dd07dfc6e4c9cadd09d7494af833e81604051610c7291906146d6565b60405180910390a1505b3073ffffffffffffffffffffffffffffffffffffffff1663dd57bd806040518163ffffffff1660e01b8152600401600060405180830381600087803b158015610cc457600080fd5b505af1925050508015610cd5575060015b610d42573d808015610d03576040519150601f19603f3d011682016040523d82523d6000602084013e610d08565b606091505b507fe7762b0651bfbbd5079233caae4d6b1d1b6dd07dfc6e4c9cadd09d7494af833e81604051610d38919061471d565b60405180910390a1505b3073ffffffffffffffffffffffffffffffffffffffff166349a609016040518163ffffffff1660e01b8152600401600060405180830381600087803b158015610d8a57600080fd5b505af1925050508015610d9b575060015b610e08573d808015610dc9576040519150601f19603f3d011682016040523d82523d6000602084013e610dce565b606091505b507fe7762b0651bfbbd5079233caae4d6b1d1b6dd07dfc6e4c9cadd09d7494af833e81604051610dfe9190614764565b60405180910390a1505b3073ffffffffffffffffffffffffffffffffffffffff16638322ad406040518163ffffffff1660e01b8152600401600060405180830381600087803b158015610e5057600080fd5b505af1925050508015610e61575060015b610ece573d808015610e8f576040519150601f19603f3d011682016040523d82523d6000602084013e610e94565b606091505b507fe7762b0651bfbbd5079233caae4d6b1d1b6dd07dfc6e4c9cadd09d7494af833e81604051610ec491906147ab565b60405180910390a1505b565b333014610f4a5760405162461bcd60e51b815260206004820152602b60248201527f4f6e6c792063616c6c61626c652066726f6d2077697468696e2074686520736160448201527f6d6520636f6e747261637400000000000000000000000000000000000000000060648201526084015b60405180910390fd5b600354600403610f9c5760405162461bcd60e51b815260206004820152600e60248201527f53746570203420726576657274730000000000000000000000000000000000006044820152606401610f41565b3073ffffffffffffffffffffffffffffffffffffffff1663fb5d73766040518163ffffffff1660e01b8152600401600060405180830381600087803b158015610fe457600080fd5b505af1158015610ff8573d6000803e3d6000fd5b50505050565b3330146110735760405162461bcd60e51b815260206004820152602b60248201527f4f6e6c792063616c6c61626c652066726f6d2077697468696e2074686520736160448201527f6d6520636f6e74726163740000000000000000000000000000000000000000006064820152608401610f41565b6003546005036110c55760405162461bcd60e51b815260206004820152600e60248201527f53746570203520726576657274730000000000000000000000000000000000006044820152606401610f41565b3073ffffffffffffffffffffffffffffffffffffffff16634fb4bcec6040518163ffffffff1660e01b8152600401600060405180830381600087803b158015610fe457600080fd5b3330146111825760405162461bcd60e51b815260206004820152602b60248201527f4f6e6c792063616c6c61626c652066726f6d2077697468696e2074686520736160448201527f6d6520636f6e74726163740000000000000000000000000000000000000000006064820152608401610f41565b600354600a036111d45760405162461bcd60e51b815260206004820152600f60248201527f53746570203130207265766572747300000000000000000000000000000000006044820152606401610f41565b3073ffffffffffffffffffffffffffffffffffffffff1663ade094b46040518163ffffffff1660e01b8152600401600060405180830381600087803b158015610fe457600080fd5b3330146112915760405162461bcd60e51b815260206004820152602b60248201527f4f6e6c792063616c6c61626c652066726f6d2077697468696e2074686520736160448201527f6d6520636f6e74726163740000000000000000000000000000000000000000006064820152608401610f41565b6040517f70a082310000000000000000000000000000000000000000000000000000000081523060048201526000907f000000000000000000000000000000000000000000000000000000000000000073ffffffffffffffffffffffffffffffffffffffff16906370a0823190602401602060405180830381865afa15801561131e573d6000803e3d6000fd5b505050506040513d601f19601f8201168201806040525081019061134291906147f2565b90508060000361134f5750565b6040517fe2f7c48000000000000000000000000000000000000000000000000000000000815273ffffffffffffffffffffffffffffffffffffffff7f0000000000000000000000000000000000000000000000000000000000000000811660048301527f00000000000000000000000000000000000000000000000000000000000000008116602483015260448201839052600060648301819052426084840152917f00000000000000000000000000000000000000000000000000000000000000009091169063e2f7c4809060a4016020604051808303816000875af115801561143e573d6000803e3d6000fd5b505050506040513d601f19601f8201168201806040525081019061146291906147f2565b90506114c573ffffffffffffffffffffffffffffffffffffffff7f0000000000000000000000000000000000000000000000000000000000000000167f000000000000000000000000000000000000000000000000000000000000000083613d66565b5050565b6040517f2c66285700000000000000000000000000000000000000000000000000000000815273ffffffffffffffffffffffffffffffffffffffff7f0000000000000000000000000000000000000000000000000000000000000000811660048301527f00000000000000000000000000000000000000000000000000000000000000008116602483015260009182917f00000000000000000000000000000000000000000000000000000000000000001690632c66285790604401602060405180830381865afa1580156115a2573d6000803e3d6000fd5b505050506040513d601f19601f820116820180604052508101906115c691906147f2565b905060647f000000000000000000000000000000000000000000000000000000000000000073ffffffffffffffffffffffffffffffffffffffff1663712907e06040518163ffffffff1660e01b8152600401602060405180830381865afa158015611635573d6000803e3d6000fd5b505050506040513d601f19601f8201168201806040525081019061165991906147f2565b611663908361483a565b61166d9190614857565b91505090565b3330146116e85760405162461bcd60e51b815260206004820152602b60248201527f4f6e6c792063616c6c61626c652066726f6d2077697468696e2074686520736160448201527f6d6520636f6e74726163740000000000000000000000000000000000000000006064820152608401610f41565b60035460070361173a5760405162461bcd60e51b815260206004820152600e60248201527f53746570203720726576657274730000000000000000000000000000000000006044820152606401610f41565b3073ffffffffffffffffffffffffffffffffffffffff1663bddd3a6b6040518163ffffffff1660e01b8152600401600060405180830381600087803b158015610fe457600080fd5b61178a613df3565b3073ffffffffffffffffffffffffffffffffffffffff1663d40a71fb6040518163ffffffff1660e01b8152600401600060405180830381600087803b1580156117d257600080fd5b505af19250505080156117e3575060015b611850573d808015611811576040519150601f19603f3d011682016040523d82523d6000602084013e611816565b606091505b507fe7762b0651bfbbd5079233caae4d6b1d1b6dd07dfc6e4c9cadd09d7494af833e8160405161184691906144e5565b60405180910390a1505b6040517f9c6d55c30000000000000000000000000000000000000000000000000000000081523360048201523090639c6d55c390602401600060405180830381600087803b1580156118a157600080fd5b505af19250505080156118b2575060015b61191f573d8080156118e0576040519150601f19603f3d011682016040523d82523d6000602084013e6118e5565b606091505b507fe7762b0651bfbbd5079233caae4d6b1d1b6dd07dfc6e4c9cadd09d7494af833e81604051611915919061452c565b60405180910390a1505b3073ffffffffffffffffffffffffffffffffffffffff1663df4ec2496040518163ffffffff1660e01b8152600401600060405180830381600087803b15801561196757600080fd5b505af1925050508015611978575060015b6119e5573d8080156119a6576040519150601f19603f3d011682016040523d82523d6000602084013e6119ab565b606091505b507fe7762b0651bfbbd5079233caae4d6b1d1b6dd07dfc6e4c9cadd09d7494af833e816040516119db9190614573565b60405180910390a1505b3073ffffffffffffffffffffffffffffffffffffffff1663fb5d73766040518163ffffffff1660e01b8152600401600060405180830381600087803b158015611a2d57600080fd5b505af1925050508015611a3e575060015b611aab573d808015611a6c576040519150601f19603f3d011682016040523d82523d6000602084013e611a71565b606091505b507fe7762b0651bfbbd5079233caae4d6b1d1b6dd07dfc6e4c9cadd09d7494af833e81604051611aa191906145ba565b60405180910390a1505b3073ffffffffffffffffffffffffffffffffffffffff16634fb4bcec6040518163ffffffff1660e01b8152600401600060405180830381600087803b158015611af357600080fd5b505af1925050508015611b04575060015b611b71573d808015611b32576040519150601f19603f3d011682016040523d82523d6000602084013e611b37565b606091505b507fe7762b0651bfbbd5079233caae4d6b1d1b6dd07dfc6e4c9cadd09d7494af833e81604051611b679190614601565b60405180910390a1505b3073ffffffffffffffffffffffffffffffffffffffff1663eb7c6f726040518163ffffffff1660e01b8152600401600060405180830381600087803b158015611bb957600080fd5b505af1925050508015611bca575060015b611c37573d808015611bf8576040519150601f19603f3d011682016040523d82523d6000602084013e611bfd565b606091505b507fe7762b0651bfbbd5079233caae4d6b1d1b6dd07dfc6e4c9cadd09d7494af833e81604051611c2d9190614648565b60405180910390a1505b3073ffffffffffffffffffffffffffffffffffffffff1663bddd3a6b6040518163ffffffff1660e01b8152600401600060405180830381600087803b158015611c7f57600080fd5b505af1925050508015611c90575060015b611cfd573d808015611cbe576040519150601f19603f3d011682016040523d82523d6000602084013e611cc3565b606091505b507fe7762b0651bfbbd5079233caae4d6b1d1b6dd07dfc6e4c9cadd09d7494af833e81604051611cf3919061468f565b60405180910390a1505b3073ffffffffffffffffffffffffffffffffffffffff1663a3221c8e6040518163ffffffff1660e01b8152600401600060405180830381600087803b158015611d4557600080fd5b505af1925050508015611d56575060015b611dc3573d808015611d84576040519150601f19603f3d011682016040523d82523d6000602084013e611d89565b606091505b507fe7762b0651bfbbd5079233caae4d6b1d1b6dd07dfc6e4c9cadd09d7494af833e81604051611db991906146d6565b60405180910390a1505b3073ffffffffffffffffffffffffffffffffffffffff16637fbaadba6040518163ffffffff1660e01b8152600401600060405180830381600087803b158015611e0b57600080fd5b505af1925050508015611e1c575060015b611e89573d808015611e4a576040519150601f19603f3d011682016040523d82523d6000602084013e611e4f565b606091505b507fe7762b0651bfbbd5079233caae4d6b1d1b6dd07dfc6e4c9cadd09d7494af833e81604051611e7f919061471d565b60405180910390a1505b3073ffffffffffffffffffffffffffffffffffffffff1663ade094b46040518163ffffffff1660e01b8152600401600060405180830381600087803b158015611ed157600080fd5b505af1925050508015611ee2575060015b611f4f573d808015611f10576040519150601f19603f3d011682016040523d82523d6000602084013e611f15565b606091505b507fe7762b0651bfbbd5079233caae4d6b1d1b6dd07dfc6e4c9cadd09d7494af833e81604051611f459190614764565b60405180910390a1505b3073ffffffffffffffffffffffffffffffffffffffff1663ec8fca696040518163ffffffff1660e01b8152600401600060405180830381600087803b158015611f9757600080fd5b505af1925050508015611fa8575060015b612015573d808015611fd6576040519150601f19603f3d011682016040523d82523d6000602084013e611fdb565b606091505b507fe7762b0651bfbbd5079233caae4d6b1d1b6dd07dfc6e4c9cadd09d7494af833e8160405161200b91906147ab565b60405180910390a1505b610ece6001600055565b3330146120945760405162461bcd60e51b815260206004820152602b60248201527f4f6e6c792063616c6c61626c652066726f6d2077697468696e2074686520736160448201527f6d6520636f6e74726163740000000000000000000000000000000000000000006064820152608401610f41565b6003546008036120e65760405162461bcd60e51b815260206004820152600e60248201527f53746570203820726576657274730000000000000000000000000000000000006044820152606401610f41565b3073ffffffffffffffffffffffffffffffffffffffff1663a3221c8e6040518163ffffffff1660e01b8152600401600060405180830381600087803b158015610fe457600080fd5b3330146121a35760405162461bcd60e51b815260206004820152602b60248201527f4f6e6c792063616c6c61626c652066726f6d2077697468696e2074686520736160448201527f6d6520636f6e74726163740000000000000000000000000000000000000000006064820152608401610f41565b7f000000000000000000000000000000000000000000000000000000000000000073ffffffffffffffffffffffffffffffffffffffff16637785dcd66040518163ffffffff1660e01b8152600401600060405180830381600087803b158015610fe457600080fd5b3330146122805760405162461bcd60e51b815260206004820152602b60248201527f4f6e6c792063616c6c61626c652066726f6d2077697468696e2074686520736160448201527f6d6520636f6e74726163740000000000000000000000000000000000000000006064820152608401610f41565b600354600b036122d25760405162461bcd60e51b815260206004820152600f60248201527f53746570203131207265766572747300000000000000000000000000000000006044820152606401610f41565b3073ffffffffffffffffffffffffffffffffffffffff1663ec8fca696040518163ffffffff1660e01b8152600401600060405180830381600087803b158015610fe457600080fd5b33301461238f5760405162461bcd60e51b815260206004820152602b60248201527f4f6e6c792063616c6c61626c652066726f6d2077697468696e2074686520736160448201527f6d6520636f6e74726163740000000000000000000000000000000000000000006064820152608401610f41565b6003546001036123e15760405162461bcd60e51b815260206004820152600e60248201527f53746570203120726576657274730000000000000000000000000000000000006044820152606401610f41565b3073ffffffffffffffffffffffffffffffffffffffff1663d40a71fb6040518163ffffffff1660e01b8152600401600060405180830381600087803b158015610fe457600080fd5b33301461249e5760405162461bcd60e51b815260206004820152602b60248201527f4f6e6c792063616c6c61626c652066726f6d2077697468696e2074686520736160448201527f6d6520636f6e74726163740000000000000000000000000000000000000000006064820152608401610f41565b60007f000000000000000000000000000000000000000000000000000000000000000073ffffffffffffffffffffffffffffffffffffffff16634162169f6040518163ffffffff1660e01b8152600401602060405180830381865afa15801561250b573d6000803e3d6000fd5b505050506040513d601f19601f8201168201806040525081019061252f9190614892565b6040517f7991db8900000000000000000000000000000000000000000000000000000000815273ffffffffffffffffffffffffffffffffffffffff7f0000000000000000000000000000000000000000000000000000000000000000811660048301529190911690637991db89906024016020604051808303816000875af11580156125bf573d6000803e3d6000fd5b505050506040513d601f19601f820116820180604052508101906125e391906147f2565b9050806000036125f1575050565b600060647f000000000000000000000000000000000000000000000000000000000000000073ffffffffffffffffffffffffffffffffffffffff1663712907e06040518163ffffffff1660e01b8152600401602060405180830381865afa158015612660573d6000803e3d6000fd5b505050506040513d601f19601f8201168201806040525081019061268491906147f2565b61268e908461483a565b6126989190614857565b90506126db73ffffffffffffffffffffffffffffffffffffffff7f0000000000000000000000000000000000000000000000000000000000000000168483613d66565b50505b50565b3330146127565760405162461bcd60e51b815260206004820152602b60248201527f4f6e6c792063616c6c61626c652066726f6d2077697468696e2074686520736160448201527f6d6520636f6e74726163740000000000000000000000000000000000000000006064820152608401610f41565b6003546002036127a85760405162461bcd60e51b815260206004820152600e60248201527f53746570203220726576657274730000000000000000000000000000000000006044820152606401610f41565b6040517f9c6d55c300000000000000000000000000000000000000000000000000000000815273ffffffffffffffffffffffffffffffffffffffff821660048201523090639c6d55c390602401600060405180830381600087803b15801561280f57600080fd5b505af1158015612823573d6000803e3d6000fd5b5050505050565b33301461289f5760405162461bcd60e51b815260206004820152602b60248201527f4f6e6c792063616c6c61626c652066726f6d2077697468696e2074686520736160448201527f6d6520636f6e74726163740000000000000000000000000000000000000000006064820152608401610f41565b6000600254426128af91906148af565b90507f000000000000000000000000000000000000000000000000000000000000000073ffffffffffffffffffffffffffffffffffffffff166333c6ae716040518163ffffffff1660e01b8152600401602060405180830381865afa15801561291c573d6000803e3d6000fd5b505050506040513d601f19601f820116820180604052508101906129409190614892565b73ffffffffffffffffffffffffffffffffffffffff16633164f3f2826040518263ffffffff1660e01b815260040161297a91815260200190565b600060405180830381600087803b15801561299457600080fd5b505af11580156129a8573d6000803e3d6000fd5b505050507f000000000000000000000000000000000000000000000000000000000000000073ffffffffffffffffffffffffffffffffffffffff16637af0eb396040518163ffffffff1660e01b8152600401602060405180830381865afa158015612a17573d6000803e3d6000fd5b505050506040513d601f19601f82011682018060405250810190612a3b9190614892565b73ffffffffffffffffffffffffffffffffffffffff16633164f3f2826040518263ffffffff1660e01b8152600401612a7591815260200190565b600060405180830381600087803b158015612a8f57600080fd5b505af1158015612aa3573d6000803e3d6000fd5b505042600255505050565b333014612b235760405162461bcd60e51b815260206004820152602b60248201527f4f6e6c792063616c6c61626c652066726f6d2077697468696e2074686520736160448201527f6d6520636f6e74726163740000000000000000000000000000000000000000006064820152608401610f41565b7f000000000000000000000000000000000000000000000000000000000000000073ffffffffffffffffffffffffffffffffffffffff16638286e4cd6040518163ffffffff1660e01b8152600401602060405180830381865afa158015612b8e573d6000803e3d6000fd5b505050506040513d601f19601f82011682018060405250810190612bb29190614892565b6040517f1916558700000000000000000000000000000000000000000000000000000000815273ffffffffffffffffffffffffffffffffffffffff7f0000000000000000000000000000000000000000000000000000000000000000811660048301529190911690631916558790602401600060405180830381600087803b158015610fe457600080fd5b333014612cb25760405162461bcd60e51b815260206004820152602b60248201527f4f6e6c792063616c6c61626c652066726f6d2077697468696e2074686520736160448201527f6d6520636f6e74726163740000000000000000000000000000000000000000006064820152608401610f41565b600354600303612d045760405162461bcd60e51b815260206004820152600e60248201527f53746570203320726576657274730000000000000000000000000000000000006044820152606401610f41565b3073ffffffffffffffffffffffffffffffffffffffff1663df4ec2496040518163ffffffff1660e01b8152600401600060405180830381600087803b158015610fe457600080fd5b333014612dc15760405162461bcd60e51b815260206004820152602b60248201527f4f6e6c792063616c6c61626c652066726f6d2077697468696e2074686520736160448201527f6d6520636f6e74726163740000000000000000000000000000000000000000006064820152608401610f41565b60007f000000000000000000000000000000000000000000000000000000000000000073ffffffffffffffffffffffffffffffffffffffff16631959df066040518163ffffffff1660e01b8152600401600060405180830381865afa158015612e2e573d6000803e3d6000fd5b505050506040513d6000823e601f3d9081017fffffffffffffffffffffffffffffffffffffffffffffffffffffffffffffffe0168201604052612e749190810190614964565b905060007f000000000000000000000000000000000000000000000000000000000000000073ffffffffffffffffffffffffffffffffffffffff1663434798856040518163ffffffff1660e01b8152600401600060405180830381865afa158015612ee3573d6000803e3d6000fd5b505050506040513d6000823e601f3d9081017fffffffffffffffffffffffffffffffffffffffffffffffffffffffffffffffe0168201604052612f299190810190614964565b6040517febbe9aa300000000000000000000000000000000000000000000000000000000815290915073ffffffffffffffffffffffffffffffffffffffff7f0000000000000000000000000000000000000000000000000000000000000000169063ebbe9aa390612fa090849086906004016149ef565b600060405180830381600087803b158015612fba57600080fd5b505af1158015612fce573d6000803e3d6000fd5b505050507f000000000000000000000000000000000000000000000000000000000000000073ffffffffffffffffffffffffffffffffffffffff1663c4de17826040518163ffffffff1660e01b8152600401600060405180830381600087803b15801561303a57600080fd5b505af115801561304e573d6000803e3d6000fd5b505050505050565b3330146130cb5760405162461bcd60e51b815260206004820152602b60248201527f4f6e6c792063616c6c61626c652066726f6d2077697468696e2074686520736160448201527f6d6520636f6e74726163740000000000000000000000000000000000000000006064820152608401610f41565b60035460060361311d5760405162461bcd60e51b815260206004820152600e60248201527f53746570203620726576657274730000000000000000000000000000000000006044820152606401610f41565b3073ffffffffffffffffffffffffffffffffffffffff1663eb7c6f726040518163ffffffff1660e01b8152600401600060405180830381600087803b158015610fe457600080fd5b3330146131da5760405162461bcd60e51b815260206004820152602b60248201527f4f6e6c792063616c6c61626c652066726f6d2077697468696e2074686520736160448201527f6d6520636f6e74726163740000000000000000000000000000000000000000006064820152608401610f41565b7f000000000000000000000000000000000000000000000000000000000000000073ffffffffffffffffffffffffffffffffffffffff1663012bdab06040518163ffffffff1660e01b8152600401602060405180830381865afa158015613245573d6000803e3d6000fd5b505050506040513d601f19601f820116820180604052508101906132699190614892565b73ffffffffffffffffffffffffffffffffffffffff16636e4d243a6040518163ffffffff1660e01b8152600401600060405180830381600087803b158015610fe457600080fd5b3330146133255760405162461bcd60e51b815260206004820152602b60248201527f4f6e6c792063616c6c61626c652066726f6d2077697468696e2074686520736160448201527f6d6520636f6e74726163740000000000000000000000000000000000000000006064820152608401610f41565b6003546009036133775760405162461bcd60e51b815260206004820152600e60248201527f53746570203920726576657274730000000000000000000000000000000000006044820152606401610f41565b3073ffffffffffffffffffffffffffffffffffffffff16637fbaadba6040518163ffffffff1660e01b8152600401600060405180830381600087803b158015610fe457600080fd5b3330146134345760405162461bcd60e51b815260206004820152602b60248201527f4f6e6c792063616c6c61626c652066726f6d2077697468696e2074686520736160448201527f6d6520636f6e74726163740000000000000000000000000000000000000000006064820152608401610f41565b6040517f70a082310000000000000000000000000000000000000000000000000000000081523060048201526000907f000000000000000000000000000000000000000000000000000000000000000073ffffffffffffffffffffffffffffffffffffffff16906370a0823190602401602060405180830381865afa1580156134c1573d6000803e3d6000fd5b505050506040513d601f19601f820116820180604052508101906134e591906147f2565b9050806000036134f25750565b600060647f000000000000000000000000000000000000000000000000000000000000000073ffffffffffffffffffffffffffffffffffffffff16636c51c2c26040518163ffffffff1660e01b8152600401602060405180830381865afa158015613561573d6000803e3d6000fd5b505050506040513d601f19601f8201168201806040525081019061358591906147f2565b61358f908461483a565b6135999190614857565b90506114c57f00000000000000000000000000000000000000000000000000000000000000007f000000000000000000000000000000000000000000000000000000000000000083613e4c565b33301461365b5760405162461bcd60e51b815260206004820152602b60248201527f4f6e6c792063616c6c61626c652066726f6d2077697468696e2074686520736160448201527f6d6520636f6e74726163740000000000000000000000000000000000000000006064820152608401610f41565b60006001544261366b91906148af565b6040517f3164f3f2000000000000000000000000000000000000000000000000000000008152600481018290529091507f000000000000000000000000000000000000000000000000000000000000000073ffffffffffffffffffffffffffffffffffffffff1690633164f3f290602401600060405180830381600087803b1580156136f657600080fd5b505af115801561370a573d6000803e3d6000fd5b505042600155505050565b33301461378a5760405162461bcd60e51b815260206004820152602b60248201527f4f6e6c792063616c6c61626c652066726f6d2077697468696e2074686520736160448201527f6d6520636f6e74726163740000000000000000000000000000000000000000006064820152608401610f41565b60007f000000000000000000000000000000000000000000000000000000000000000073ffffffffffffffffffffffffffffffffffffffff1663fb3d924a6040518163ffffffff1660e01b8152600401602060405180830381865afa1580156137f7573d6000803e3d6000fd5b505050506040513d601f19601f8201168201806040525081019061381b9190614892565b6040517fa3f8eace00000000000000000000000000000000000000000000000000000000815273ffffffffffffffffffffffffffffffffffffffff7f000000000000000000000000000000000000000000000000000000000000000081166004830152919091169063a3f8eace90602401602060405180830381865afa1580156138a9573d6000803e3d6000fd5b505050506040513d601f19601f820116820180604052508101906138cd91906147f2565b90507f000000000000000000000000000000000000000000000000000000000000000073ffffffffffffffffffffffffffffffffffffffff1663fb3d924a6040518163ffffffff1660e01b8152600401602060405180830381865afa15801561393a573d6000803e3d6000fd5b505050506040513d601f19601f8201168201806040525081019061395e9190614892565b6040517f1916558700000000000000000000000000000000000000000000000000000000815273ffffffffffffffffffffffffffffffffffffffff7f0000000000000000000000000000000000000000000000000000000000000000811660048301529190911690631916558790602401600060405180830381600087803b1580156139e957600080fd5b505af11580156139fd573d6000803e3d6000fd5b505050506126de7f000000000000000000000000000000000000000000000000000000000000000073ffffffffffffffffffffffffffffffffffffffff166395a118216040518163ffffffff1660e01b8152600401602060405180830381865afa158015613a6f573d6000803e3d6000fd5b505050506040513d601f19601f82011682018060405250810190613a939190614892565b73ffffffffffffffffffffffffffffffffffffffff166323b62b756040518163ffffffff1660e01b8152600401602060405180830381865afa158015613add573d6000803e3d6000fd5b505050506040513d601f19601f82011682018060405250810190613b019190614892565b73ffffffffffffffffffffffffffffffffffffffff7f0000000000000000000000000000000000000000000000000000000000000000169083613d66565b333014613bb45760405162461bcd60e51b815260206004820152602b60248201527f4f6e6c792063616c6c61626c652066726f6d2077697468696e2074686520736160448201527f6d6520636f6e74726163740000000000000000000000000000000000000000006064820152608401610f41565b6040517f70a082310000000000000000000000000000000000000000000000000000000081523060048201526000907f000000000000000000000000000000000000000000000000000000000000000073ffffffffffffffffffffffffffffffffffffffff16906370a0823190602401602060405180830381865afa158015613c41573d6000803e3d6000fd5b505050506040513d601f19601f82011682018060405250810190613c6591906147f2565b905080600003613c725750565b600060647f000000000000000000000000000000000000000000000000000000000000000073ffffffffffffffffffffffffffffffffffffffff166318981ff46040518163ffffffff1660e01b8152600401602060405180830381865afa158015613ce1573d6000803e3d6000fd5b505050506040513d601f19601f82011682018060405250810190613d0591906147f2565b613d0f908461483a565b613d199190614857565b90506114c57f00000000000000000000000000000000000000000000000000000000000000007f000000000000000000000000000000000000000000000000000000000000000083613e4c565b6040805173ffffffffffffffffffffffffffffffffffffffff8416602482015260448082018490528251808303909101815260649091019091526020810180517bffffffffffffffffffffffffffffffffffffffffffffffffffffffff167fa9059cbb000000000000000000000000000000000000000000000000000000001790526126db90849061417b565b600260005403613e455760405162461bcd60e51b815260206004820152601f60248201527f5265656e7472616e637947756172643a207265656e7472616e742063616c6c006044820152606401610f41565b6002600055565b6040517fe2f7c48000000000000000000000000000000000000000000000000000000000815273ffffffffffffffffffffffffffffffffffffffff7f0000000000000000000000000000000000000000000000000000000000000000811660048301528481166024830152600183901c60448301819052600060648401819052426084850152909290917f0000000000000000000000000000000000000000000000000000000000000000169063e2f7c4809060a4016020604051808303816000875af1158015613f21573d6000803e3d6000fd5b505050506040513d601f19601f82011682018060405250810190613f4591906147f2565b6040517fe2f7c48000000000000000000000000000000000000000000000000000000000815273ffffffffffffffffffffffffffffffffffffffff7f0000000000000000000000000000000000000000000000000000000000000000811660048301528681166024830152604482018590526000606483018190524260848401529293507f0000000000000000000000000000000000000000000000000000000000000000169063e2f7c4809060a4016020604051808303816000875af1158015614014573d6000803e3d6000fd5b505050506040513d601f19601f8201168201806040525081019061403891906147f2565b905061407b73ffffffffffffffffffffffffffffffffffffffff87167f000000000000000000000000000000000000000000000000000000000000000084613d66565b6140bc73ffffffffffffffffffffffffffffffffffffffff86167f000000000000000000000000000000000000000000000000000000000000000083613d66565b6040517f2e6dcebb00000000000000000000000000000000000000000000000000000000815273ffffffffffffffffffffffffffffffffffffffff8781166004830152868116602483015260448201849052606482018390527f00000000000000000000000000000000000000000000000000000000000000001690632e6dcebb90608401600060405180830381600087803b15801561415b57600080fd5b505af115801561416f573d6000803e3d6000fd5b50505050505050505050565b60006141dd826040518060400160405280602081526020017f5361666545524332303a206c6f772d6c6576656c2063616c6c206661696c65648152508573ffffffffffffffffffffffffffffffffffffffff166142709092919063ffffffff16565b90508051600014806141fe5750808060200190518101906141fe9190614a6a565b6126db5760405162461bcd60e51b815260206004820152602a60248201527f5361666545524332303a204552433230206f7065726174696f6e20646964206e60448201527f6f742073756363656564000000000000000000000000000000000000000000006064820152608401610f41565b606061427f8484600085614287565b949350505050565b6060824710156142ff5760405162461bcd60e51b815260206004820152602660248201527f416464726573733a20696e73756666696369656e742062616c616e636520666f60448201527f722063616c6c00000000000000000000000000000000000000000000000000006064820152608401610f41565b6000808673ffffffffffffffffffffffffffffffffffffffff1685876040516143289190614a8c565b60006040518083038185875af1925050503d8060008114614365576040519150601f19603f3d011682016040523d82523d6000602084013e61436a565b606091505b509150915061437b87838387614386565b979650505050505050565b606083156144025782516000036143fb5773ffffffffffffffffffffffffffffffffffffffff85163b6143fb5760405162461bcd60e51b815260206004820152601d60248201527f416464726573733a2063616c6c20746f206e6f6e2d636f6e74726163740000006044820152606401610f41565b508161427f565b61427f83838151156144175781518083602001fd5b8060405162461bcd60e51b8152600401610f419190614aa8565b73ffffffffffffffffffffffffffffffffffffffff811681146126de57600080fd5b60006020828403121561446557600080fd5b813561447081614431565b9392505050565b60005b8381101561449257818101518382015260200161447a565b50506000910152565b600081518084526144b3816020860160208601614477565b601f017fffffffffffffffffffffffffffffffffffffffffffffffffffffffffffffffe0169290920160200192915050565b60408152600660408201527f53746570203100000000000000000000000000000000000000000000000000006060820152608060208201526000614470608083018461449b565b60408152600660408201527f53746570203200000000000000000000000000000000000000000000000000006060820152608060208201526000614470608083018461449b565b60408152600660408201527f53746570203300000000000000000000000000000000000000000000000000006060820152608060208201526000614470608083018461449b565b60408152600660408201527f53746570203400000000000000000000000000000000000000000000000000006060820152608060208201526000614470608083018461449b565b60408152600660408201527f53746570203500000000000000000000000000000000000000000000000000006060820152608060208201526000614470608083018461449b565b60408152600660408201527f53746570203600000000000000000000000000000000000000000000000000006060820152608060208201526000614470608083018461449b565b60408152600660408201527f53746570203700000000000000000000000000000000000000000000000000006060820152608060208201526000614470608083018461449b565b60408152600660408201527f53746570203800000000000000000000000000000000000000000000000000006060820152608060208201526000614470608083018461449b565b60408152600660408201527f53746570203900000000000000000000000000000000000000000000000000006060820152608060208201526000614470608083018461449b565b60408152600760408201527f53746570203130000000000000000000000000000000000000000000000000006060820152608060208201526000614470608083018461449b565b60408152600760408201527f53746570203131000000000000000000000000000000000000000000000000006060820152608060208201526000614470608083018461449b565b60006020828403121561480457600080fd5b5051919050565b7f4e487b7100000000000000000000000000000000000000000000000000000000600052601160045260246000fd5b80820281158282048414176148515761485161480b565b92915050565b60008261488d577f4e487b7100000000000000000000000000000000000000000000000000000000600052601260045260246000fd5b500490565b6000602082840312156148a457600080fd5b815161447081614431565b818103818111156148515761485161480b565b7f4e487b7100000000000000000000000000000000000000000000000000000000600052604160045260246000fd5b604051601f82017fffffffffffffffffffffffffffffffffffffffffffffffffffffffffffffffe016810167ffffffffffffffff81118282101715614938576149386148c2565b604052919050565b600067ffffffffffffffff82111561495a5761495a6148c2565b5060051b60200190565b6000602080838503121561497757600080fd5b825167ffffffffffffffff81111561498e57600080fd5b8301601f8101851361499f57600080fd5b80516149b26149ad82614940565b6148f1565b81815260059190911b820183019083810190878311156149d157600080fd5b928401925b8284101561437b578351825292840192908401906149d6565b604080825283519082018190526000906020906060840190828701845b82811015614a2857815184529284019290840190600101614a0c565b5050508381038285015284518082528583019183019060005b81811015614a5d57835183529284019291840191600101614a41565b5090979650505050505050565b600060208284031215614a7c57600080fd5b8151801515811461447057600080fd5b60008251614a9e818460208701614477565b9190910192915050565b602081526000614470602083018461449b56fea2646970667358221220820dee4d631d63e1fdc67bbf8484f4d0823678ff65e69658eee01160d6993f3964736f6c63430008160033","linkReferences":{}},"methodIdentifiers":{"_step1()":"8f21c459","_step10()":"49a60901","_step11()":"8322ad40","_step2(address)":"a26ed579","_step3()":"ae88bab6","_step4()":"1ddebb83","_step5()":"29d0828f","_step6()":"d2857a4e","_step7()":"5f56bd29","_step8()":"6fdfcae3","_step9()":"dd57bd80","collateralAndLiquidity()":"0e5c7fbb","currentRewardsForCallingPerformUpkeep()":"566f0a7a","dai()":"f4b9fa75","dao()":"4162169f","daoConfig()":"fa05dd00","emissions()":"2267716c","exchangeConfig()":"0e2789bb","flawedStep()":"104d7044","lastUpkeepTimeEmissions()":"9a14b4e1","lastUpkeepTimeRewardsEmitters()":"0b9f4d2c","performFlawedUpkeep()":"0b6fbcc7","performUpkeep()":"6e4d243a","pools()":"c5c51dca","poolsConfig()":"52c19b5a","priceAggregator()":"3078fff5","salt()":"bfa0b133","saltRewards()":"15261eb6","stableConfig()":"3ed90861","step1()":"d40a71fb","step10()":"ade094b4","step11()":"ec8fca69","step2(address)":"9c6d55c3","step3()":"df4ec249","step4()":"fb5d7376","step5()":"4fb4bcec","step6()":"eb7c6f72","step7()":"bddd3a6b","step8()":"a3221c8e","step9()":"7fbaadba","test()":"f8a8fd6d","usds()":"4cf282fb","weth()":"3fc8cef3"},"id":143}