{"abi":[{"type":"constructor","inputs":[{"name":"_stakingRewardsEmitter","type":"address","internalType":"contract IRewardsEmitter"},{"name":"_liquidityRewardsEmitter","type":"address","internalType":"contract IRewardsEmitter"},{"name":"_exchangeConfig","type":"address","internalType":"contract IExchangeConfig"},{"name":"_rewardsConfig","type":"address","internalType":"contract IRewardsConfig"}],"stateMutability":"nonpayable"},{"type":"function","name":"exchangeConfig","inputs":[],"outputs":[{"name":"","type":"address","internalType":"contract IExchangeConfig"}],"stateMutability":"view"},{"type":"function","name":"liquidityRewardsEmitter","inputs":[],"outputs":[{"name":"","type":"address","internalType":"contract IRewardsEmitter"}],"stateMutability":"view"},{"type":"function","name":"performUpkeep","inputs":[{"name":"poolIDs","type":"bytes32[]","internalType":"bytes32[]"},{"name":"profitsForPools","type":"uint256[]","internalType":"uint256[]"}],"outputs":[],"stateMutability":"nonpayable"},{"type":"function","name":"rewardsConfig","inputs":[],"outputs":[{"name":"","type":"address","internalType":"contract IRewardsConfig"}],"stateMutability":"view"},{"type":"function","name":"salt","inputs":[],"outputs":[{"name":"","type":"address","internalType":"contract ISalt"}],"stateMutability":"view"},{"type":"function","name":"sendInitialSaltRewards","inputs":[{"name":"liquidityBootstrapAmount","type":"uint256","internalType":"uint256"},{"name":"poolIDs","type":"bytes32[]","internalType":"bytes32[]"}],"outputs":[],"stateMutability":"nonpayable"},{"type":"function","name":"stakingRewardsEmitter","inputs":[],"outputs":[{"name":"","type":"address","internalType":"contract IRewardsEmitter"}],"stateMutability":"view"}],"bytecode":{"object":"0x6101406040523480156200001257600080fd5b50604051620015093803806200150983398101604081905262000035916200030d565b6001600160a01b0380851660805283811660a05282811660c081905290821660e0526040805163bfa0b13360e01b8152905163bfa0b133916004808201926020929091908290030181865afa15801562000093573d6000803e3d6000fd5b505050506040513d601f19601f82011682018060405250810190620000b9919062000375565b6001600160a01b0316610100816001600160a01b0316815250506200014661010051836001600160a01b0316634cf282fb6040518163ffffffff1660e01b8152600401602060405180830381865afa1580156200011a573d6000803e3d6000fd5b505050506040513d601f19601f8201168201806040525081019062000140919062000375565b62000252565b610120526101005160805160405163095ea7b360e01b81526001600160a01b039182166004820152600019602482015291169063095ea7b3906044016020604051808303816000875af1158015620001a2573d6000803e3d6000fd5b505050506040513d601f19601f82011682018060405250810190620001c891906200039c565b506101005160a05160405163095ea7b360e01b81526001600160a01b039182166004820152600019602482015291169063095ea7b3906044016020604051808303816000875af115801562000221573d6000803e3d6000fd5b505050506040513d601f19601f820116820180604052508101906200024791906200039c565b5050505050620003c0565b6000826001600160a01b0316826001600160a01b03161015620002b1576040516001600160601b0319606084811b8216602084015285901b166034820152604801604051602081830303815290604052805190602001209050620002ee565b6040516001600160601b0319606085811b8216602084015284901b1660348201526048016040516020818303038152906040528051906020012090505b92915050565b6001600160a01b03811681146200030a57600080fd5b50565b600080600080608085870312156200032457600080fd5b84516200033181620002f4565b60208601519094506200034481620002f4565b60408601519093506200035781620002f4565b60608601519092506200036a81620002f4565b939692955090935050565b6000602082840312156200038857600080fd5b81516200039581620002f4565b9392505050565b600060208284031215620003af57600080fd5b815180151581146200039557600080fd5b60805160a05160c05160e05161010051610120516110bd6200044c6000396000610cb801526000818161014c01528181610379015261060c015260008181610125015281816106ec01526107a3015260008181608701528181610198015261040501526000818160fe015281816109fe0152610d6401526000818160d70152610b1e01526110bd6000f3fe608060405234801561001057600080fd5b506004361061007d5760003560e01c806396ceac341161005b57806396ceac3414610120578063bfa0b13314610147578063d2b09b7a1461016e578063ebbe9aa31461018357600080fd5b80630e2789bb1461008257806333c6ae71146100d25780637af0eb39146100f9575b600080fd5b6100a97f000000000000000000000000000000000000000000000000000000000000000081565b60405173ffffffffffffffffffffffffffffffffffffffff909116815260200160405180910390f35b6100a97f000000000000000000000000000000000000000000000000000000000000000081565b6100a97f000000000000000000000000000000000000000000000000000000000000000081565b6100a97f000000000000000000000000000000000000000000000000000000000000000081565b6100a97f000000000000000000000000000000000000000000000000000000000000000081565b61018161017c366004610e13565b610196565b005b610181610191366004610e5f565b610403565b7f000000000000000000000000000000000000000000000000000000000000000073ffffffffffffffffffffffffffffffffffffffff166395645e346040518163ffffffff1660e01b8152600401602060405180830381865afa158015610201573d6000803e3d6000fd5b505050506040513d601f19601f820116820180604052508101906102259190610ef0565b73ffffffffffffffffffffffffffffffffffffffff163373ffffffffffffffffffffffffffffffffffffffff161461030a576040517f08c379a000000000000000000000000000000000000000000000000000000000815260206004820152605560248201527f53616c74526577617264732e73656e64496e697469616c52657761726473206960448201527f73206f6e6c792063616c6c61626c652066726f6d2074686520496e697469616c60648201527f446973747269627574696f6e20636f6e74726163740000000000000000000000608482015260a4015b60405180910390fd5b610347838383808060200260200160405190810160405280939291908181526020018383602002808284376000920191909152506108ec92505050565b6040517f70a082310000000000000000000000000000000000000000000000000000000081523060048201526103fe907f000000000000000000000000000000000000000000000000000000000000000073ffffffffffffffffffffffffffffffffffffffff16906370a0823190602401602060405180830381865afa1580156103d5573d6000803e3d6000fd5b505050506040513d601f19601f820116820180604052508101906103f99190610f14565b610a6b565b505050565b7f000000000000000000000000000000000000000000000000000000000000000073ffffffffffffffffffffffffffffffffffffffff16632cf4704a6040518163ffffffff1660e01b8152600401602060405180830381865afa15801561046e573d6000803e3d6000fd5b505050506040513d601f19601f820116820180604052508101906104929190610ef0565b73ffffffffffffffffffffffffffffffffffffffff163373ffffffffffffffffffffffffffffffffffffffff1614610572576040517f08c379a000000000000000000000000000000000000000000000000000000000815260206004820152604360248201527f53616c74526577617264732e706572666f726d55706b656570206973206f6e6c60448201527f792063616c6c61626c652066726f6d207468652055706b65657020636f6e747260648201527f6163740000000000000000000000000000000000000000000000000000000000608482015260a401610301565b8281146105db576040517f08c379a000000000000000000000000000000000000000000000000000000000815260206004820152601a60248201527f496e636f6d70617469626c65206172726179206c656e677468730000000000006044820152606401610301565b6040517f70a082310000000000000000000000000000000000000000000000000000000081523060048201526000907f000000000000000000000000000000000000000000000000000000000000000073ffffffffffffffffffffffffffffffffffffffff16906370a0823190602401602060405180830381865afa158015610668573d6000803e3d6000fd5b505050506040513d601f19601f8201168201806040525081019061068c9190610f14565b90508060000361069c57506108e6565b6000805b858110156106d6578484828181106106ba576106ba610f2d565b90506020020135826106cc9190610f8b565b91506001016106a0565b50806000036106e65750506108e6565b600060647f000000000000000000000000000000000000000000000000000000000000000073ffffffffffffffffffffffffffffffffffffffff1663e73b9f326040518163ffffffff1660e01b8152600401602060405180830381865afa158015610755573d6000803e3d6000fd5b505050506040513d601f19601f820116820180604052508101906107799190610f14565b6107839085610fa4565b61078d9190610fbb565b9050600061079b8285610ff6565b9050600060647f000000000000000000000000000000000000000000000000000000000000000073ffffffffffffffffffffffffffffffffffffffff166370ef62586040518163ffffffff1660e01b8152600401602060405180830381865afa15801561080c573d6000803e3d6000fd5b505050506040513d601f19601f820116820180604052508101906108309190610f14565b61083a9084610fa4565b6108449190610fbb565b905060006108528284610ff6565b905061085d82610a6b565b6108df81858c8c80806020026020016040519081016040528093929190818152602001838360200280828437600081840152601f19601f820116905080830192505050505050508b8b808060200260200160405190810160405280939291908181526020018383602002808284376000920191909152508c9250610b89915050565b5050505050505b50505050565b60008151836108fb9190610fbb565b90506000825167ffffffffffffffff81111561091957610919611009565b60405190808252806020026020018201604052801561095e57816020015b60408051808201909152600080825260208201528152602001906001900390816109375790505b50905060005b81518110156109c057604051806040016040528085838151811061098a5761098a610f2d565b60200260200101518152602001848152508282815181106109ad576109ad610f2d565b6020908102919091010152600101610964565b506040517f112ad34400000000000000000000000000000000000000000000000000000000815273ffffffffffffffffffffffffffffffffffffffff7f0000000000000000000000000000000000000000000000000000000000000000169063112ad34490610a33908490600401611038565b600060405180830381600087803b158015610a4d57600080fd5b505af1158015610a61573d6000803e3d6000fd5b5050505050505050565b604080516001808252818301909252600091816020015b6040805180820190915260008082526020820152815260200190600190039081610a8257905050905060405180604001604052806000801b81526020018381525081600081518110610ad657610ad6610f2d565b60209081029190910101526040517f112ad34400000000000000000000000000000000000000000000000000000000815273ffffffffffffffffffffffffffffffffffffffff7f0000000000000000000000000000000000000000000000000000000000000000169063112ad34490610b53908490600401611038565b600060405180830381600087803b158015610b6d57600080fd5b505af1158015610b81573d6000803e3d6000fd5b505050505050565b8151835114610bf4576040517f08c379a000000000000000000000000000000000000000000000000000000000815260206004820152601a60248201527f496e636f6d70617469626c65206172726179206c656e677468730000000000006044820152606401610301565b6000835167ffffffffffffffff811115610c1057610c10611009565b604051908082528060200260200182016040528015610c5557816020015b6040805180820190915260008082526020820152815260200190600190039081610c2e5790505b50905060005b8151811015610d26576000858281518110610c7857610c78610f2d565b60200260200101519050600084868481518110610c9757610c97610f2d565b60200260200101518a610caa9190610fa4565b610cb49190610fbb565b90507f00000000000000000000000000000000000000000000000000000000000000008203610cea57610ce78882610f8b565b90505b604051806040016040528083815260200182815250848481518110610d1157610d11610f2d565b60209081029190910101525050600101610c5b565b506040517f112ad34400000000000000000000000000000000000000000000000000000000815273ffffffffffffffffffffffffffffffffffffffff7f0000000000000000000000000000000000000000000000000000000000000000169063112ad34490610d99908490600401611038565b600060405180830381600087803b158015610db357600080fd5b505af11580156108df573d6000803e3d6000fd5b60008083601f840112610dd957600080fd5b50813567ffffffffffffffff811115610df157600080fd5b6020830191508360208260051b8501011115610e0c57600080fd5b9250929050565b600080600060408486031215610e2857600080fd5b83359250602084013567ffffffffffffffff811115610e4657600080fd5b610e5286828701610dc7565b9497909650939450505050565b60008060008060408587031215610e7557600080fd5b843567ffffffffffffffff80821115610e8d57600080fd5b610e9988838901610dc7565b90965094506020870135915080821115610eb257600080fd5b50610ebf87828801610dc7565b95989497509550505050565b73ffffffffffffffffffffffffffffffffffffffff81168114610eed57600080fd5b50565b600060208284031215610f0257600080fd5b8151610f0d81610ecb565b9392505050565b600060208284031215610f2657600080fd5b5051919050565b7f4e487b7100000000000000000000000000000000000000000000000000000000600052603260045260246000fd5b7f4e487b7100000000000000000000000000000000000000000000000000000000600052601160045260246000fd5b80820180821115610f9e57610f9e610f5c565b92915050565b8082028115828204841417610f9e57610f9e610f5c565b600082610ff1577f4e487b7100000000000000000000000000000000000000000000000000000000600052601260045260246000fd5b500490565b81810381811115610f9e57610f9e610f5c565b7f4e487b7100000000000000000000000000000000000000000000000000000000600052604160045260246000fd5b602080825282518282018190526000919060409081850190868401855b8281101561107a57815180518552860151868501529284019290850190600101611055565b509197965050505050505056fea2646970667358221220d49b70d6f399249a099744eb57778d7366e3c2b54e3a0d3db605e5e1aa2ee3e864736f6c63430008160033","linkReferences":{}},"methodIdentifiers":{"exchangeConfig()":"0e2789bb","liquidityRewardsEmitter()":"7af0eb39","performUpkeep(bytes32[],uint256[])":"ebbe9aa3","rewardsConfig()":"96ceac34","salt()":"bfa0b133","sendInitialSaltRewards(uint256,bytes32[])":"d2b09b7a","stakingRewardsEmitter()":"33c6ae71"},"id":121}