{"abi":[{"type":"constructor","inputs":[{"name":"_forcedPriceBTCWith18Decimals","type":"uint256","internalType":"uint256"},{"name":"_forcedPriceETHWith18Decimals","type":"uint256","internalType":"uint256"}],"stateMutability":"nonpayable"},{"type":"function","name":"clearRevertNext","inputs":[],"outputs":[],"stateMutability":"nonpayable"},{"type":"function","name":"forcedPriceBTCWith18Decimals","inputs":[],"outputs":[{"name":"","type":"uint256","internalType":"uint256"}],"stateMutability":"view"},{"type":"function","name":"forcedPriceETHWith18Decimals","inputs":[],"outputs":[{"name":"","type":"uint256","internalType":"uint256"}],"stateMutability":"view"},{"type":"function","name":"getPriceBTC","inputs":[],"outputs":[{"name":"","type":"uint256","internalType":"uint256"}],"stateMutability":"view"},{"type":"function","name":"getPriceETH","inputs":[],"outputs":[{"name":"","type":"uint256","internalType":"uint256"}],"stateMutability":"view"},{"type":"function","name":"owner","inputs":[],"outputs":[{"name":"","type":"address","internalType":"address"}],"stateMutability":"view"},{"type":"function","name":"renounceOwnership","inputs":[],"outputs":[],"stateMutability":"nonpayable"},{"type":"function","name":"revertNext","inputs":[],"outputs":[{"name":"","type":"bool","internalType":"bool"}],"stateMutability":"view"},{"type":"function","name":"setBTCPrice","inputs":[{"name":"_forcedPriceBTCWith18Decimals","type":"uint256","internalType":"uint256"}],"outputs":[],"stateMutability":"nonpayable"},{"type":"function","name":"setETHPrice","inputs":[{"name":"_forcedPriceETHWith18Decimals","type":"uint256","internalType":"uint256"}],"outputs":[],"stateMutability":"nonpayable"},{"type":"function","name":"setRevertNext","inputs":[],"outputs":[],"stateMutability":"nonpayable"},{"type":"function","name":"test","inputs":[],"outputs":[],"stateMutability":"nonpayable"},{"type":"function","name":"transferOwnership","inputs":[{"name":"newOwner","type":"address","internalType":"address"}],"outputs":[],"stateMutability":"nonpayable"},{"type":"event","name":"OwnershipTransferred","inputs":[{"name":"previousOwner","type":"address","indexed":true,"internalType":"address"},{"name":"newOwner","type":"address","indexed":true,"internalType":"address"}],"anonymous":false}],"bytecode":{"object":"0x608060405234801561001057600080fd5b5060405161067938038061067983398101604081905261002f91610096565b61003833610046565b6001919091556002556100ba565b600080546001600160a01b038381166001600160a01b0319831681178455604051919092169283917f8be0079c531659141344cd1fd0a4f28419497f9722a3daafe3b4186f6b6457e09190a35050565b600080604083850312156100a957600080fd5b505080516020909101519092909150565b6105b0806100c96000396000f3fe608060405234801561001057600080fd5b50600436106100df5760003560e01c8063bc7dce061161008c578063d0c0b33011610066578063d0c0b330146101b5578063e7a24b4f146101ea578063f2fde38b14610217578063f8a8fd6d1461011257600080fd5b8063bc7dce0614610155578063c701240014610168578063ce7d793b146101ac57600080fd5b8063715018a6116100bd578063715018a61461011c5780638da5cb5b146101245780639dd350291461014c57600080fd5b8063039ba6be146100e457806309c7a25c146100ff5780635ba7c62e14610114575b600080fd5b6100ec61022a565b6040519081526020015b60405180910390f35b61011261010d366004610524565b6102bc565b005b6100ec6102c9565b610112610356565b60005460405173ffffffffffffffffffffffffffffffffffffffff90911681526020016100f6565b6100ec60025481565b610112610163366004610524565b61036a565b610112600080547fffffffffffffffffffffff00ffffffffffffffffffffffffffffffffffffffff1674010000000000000000000000000000000000000000179055565b6100ec60015481565b6000546101da9074010000000000000000000000000000000000000000900460ff1681565b60405190151581526020016100f6565b610112600080547fffffffffffffffffffffff00ffffffffffffffffffffffffffffffffffffffff169055565b61011261022536600461053d565b610377565b6000805474010000000000000000000000000000000000000000900460ff16156102b5576040517f08c379a000000000000000000000000000000000000000000000000000000000815260206004820152601260248201527f7265766572744e6578742069732074727565000000000000000000000000000060448201526064015b60405180910390fd5b5060025490565b6102c461042e565b600155565b6000805474010000000000000000000000000000000000000000900460ff161561034f576040517f08c379a000000000000000000000000000000000000000000000000000000000815260206004820152601260248201527f7265766572744e6578742069732074727565000000000000000000000000000060448201526064016102ac565b5060015490565b61035e61042e565b61036860006104af565b565b61037261042e565b600255565b61037f61042e565b73ffffffffffffffffffffffffffffffffffffffff8116610422576040517f08c379a000000000000000000000000000000000000000000000000000000000815260206004820152602660248201527f4f776e61626c653a206e6577206f776e657220697320746865207a65726f206160448201527f646472657373000000000000000000000000000000000000000000000000000060648201526084016102ac565b61042b816104af565b50565b60005473ffffffffffffffffffffffffffffffffffffffff163314610368576040517f08c379a000000000000000000000000000000000000000000000000000000000815260206004820181905260248201527f4f776e61626c653a2063616c6c6572206973206e6f7420746865206f776e657260448201526064016102ac565b6000805473ffffffffffffffffffffffffffffffffffffffff8381167fffffffffffffffffffffffff0000000000000000000000000000000000000000831681178455604051919092169283917f8be0079c531659141344cd1fd0a4f28419497f9722a3daafe3b4186f6b6457e09190a35050565b60006020828403121561053657600080fd5b5035919050565b60006020828403121561054f57600080fd5b813573ffffffffffffffffffffffffffffffffffffffff8116811461057357600080fd5b939250505056fea2646970667358221220b76cf492c8c5ff02b40ee99e837148853b15a4be6ebbd5830e4fb1ab9c4118cf64736f6c63430008160033","linkReferences":{}},"methodIdentifiers":{"clearRevertNext()":"e7a24b4f","forcedPriceBTCWith18Decimals()":"ce7d793b","forcedPriceETHWith18Decimals()":"9dd35029","getPriceBTC()":"5ba7c62e","getPriceETH()":"039ba6be","owner()":"8da5cb5b","renounceOwnership()":"715018a6","revertNext()":"d0c0b330","setBTCPrice(uint256)":"09c7a25c","setETHPrice(uint256)":"bc7dce06","setRevertNext()":"c7012400","test()":"f8a8fd6d","transferOwnership(address)":"f2fde38b"},"id":111}