{"abi":[{"type":"constructor","inputs":[{"name":"_saltRewards","type":"address","internalType":"contract ISaltRewards"},{"name":"_exchangeConfig","type":"address","internalType":"contract IExchangeConfig"},{"name":"_rewardsConfig","type":"address","internalType":"contract IRewardsConfig"}],"stateMutability":"nonpayable"},{"type":"function","name":"MAX_TIME_SINCE_LAST_UPKEEP","inputs":[],"outputs":[{"name":"","type":"uint256","internalType":"uint256"}],"stateMutability":"view"},{"type":"function","name":"exchangeConfig","inputs":[],"outputs":[{"name":"","type":"address","internalType":"contract IExchangeConfig"}],"stateMutability":"view"},{"type":"function","name":"performUpkeep","inputs":[{"name":"timeSinceLastUpkeep","type":"uint256","internalType":"uint256"}],"outputs":[],"stateMutability":"nonpayable"},{"type":"function","name":"rewardsConfig","inputs":[],"outputs":[{"name":"","type":"address","internalType":"contract IRewardsConfig"}],"stateMutability":"view"},{"type":"function","name":"salt","inputs":[],"outputs":[{"name":"","type":"address","internalType":"contract ISalt"}],"stateMutability":"view"},{"type":"function","name":"saltRewards","inputs":[],"outputs":[{"name":"","type":"address","internalType":"contract ISaltRewards"}],"stateMutability":"view"}],"bytecode":{"object":"0x61010060405234801561001157600080fd5b50604051610bd7380380610bd7833981016040819052610030916100d8565b6001600160a01b0380841660805282811660a081905290821660c0526040805163bfa0b13360e01b8152905163bfa0b133916004808201926020929091908290030181865afa158015610087573d6000803e3d6000fd5b505050506040513d601f19601f820116820180604052508101906100ab9190610125565b6001600160a01b031660e05250610149915050565b6001600160a01b03811681146100d557600080fd5b50565b6000806000606084860312156100ed57600080fd5b83516100f8816100c0565b6020850151909350610109816100c0565b604085015190925061011a816100c0565b809150509250925092565b60006020828403121561013757600080fd5b8151610142816100c0565b9392505050565b60805160a05160c05160e051610a346101a3600039600081816101480152818161032a015261048a01526000818161012101526103b6015260008181607c015261016c01526000818160cd01526104ac0152610a346000f3fe608060405234801561001057600080fd5b50600436106100725760003560e01c80633164f3f2116100505780633164f3f21461010757806396ceac341461011c578063bfa0b1331461014357600080fd5b80630e2789bb1461007757806315261eb6146100c85780631b020e23146100ef575b600080fd5b61009e7f000000000000000000000000000000000000000000000000000000000000000081565b60405173ffffffffffffffffffffffffffffffffffffffff90911681526020015b60405180910390f35b61009e7f000000000000000000000000000000000000000000000000000000000000000081565b6100f962093a8081565b6040519081526020016100bf565b61011a61011536600461085d565b61016a565b005b61009e7f000000000000000000000000000000000000000000000000000000000000000081565b61009e7f000000000000000000000000000000000000000000000000000000000000000081565b7f000000000000000000000000000000000000000000000000000000000000000073ffffffffffffffffffffffffffffffffffffffff16632cf4704a6040518163ffffffff1660e01b8152600401602060405180830381865afa1580156101d5573d6000803e3d6000fd5b505050506040513d601f19601f820116820180604052508101906101f99190610876565b73ffffffffffffffffffffffffffffffffffffffff163373ffffffffffffffffffffffffffffffffffffffff16146102de576040517f08c379a000000000000000000000000000000000000000000000000000000000815260206004820152604160248201527f456d697373696f6e732e706572666f726d55706b656570206973206f6e6c792060448201527f63616c6c61626c652066726f6d207468652055706b65657020636f6e7472616360648201527f7400000000000000000000000000000000000000000000000000000000000000608482015260a4015b60405180910390fd5b806000036102e95750565b62093a8081106102f9575062093a805b6040517f70a082310000000000000000000000000000000000000000000000000000000081523060048201526000907f000000000000000000000000000000000000000000000000000000000000000073ffffffffffffffffffffffffffffffffffffffff16906370a0823190602401602060405180830381865afa158015610386573d6000803e3d6000fd5b505050506040513d601f19601f820116820180604052508101906103aa91906108b3565b90506000640e14e390007f000000000000000000000000000000000000000000000000000000000000000073ffffffffffffffffffffffffffffffffffffffff16638ffd0c3a6040518163ffffffff1660e01b8152600401602060405180830381865afa15801561041f573d6000803e3d6000fd5b505050506040513d601f19601f8201168201806040525081019061044391906108b3565b61044d85856108cc565b61045791906108cc565b6104619190610910565b90508060000361047057505050565b6104d173ffffffffffffffffffffffffffffffffffffffff7f0000000000000000000000000000000000000000000000000000000000000000167f0000000000000000000000000000000000000000000000000000000000000000836104d6565b505050565b6040805173ffffffffffffffffffffffffffffffffffffffff848116602483015260448083018590528351808403909101815260649092018352602080830180517bffffffffffffffffffffffffffffffffffffffffffffffffffffffff167fa9059cbb0000000000000000000000000000000000000000000000000000000017905283518085019094528084527f5361666545524332303a206c6f772d6c6576656c2063616c6c206661696c6564908401526104d1928692916000916105a191851690849061064e565b90508051600014806105c25750808060200190518101906105c2919061094b565b6104d1576040517f08c379a000000000000000000000000000000000000000000000000000000000815260206004820152602a60248201527f5361666545524332303a204552433230206f7065726174696f6e20646964206e60448201527f6f7420737563636565640000000000000000000000000000000000000000000060648201526084016102d5565b606061065d8484600085610665565b949350505050565b6060824710156106f7576040517f08c379a000000000000000000000000000000000000000000000000000000000815260206004820152602660248201527f416464726573733a20696e73756666696369656e742062616c616e636520666f60448201527f722063616c6c000000000000000000000000000000000000000000000000000060648201526084016102d5565b6000808673ffffffffffffffffffffffffffffffffffffffff1685876040516107209190610991565b60006040518083038185875af1925050503d806000811461075d576040519150601f19603f3d011682016040523d82523d6000602084013e610762565b606091505b50915091506107738783838761077e565b979650505050505050565b6060831561081457825160000361080d5773ffffffffffffffffffffffffffffffffffffffff85163b61080d576040517f08c379a000000000000000000000000000000000000000000000000000000000815260206004820152601d60248201527f416464726573733a2063616c6c20746f206e6f6e2d636f6e747261637400000060448201526064016102d5565b508161065d565b61065d83838151156108295781518083602001fd5b806040517f08c379a00000000000000000000000000000000000000000000000000000000081526004016102d591906109ad565b60006020828403121561086f57600080fd5b5035919050565b60006020828403121561088857600080fd5b815173ffffffffffffffffffffffffffffffffffffffff811681146108ac57600080fd5b9392505050565b6000602082840312156108c557600080fd5b5051919050565b808202811582820484141761090a577f4e487b7100000000000000000000000000000000000000000000000000000000600052601160045260246000fd5b92915050565b600082610946577f4e487b7100000000000000000000000000000000000000000000000000000000600052601260045260246000fd5b500490565b60006020828403121561095d57600080fd5b815180151581146108ac57600080fd5b60005b83811015610988578181015183820152602001610970565b50506000910152565b600082516109a381846020870161096d565b9190910192915050565b60208152600082518060208401526109cc81604085016020870161096d565b601f017fffffffffffffffffffffffffffffffffffffffffffffffffffffffffffffffe016919091016040019291505056fea264697066735822122031cd239539f841b14b10d6d6d0abbd795c54296a9ab61d16cdfc9c114a7bed5f64736f6c63430008160033","linkReferences":{}},"methodIdentifiers":{"MAX_TIME_SINCE_LAST_UPKEEP()":"1b020e23","exchangeConfig()":"0e2789bb","performUpkeep(uint256)":"3164f3f2","rewardsConfig()":"96ceac34","salt()":"bfa0b133","saltRewards()":"15261eb6"},"id":118}