{"abi":[{"type":"function","name":"changeMaxUnstakeWeeks","inputs":[{"name":"increase","type":"bool","internalType":"bool"}],"outputs":[],"stateMutability":"nonpayable"},{"type":"function","name":"changeMinUnstakePercent","inputs":[{"name":"increase","type":"bool","internalType":"bool"}],"outputs":[],"stateMutability":"nonpayable"},{"type":"function","name":"changeMinUnstakeWeeks","inputs":[{"name":"increase","type":"bool","internalType":"bool"}],"outputs":[],"stateMutability":"nonpayable"},{"type":"function","name":"changeModificationCooldown","inputs":[{"name":"increase","type":"bool","internalType":"bool"}],"outputs":[],"stateMutability":"nonpayable"},{"type":"function","name":"maxUnstakeWeeks","inputs":[],"outputs":[{"name":"","type":"uint256","internalType":"uint256"}],"stateMutability":"view"},{"type":"function","name":"minUnstakePercent","inputs":[],"outputs":[{"name":"","type":"uint256","internalType":"uint256"}],"stateMutability":"view"},{"type":"function","name":"minUnstakeWeeks","inputs":[],"outputs":[{"name":"","type":"uint256","internalType":"uint256"}],"stateMutability":"view"},{"type":"function","name":"modificationCooldown","inputs":[],"outputs":[{"name":"","type":"uint256","internalType":"uint256"}],"stateMutability":"view"},{"type":"function","name":"owner","inputs":[],"outputs":[{"name":"","type":"address","internalType":"address"}],"stateMutability":"view"},{"type":"function","name":"renounceOwnership","inputs":[],"outputs":[],"stateMutability":"nonpayable"},{"type":"function","name":"transferOwnership","inputs":[{"name":"newOwner","type":"address","internalType":"address"}],"outputs":[],"stateMutability":"nonpayable"},{"type":"event","name":"MaxUnstakeWeeksChanged","inputs":[{"name":"newMaxUnstakeWeeks","type":"uint256","indexed":false,"internalType":"uint256"}],"anonymous":false},{"type":"event","name":"MinUnstakePercentChanged","inputs":[{"name":"newMinUnstakePercent","type":"uint256","indexed":false,"internalType":"uint256"}],"anonymous":false},{"type":"event","name":"MinUnstakeWeeksChanged","inputs":[{"name":"newMinUnstakeWeeks","type":"uint256","indexed":false,"internalType":"uint256"}],"anonymous":false},{"type":"event","name":"ModificationCooldownChanged","inputs":[{"name":"newModificationCooldown","type":"uint256","indexed":false,"internalType":"uint256"}],"anonymous":false},{"type":"event","name":"OwnershipTransferred","inputs":[{"name":"previousOwner","type":"address","indexed":true,"internalType":"address"},{"name":"newOwner","type":"address","indexed":true,"internalType":"address"}],"anonymous":false}],"bytecode":{"object":"0x6080604052600260015560346002556014600355610e1060045534801561002557600080fd5b5061002f33610034565b610084565b600080546001600160a01b038381166001600160a01b0319831681178455604051919092169283917f8be0079c531659141344cd1fd0a4f28419497f9722a3daafe3b4186f6b6457e09190a35050565b610690806100936000396000f3fe608060405234801561001057600080fd5b50600436106100c95760003560e01c8063715018a61161008157806390d609651161005b57806390d60965146101715780639852e4191461017a578063f2fde38b1461018357600080fd5b8063715018a61461012e5780638383269e146101365780638da5cb5b1461014957600080fd5b80631d370380116100b25780631d370380146100f65780632c3fe7371461011257806340cf22741461012557600080fd5b80630f80c7c2146100ce57806315935df9146100e3575b600080fd5b6100e16100dc3660046105a0565b610196565b005b6100e16100f13660046105a0565b61022f565b6100ff60025481565b6040519081526020015b60405180910390f35b6100e16101203660046105a0565b6102bd565b6100ff60035481565b6100e1610348565b6100e16101443660046105a0565b61035c565b60005460405173ffffffffffffffffffffffffffffffffffffffff9091168152602001610109565b6100ff60015481565b6100ff60045481565b6100e16101913660046105c9565b6103ee565b61019e6104aa565b80156101cd57606c60025410156101c8576008600260008282546101c2919061062e565b90915550505b6101f1565b601460025411156101f1576008600260008282546101eb9190610647565b90915550505b7ff9ef5147a134cae002adbde84194c8fd999b2a10b98fc249a366989d3184bf6760025460405161022491815260200190565b60405180910390a150565b6102376104aa565b801561026657603260035410156102615760056003600082825461025b919061062e565b90915550505b61028a565b600a600354111561028a576005600360008282546102849190610647565b90915550505b7f207bb0e1af4496665645ec109f5844c11cee374785b4aa4ee530613bc689ca6a60035460405161022491815260200190565b6102c56104aa565b80156102f357600c60015410156102ee5760018060008282546102e8919061062e565b90915550505b610315565b60018054111561031557600180600082825461030f9190610647565b90915550505b7fad48b55cce5d7a822f73c38437dfdaad98872abd21e19b258f765e14c8a85da260015460405161022491815260200190565b6103506104aa565b61035a600061052b565b565b6103646104aa565b8015610395576154606004541015610390576103846004600082825461038a919061062e565b90915550505b6103bb565b61038460045411156103bb57610384600460008282546103b59190610647565b90915550505b7f7966c3c050d8852755f54fc4115429391c2ac1b973f9da1c9ec00b69f3529e6e60045460405161022491815260200190565b6103f66104aa565b73ffffffffffffffffffffffffffffffffffffffff811661049e576040517f08c379a000000000000000000000000000000000000000000000000000000000815260206004820152602660248201527f4f776e61626c653a206e6577206f776e657220697320746865207a65726f206160448201527f646472657373000000000000000000000000000000000000000000000000000060648201526084015b60405180910390fd5b6104a78161052b565b50565b60005473ffffffffffffffffffffffffffffffffffffffff16331461035a576040517f08c379a000000000000000000000000000000000000000000000000000000000815260206004820181905260248201527f4f776e61626c653a2063616c6c6572206973206e6f7420746865206f776e65726044820152606401610495565b6000805473ffffffffffffffffffffffffffffffffffffffff8381167fffffffffffffffffffffffff0000000000000000000000000000000000000000831681178455604051919092169283917f8be0079c531659141344cd1fd0a4f28419497f9722a3daafe3b4186f6b6457e09190a35050565b6000602082840312156105b257600080fd5b813580151581146105c257600080fd5b9392505050565b6000602082840312156105db57600080fd5b813573ffffffffffffffffffffffffffffffffffffffff811681146105c257600080fd5b7f4e487b7100000000000000000000000000000000000000000000000000000000600052601160045260246000fd5b80820180821115610641576106416105ff565b92915050565b81810381811115610641576106416105ff56fea26469706673582212208da3b97328746646ab082746312683770ce77834d30dca83ceb62bc6eff6cfc764736f6c63430008160033","linkReferences":{}},"methodIdentifiers":{"changeMaxUnstakeWeeks(bool)":"0f80c7c2","changeMinUnstakePercent(bool)":"15935df9","changeMinUnstakeWeeks(bool)":"2c3fe737","changeModificationCooldown(bool)":"8383269e","maxUnstakeWeeks()":"1d370380","minUnstakePercent()":"40cf2274","minUnstakeWeeks()":"90d60965","modificationCooldown()":"9852e419","owner()":"8da5cb5b","renounceOwnership()":"715018a6","transferOwnership(address)":"f2fde38b"},"id":162}