{"abi":[{"type":"constructor","inputs":[{"name":"_exchangeConfig","type":"address","internalType":"contract IExchangeConfig"},{"name":"_poolsConfig","type":"address","internalType":"contract IPoolsConfig"},{"name":"_stakingConfig","type":"address","internalType":"contract IStakingConfig"}],"stateMutability":"nonpayable"},{"type":"function","name":"addSALTRewards","inputs":[{"name":"addedRewards","type":"tuple[]","internalType":"struct AddedReward[]","components":[{"name":"poolID","type":"bytes32","internalType":"bytes32"},{"name":"amountToAdd","type":"uint256","internalType":"uint256"}]}],"outputs":[],"stateMutability":"nonpayable"},{"type":"function","name":"claimAllRewards","inputs":[{"name":"poolIDs","type":"bytes32[]","internalType":"bytes32[]"}],"outputs":[{"name":"claimableRewards","type":"uint256","internalType":"uint256"}],"stateMutability":"nonpayable"},{"type":"function","name":"exchangeConfig","inputs":[],"outputs":[{"name":"","type":"address","internalType":"contract IExchangeConfig"}],"stateMutability":"view"},{"type":"function","name":"externalDecreaseUserShare","inputs":[{"name":"user","type":"address","internalType":"address"},{"name":"pool","type":"bytes32","internalType":"bytes32"},{"name":"amount","type":"uint256","internalType":"uint256"},{"name":"useCooldown","type":"bool","internalType":"bool"}],"outputs":[],"stateMutability":"nonpayable"},{"type":"function","name":"externalIncreaseUserShare","inputs":[{"name":"user","type":"address","internalType":"address"},{"name":"pool","type":"bytes32","internalType":"bytes32"},{"name":"amount","type":"uint256","internalType":"uint256"},{"name":"useCooldown","type":"bool","internalType":"bool"}],"outputs":[],"stateMutability":"nonpayable"},{"type":"function","name":"poolsConfig","inputs":[],"outputs":[{"name":"","type":"address","internalType":"contract IPoolsConfig"}],"stateMutability":"view"},{"type":"function","name":"salt","inputs":[],"outputs":[{"name":"","type":"address","internalType":"contract ISalt"}],"stateMutability":"view"},{"type":"function","name":"stakingConfig","inputs":[],"outputs":[{"name":"","type":"address","internalType":"contract IStakingConfig"}],"stateMutability":"view"},{"type":"function","name":"test","inputs":[],"outputs":[],"stateMutability":"nonpayable"},{"type":"function","name":"totalRewards","inputs":[{"name":"","type":"bytes32","internalType":"bytes32"}],"outputs":[{"name":"","type":"uint256","internalType":"uint256"}],"stateMutability":"view"},{"type":"function","name":"totalRewardsForPools","inputs":[{"name":"poolIDs","type":"bytes32[]","internalType":"bytes32[]"}],"outputs":[{"name":"rewards","type":"uint256[]","internalType":"uint256[]"}],"stateMutability":"view"},{"type":"function","name":"totalShares","inputs":[{"name":"","type":"bytes32","internalType":"bytes32"}],"outputs":[{"name":"","type":"uint256","internalType":"uint256"}],"stateMutability":"view"},{"type":"function","name":"totalSharesForPools","inputs":[{"name":"poolIDs","type":"bytes32[]","internalType":"bytes32[]"}],"outputs":[{"name":"shares","type":"uint256[]","internalType":"uint256[]"}],"stateMutability":"view"},{"type":"function","name":"userCooldowns","inputs":[{"name":"wallet","type":"address","internalType":"address"},{"name":"poolIDs","type":"bytes32[]","internalType":"bytes32[]"}],"outputs":[{"name":"cooldowns","type":"uint256[]","internalType":"uint256[]"}],"stateMutability":"view"},{"type":"function","name":"userRewardForPool","inputs":[{"name":"wallet","type":"address","internalType":"address"},{"name":"poolID","type":"bytes32","internalType":"bytes32"}],"outputs":[{"name":"","type":"uint256","internalType":"uint256"}],"stateMutability":"view"},{"type":"function","name":"userRewardsForPools","inputs":[{"name":"wallet","type":"address","internalType":"address"},{"name":"poolIDs","type":"bytes32[]","internalType":"bytes32[]"}],"outputs":[{"name":"rewards","type":"uint256[]","internalType":"uint256[]"}],"stateMutability":"view"},{"type":"function","name":"userShareForPool","inputs":[{"name":"wallet","type":"address","internalType":"address"},{"name":"poolID","type":"bytes32","internalType":"bytes32"}],"outputs":[{"name":"","type":"uint256","internalType":"uint256"}],"stateMutability":"view"},{"type":"function","name":"userShareForPools","inputs":[{"name":"wallet","type":"address","internalType":"address"},{"name":"poolIDs","type":"bytes32[]","internalType":"bytes32[]"}],"outputs":[{"name":"shares","type":"uint256[]","internalType":"uint256[]"}],"stateMutability":"view"},{"type":"function","name":"userVirtualRewardsForPool","inputs":[{"name":"wallet","type":"address","internalType":"address"},{"name":"poolID","type":"bytes32","internalType":"bytes32"}],"outputs":[{"name":"","type":"uint256","internalType":"uint256"}],"stateMutability":"view"},{"type":"event","name":"RewardsClaimed","inputs":[{"name":"wallet","type":"address","indexed":true,"internalType":"address"},{"name":"claimedRewards","type":"uint256","indexed":false,"internalType":"uint256"}],"anonymous":false},{"type":"event","name":"SaltRewardsAdded","inputs":[{"name":"poolID","type":"bytes32","indexed":true,"internalType":"bytes32"},{"name":"amountAdded","type":"uint256","indexed":false,"internalType":"uint256"}],"anonymous":false},{"type":"event","name":"UserShareDecreased","inputs":[{"name":"wallet","type":"address","indexed":true,"internalType":"address"},{"name":"poolID","type":"bytes32","indexed":true,"internalType":"bytes32"},{"name":"amountDecreased","type":"uint256","indexed":false,"internalType":"uint256"},{"name":"claimedRewards","type":"uint256","indexed":false,"internalType":"uint256"}],"anonymous":false},{"type":"event","name":"UserShareIncreased","inputs":[{"name":"wallet","type":"address","indexed":true,"internalType":"address"},{"name":"poolID","type":"bytes32","indexed":true,"internalType":"bytes32"},{"name":"amountIncreased","type":"uint256","indexed":false,"internalType":"uint256"}],"anonymous":false}],"bytecode":{"object":"0x6101006040523480156200001257600080fd5b50604051620023d8380380620023d88339810160408190526200003591620000f0565b60016000556001600160a01b0380841660a081905281841660e05290821660c0526040805163bfa0b13360e01b8152905185928592859263bfa0b133916004808201926020929091908290030181865afa15801562000098573d6000803e3d6000fd5b505050506040513d601f19601f82011682018060405250810190620000be919062000144565b6001600160a01b0316608052506200016b945050505050565b6001600160a01b0381168114620000ed57600080fd5b50565b6000806000606084860312156200010657600080fd5b83516200011381620000d7565b60208501519093506200012681620000d7565b60408501519092506200013981620000d7565b809150509250925092565b6000602082840312156200015757600080fd5b81516200016481620000d7565b9392505050565b60805160a05160c05160e0516121f4620001e46000396000818161025c0152818161041201526113ce015260008181610215015281816110c301526116aa01526000818161015b01528181610f6f01526115560152600081816103370152818161059a01528181610b34015261131b01526121f46000f3fe608060405234801561001057600080fd5b50600436106101515760003560e01c806371481a7e116100cd578063bfa0b13311610081578063e970e29e11610066578063e970e29e14610379578063f38a851e1461038c578063f8a8fd6d146101ba57600080fd5b8063bfa0b13314610332578063de6448491461035957600080fd5b80637eed7226116100b25780637eed7226146102b757806397146776146102ca5780639f71cc3d1461031f57600080fd5b806371481a7e1461029157806379824893146102a457600080fd5b8063358b8d9c1161012457806338c563641161010957806338c563641461023757806352c19b5a1461025757806370c512d21461027e57600080fd5b8063358b8d9c146101fd57806336829dfc1461021057600080fd5b80630e2789bb14610156578063112ad344146101a757806312e8d594146101bc5780632941bb53146101ea575b600080fd5b61017d7f000000000000000000000000000000000000000000000000000000000000000081565b60405173ffffffffffffffffffffffffffffffffffffffff90911681526020015b60405180910390f35b6101ba6101b5366004611caf565b61039f565b005b6101dc6101ca366004611d24565b60036020526000908152604090205481565b60405190815260200161019e565b6101ba6101f8366004611d70565b6105d1565b6101ba61020b366004611d70565b6105e3565b61017d7f000000000000000000000000000000000000000000000000000000000000000081565b61024a610245366004611e06565b6105ef565b60405161019e9190611e5b565b61017d7f000000000000000000000000000000000000000000000000000000000000000081565b61024a61028c366004611e06565b6106ff565b61024a61029f366004611e9f565b6107a1565b61024a6102b2366004611e06565b61084c565b6101dc6102c5366004611ee1565b61092d565b6101dc6102d8366004611ee1565b73ffffffffffffffffffffffffffffffffffffffff91909116600090815260016020908152604080832093835292905220546fffffffffffffffffffffffffffffffff1690565b61024a61032d366004611e9f565b61098b565b61017d7f000000000000000000000000000000000000000000000000000000000000000081565b6101dc610367366004611d24565b60026020526000908152604090205481565b6101dc610387366004611e9f565b610a2f565b6101dc61039a366004611ee1565b610b9c565b6103a7610cdb565b6000805b828110156105795760008484838181106103c7576103c7611f0d565b9050604002018036038101906103dd9190611f6b565b80516040517f01a5e3fe00000000000000000000000000000000000000000000000000000000815260048101829052919250907f000000000000000000000000000000000000000000000000000000000000000073ffffffffffffffffffffffffffffffffffffffff16906301a5e3fe90602401602060405180830381865afa15801561046e573d6000803e3d6000fd5b505050506040513d601f19601f820116820180604052508101906104929190611fe1565b6104fd576040517f08c379a000000000000000000000000000000000000000000000000000000000815260206004820152600c60248201527f496e76616c696420706f6f6c000000000000000000000000000000000000000060448201526064015b60405180910390fd5b602080830151600083815260029092526040822080549192839261052290849061202d565b909155506105329050818661202d565b9450817f1a3928ff1b0861fed322d892257f1e66f67b3e6c080f3d6d0fe12753bf2368578260405161056691815260200190565b60405180910390a25050506001016103ab565b5080156105c2576105c273ffffffffffffffffffffffffffffffffffffffff7f000000000000000000000000000000000000000000000000000000000000000016333084610d4e565b506105cd6001600055565b5050565b6105dd84848484610e2a565b50505050565b6105dd8484848461139f565b60608167ffffffffffffffff81111561060a5761060a611f3c565b604051908082528060200260200182016040528015610633578160200160208202803683370190505b5073ffffffffffffffffffffffffffffffffffffffff851660009081526001602052604081209192505b82518110156106f657600082600087878581811061067d5761067d611f0d565b9050602002013581526020019081526020016000206001015490508042106106c45760008483815181106106b3576106b3611f0d565b6020026020010181815250506106ed565b6106ce4282612040565b8483815181106106e0576106e0611f0d565b6020026020010181815250505b5060010161065d565b50509392505050565b60608167ffffffffffffffff81111561071a5761071a611f3c565b604051908082528060200260200182016040528015610743578160200160208202803683370190505b50905060005b8151811015610799576107748585858481811061076857610768611f0d565b90506020020135610b9c565b82828151811061078657610786611f0d565b6020908102919091010152600101610749565b509392505050565b60608167ffffffffffffffff8111156107bc576107bc611f3c565b6040519080825280602002602001820160405280156107e5578160200160208202803683370190505b50905060005b8151811015610845576002600085858481811061080a5761080a611f0d565b9050602002013581526020019081526020016000205482828151811061083257610832611f0d565b60209081029190910101526001016107eb565b5092915050565b60608167ffffffffffffffff81111561086757610867611f3c565b604051908082528060200260200182016040528015610890578160200160208202803683370190505b50905060005b81518110156107995773ffffffffffffffffffffffffffffffffffffffff85166000908152600160205260408120908585848181106108d7576108d7611f0d565b602090810292909201358352508101919091526040016000205482516fffffffffffffffffffffffffffffffff9091169083908390811061091a5761091a611f0d565b6020908102919091010152600101610896565b73ffffffffffffffffffffffffffffffffffffffff8216600090815260016020908152604080832084845290915290205470010000000000000000000000000000000090046fffffffffffffffffffffffffffffffff165b92915050565b60608167ffffffffffffffff8111156109a6576109a6611f3c565b6040519080825280602002602001820160405280156109cf578160200160208202803683370190505b50905060005b815181101561084557600360008585848181106109f4576109f4611f0d565b90506020020135815260200190815260200160002054828281518110610a1c57610a1c611f0d565b60209081029190910101526001016109d5565b6000610a39610cdb565b50336000908152600160205260408120815b83811015610b13576000858583818110610a6757610a67611f0d565b9050602002013590506000610a7c3383610b9c565b600083815260208690526040902080549192508291601090610ac590849070010000000000000000000000000000000090046fffffffffffffffffffffffffffffffff16612053565b92506101000a8154816fffffffffffffffffffffffffffffffff02191690836fffffffffffffffffffffffffffffffff1602179055508085610b07919061202d565b94505050600101610a4b565b508115610b9157610b5b73ffffffffffffffffffffffffffffffffffffffff7f00000000000000000000000000000000000000000000000000000000000000001633846118fe565b60405182815233907ffc30cddea38e2bf4d6ea7d3f9ed3b6ad7f176419f4963bd81318067a4aee73fe9060200160405180910390a25b506109856001600055565b6000818152600360205260408120548103610bb957506000610985565b73ffffffffffffffffffffffffffffffffffffffff831660009081526001602081815260408084208685528252808420815160608101835281546fffffffffffffffffffffffffffffffff808216808452700100000000000000000000000000000000909204169482019490945293015490830152909103610c3f576000915050610985565b60008381526003602090815260408083205484516002909352908320549091610c7c916fffffffffffffffffffffffffffffffff9091169061207c565b610c869190612093565b90508082602001516fffffffffffffffffffffffffffffffff161115610cb157600092505050610985565b6020820151610cd2906fffffffffffffffffffffffffffffffff1682612040565b95945050505050565b600260005403610d47576040517f08c379a000000000000000000000000000000000000000000000000000000000815260206004820152601f60248201527f5265656e7472616e637947756172643a207265656e7472616e742063616c6c0060448201526064016104f4565b6002600055565b60405173ffffffffffffffffffffffffffffffffffffffff808516602483015283166044820152606481018290526105dd9085907f23b872dd00000000000000000000000000000000000000000000000000000000906084015b604080517fffffffffffffffffffffffffffffffffffffffffffffffffffffffffffffffe08184030181529190526020810180517bffffffffffffffffffffffffffffffffffffffffffffffffffffffff167fffffffff0000000000000000000000000000000000000000000000000000000090931692909217909152611959565b81600003610e94576040517f08c379a000000000000000000000000000000000000000000000000000000000815260206004820152601a60248201527f43616e6e6f74206465637265617365207a65726f20736861726500000000000060448201526064016104f4565b73ffffffffffffffffffffffffffffffffffffffff84166000908152600160209081526040808320868452909152902080546fffffffffffffffffffffffffffffffff16831115610f67576040517f08c379a000000000000000000000000000000000000000000000000000000000815260206004820152602d60248201527f43616e6e6f74206465637265617365206d6f7265207468616e2065786973746960448201527f6e6720757365722073686172650000000000000000000000000000000000000060648201526084016104f4565b8115611160577f000000000000000000000000000000000000000000000000000000000000000073ffffffffffffffffffffffffffffffffffffffff16634162169f6040518163ffffffff1660e01b8152600401602060405180830381865afa158015610fd8573d6000803e3d6000fd5b505050506040513d601f19601f82011682018060405250810190610ffc91906120ce565b73ffffffffffffffffffffffffffffffffffffffff163373ffffffffffffffffffffffffffffffffffffffff16146111605780600101544210156110c1576040517f08c379a0000000000000000000000000000000000000000000000000000000008152602060048201526024808201527f4d757374207761697420666f722074686520636f6f6c646f776e20746f20657860448201527f706972650000000000000000000000000000000000000000000000000000000060648201526084016104f4565b7f000000000000000000000000000000000000000000000000000000000000000073ffffffffffffffffffffffffffffffffffffffff16639852e4196040518163ffffffff1660e01b8152600401602060405180830381865afa15801561112c573d6000803e3d6000fd5b505050506040513d601f19601f8201168201806040525081019061115091906120eb565b61115a904261202d565b60018201555b600084815260036020908152604080832054600290925282205461118590869061207c565b61118f9190612093565b82549091506000906fffffffffffffffffffffffffffffffff808216916111cc91889170010000000000000000000000000000000090041661207c565b6111d69190612093565b9050816002600088815260200190815260200160002060008282546111fb9190612040565b90915550506000868152600360205260408120805487929061121e908490612040565b90915550508254859084906000906112499084906fffffffffffffffffffffffffffffffff16612104565b92506101000a8154816fffffffffffffffffffffffffffffffff02191690836fffffffffffffffffffffffffffffffff160217905550808360000160108282829054906101000a90046fffffffffffffffffffffffffffffffff166112ae9190612104565b92506101000a8154816fffffffffffffffffffffffffffffffff02191690836fffffffffffffffffffffffffffffffff1602179055506000828210156112fb576112f88284612040565b90505b80156113425761134273ffffffffffffffffffffffffffffffffffffffff7f00000000000000000000000000000000000000000000000000000000000000001689836118fe565b6040805187815260208101839052889173ffffffffffffffffffffffffffffffffffffffff8b16917ff3ff952bb635509e33aac00d3bce385321c4a0e4ea2b60d92c7c5d3ddd24f6d0910160405180910390a35050505050505050565b6040517f01a5e3fe000000000000000000000000000000000000000000000000000000008152600481018490527f000000000000000000000000000000000000000000000000000000000000000073ffffffffffffffffffffffffffffffffffffffff16906301a5e3fe90602401602060405180830381865afa15801561142a573d6000803e3d6000fd5b505050506040513d601f19601f8201168201806040525081019061144e9190611fe1565b6114b4576040517f08c379a000000000000000000000000000000000000000000000000000000000815260206004820152600c60248201527f496e76616c696420706f6f6c000000000000000000000000000000000000000060448201526064016104f4565b8160000361151e576040517f08c379a000000000000000000000000000000000000000000000000000000000815260206004820152601a60248201527f43616e6e6f7420696e637265617365207a65726f20736861726500000000000060448201526064016104f4565b73ffffffffffffffffffffffffffffffffffffffff8416600090815260016020908152604080832086845290915290208115611747577f000000000000000000000000000000000000000000000000000000000000000073ffffffffffffffffffffffffffffffffffffffff16634162169f6040518163ffffffff1660e01b8152600401602060405180830381865afa1580156115bf573d6000803e3d6000fd5b505050506040513d601f19601f820116820180604052508101906115e391906120ce565b73ffffffffffffffffffffffffffffffffffffffff163373ffffffffffffffffffffffffffffffffffffffff16146117475780600101544210156116a8576040517f08c379a0000000000000000000000000000000000000000000000000000000008152602060048201526024808201527f4d757374207761697420666f722074686520636f6f6c646f776e20746f20657860448201527f706972650000000000000000000000000000000000000000000000000000000060648201526084016104f4565b7f000000000000000000000000000000000000000000000000000000000000000073ffffffffffffffffffffffffffffffffffffffff16639852e4196040518163ffffffff1660e01b8152600401602060405180830381865afa158015611713573d6000803e3d6000fd5b505050506040513d601f19601f8201168201806040525081019061173791906120eb565b611741904261202d565b60018201555b600084815260036020526040902054801561182f576000858152600260205260408120546117809061177a90879061207c565b83611a68565b8354909150819084906010906117bd90849070010000000000000000000000000000000090046fffffffffffffffffffffffffffffffff16612053565b92506101000a8154816fffffffffffffffffffffffffffffffff02191690836fffffffffffffffffffffffffffffffff160217905550806fffffffffffffffffffffffffffffffff16600260008881526020019081526020016000206000828254611828919061202d565b9091555050505b8154849083906000906118559084906fffffffffffffffffffffffffffffffff16612053565b92506101000a8154816fffffffffffffffffffffffffffffffff02191690836fffffffffffffffffffffffffffffffff1602179055508381611897919061202d565b6000868152600360209081526040918290209290925551858152869173ffffffffffffffffffffffffffffffffffffffff8916917f2d42c28eb0a06d672788615e7fbf33f445d2a9a2e6529cf1a719320b67b6289a910160405180910390a3505050505050565b60405173ffffffffffffffffffffffffffffffffffffffff83166024820152604481018290526119549084907fa9059cbb0000000000000000000000000000000000000000000000000000000090606401610da8565b505050565b60006119bb826040518060400160405280602081526020017f5361666545524332303a206c6f772d6c6576656c2063616c6c206661696c65648152508573ffffffffffffffffffffffffffffffffffffffff16611aa09092919063ffffffff16565b90508051600014806119dc5750808060200190518101906119dc9190611fe1565b611954576040517f08c379a000000000000000000000000000000000000000000000000000000000815260206004820152602a60248201527f5361666545524332303a204552433230206f7065726174696f6e20646964206e60448201527f6f7420737563636565640000000000000000000000000000000000000000000060648201526084016104f4565b60008215611a965781611a7c600185612040565b611a869190612093565b611a9190600161202d565b611a99565b60005b9392505050565b6060611aaf8484600085611ab7565b949350505050565b606082471015611b49576040517f08c379a000000000000000000000000000000000000000000000000000000000815260206004820152602660248201527f416464726573733a20696e73756666696369656e742062616c616e636520666f60448201527f722063616c6c000000000000000000000000000000000000000000000000000060648201526084016104f4565b6000808673ffffffffffffffffffffffffffffffffffffffff168587604051611b729190612151565b60006040518083038185875af1925050503d8060008114611baf576040519150601f19603f3d011682016040523d82523d6000602084013e611bb4565b606091505b5091509150611bc587838387611bd0565b979650505050505050565b60608315611c66578251600003611c5f5773ffffffffffffffffffffffffffffffffffffffff85163b611c5f576040517f08c379a000000000000000000000000000000000000000000000000000000000815260206004820152601d60248201527f416464726573733a2063616c6c20746f206e6f6e2d636f6e747261637400000060448201526064016104f4565b5081611aaf565b611aaf8383815115611c7b5781518083602001fd5b806040517f08c379a00000000000000000000000000000000000000000000000000000000081526004016104f4919061216d565b60008060208385031215611cc257600080fd5b823567ffffffffffffffff80821115611cda57600080fd5b818501915085601f830112611cee57600080fd5b813581811115611cfd57600080fd5b8660208260061b8501011115611d1257600080fd5b60209290920196919550909350505050565b600060208284031215611d3657600080fd5b5035919050565b73ffffffffffffffffffffffffffffffffffffffff81168114611d5f57600080fd5b50565b8015158114611d5f57600080fd5b60008060008060808587031215611d8657600080fd5b8435611d9181611d3d565b935060208501359250604085013591506060850135611daf81611d62565b939692955090935050565b60008083601f840112611dcc57600080fd5b50813567ffffffffffffffff811115611de457600080fd5b6020830191508360208260051b8501011115611dff57600080fd5b9250929050565b600080600060408486031215611e1b57600080fd5b8335611e2681611d3d565b9250602084013567ffffffffffffffff811115611e4257600080fd5b611e4e86828701611dba565b9497909650939450505050565b6020808252825182820181905260009190848201906040850190845b81811015611e9357835183529284019291840191600101611e77565b50909695505050505050565b60008060208385031215611eb257600080fd5b823567ffffffffffffffff811115611ec957600080fd5b611ed585828601611dba565b90969095509350505050565b60008060408385031215611ef457600080fd5b8235611eff81611d3d565b946020939093013593505050565b7f4e487b7100000000000000000000000000000000000000000000000000000000600052603260045260246000fd5b7f4e487b7100000000000000000000000000000000000000000000000000000000600052604160045260246000fd5b600060408284031215611f7d57600080fd5b6040516040810181811067ffffffffffffffff82111715611fc7577f4e487b7100000000000000000000000000000000000000000000000000000000600052604160045260246000fd5b604052823581526020928301359281019290925250919050565b600060208284031215611ff357600080fd5b8151611a9981611d62565b7f4e487b7100000000000000000000000000000000000000000000000000000000600052601160045260246000fd5b8082018082111561098557610985611ffe565b8181038181111561098557610985611ffe565b6fffffffffffffffffffffffffffffffff81811683821601908082111561084557610845611ffe565b808202811582820484141761098557610985611ffe565b6000826120c9577f4e487b7100000000000000000000000000000000000000000000000000000000600052601260045260246000fd5b500490565b6000602082840312156120e057600080fd5b8151611a9981611d3d565b6000602082840312156120fd57600080fd5b5051919050565b6fffffffffffffffffffffffffffffffff82811682821603908082111561084557610845611ffe565b60005b83811015612148578181015183820152602001612130565b50506000910152565b6000825161216381846020870161212d565b9190910192915050565b602081526000825180602084015261218c81604085016020870161212d565b601f017fffffffffffffffffffffffffffffffffffffffffffffffffffffffffffffffe016919091016040019291505056fea26469706673582212201769483b22c91dfaeba065dfbe51af30dca4ccce5c59a99d2851023f18f5a8d364736f6c63430008160033","linkReferences":{}},"methodIdentifiers":{"addSALTRewards((bytes32,uint256)[])":"112ad344","claimAllRewards(bytes32[])":"e970e29e","exchangeConfig()":"0e2789bb","externalDecreaseUserShare(address,bytes32,uint256,bool)":"2941bb53","externalIncreaseUserShare(address,bytes32,uint256,bool)":"358b8d9c","poolsConfig()":"52c19b5a","salt()":"bfa0b133","stakingConfig()":"36829dfc","test()":"f8a8fd6d","totalRewards(bytes32)":"de644849","totalRewardsForPools(bytes32[])":"71481a7e","totalShares(bytes32)":"12e8d594","totalSharesForPools(bytes32[])":"9f71cc3d","userCooldowns(address,bytes32[])":"38c56364","userRewardForPool(address,bytes32)":"f38a851e","userRewardsForPools(address,bytes32[])":"70c512d2","userShareForPool(address,bytes32)":"97146776","userShareForPools(address,bytes32[])":"79824893","userVirtualRewardsForPool(address,bytes32)":"7eed7226"},"id":172}