{"abi":[{"type":"function","name":"changeEmissionsWeeklyPercent","inputs":[{"name":"increase","type":"bool","internalType":"bool"}],"outputs":[],"stateMutability":"nonpayable"},{"type":"function","name":"changePercentRewardsSaltUSDS","inputs":[{"name":"increase","type":"bool","internalType":"bool"}],"outputs":[],"stateMutability":"nonpayable"},{"type":"function","name":"changeRewardsEmitterDailyPercent","inputs":[{"name":"increase","type":"bool","internalType":"bool"}],"outputs":[],"stateMutability":"nonpayable"},{"type":"function","name":"changeStakingRewardsPercent","inputs":[{"name":"increase","type":"bool","internalType":"bool"}],"outputs":[],"stateMutability":"nonpayable"},{"type":"function","name":"emissionsWeeklyPercentTimes1000","inputs":[],"outputs":[{"name":"","type":"uint256","internalType":"uint256"}],"stateMutability":"view"},{"type":"function","name":"owner","inputs":[],"outputs":[{"name":"","type":"address","internalType":"address"}],"stateMutability":"view"},{"type":"function","name":"percentRewardsSaltUSDS","inputs":[],"outputs":[{"name":"","type":"uint256","internalType":"uint256"}],"stateMutability":"view"},{"type":"function","name":"renounceOwnership","inputs":[],"outputs":[],"stateMutability":"nonpayable"},{"type":"function","name":"rewardsEmitterDailyPercentTimes1000","inputs":[],"outputs":[{"name":"","type":"uint256","internalType":"uint256"}],"stateMutability":"view"},{"type":"function","name":"stakingRewardsPercent","inputs":[],"outputs":[{"name":"","type":"uint256","internalType":"uint256"}],"stateMutability":"view"},{"type":"function","name":"transferOwnership","inputs":[{"name":"newOwner","type":"address","internalType":"address"}],"outputs":[],"stateMutability":"nonpayable"},{"type":"event","name":"EmissionsWeeklyPercentChanged","inputs":[{"name":"newEmissionsWeeklyPercent","type":"uint256","indexed":false,"internalType":"uint256"}],"anonymous":false},{"type":"event","name":"OwnershipTransferred","inputs":[{"name":"previousOwner","type":"address","indexed":true,"internalType":"address"},{"name":"newOwner","type":"address","indexed":true,"internalType":"address"}],"anonymous":false},{"type":"event","name":"PercentRewardsSaltUSDSChanged","inputs":[{"name":"newPercentRewardsSaltUSDS","type":"uint256","indexed":false,"internalType":"uint256"}],"anonymous":false},{"type":"event","name":"RewardsEmitterDailyPercentChanged","inputs":[{"name":"newRewardsEmitterDailyPercent","type":"uint256","indexed":false,"internalType":"uint256"}],"anonymous":false},{"type":"event","name":"StakingRewardsPercentChanged","inputs":[{"name":"newStakingRewardsPercent","type":"uint256","indexed":false,"internalType":"uint256"}],"anonymous":false}],"bytecode":{"object":"0x60806040526103e86001556101f46002556032600355600a60045534801561002657600080fd5b5061003033610035565b610085565b600080546001600160a01b038381166001600160a01b0319831681178455604051919092169283917f8be0079c531659141344cd1fd0a4f28419497f9722a3daafe3b4186f6b6457e09190a35050565b61065d806100946000396000f3fe608060405234801561001057600080fd5b50600436106100c95760003560e01c8063924007b111610081578063e73b9f321161005b578063e73b9f3214610167578063ed8a5e7714610170578063f2fde38b1461018357600080fd5b8063924007b114610138578063dab2e5c31461014b578063df11d42d1461015457600080fd5b8063715018a6116100b2578063715018a6146100ff5780638da5cb5b146101075780638ffd0c3a1461012f57600080fd5b806323dd537b146100ce57806370ef6258146100e3575b600080fd5b6100e16100dc36600461056d565b610196565b005b6100ec60035481565b6040519081526020015b60405180910390f35b6100e1610222565b60005460405173ffffffffffffffffffffffffffffffffffffffff90911681526020016100f6565b6100ec60025481565b6100e161014636600461056d565b610236565b6100ec60015481565b6100e161016236600461056d565b6102b7565b6100ec60045481565b6100e161017e36600461056d565b610339565b6100e1610191366004610596565b6103bb565b61019e610477565b80156101c657604b60035410156101c1576003546101bd9060056105fb565b6003555b6101e4565b601960035411156101e45760056003546101e09190610614565b6003555b7fd807b5262f0887ab27a2968c64eee546da2a81bc553a0cb6e8513df5919d52cf60035460405161021791815260200190565b60405180910390a150565b61022a610477565b61023460006104f8565b565b61023e610477565b801561026657601960045410156102615760045461025d9060056105fb565b6004555b610284565b600560045411156102845760056004546102809190610614565b6004555b7fd76159d6ff51029bd08ccdc68b9e1050f19d1a8fa31a0fa1dd0b70daa07b9f3c60045460405161021791815260200190565b6102bf610477565b80156102e8576103e860025410156102e3576002546102df9060fa6105fb565b6002555b610306565b60fa60025411156103065760fa6002546103029190610614565b6002555b7f2aa4dd9f1c9a07d3b257a93561d953fee1edac23981051080570ff4ac4a7747860025460405161021791815260200190565b610341610477565b801561036a576109c46001541015610365576001546103619060fa6105fb565b6001555b610388565b60fa60015411156103885760fa6001546103849190610614565b6001555b7f7eedf8bde069edc0a2a0d978087e44e3f99d4f7b03a79f21be09c940f065d05260015460405161021791815260200190565b6103c3610477565b73ffffffffffffffffffffffffffffffffffffffff811661046b576040517f08c379a000000000000000000000000000000000000000000000000000000000815260206004820152602660248201527f4f776e61626c653a206e6577206f776e657220697320746865207a65726f206160448201527f646472657373000000000000000000000000000000000000000000000000000060648201526084015b60405180910390fd5b610474816104f8565b50565b60005473ffffffffffffffffffffffffffffffffffffffff163314610234576040517f08c379a000000000000000000000000000000000000000000000000000000000815260206004820181905260248201527f4f776e61626c653a2063616c6c6572206973206e6f7420746865206f776e65726044820152606401610462565b6000805473ffffffffffffffffffffffffffffffffffffffff8381167fffffffffffffffffffffffff0000000000000000000000000000000000000000831681178455604051919092169283917f8be0079c531659141344cd1fd0a4f28419497f9722a3daafe3b4186f6b6457e09190a35050565b60006020828403121561057f57600080fd5b8135801515811461058f57600080fd5b9392505050565b6000602082840312156105a857600080fd5b813573ffffffffffffffffffffffffffffffffffffffff8116811461058f57600080fd5b7f4e487b7100000000000000000000000000000000000000000000000000000000600052601160045260246000fd5b8082018082111561060e5761060e6105cc565b92915050565b8181038181111561060e5761060e6105cc56fea26469706673582212203c8f1b8ce393c274552d4df7f0c99ef261a2aeeba8191c363994dae247866ba364736f6c63430008160033","linkReferences":{}},"methodIdentifiers":{"changeEmissionsWeeklyPercent(bool)":"df11d42d","changePercentRewardsSaltUSDS(bool)":"924007b1","changeRewardsEmitterDailyPercent(bool)":"ed8a5e77","changeStakingRewardsPercent(bool)":"23dd537b","emissionsWeeklyPercentTimes1000()":"8ffd0c3a","owner()":"8da5cb5b","percentRewardsSaltUSDS()":"e73b9f32","renounceOwnership()":"715018a6","rewardsEmitterDailyPercentTimes1000()":"dab2e5c3","stakingRewardsPercent()":"70ef6258","transferOwnership(address)":"f2fde38b"},"id":119}