{"abi":[{"type":"function","name":"callFromDAO","inputs":[{"name":"n","type":"uint256","internalType":"uint256"}],"outputs":[],"stateMutability":"nonpayable"},{"type":"function","name":"test","inputs":[],"outputs":[],"stateMutability":"nonpayable"},{"type":"function","name":"value","inputs":[],"outputs":[{"name":"","type":"uint256","internalType":"uint256"}],"stateMutability":"view"}],"bytecode":{"object":"0x608060405234801561001057600080fd5b5060bb8061001f6000396000f3fe6080604052348015600f57600080fd5b5060043610603c5760003560e01c80633fa4f245146041578063b031537e14605b578063f8a8fd6d14606b575b600080fd5b604960005481565b60405190815260200160405180910390f35b606b6066366004606d565b600055565b005b600060208284031215607e57600080fd5b503591905056fea26469706673582212208f117ef313dd0811ea414f2d6cf997bfffb26095f352352d0c57f966aa4205ca64736f6c63430008160033","linkReferences":{}},"methodIdentifiers":{"callFromDAO(uint256)":"b031537e","test()":"f8a8fd6d","value()":"3fa4f245"},"id":67}