{"abi":[{"type":"constructor","inputs":[{"name":"_forcedPriceWith18Decimals","type":"uint256","internalType":"uint256"}],"stateMutability":"nonpayable"},{"type":"function","name":"forcedPriceWith18Decimals","inputs":[],"outputs":[{"name":"","type":"uint256","internalType":"uint256"}],"stateMutability":"view"},{"type":"function","name":"latestRoundData","inputs":[],"outputs":[{"name":"","type":"uint80","internalType":"uint80"},{"name":"","type":"int256","internalType":"int256"},{"name":"","type":"uint256","internalType":"uint256"},{"name":"","type":"uint256","internalType":"uint256"},{"name":"","type":"uint80","internalType":"uint80"}],"stateMutability":"view"},{"type":"function","name":"owner","inputs":[],"outputs":[{"name":"","type":"address","internalType":"address"}],"stateMutability":"view"},{"type":"function","name":"renounceOwnership","inputs":[],"outputs":[],"stateMutability":"nonpayable"},{"type":"function","name":"setPrice","inputs":[{"name":"_forcedPriceWith18Decimals","type":"uint256","internalType":"uint256"}],"outputs":[],"stateMutability":"nonpayable"},{"type":"function","name":"setShouldFail","inputs":[],"outputs":[],"stateMutability":"nonpayable"},{"type":"function","name":"setShouldTimeout","inputs":[],"outputs":[],"stateMutability":"nonpayable"},{"type":"function","name":"shouldFail","inputs":[],"outputs":[{"name":"","type":"bool","internalType":"bool"}],"stateMutability":"view"},{"type":"function","name":"shouldTimeout","inputs":[],"outputs":[{"name":"","type":"bool","internalType":"bool"}],"stateMutability":"view"},{"type":"function","name":"test","inputs":[],"outputs":[],"stateMutability":"nonpayable"},{"type":"function","name":"transferOwnership","inputs":[{"name":"newOwner","type":"address","internalType":"address"}],"outputs":[],"stateMutability":"nonpayable"},{"type":"event","name":"OwnershipTransferred","inputs":[{"name":"previousOwner","type":"address","indexed":true,"internalType":"address"},{"name":"newOwner","type":"address","indexed":true,"internalType":"address"}],"anonymous":false}],"bytecode":{"object":"0x60806040526002805461ffff1916905534801561001b57600080fd5b5060405161060338038061060383398101604081905261003a9161009b565b6100433361004b565b6001556100b4565b600080546001600160a01b038381166001600160a01b0319831681178455604051919092169283917f8be0079c531659141344cd1fd0a4f28419497f9722a3daafe3b4186f6b6457e09190a35050565b6000602082840312156100ad57600080fd5b5051919050565b610540806100c36000396000f3fe608060405234801561001057600080fd5b50600436106100c95760003560e01c8063da89e33611610081578063f2fde38b1161005b578063f2fde38b1461016e578063f8a8fd6d146100d6578063feaf968c1461018157600080fd5b8063da89e3361461013d578063eae2629f14610154578063f0674f3f1461015c57600080fd5b8063715018a6116100b2578063715018a6146100fa5780638da5cb5b1461010257806391b7f5ed1461012a57600080fd5b80632af361ff146100ce578063678d2204146100d8575b600080fd5b6100d66101c0565b005b6002546100e59060ff1681565b60405190151581526020015b60405180910390f35b6100d66101f6565b60005460405173ffffffffffffffffffffffffffffffffffffffff90911681526020016100f1565b6100d6610138366004610474565b61020a565b61014660015481565b6040519081526020016100f1565b6100d6610217565b6002546100e590610100900460ff1681565b6100d661017c36600461048d565b61024c565b610189610308565b6040805169ffffffffffffffffffff968716815260208101959095528401929092526060830152909116608082015260a0016100f1565b6101c861037e565b600280547fffffffffffffffffffffffffffffffffffffffffffffffffffffffffffff00ff16610100179055565b6101fe61037e565b61020860006103ff565b565b61021261037e565b600155565b61021f61037e565b600280547fffffffffffffffffffffffffffffffffffffffffffffffffffffffffffffff00166001179055565b61025461037e565b73ffffffffffffffffffffffffffffffffffffffff81166102fc576040517f08c379a000000000000000000000000000000000000000000000000000000000815260206004820152602660248201527f4f776e61626c653a206e6577206f776e657220697320746865207a65726f206160448201527f646472657373000000000000000000000000000000000000000000000000000060648201526084015b60405180910390fd5b610305816103ff565b50565b600254600090819081908190819060ff161561032357600080fd5b600254610100900460ff16156103575760015460009081610346610e4c426104ca565b600094509450945094509450610377565b6001546000908161036a610dd4426104ca565b6000945094509450945094505b9091929394565b60005473ffffffffffffffffffffffffffffffffffffffff163314610208576040517f08c379a000000000000000000000000000000000000000000000000000000000815260206004820181905260248201527f4f776e61626c653a2063616c6c6572206973206e6f7420746865206f776e657260448201526064016102f3565b6000805473ffffffffffffffffffffffffffffffffffffffff8381167fffffffffffffffffffffffff0000000000000000000000000000000000000000831681178455604051919092169283917f8be0079c531659141344cd1fd0a4f28419497f9722a3daafe3b4186f6b6457e09190a35050565b60006020828403121561048657600080fd5b5035919050565b60006020828403121561049f57600080fd5b813573ffffffffffffffffffffffffffffffffffffffff811681146104c357600080fd5b9392505050565b81810381811115610504577f4e487b7100000000000000000000000000000000000000000000000000000000600052601160045260246000fd5b9291505056fea2646970667358221220606c20078fd96de7b97d212b43fbe96b22a18db224779ad26bfe62e099ad3f1f64736f6c63430008160033","linkReferences":{}},"methodIdentifiers":{"forcedPriceWith18Decimals()":"da89e336","latestRoundData()":"feaf968c","owner()":"8da5cb5b","renounceOwnership()":"715018a6","setPrice(uint256)":"91b7f5ed","setShouldFail()":"eae2629f","setShouldTimeout()":"2af361ff","shouldFail()":"678d2204","shouldTimeout()":"f0674f3f","test()":"f8a8fd6d","transferOwnership(address)":"f2fde38b"},"id":115}