{"abi":[{"type":"constructor","inputs":[{"name":"_exchangeConfig","type":"address","internalType":"contract IExchangeConfig"},{"name":"_staking","type":"address","internalType":"contract IStaking"}],"stateMutability":"nonpayable"},{"type":"function","name":"allowClaiming","inputs":[],"outputs":[],"stateMutability":"nonpayable"},{"type":"function","name":"authorizeWallet","inputs":[{"name":"wallet","type":"address","internalType":"address"}],"outputs":[],"stateMutability":"nonpayable"},{"type":"function","name":"claimAirdrop","inputs":[],"outputs":[],"stateMutability":"nonpayable"},{"type":"function","name":"claimed","inputs":[{"name":"","type":"address","internalType":"address"}],"outputs":[{"name":"","type":"bool","internalType":"bool"}],"stateMutability":"view"},{"type":"function","name":"claimingAllowed","inputs":[],"outputs":[{"name":"","type":"bool","internalType":"bool"}],"stateMutability":"view"},{"type":"function","name":"exchangeConfig","inputs":[],"outputs":[{"name":"","type":"address","internalType":"contract IExchangeConfig"}],"stateMutability":"view"},{"type":"function","name":"isAuthorized","inputs":[{"name":"wallet","type":"address","internalType":"address"}],"outputs":[{"name":"","type":"bool","internalType":"bool"}],"stateMutability":"view"},{"type":"function","name":"numberAuthorized","inputs":[],"outputs":[{"name":"","type":"uint256","internalType":"uint256"}],"stateMutability":"view"},{"type":"function","name":"salt","inputs":[],"outputs":[{"name":"","type":"address","internalType":"contract ISalt"}],"stateMutability":"view"},{"type":"function","name":"saltAmountForEachUser","inputs":[],"outputs":[{"name":"","type":"uint256","internalType":"uint256"}],"stateMutability":"view"},{"type":"function","name":"staking","inputs":[],"outputs":[{"name":"","type":"address","internalType":"contract IStaking"}],"stateMutability":"view"}],"bytecode":{"object":"0x60e060405234801561001057600080fd5b50604051610fc5380380610fc583398101604081905261002f916100d5565b60016000556001600160a01b03808316608081905290821660a0526040805163bfa0b13360e01b8152905163bfa0b133916004808201926020929091908290030181865afa158015610085573d6000803e3d6000fd5b505050506040513d601f19601f820116820180604052508101906100a9919061010f565b6001600160a01b031660c052506101339050565b6001600160a01b03811681146100d257600080fd5b50565b600080604083850312156100e857600080fd5b82516100f3816100bd565b6020840151909250610104816100bd565b809150509250929050565b60006020828403121561012157600080fd5b815161012c816100bd565b9392505050565b60805160a05160c051610e3361019260003960008181610191015281816107f901526108fc015260008181610124015281816103e40152818161048c01526108cd01526000818160d301528181610557015261099a0152610e336000f3fe608060405234801561001057600080fd5b50600436106100c95760003560e01c80637ed07a5611610081578063de7333971161005b578063de733397146101d6578063fbeaa8b1146101de578063fe9fbb80146101f157600080fd5b80637ed07a5614610183578063bfa0b1331461018c578063c884ef83146101b357600080fd5b80635b88349d116100b25780635b88349d14610146578063673f200a146101505780636c9248831461016d57600080fd5b80630e2789bb146100ce5780634cf088d91461011f575b600080fd5b6100f57f000000000000000000000000000000000000000000000000000000000000000081565b60405173ffffffffffffffffffffffffffffffffffffffff90911681526020015b60405180910390f35b6100f57f000000000000000000000000000000000000000000000000000000000000000081565b61014e610204565b005b60035461015d9060ff1681565b6040519015158152602001610116565b610175610544565b604051908152602001610116565b61017560055481565b6100f57f000000000000000000000000000000000000000000000000000000000000000081565b61015d6101c1366004610d4d565b60046020526000908152604090205460ff1681565b61014e610555565b61014e6101ec366004610d4d565b610998565b61015d6101ff366004610d4d565b610bf1565b61020c610c04565b60035460ff1661027d576040517f08c379a000000000000000000000000000000000000000000000000000000000815260206004820152601b60248201527f436c61696d696e67206973206e6f7420616c6c6f77656420796574000000000060448201526064015b60405180910390fd5b61028633610bf1565b610311576040517f08c379a0000000000000000000000000000000000000000000000000000000008152602060048201526024808201527f57616c6c6574206973206e6f7420617574686f72697a656420666f722061697260448201527f64726f70000000000000000000000000000000000000000000000000000000006064820152608401610274565b3360009081526004602052604090205460ff16156103b1576040517f08c379a000000000000000000000000000000000000000000000000000000000815260206004820152602260248201527f57616c6c657420616c726561647920636c61696d65642074686520616972647260448201527f6f700000000000000000000000000000000000000000000000000000000000006064820152608401610274565b6005546040517f20545c3700000000000000000000000000000000000000000000000000000000815260048101919091527f000000000000000000000000000000000000000000000000000000000000000073ffffffffffffffffffffffffffffffffffffffff16906320545c3790602401600060405180830381600087803b15801561043d57600080fd5b505af1158015610451573d6000803e3d6000fd5b50506005546040517f8ce5146b00000000000000000000000000000000000000000000000000000000815233600482015260248101919091527f000000000000000000000000000000000000000000000000000000000000000073ffffffffffffffffffffffffffffffffffffffff169250638ce5146b9150604401600060405180830381600087803b1580156104e757600080fd5b505af11580156104fb573d6000803e3d6000fd5b505033600090815260046020526040902080547fffffffffffffffffffffffffffffffffffffffffffffffffffffffffffffff001660011790555061054290506001600055565b565b60006105506001610c77565b905090565b7f000000000000000000000000000000000000000000000000000000000000000073ffffffffffffffffffffffffffffffffffffffff166395645e346040518163ffffffff1660e01b8152600401602060405180830381865afa1580156105c0573d6000803e3d6000fd5b505050506040513d601f19601f820116820180604052508101906105e49190610d6a565b73ffffffffffffffffffffffffffffffffffffffff163373ffffffffffffffffffffffffffffffffffffffff16146106c4576040517f08c379a000000000000000000000000000000000000000000000000000000000815260206004820152604c60248201527f41697264726f702e616c6c6f77436c61696d696e672063616e206f6e6c79206260448201527f652063616c6c65642062792074686520496e697469616c44697374726962757460648201527f696f6e20636f6e74726163740000000000000000000000000000000000000000608482015260a401610274565b60035460ff1615610731576040517f08c379a000000000000000000000000000000000000000000000000000000000815260206004820152601b60248201527f436c61696d696e6720697320616c726561647920616c6c6f77656400000000006044820152606401610274565b600061073b610544565b116107c8576040517f08c379a000000000000000000000000000000000000000000000000000000000815260206004820152602960248201527f4e6f2061646472657373657320617574686f72697a656420746f20636c61696d60448201527f2061697264726f702e00000000000000000000000000000000000000000000006064820152608401610274565b6040517f70a082310000000000000000000000000000000000000000000000000000000081523060048201526000907f000000000000000000000000000000000000000000000000000000000000000073ffffffffffffffffffffffffffffffffffffffff16906370a0823190602401602060405180830381865afa158015610855573d6000803e3d6000fd5b505050506040513d601f19601f820116820180604052508101906108799190610d87565b9050610883610544565b61088d9082610da0565b6005556040517f095ea7b300000000000000000000000000000000000000000000000000000000815273ffffffffffffffffffffffffffffffffffffffff7f000000000000000000000000000000000000000000000000000000000000000081166004830152602482018390527f0000000000000000000000000000000000000000000000000000000000000000169063095ea7b3906044016020604051808303816000875af1158015610945573d6000803e3d6000fd5b505050506040513d601f19601f820116820180604052508101906109699190610ddb565b5050600380547fffffffffffffffffffffffffffffffffffffffffffffffffffffffffffffff00166001179055565b7f000000000000000000000000000000000000000000000000000000000000000073ffffffffffffffffffffffffffffffffffffffff166395645e346040518163ffffffff1660e01b8152600401602060405180830381865afa158015610a03573d6000803e3d6000fd5b505050506040513d601f19601f82011682018060405250810190610a279190610d6a565b73ffffffffffffffffffffffffffffffffffffffff1663bd1d4b286040518163ffffffff1660e01b8152600401602060405180830381865afa158015610a71573d6000803e3d6000fd5b505050506040513d601f19601f82011682018060405250810190610a959190610d6a565b73ffffffffffffffffffffffffffffffffffffffff163373ffffffffffffffffffffffffffffffffffffffff1614610b4f576040517f08c379a000000000000000000000000000000000000000000000000000000000815260206004820152603960248201527f4f6e6c792074686520426f6f74737472617042616c6c6f742063616e2063616c60448201527f6c2041697264726f702e617574686f72697a6557616c6c6574000000000000006064820152608401610274565b60035460ff1615610be2576040517f08c379a000000000000000000000000000000000000000000000000000000000815260206004820152602a60248201527f43616e6e6f7420617574686f72697a6520616674657220636c61696d696e672060448201527f697320616c6c6f776564000000000000000000000000000000000000000000006064820152608401610274565b610bed600182610c81565b5050565b6000610bfe600183610caa565b92915050565b600260005403610c70576040517f08c379a000000000000000000000000000000000000000000000000000000000815260206004820152601f60248201527f5265656e7472616e637947756172643a207265656e7472616e742063616c6c006044820152606401610274565b6002600055565b6000610bfe825490565b6000610ca38373ffffffffffffffffffffffffffffffffffffffff8416610cd9565b9392505050565b73ffffffffffffffffffffffffffffffffffffffff811660009081526001830160205260408120541515610ca3565b6000818152600183016020526040812054610d2057508154600181810184556000848152602080822090930184905584548482528286019093526040902091909155610bfe565b506000610bfe565b73ffffffffffffffffffffffffffffffffffffffff81168114610d4a57600080fd5b50565b600060208284031215610d5f57600080fd5b8135610ca381610d28565b600060208284031215610d7c57600080fd5b8151610ca381610d28565b600060208284031215610d9957600080fd5b5051919050565b600082610dd6577f4e487b7100000000000000000000000000000000000000000000000000000000600052601260045260246000fd5b500490565b600060208284031215610ded57600080fd5b81518015158114610ca357600080fdfea264697066735822122051fd35f80c4ccc22e4fb3f139c1b7c04503b1e9d206eac597775bf1b4e4eb80b64736f6c63430008160033","linkReferences":{}},"methodIdentifiers":{"allowClaiming()":"de733397","authorizeWallet(address)":"fbeaa8b1","claimAirdrop()":"5b88349d","claimed(address)":"c884ef83","claimingAllowed()":"673f200a","exchangeConfig()":"0e2789bb","isAuthorized(address)":"fe9fbb80","numberAuthorized()":"6c924883","salt()":"bfa0b133","saltAmountForEachUser()":"7ed07a56","staking()":"4cf088d9"},"id":78}