{"abi":[{"type":"constructor","inputs":[{"name":"_mainWallet","type":"address","internalType":"address"},{"name":"_confirmationWallet","type":"address","internalType":"address"}],"stateMutability":"nonpayable"},{"type":"receive","stateMutability":"payable"},{"type":"function","name":"TIMELOCK_DURATION","inputs":[],"outputs":[{"name":"","type":"uint256","internalType":"uint256"}],"stateMutability":"view"},{"type":"function","name":"activeTimelock","inputs":[],"outputs":[{"name":"","type":"uint256","internalType":"uint256"}],"stateMutability":"view"},{"type":"function","name":"changeWallets","inputs":[],"outputs":[],"stateMutability":"nonpayable"},{"type":"function","name":"confirmationWallet","inputs":[],"outputs":[{"name":"","type":"address","internalType":"address"}],"stateMutability":"view"},{"type":"function","name":"mainWallet","inputs":[],"outputs":[{"name":"","type":"address","internalType":"address"}],"stateMutability":"view"},{"type":"function","name":"proposeWallets","inputs":[{"name":"_proposedMainWallet","type":"address","internalType":"address"},{"name":"_proposedConfirmationWallet","type":"address","internalType":"address"}],"outputs":[],"stateMutability":"nonpayable"},{"type":"function","name":"proposedConfirmationWallet","inputs":[],"outputs":[{"name":"","type":"address","internalType":"address"}],"stateMutability":"view"},{"type":"function","name":"proposedMainWallet","inputs":[],"outputs":[{"name":"","type":"address","internalType":"address"}],"stateMutability":"view"},{"type":"event","name":"WalletChange","inputs":[{"name":"mainWallet","type":"address","indexed":false,"internalType":"address"},{"name":"confirmationWallet","type":"address","indexed":false,"internalType":"address"}],"anonymous":false},{"type":"event","name":"WalletProposal","inputs":[{"name":"proposedMainWallet","type":"address","indexed":false,"internalType":"address"},{"name":"proposedConfirmationWallet","type":"address","indexed":false,"internalType":"address"}],"anonymous":false}],"bytecode":{"object":"0x608060405234801561001057600080fd5b5060405161093b38038061093b83398101604081905261002f91610082565b600080546001600160a01b039384166001600160a01b031991821617909155600180549290931691161790556000196004556100b5565b80516001600160a01b038116811461007d57600080fd5b919050565b6000806040838503121561009557600080fd5b61009e83610066565b91506100ac60208401610066565b90509250929050565b610877806100c46000396000f3fe60806040526004361061007f5760003560e01c80635a83911f1161004e5780635a83911f1461021557806390a1f5051461022a5780639a8d32bc14610257578063b7fcd8bb1461028457600080fd5b8063028660411461015657806323b62b75146101ad57806328b367ef146101da5780634623c81e146101fe57600080fd5b366101515760015473ffffffffffffffffffffffffffffffffffffffff16331461010a576040517f08c379a000000000000000000000000000000000000000000000000000000000815260206004820152600e60248201527f496e76616c69642073656e64657200000000000000000000000000000000000060448201526064015b60405180910390fd5b66b1a2bc2ec50000341061012a5761012562278d00426107a5565b600455005b7fffffffffffffffffffffffffffffffffffffffffffffffffffffffffffffffff6004555b005b600080fd5b34801561016257600080fd5b506001546101839073ffffffffffffffffffffffffffffffffffffffff1681565b60405173ffffffffffffffffffffffffffffffffffffffff90911681526020015b60405180910390f35b3480156101b957600080fd5b506000546101839073ffffffffffffffffffffffffffffffffffffffff1681565b3480156101e657600080fd5b506101f060045481565b6040519081526020016101a4565b34801561020a57600080fd5b506101f062278d0081565b34801561022157600080fd5b5061014f6102a4565b34801561023657600080fd5b506003546101839073ffffffffffffffffffffffffffffffffffffffff1681565b34801561026357600080fd5b506002546101839073ffffffffffffffffffffffffffffffffffffffff1681565b34801561029057600080fd5b5061014f61029f36600461080e565b61047f565b60025473ffffffffffffffffffffffffffffffffffffffff163314610325576040517f08c379a000000000000000000000000000000000000000000000000000000000815260206004820152600e60248201527f496e76616c69642073656e6465720000000000000000000000000000000000006044820152606401610101565b600454421015610391576040517f08c379a000000000000000000000000000000000000000000000000000000000815260206004820152601a60248201527f54696d656c6f636b206e6f742079657420636f6d706c657465640000000000006044820152606401610101565b6002546000805473ffffffffffffffffffffffffffffffffffffffff9283167fffffffffffffffffffffffff000000000000000000000000000000000000000091821681179092556003546001805491909416911681179092556040805191825260208201929092527f6034c0d6a4c973cc8c0e2be41a3b50c271ec90c17efc71b4a8d15d4d0dcbc4cf910160405180910390a17fffffffffffffffffffffffffffffffffffffffffffffffffffffffffffffffff600455600280547fffffffffffffffffffffffff0000000000000000000000000000000000000000908116909155600380549091169055565b60005473ffffffffffffffffffffffffffffffffffffffff163314610526576040517f08c379a000000000000000000000000000000000000000000000000000000000815260206004820152602f60248201527f4f6e6c79207468652063757272656e74206d61696e57616c6c65742063616e2060448201527f70726f706f7365206368616e67657300000000000000000000000000000000006064820152608401610101565b73ffffffffffffffffffffffffffffffffffffffff82166105c9576040517f08c379a000000000000000000000000000000000000000000000000000000000815260206004820152602e60248201527f5f70726f706f7365644d61696e57616c6c65742063616e6e6f7420626520746860448201527f65207a65726f20616464726573730000000000000000000000000000000000006064820152608401610101565b73ffffffffffffffffffffffffffffffffffffffff811661066c576040517f08c379a000000000000000000000000000000000000000000000000000000000815260206004820152603660248201527f5f70726f706f736564436f6e6669726d6174696f6e57616c6c65742063616e6e60448201527f6f7420626520746865207a65726f2061646472657373000000000000000000006064820152608401610101565b60025473ffffffffffffffffffffffffffffffffffffffff1615610712576040517f08c379a000000000000000000000000000000000000000000000000000000000815260206004820152602e60248201527f43616e6e6f74206f7665727772697465206e6f6e2d7a65726f2070726f706f7360448201527f6564206d61696e57616c6c65742e0000000000000000000000000000000000006064820152608401610101565b6002805473ffffffffffffffffffffffffffffffffffffffff8481167fffffffffffffffffffffffff00000000000000000000000000000000000000009283168117909355600380549185169190921681179091556040805192835260208301919091527f8cc8e73ed532a3c26347dd035a0377412ed60a93fd962e6e904084855066c197910160405180910390a15050565b808201808211156107df577f4e487b7100000000000000000000000000000000000000000000000000000000600052601160045260246000fd5b92915050565b803573ffffffffffffffffffffffffffffffffffffffff8116811461080957600080fd5b919050565b6000806040838503121561082157600080fd5b61082a836107e5565b9150610838602084016107e5565b9050925092905056fea26469706673582212208bf3383e6af7c699d218b62d4268b3a3122b18b2720f0f20520a602e7a27564564736f6c63430008160033","linkReferences":{}},"methodIdentifiers":{"TIMELOCK_DURATION()":"4623c81e","activeTimelock()":"28b367ef","changeWallets()":"5a83911f","confirmationWallet()":"02866041","mainWallet()":"23b62b75","proposeWallets(address,address)":"b7fcd8bb","proposedConfirmationWallet()":"90a1f505","proposedMainWallet()":"9a8d32bc"},"id":45}