{"abi":[{"type":"constructor","inputs":[{"name":"_exchangeConfig","type":"address","internalType":"contract IExchangeConfig"}],"stateMutability":"nonpayable"},{"type":"function","name":"MIDPOINT_PRECISION","inputs":[],"outputs":[{"name":"","type":"uint256","internalType":"uint256"}],"stateMutability":"view"},{"type":"function","name":"arbitragePath","inputs":[{"name":"swapTokenIn","type":"address","internalType":"contract IERC20"},{"name":"swapTokenOut","type":"address","internalType":"contract IERC20"}],"outputs":[{"name":"arbToken2","type":"address","internalType":"contract IERC20"},{"name":"arbToken3","type":"address","internalType":"contract IERC20"}],"stateMutability":"view"},{"type":"function","name":"bisectionSearch","inputs":[{"name":"swapAmountInValueInETH","type":"uint256","internalType":"uint256"},{"name":"reservesA0","type":"uint256","internalType":"uint256"},{"name":"reservesA1","type":"uint256","internalType":"uint256"},{"name":"reservesB0","type":"uint256","internalType":"uint256"},{"name":"reservesB1","type":"uint256","internalType":"uint256"},{"name":"reservesC0","type":"uint256","internalType":"uint256"},{"name":"reservesC1","type":"uint256","internalType":"uint256"}],"outputs":[{"name":"bestArbAmountIn","type":"uint256","internalType":"uint256"}],"stateMutability":"pure"},{"type":"function","name":"salt","inputs":[],"outputs":[{"name":"","type":"address","internalType":"contract ISalt"}],"stateMutability":"view"},{"type":"function","name":"test","inputs":[],"outputs":[],"stateMutability":"nonpayable"},{"type":"function","name":"wbtc","inputs":[],"outputs":[{"name":"","type":"address","internalType":"contract IERC20"}],"stateMutability":"view"},{"type":"function","name":"weth","inputs":[],"outputs":[{"name":"","type":"address","internalType":"contract IERC20"}],"stateMutability":"view"}],"bytecode":{"object":"0x60e060405234801561001057600080fd5b506040516109d73803806109d783398101604081905261002f916101b4565b80806001600160a01b0316633cdc53896040518163ffffffff1660e01b8152600401602060405180830381865afa15801561006e573d6000803e3d6000fd5b505050506040513d601f19601f8201168201806040525081019061009291906101b4565b6001600160a01b03166080816001600160a01b031681525050806001600160a01b0316633fc8cef36040518163ffffffff1660e01b8152600401602060405180830381865afa1580156100e9573d6000803e3d6000fd5b505050506040513d601f19601f8201168201806040525081019061010d91906101b4565b6001600160a01b031660a0816001600160a01b031681525050806001600160a01b031663bfa0b1336040518163ffffffff1660e01b8152600401602060405180830381865afa158015610164573d6000803e3d6000fd5b505050506040513d601f19601f8201168201806040525081019061018891906101b4565b6001600160a01b031660c052506101d89050565b6001600160a01b03811681146101b157600080fd5b50565b6000602082840312156101c657600080fd5b81516101d18161019c565b9392505050565b60805160a05160c05161077e6102596000396000818161015b01528181610299015261036601526000818160d801528181610222015281816102bf015281816103af015261042c0152600081816087015281816101cf015281816102760152818161031201528181610389015281816104030152610483015261077e6000f3fe608060405234801561001057600080fd5b506004361061007d5760003560e01c80639c2a4bd51161005b5780639c2a4bd514610116578063bfa0b13314610156578063d9e1c68d1461017d578063f8a8fd6d1461019057600080fd5b80633cdc5389146100825780633fc8cef3146100d357806340a83c99146100fa575b600080fd5b6100a97f000000000000000000000000000000000000000000000000000000000000000081565b60405173ffffffffffffffffffffffffffffffffffffffff90911681526020015b60405180910390f35b6100a97f000000000000000000000000000000000000000000000000000000000000000081565b61010866038d7ea4c6800081565b6040519081526020016100ca565b61012961012436600461069a565b610192565b6040805173ffffffffffffffffffffffffffffffffffffffff9384168152929091166020830152016100ca565b6100a97f000000000000000000000000000000000000000000000000000000000000000081565b61010861018b3660046106cd565b6101ab565b005b60008061019f84846101ca565b915091505b9250929050565b60006101bc888888888888886104ae565b90505b979650505050505050565b6000807f000000000000000000000000000000000000000000000000000000000000000073ffffffffffffffffffffffffffffffffffffffff168473ffffffffffffffffffffffffffffffffffffffff16036102bd577f000000000000000000000000000000000000000000000000000000000000000073ffffffffffffffffffffffffffffffffffffffff168373ffffffffffffffffffffffffffffffffffffffff16036102bd57507f000000000000000000000000000000000000000000000000000000000000000090507f00000000000000000000000000000000000000000000000000000000000000006101a4565b7f000000000000000000000000000000000000000000000000000000000000000073ffffffffffffffffffffffffffffffffffffffff168473ffffffffffffffffffffffffffffffffffffffff16036103ad577f000000000000000000000000000000000000000000000000000000000000000073ffffffffffffffffffffffffffffffffffffffff168373ffffffffffffffffffffffffffffffffffffffff16036103ad57507f000000000000000000000000000000000000000000000000000000000000000090507f00000000000000000000000000000000000000000000000000000000000000006101a4565b7f000000000000000000000000000000000000000000000000000000000000000073ffffffffffffffffffffffffffffffffffffffff168473ffffffffffffffffffffffffffffffffffffffff160361042a57507f00000000000000000000000000000000000000000000000000000000000000009050816101a4565b7f000000000000000000000000000000000000000000000000000000000000000073ffffffffffffffffffffffffffffffffffffffff168373ffffffffffffffffffffffffffffffffffffffff16036104a757508290507f00000000000000000000000000000000000000000000000000000000000000006101a4565b5090929050565b60006064871115806104c1575060648611155b806104cd575060648511155b806104d9575060648411155b806104e5575060648311155b806104f1575060648211155b156104fe575060006101bf565b600788901c600289901c890160005b60088110156105455782820160011c61052b818c8c8c8c8c8c6105b7565b156105385780935061053c565b8092505b5060010161050d565b5081810160011c925060008984018985028161056357610563610719565b0490508088018188028161057957610579610719565b0490508086018186028161058f5761058f610719565b049050606484820312156105a957600093505050506101bf565b505050979650505050505050565b600080888801898802816105cd576105cd610719565b049050808601818602816105e3576105e3610719565b049050808401818402816105f9576105f9610719565b0490508881036064811215610613576000925050506101bf565b66038d7ea4c680008a0199508989018a89028161063257610632610719565b0491508187018287028161064857610648610719565b0491508185018285028161065e5761065e610719565b048a900313915050979650505050505050565b803573ffffffffffffffffffffffffffffffffffffffff8116811461069557600080fd5b919050565b600080604083850312156106ad57600080fd5b6106b683610671565b91506106c460208401610671565b90509250929050565b600080600080600080600060e0888a0312156106e857600080fd5b505085359760208701359750604087013596606081013596506080810135955060a0810135945060c0013592509050565b7f4e487b7100000000000000000000000000000000000000000000000000000000600052601260045260246000fdfea2646970667358221220c7bea260daa1d4ed2117a73f0729958336addc0277415201312fd47d7989cba864736f6c63430008160033","linkReferences":{}},"methodIdentifiers":{"MIDPOINT_PRECISION()":"40a83c99","arbitragePath(address,address)":"9c2a4bd5","bisectionSearch(uint256,uint256,uint256,uint256,uint256,uint256,uint256)":"d9e1c68d","salt()":"bfa0b133","test()":"f8a8fd6d","wbtc()":"3cdc5389","weth()":"3fc8cef3"},"id":53}