{"abi":[{"type":"function","name":"circulatingSALT","inputs":[{"name":"salt","type":"address","internalType":"contract IERC20"},{"name":"emissions","type":"address","internalType":"address"},{"name":"daoVestingWallet","type":"address","internalType":"address"},{"name":"teamVestingWallet","type":"address","internalType":"address"},{"name":"stakingRewardsEmitter","type":"address","internalType":"address"},{"name":"liquidityRewardsEmitter","type":"address","internalType":"address"}],"outputs":[{"name":"","type":"uint256","internalType":"uint256"}],"stateMutability":"view"},{"type":"function","name":"corePrices","inputs":[{"name":"pools","type":"address","internalType":"contract IPools"},{"name":"exchangeConfig","type":"address","internalType":"contract IExchangeConfig"},{"name":"priceAggregator","type":"address","internalType":"contract IPriceAggregator"}],"outputs":[{"name":"btcPrice","type":"uint256","internalType":"uint256"},{"name":"ethPrice","type":"uint256","internalType":"uint256"},{"name":"saltPrice","type":"uint256","internalType":"uint256"},{"name":"usdsPrice","type":"uint256","internalType":"uint256"}],"stateMutability":"view"},{"type":"function","name":"currentTimestamp","inputs":[],"outputs":[{"name":"timestamp","type":"uint256","internalType":"uint256"}],"stateMutability":"view"},{"type":"function","name":"determineZapSwapAmount","inputs":[{"name":"reserveA","type":"uint256","internalType":"uint256"},{"name":"reserveB","type":"uint256","internalType":"uint256"},{"name":"zapAmountA","type":"uint256","internalType":"uint256"},{"name":"zapAmountB","type":"uint256","internalType":"uint256"}],"outputs":[{"name":"swapAmountA","type":"uint256","internalType":"uint256"},{"name":"swapAmountB","type":"uint256","internalType":"uint256"}],"stateMutability":"pure"},{"type":"function","name":"estimateAddedLiquidity","inputs":[{"name":"reservesA","type":"uint256","internalType":"uint256"},{"name":"reservesB","type":"uint256","internalType":"uint256"},{"name":"maxAmountA","type":"uint256","internalType":"uint256"},{"name":"maxAmountB","type":"uint256","internalType":"uint256"},{"name":"totalLiquidity","type":"uint256","internalType":"uint256"}],"outputs":[{"name":"addedLiquidity","type":"uint256","internalType":"uint256"}],"stateMutability":"pure"},{"type":"function","name":"nonUserPoolInfo","inputs":[{"name":"collateralAndLiquidity","type":"address","internalType":"contract ICollateralAndLiquidity"},{"name":"liquidityRewardsEmitter","type":"address","internalType":"contract IRewardsEmitter"},{"name":"pools","type":"address","internalType":"contract IPools"},{"name":"poolsConfig","type":"address","internalType":"contract IPoolsConfig"},{"name":"rewardsConfig","type":"address","internalType":"contract IRewardsConfig"},{"name":"poolIDs","type":"bytes32[]","internalType":"bytes32[]"}],"outputs":[{"name":"tokens","type":"address[]","internalType":"address[]"},{"name":"names","type":"string[]","internalType":"string[]"},{"name":"decimals","type":"uint256[]","internalType":"uint256[]"},{"name":"reserves","type":"uint256[]","internalType":"uint256[]"},{"name":"totalShares","type":"uint256[]","internalType":"uint256[]"},{"name":"pendingRewards","type":"uint256[]","internalType":"uint256[]"},{"name":"rewardsEmitterDailyPercentTimes1000","type":"uint256","internalType":"uint256"}],"stateMutability":"view"},{"type":"function","name":"poolID","inputs":[{"name":"tokenA","type":"address","internalType":"contract IERC20"},{"name":"tokenB","type":"address","internalType":"contract IERC20"}],"outputs":[{"name":"_poolID","type":"bytes32","internalType":"bytes32"}],"stateMutability":"pure"},{"type":"function","name":"poolReserves","inputs":[{"name":"pools","type":"address","internalType":"contract IPools"},{"name":"poolsConfig","type":"address","internalType":"contract IPoolsConfig"},{"name":"poolIDs","type":"bytes32[]","internalType":"bytes32[]"}],"outputs":[{"name":"","type":"uint256[]","internalType":"uint256[]"}],"stateMutability":"view"},{"type":"function","name":"quoteAmountIn","inputs":[{"name":"pools","type":"address","internalType":"contract IPools"},{"name":"tokens","type":"address[]","internalType":"contract IERC20[]"},{"name":"amountOut","type":"uint256","internalType":"uint256"}],"outputs":[{"name":"amountIn","type":"uint256","internalType":"uint256"}],"stateMutability":"view"},{"type":"function","name":"quoteAmountOut","inputs":[{"name":"pools","type":"address","internalType":"contract IPools"},{"name":"tokens","type":"address[]","internalType":"contract IERC20[]"},{"name":"amountIn","type":"uint256","internalType":"uint256"}],"outputs":[{"name":"amountOut","type":"uint256","internalType":"uint256"}],"stateMutability":"view"},{"type":"function","name":"stableNonUserData","inputs":[{"name":"stableConfig","type":"address","internalType":"contract IStableConfig"},{"name":"stakingConfig","type":"address","internalType":"contract IStakingConfig"},{"name":"usds","type":"address","internalType":"contract IERC20"}],"outputs":[{"name":"minimumCollateralRatioPercent","type":"uint256","internalType":"uint256"},{"name":"modificationCooldown","type":"uint256","internalType":"uint256"},{"name":"big_minimumCollateralValueForBorrowing","type":"uint256","internalType":"uint256"},{"name":"big_usdsSupply","type":"uint256","internalType":"uint256"}],"stateMutability":"view"},{"type":"function","name":"stableUserData","inputs":[{"name":"collateralAndLiquidity","type":"address","internalType":"contract ICollateralAndLiquidity"},{"name":"wallet","type":"address","internalType":"address"}],"outputs":[{"name":"big_maxBorrowableUSDS","type":"uint256","internalType":"uint256"},{"name":"big_borrowedUSDS","type":"uint256","internalType":"uint256"},{"name":"big_maxWithdrawableCollateral","type":"uint256","internalType":"uint256"}],"stateMutability":"view"},{"type":"function","name":"stakingInfo","inputs":[{"name":"stakingConfig","type":"address","internalType":"contract IStakingConfig"}],"outputs":[{"name":"minUnstakePercent","type":"uint256","internalType":"uint256"},{"name":"minUnstakeWeeks","type":"uint256","internalType":"uint256"},{"name":"maxUnstakeWeeks","type":"uint256","internalType":"uint256"}],"stateMutability":"view"},{"type":"function","name":"stakingPercentAndAPR","inputs":[{"name":"salt","type":"address","internalType":"contract ISalt"},{"name":"staking","type":"address","internalType":"contract IStaking"},{"name":"rewardsConfig","type":"address","internalType":"contract IRewardsConfig"},{"name":"stakingRewardsEmitter","type":"address","internalType":"address"},{"name":"liquidityRewardsEmitter","type":"address","internalType":"address"},{"name":"emissions","type":"address","internalType":"address"},{"name":"daoVestingWallet","type":"address","internalType":"address"},{"name":"teamVestingWallet","type":"address","internalType":"address"}],"outputs":[{"name":"percentStakedTimes1000","type":"uint256","internalType":"uint256"},{"name":"stakingAPRTimes1000","type":"uint256","internalType":"uint256"}],"stateMutability":"view"},{"type":"function","name":"statsData","inputs":[{"name":"salt","type":"address","internalType":"contract ISalt"},{"name":"emissions","type":"address","internalType":"address"},{"name":"daoVestingWallet","type":"address","internalType":"address"},{"name":"teamVestingWallet","type":"address","internalType":"address"},{"name":"stakingRewardsEmitter","type":"address","internalType":"address"},{"name":"liquidityRewardsEmitter","type":"address","internalType":"address"},{"name":"staking","type":"address","internalType":"contract IStaking"},{"name":"rewardsConfig","type":"address","internalType":"contract IRewardsConfig"},{"name":"usds","type":"address","internalType":"contract IUSDS"}],"outputs":[{"name":"saltSupply","type":"uint256","internalType":"uint256"},{"name":"stakedSALT","type":"uint256","internalType":"uint256"},{"name":"burnedSALT","type":"uint256","internalType":"uint256"},{"name":"liquidityRewardsSalt","type":"uint256","internalType":"uint256"},{"name":"rewardsEmitterDailyPercentTimes1000","type":"uint256","internalType":"uint256"},{"name":"usdsSupply","type":"uint256","internalType":"uint256"}],"stateMutability":"view"},{"type":"function","name":"test","inputs":[],"outputs":[],"stateMutability":"nonpayable"},{"type":"function","name":"tokenDecimals","inputs":[{"name":"tokens","type":"address[]","internalType":"address[]"}],"outputs":[{"name":"","type":"uint256[]","internalType":"uint256[]"}],"stateMutability":"view"},{"type":"function","name":"tokenNames","inputs":[{"name":"tokens","type":"address[]","internalType":"address[]"}],"outputs":[{"name":"","type":"string[]","internalType":"string[]"}],"stateMutability":"view"},{"type":"function","name":"tokenSupplies","inputs":[{"name":"tokens","type":"address[]","internalType":"address[]"}],"outputs":[{"name":"","type":"uint256[]","internalType":"uint256[]"}],"stateMutability":"view"},{"type":"function","name":"underlyingTokens","inputs":[{"name":"poolsConfig","type":"address","internalType":"contract IPoolsConfig"},{"name":"poolIDs","type":"bytes32[]","internalType":"bytes32[]"}],"outputs":[{"name":"","type":"address[]","internalType":"address[]"}],"stateMutability":"view"},{"type":"function","name":"userBalances","inputs":[{"name":"wallet","type":"address","internalType":"address"},{"name":"tokenIDs","type":"address[]","internalType":"address[]"}],"outputs":[{"name":"","type":"uint256[]","internalType":"uint256[]"}],"stateMutability":"view"},{"type":"function","name":"userPoolInfo","inputs":[{"name":"wallet","type":"address","internalType":"address"},{"name":"collateralAndLiquidity","type":"address","internalType":"contract ICollateralAndLiquidity"},{"name":"poolIDs","type":"bytes32[]","internalType":"bytes32[]"},{"name":"tokens","type":"address[]","internalType":"address[]"}],"outputs":[{"name":"userCooldowns","type":"uint256[]","internalType":"uint256[]"},{"name":"userPoolShares","type":"uint256[]","internalType":"uint256[]"},{"name":"userRewardsForPools","type":"uint256[]","internalType":"uint256[]"},{"name":"userTokenBalances","type":"uint256[]","internalType":"uint256[]"}],"stateMutability":"view"},{"type":"function","name":"userStakingInfo","inputs":[{"name":"wallet","type":"address","internalType":"address"},{"name":"salt","type":"address","internalType":"contract ISalt"},{"name":"staking","type":"address","internalType":"contract IStaking"}],"outputs":[{"name":"allowance","type":"uint256","internalType":"uint256"},{"name":"saltBalance","type":"uint256","internalType":"uint256"},{"name":"xsaltBalance","type":"uint256","internalType":"uint256"},{"name":"pendingRewards","type":"uint256","internalType":"uint256"}],"stateMutability":"view"}],"bytecode":{"object":"0x608060405234801561001057600080fd5b50614027806100206000396000f3fe608060405234801561001057600080fd5b506004361061018d5760003560e01c806365dd1d6f116100e3578063b95031ea1161008c578063dfde1c6311610066578063dfde1c63146103cc578063ee4b85fe146103f2578063f8a8fd6d1461040557600080fd5b8063b95031ea14610386578063bc0f4056146103a6578063d0712271146103b957600080fd5b806394eecb50116100bd57806394eecb50146103055780639e6d261414610333578063b1db22a81461034657600080fd5b806365dd1d6f146102cc5780636637b570146102df578063772f3b99146102f257600080fd5b8063252c1e9d116101455780635942e4231161011f5780635942e4231461029357806362e83a06146102a657806363128e73146102b957600080fd5b8063252c1e9d1461021d5780634ac7f5361461023d578063587907311461026057600080fd5b80630c41bc8e116101765780630c41bc8e146101e35780630e1a5e90146102045780631e2ff94f1461021757600080fd5b80630517b6241461019257806306957966146101bb575b600080fd5b6101a56101a036600461340b565b610407565b6040516101b29190613497565b60405180910390f35b6101ce6101c93660046134aa565b610540565b604080519283526020830191909152016101b2565b6101f66101f1366004613553565b610809565b6040519081526020016101b2565b6101a56102123660046135d5565b610b89565b426101f6565b61023061022b366004613669565b610c99565b6040516101b291906136f6565b61025061024b366004613709565b610e32565b6040516101b29493929190613792565b61027361026e3660046137df565b611063565b6040805194855260208501939093529183015260608201526080016101b2565b6101f66102a136600461382a565b611236565b6101f66102b4366004613865565b6112ef565b6101a56102c736600461391c565b61151e565b6102736102da3660046137df565b61172d565b6101ce6102ed36600461397e565b611d93565b6101f66103003660046139b0565b611db0565b6103186103133660046139e9565b611dbc565b604080519384526020840192909252908201526060016101b2565b6103186103413660046139b0565b611f1a565b610359610354366004613a06565b6120e3565b604080519687526020870195909552938501929092526060840152608083015260a082015260c0016101b2565b6103996103943660046135d5565b61238b565b6040516101b29190613b74565b6102736103b43660046137df565b6124c0565b6101a56103c73660046135d5565b6127ae565b6103df6103da366004613b87565b6128ba565b6040516101b29796959493929190613c20565b6101f6610400366004613865565b612ae4565b005b60606000825167ffffffffffffffff811115610425576104256132f1565b60405190808252806020026020018201604052801561044e578160200160208202803683370190505b50905060005b835181101561053657600084828151811061047157610471613caa565b60209081029190910101516040517f70a0823100000000000000000000000000000000000000000000000000000000815273ffffffffffffffffffffffffffffffffffffffff8881166004830152919250908216906370a0823190602401602060405180830381865afa1580156104ec573d6000803e3d6000fd5b505050506040513d601f19601f820116820180604052508101906105109190613cd9565b83838151811061052257610522613caa565b602090810291909101015250600101610454565b5090505b92915050565b6040517f70a0823100000000000000000000000000000000000000000000000000000000815273ffffffffffffffffffffffffffffffffffffffff868116600483015260009182918b16906370a0823190602401602060405180830381865afa1580156105b1573d6000803e3d6000fd5b505050506040513d601f19601f820116820180604052508101906105d59190613cd9565b6000036105e7575060009050806107fc565b60006105f78b8787878c8c610809565b6040517f12e8d59400000000000000000000000000000000000000000000000000000000815260006004820181905291925073ffffffffffffffffffffffffffffffffffffffff8c16906312e8d59490602401602060405180830381865afa158015610667573d6000803e3d6000fd5b505050506040513d601f19601f8201168201806040525081019061068b9190613cd9565b9050806000036106a3576000809350935050506107fc565b816106af826064613d21565b6106bb906103e8613d21565b6106c59190613d67565b6040517f70a0823100000000000000000000000000000000000000000000000000000000815273ffffffffffffffffffffffffffffffffffffffff8b811660048301529195506000918e16906370a0823190602401602060405180830381865afa158015610737573d6000803e3d6000fd5b505050506040513d601f19601f8201168201806040525081019061075b9190613cd9565b905060008b73ffffffffffffffffffffffffffffffffffffffff1663dab2e5c36040518163ffffffff1660e01b8152600401602060405180830381865afa1580156107aa573d6000803e3d6000fd5b505050506040513d601f19601f820116820180604052508101906107ce9190613cd9565b905060006107dc8284613d21565b6107e89061016d613d21565b90506107f48482613d67565b955050505050505b9850989650505050505050565b6040517f70a0823100000000000000000000000000000000000000000000000000000000815273ffffffffffffffffffffffffffffffffffffffff8281166004830152600091908816906370a0823190602401602060405180830381865afa158015610879573d6000803e3d6000fd5b505050506040513d601f19601f8201168201806040525081019061089d9190613cd9565b6040517f70a0823100000000000000000000000000000000000000000000000000000000815273ffffffffffffffffffffffffffffffffffffffff85811660048301528916906370a0823190602401602060405180830381865afa158015610909573d6000803e3d6000fd5b505050506040513d601f19601f8201168201806040525081019061092d9190613cd9565b6040517f70a0823100000000000000000000000000000000000000000000000000000000815273ffffffffffffffffffffffffffffffffffffffff87811660048301528a16906370a0823190602401602060405180830381865afa158015610999573d6000803e3d6000fd5b505050506040513d601f19601f820116820180604052508101906109bd9190613cd9565b6040517f70a0823100000000000000000000000000000000000000000000000000000000815273ffffffffffffffffffffffffffffffffffffffff89811660048301528b16906370a0823190602401602060405180830381865afa158015610a29573d6000803e3d6000fd5b505050506040513d601f19601f82011682018060405250810190610a4d9190613cd9565b6040517f70a0823100000000000000000000000000000000000000000000000000000000815273ffffffffffffffffffffffffffffffffffffffff8b811660048301528c16906370a0823190602401602060405180830381865afa158015610ab9573d6000803e3d6000fd5b505050506040513d601f19601f82011682018060405250810190610add9190613cd9565b8b73ffffffffffffffffffffffffffffffffffffffff166318160ddd6040518163ffffffff1660e01b8152600401602060405180830381865afa158015610b28573d6000803e3d6000fd5b505050506040513d601f19601f82011682018060405250810190610b4c9190613cd9565b610b569190613da2565b610b609190613da2565b610b6a9190613da2565b610b749190613da2565b610b7e9190613da2565b979650505050505050565b60606000825167ffffffffffffffff811115610ba757610ba76132f1565b604051908082528060200260200182016040528015610bd0578160200160208202803683370190505b50905060005b8351811015610c92576000848281518110610bf357610bf3613caa565b602002602001015190508073ffffffffffffffffffffffffffffffffffffffff166318160ddd6040518163ffffffff1660e01b8152600401602060405180830381865afa158015610c48573d6000803e3d6000fd5b505050506040513d601f19601f82011682018060405250810190610c6c9190613cd9565b838381518110610c7e57610c7e613caa565b602090810291909101015250600101610bd6565b5092915050565b6060600082516002610cab9190613d21565b67ffffffffffffffff811115610cc357610cc36132f1565b604051908082528060200260200182016040528015610cec578160200160208202803683370190505b5090506000805b8451811015610e28576000808773ffffffffffffffffffffffffffffffffffffffff1663c2fb9aac888581518110610d2d57610d2d613caa565b60200260200101516040518263ffffffff1660e01b8152600401610d5391815260200190565b6040805180830381865afa158015610d6f573d6000803e3d6000fd5b505050506040513d601f19601f82011682018060405250810190610d939190613db5565b9150915081858580610da490613de4565b965081518110610db657610db6613caa565b73ffffffffffffffffffffffffffffffffffffffff90921660209283029190910190910152808585610de781613de4565b965081518110610df957610df9613caa565b73ffffffffffffffffffffffffffffffffffffffff909216602092830291909101909101525050600101610cf3565b5090949350505050565b6060806060808673ffffffffffffffffffffffffffffffffffffffff166338c5636489886040518363ffffffff1660e01b8152600401610e73929190613e1c565b600060405180830381865afa158015610e90573d6000803e3d6000fd5b505050506040513d6000823e601f3d9081017fffffffffffffffffffffffffffffffffffffffffffffffffffffffffffffffe0168201604052610ed69190810190613e4b565b6040517f7982489300000000000000000000000000000000000000000000000000000000815290945073ffffffffffffffffffffffffffffffffffffffff881690637982489390610f2d908b908a90600401613e1c565b600060405180830381865afa158015610f4a573d6000803e3d6000fd5b505050506040513d6000823e601f3d9081017fffffffffffffffffffffffffffffffffffffffffffffffffffffffffffffffe0168201604052610f909190810190613e4b565b6040517f70c512d200000000000000000000000000000000000000000000000000000000815290935073ffffffffffffffffffffffffffffffffffffffff8816906370c512d290610fe7908b908a90600401613e1c565b600060405180830381865afa158015611004573d6000803e3d6000fd5b505050506040513d6000823e601f3d9081017fffffffffffffffffffffffffffffffffffffffffffffffffffffffffffffffe016820160405261104a9190810190613e4b565b91506110568886610407565b9050945094509450949050565b6000806000808673ffffffffffffffffffffffffffffffffffffffff16637fb93ade6040518163ffffffff1660e01b8152600401602060405180830381865afa1580156110b4573d6000803e3d6000fd5b505050506040513d601f19601f820116820180604052508101906110d89190613cd9565b93508573ffffffffffffffffffffffffffffffffffffffff16639852e4196040518163ffffffff1660e01b8152600401602060405180830381865afa158015611125573d6000803e3d6000fd5b505050506040513d601f19601f820116820180604052508101906111499190613cd9565b92508673ffffffffffffffffffffffffffffffffffffffff1663ac5d15356040518163ffffffff1660e01b8152600401602060405180830381865afa158015611196573d6000803e3d6000fd5b505050506040513d601f19601f820116820180604052508101906111ba9190613cd9565b91508473ffffffffffffffffffffffffffffffffffffffff166318160ddd6040518163ffffffff1660e01b8152600401602060405180830381865afa158015611207573d6000803e3d6000fd5b505050506040513d601f19601f8201168201806040525081019061122b9190613cd9565b905093509350935093565b600060648610806112475750606485105b1561125d576112568385613ed1565b90506112e6565b60008661126a8688613d21565b6112749190613d67565b9050600080858311156112a0578761128c878b613d21565b6112969190613d67565b91508590506112a6565b50859050815b808211156112ca57886112b98387613d21565b6112c39190613d67565b93506112e2565b876112d58287613d21565b6112df9190613d67565b93505b5050505b95945050505050565b6000600283511015611388576040517f08c379a000000000000000000000000000000000000000000000000000000000815260206004820152602560248201527f4d7573742068617665206174206c656173742074776f20746f6b656e7320737760448201527f617070656400000000000000000000000000000000000000000000000000000060648201526084015b60405180910390fd5b600083600185516113999190613da2565b815181106113a9576113a9613caa565b60200260200101519050600080600290505b8551811161151357858187516113d19190613da2565b815181106113e1576113e1613caa565b602002602001015191506000808873ffffffffffffffffffffffffffffffffffffffff1663d4469c3e85876040518363ffffffff1660e01b815260040161144b92919073ffffffffffffffffffffffffffffffffffffffff92831681529116602082015260400190565b6040805180830381865afa158015611467573d6000803e3d6000fd5b505050506040513d601f19601f8201168201806040525081019061148b9190613ee4565b915091506064821115806114a0575060648111155b806114ab5750808710155b806114b65750606487105b156114c957600095505050505050611517565b60006114d58284613d21565b9050826114eb826114e68b86613da2565b612cde565b6114f59190613da2565b9650849550869750505050808061150b90613de4565b9150506113bb565b5050505b9392505050565b60606000825160026115309190613d21565b67ffffffffffffffff811115611548576115486132f1565b604051908082528060200260200182016040528015611571578160200160208202803683370190505b5090506000805b8451811015611722576000808773ffffffffffffffffffffffffffffffffffffffff1663c2fb9aac8885815181106115b2576115b2613caa565b60200260200101516040518263ffffffff1660e01b81526004016115d891815260200190565b6040805180830381865afa1580156115f4573d6000803e3d6000fd5b505050506040513d601f19601f820116820180604052508101906116189190613db5565b6040517fd4469c3e00000000000000000000000000000000000000000000000000000000815273ffffffffffffffffffffffffffffffffffffffff808416600483015280831660248301529294509092506000918291908c169063d4469c3e906044016040805180830381865afa158015611697573d6000803e3d6000fd5b505050506040513d601f19601f820116820180604052508101906116bb9190613ee4565b91509150818787806116cc90613de4565b9850815181106116de576116de613caa565b60209081029190910101528087876116f581613de4565b98508151811061170757611707613caa565b60209081029190910101525050600190920191506115789050565b509095945050505050565b6000806000808473ffffffffffffffffffffffffffffffffffffffff16635ba7c62e6040518163ffffffff1660e01b8152600401602060405180830381865afa15801561177e573d6000803e3d6000fd5b505050506040513d601f19601f820116820180604052508101906117a29190613cd9565b93508473ffffffffffffffffffffffffffffffffffffffff1663039ba6be6040518163ffffffff1660e01b8152600401602060405180830381865afa1580156117ef573d6000803e3d6000fd5b505050506040513d601f19601f820116820180604052508101906118139190613cd9565b925060008673ffffffffffffffffffffffffffffffffffffffff16633cdc53896040518163ffffffff1660e01b8152600401602060405180830381865afa158015611862573d6000803e3d6000fd5b505050506040513d601f19601f820116820180604052508101906118869190613f08565b905060008773ffffffffffffffffffffffffffffffffffffffff16633fc8cef36040518163ffffffff1660e01b8152600401602060405180830381865afa1580156118d5573d6000803e3d6000fd5b505050506040513d601f19601f820116820180604052508101906118f99190613f08565b905060008873ffffffffffffffffffffffffffffffffffffffff1663bfa0b1336040518163ffffffff1660e01b8152600401602060405180830381865afa158015611948573d6000803e3d6000fd5b505050506040513d601f19601f8201168201806040525081019061196c9190613f08565b905060008973ffffffffffffffffffffffffffffffffffffffff16634cf282fb6040518163ffffffff1660e01b8152600401602060405180830381865afa1580156119bb573d6000803e3d6000fd5b505050506040513d601f19601f820116820180604052508101906119df9190613f08565b6040517fd4469c3e00000000000000000000000000000000000000000000000000000000815273ffffffffffffffffffffffffffffffffffffffff848116600483015286811660248301529192506000918291908e169063d4469c3e906044016040805180830381865afa158015611a5b573d6000803e3d6000fd5b505050506040513d601f19601f82011682018060405250810190611a7f9190613ee4565b915091506000808e73ffffffffffffffffffffffffffffffffffffffff1663d4469c3e87896040518363ffffffff1660e01b8152600401611ae392919073ffffffffffffffffffffffffffffffffffffffff92831681529116602082015260400190565b6040805180830381865afa158015611aff573d6000803e3d6000fd5b505050506040513d601f19601f82011682018060405250810190611b239190613ee4565b915091506064841115611bb1576064821115611bb157600084611b468e86613d21565b611b55906402540be400613d21565b611b5f9190613d67565b9050600083611b6e8e85613d21565b611b789190613d67565b9050611b848487613ed1565b611b8e8583613d21565b611b988885613d21565b611ba29190613ed1565b611bac9190613d67565b9b5050505b8e73ffffffffffffffffffffffffffffffffffffffff1663d4469c3e868a6040518363ffffffff1660e01b8152600401611c0e92919073ffffffffffffffffffffffffffffffffffffffff92831681529116602082015260400190565b6040805180830381865afa158015611c2a573d6000803e3d6000fd5b505050506040513d601f19601f82011682018060405250810190611c4e9190613ee4565b80945081955050508e73ffffffffffffffffffffffffffffffffffffffff1663d4469c3e86896040518363ffffffff1660e01b8152600401611cb392919073ffffffffffffffffffffffffffffffffffffffff92831681529116602082015260400190565b6040805180830381865afa158015611ccf573d6000803e3d6000fd5b505050506040513d601f19601f82011682018060405250810190611cf39190613ee4565b90925090506064841115611d82576064821115611d8257600084611d178e86613d21565b611d26906402540be400613d21565b611d309190613d67565b9050600083611d3f8e85613d21565b611d499190613d67565b9050611d558487613ed1565b611d5f8583613d21565b611d698885613d21565b611d739190613ed1565b611d7d9190613d67565b9a5050505b505050505050505093509350935093565b600080611da286868686612d15565b915091505b94509492505050565b60006115178383612d90565b60008060008373ffffffffffffffffffffffffffffffffffffffff166340cf22746040518163ffffffff1660e01b8152600401602060405180830381865afa158015611e0c573d6000803e3d6000fd5b505050506040513d601f19601f82011682018060405250810190611e309190613cd9565b92508373ffffffffffffffffffffffffffffffffffffffff166390d609656040518163ffffffff1660e01b8152600401602060405180830381865afa158015611e7d573d6000803e3d6000fd5b505050506040513d601f19601f82011682018060405250810190611ea19190613cd9565b91508373ffffffffffffffffffffffffffffffffffffffff16631d3703806040518163ffffffff1660e01b8152600401602060405180830381865afa158015611eee573d6000803e3d6000fd5b505050506040513d601f19601f82011682018060405250810190611f129190613cd9565b929491935050565b6040517f3d6550da00000000000000000000000000000000000000000000000000000000815273ffffffffffffffffffffffffffffffffffffffff82811660048301526000918291829190861690633d6550da90602401602060405180830381865afa158015611f8e573d6000803e3d6000fd5b505050506040513d601f19601f82011682018060405250810190611fb29190613cd9565b6040517f6ec2d94200000000000000000000000000000000000000000000000000000000815273ffffffffffffffffffffffffffffffffffffffff868116600483015291945090861690636ec2d94290602401602060405180830381865afa158015612022573d6000803e3d6000fd5b505050506040513d601f19601f820116820180604052508101906120469190613cd9565b6040517fc93853af00000000000000000000000000000000000000000000000000000000815273ffffffffffffffffffffffffffffffffffffffff86811660048301529193509086169063c93853af90602401602060405180830381865afa1580156120b6573d6000803e3d6000fd5b505050506040513d601f19601f820116820180604052508101906120da9190613cd9565b90509250925092565b6000806000806000806120fa8f8f8f8f8f8f610809565b6040517f12e8d5940000000000000000000000000000000000000000000000000000000081526000600482015290965073ffffffffffffffffffffffffffffffffffffffff8a16906312e8d59490602401602060405180830381865afa158015612168573d6000803e3d6000fd5b505050506040513d601f19601f8201168201806040525081019061218c9190613cd9565b94508e73ffffffffffffffffffffffffffffffffffffffff1663d89135cd6040518163ffffffff1660e01b8152600401602060405180830381865afa1580156121d9573d6000803e3d6000fd5b505050506040513d601f19601f820116820180604052508101906121fd9190613cd9565b93508e73ffffffffffffffffffffffffffffffffffffffff166370a082318b6040518263ffffffff1660e01b8152600401612254919073ffffffffffffffffffffffffffffffffffffffff91909116815260200190565b602060405180830381865afa158015612271573d6000803e3d6000fd5b505050506040513d601f19601f820116820180604052508101906122959190613cd9565b92508773ffffffffffffffffffffffffffffffffffffffff1663dab2e5c36040518163ffffffff1660e01b8152600401602060405180830381865afa1580156122e2573d6000803e3d6000fd5b505050506040513d601f19601f820116820180604052508101906123069190613cd9565b91508673ffffffffffffffffffffffffffffffffffffffff166318160ddd6040518163ffffffff1660e01b8152600401602060405180830381865afa158015612353573d6000803e3d6000fd5b505050506040513d601f19601f820116820180604052508101906123779190613cd9565b905099509950995099509950999350505050565b60606000825167ffffffffffffffff8111156123a9576123a96132f1565b6040519080825280602002602001820160405280156123dc57816020015b60608152602001906001900390816123c75790505b50905060005b8351811015610c925760008482815181106123ff576123ff613caa565b602002602001015190508073ffffffffffffffffffffffffffffffffffffffff166395d89b416040518163ffffffff1660e01b8152600401600060405180830381865afa158015612454573d6000803e3d6000fd5b505050506040513d6000823e601f3d9081017fffffffffffffffffffffffffffffffffffffffffffffffffffffffffffffffe016820160405261249a9190810190613f25565b8383815181106124ac576124ac613caa565b6020908102919091010152506001016123e2565b6040517fdd62ed3e00000000000000000000000000000000000000000000000000000000815273ffffffffffffffffffffffffffffffffffffffff8481166004830152828116602483015260009182918291829187169063dd62ed3e90604401602060405180830381865afa15801561253d573d6000803e3d6000fd5b505050506040513d601f19601f820116820180604052508101906125619190613cd9565b6040517f70a0823100000000000000000000000000000000000000000000000000000000815273ffffffffffffffffffffffffffffffffffffffff8981166004830152919550908716906370a0823190602401602060405180830381865afa1580156125d1573d6000803e3d6000fd5b505050506040513d601f19601f820116820180604052508101906125f59190613cd9565b6040517f8f36804500000000000000000000000000000000000000000000000000000000815273ffffffffffffffffffffffffffffffffffffffff898116600483015291945090861690638f36804590602401602060405180830381865afa158015612665573d6000803e3d6000fd5b505050506040513d601f19601f820116820180604052508101906126899190613cd9565b60408051600180825281830190925291935060009190602080830190803683370190505090506000801b816000815181106126c6576126c6613caa565b60209081029190910101526040517f70c512d200000000000000000000000000000000000000000000000000000000815273ffffffffffffffffffffffffffffffffffffffff8716906370c512d290612725908b908590600401613e1c565b600060405180830381865afa158015612742573d6000803e3d6000fd5b505050506040513d6000823e601f3d9081017fffffffffffffffffffffffffffffffffffffffffffffffffffffffffffffffe01682016040526127889190810190613e4b565b60008151811061279a5761279a613caa565b602002602001015191505093509350935093565b60606000825167ffffffffffffffff8111156127cc576127cc6132f1565b6040519080825280602002602001820160405280156127f5578160200160208202803683370190505b50905060005b8351811015610c9257600084828151811061281857612818613caa565b602002602001015190508073ffffffffffffffffffffffffffffffffffffffff1663313ce5676040518163ffffffff1660e01b8152600401602060405180830381865afa15801561286d573d6000803e3d6000fd5b505050506040513d601f19601f820116820180604052508101906128919190613fce565b60ff168383815181106128a6576128a6613caa565b6020908102919091010152506001016127fb565b60608060608060608060006128cf8a89610c99565b96506128da8761238b565b95506128e5876127ae565b94506128f28b8b8a61151e565b6040517f9f71cc3d00000000000000000000000000000000000000000000000000000000815290945073ffffffffffffffffffffffffffffffffffffffff8e1690639f71cc3d90612947908b90600401613497565b600060405180830381865afa158015612964573d6000803e3d6000fd5b505050506040513d6000823e601f3d9081017fffffffffffffffffffffffffffffffffffffffffffffffffffffffffffffffe01682016040526129aa9190810190613e4b565b6040517ff626d8dd00000000000000000000000000000000000000000000000000000000815290935073ffffffffffffffffffffffffffffffffffffffff8d169063f626d8dd906129ff908b90600401613497565b600060405180830381865afa158015612a1c573d6000803e3d6000fd5b505050506040513d6000823e601f3d9081017fffffffffffffffffffffffffffffffffffffffffffffffffffffffffffffffe0168201604052612a629190810190613e4b565b91508873ffffffffffffffffffffffffffffffffffffffff1663dab2e5c36040518163ffffffff1660e01b8152600401602060405180830381865afa158015612aaf573d6000803e3d6000fd5b505050506040513d601f19601f82011682018060405250810190612ad39190613cd9565b905096509650965096509650965096565b6000600283511015612b78576040517f08c379a000000000000000000000000000000000000000000000000000000000815260206004820152602560248201527f4d7573742068617665206174206c656173742074776f20746f6b656e7320737760448201527f6170706564000000000000000000000000000000000000000000000000000000606482015260840161137f565b600083600081518110612b8d57612b8d613caa565b60200260200101519050600080600190505b855181101561151357858181518110612bba57612bba613caa565b602002602001015191506000808873ffffffffffffffffffffffffffffffffffffffff1663d4469c3e86866040518363ffffffff1660e01b8152600401612c2492919073ffffffffffffffffffffffffffffffffffffffff92831681529116602082015260400190565b6040805180830381865afa158015612c40573d6000803e3d6000fd5b505050506040513d601f19601f82011682018060405250810190612c649190613ee4565b91509150606482111580612c79575060648111155b80612c85575060648711155b15612c9857600095505050505050611517565b6000612ca48284613d21565b9050612cb08884613ed1565b9250612cbc8382613d67565b612cc69083613da2565b96508495508697505050508080600101915050612b9f565b60008215612d0c5781612cf2600185613da2565b612cfc9190613d67565b612d07906001613ed1565b611517565b50600092915050565b600080612d228387613d21565b612d2c8686613d21565b1115612d4557612d3e86868686612e79565b9150600090505b612d4f8387613d21565b612d598686613d21565b1015612d73576000612d6d86888688612e79565b90925090505b83821180612d8057508281115b15611da757506000905080611da7565b60008273ffffffffffffffffffffffffffffffffffffffff168273ffffffffffffffffffffffffffffffffffffffff161015612e1f576040517fffffffffffffffffffffffffffffffffffffffff000000000000000000000000606084811b8216602084015285901b16603482015260480160405160208183030381529060405280519060200120905061053a565b6040517fffffffffffffffffffffffffffffffffffffffff000000000000000000000000606085811b8216602084015284901b16603482015260480160405160208183030381529060405280519060200120905092915050565b600080612e8886868686612fdf565b905060006050821115612ea357612ea0605083613da2565b90505b86811c86821c86831c86841c6064841015612ec75760009650505050505050612fd7565b6064831015612edf5760009650505050505050612fd7565b6064821015612f00576064811015612f005760009650505050505050612fd7565b60016000612f0f866002613d21565b90506000612f1d8487613ed1565b612f278589613d21565b612f318789613d21565b612f3b9190613da2565b612f459089613d21565b612f4f9190613d67565b9050600081612f5f856004613d21565b612f699190613d21565b612f738480613d21565b612f7d9190613ed1565b90506000612f8a8261303c565b905080841115612fa85760009b505050505050505050505050612fd7565b612fb3856002613d21565b612fbd8583613da2565b612fc79190613d67565b90991b9a50505050505050505050505b949350505050565b6000612fea85613124565b90506000612ff785613124565b905081811115613005578091505b61300e84613124565b90508181111561301c578091505b61302583613124565b905081811115613033578091505b50949350505050565b60008160000361304e57506000919050565b6000600161305b84613222565b901c6001901b9050600181848161307457613074613d38565b048201901c9050600181848161308c5761308c613d38565b048201901c905060018184816130a4576130a4613d38565b048201901c905060018184816130bc576130bc613d38565b048201901c905060018184816130d4576130d4613d38565b048201901c905060018184816130ec576130ec613d38565b048201901c9050600181848161310457613104613d38565b048201901c90506115178182858161311e5761311e613d38565b046132b6565b6000700100000000000000000000000000000000821061315157608091821c9161314e9082613ed1565b90505b68010000000000000000821061317457604091821c916131719082613ed1565b90505b640100000000821061319357602091821c916131909082613ed1565b90505b6201000082106131b057601091821c916131ad9082613ed1565b90505b61010082106131cc57600891821c916131c99082613ed1565b90505b601082106131e757600491821c916131e49082613ed1565b90505b6004821061320257600291821c916131ff9082613ed1565b90505b6002821061321d57600191821c9161321a9082613ed1565b90505b919050565b600080608083901c1561323757608092831c92015b604083901c1561324957604092831c92015b602083901c1561325b57602092831c92015b601083901c1561326d57601092831c92015b600883901c1561327f57600892831c92015b600483901c1561329157600492831c92015b600283901c156132a357600292831c92015b600183901c1561053a5760010192915050565b60008183106132c55781611517565b5090919050565b73ffffffffffffffffffffffffffffffffffffffff811681146132ee57600080fd5b50565b7f4e487b7100000000000000000000000000000000000000000000000000000000600052604160045260246000fd5b604051601f82017fffffffffffffffffffffffffffffffffffffffffffffffffffffffffffffffe016810167ffffffffffffffff81118282101715613367576133676132f1565b604052919050565b600067ffffffffffffffff821115613389576133896132f1565b5060051b60200190565b600082601f8301126133a457600080fd5b813560206133b96133b48361336f565b613320565b8083825260208201915060208460051b8701019350868411156133db57600080fd5b602086015b848110156134005780356133f3816132cc565b83529183019183016133e0565b509695505050505050565b6000806040838503121561341e57600080fd5b8235613429816132cc565b9150602083013567ffffffffffffffff81111561344557600080fd5b61345185828601613393565b9150509250929050565b60008151808452602080850194506020840160005b8381101561348c57815187529582019590820190600101613470565b509495945050505050565b602081526000611517602083018461345b565b600080600080600080600080610100898b0312156134c757600080fd5b88356134d2816132cc565b975060208901356134e2816132cc565b965060408901356134f2816132cc565b95506060890135613502816132cc565b94506080890135613512816132cc565b935060a0890135613522816132cc565b925060c0890135613532816132cc565b915060e0890135613542816132cc565b809150509295985092959890939650565b60008060008060008060c0878903121561356c57600080fd5b8635613577816132cc565b95506020870135613587816132cc565b94506040870135613597816132cc565b935060608701356135a7816132cc565b925060808701356135b7816132cc565b915060a08701356135c7816132cc565b809150509295509295509295565b6000602082840312156135e757600080fd5b813567ffffffffffffffff8111156135fe57600080fd5b612fd784828501613393565b600082601f83011261361b57600080fd5b8135602061362b6133b48361336f565b8083825260208201915060208460051b87010193508684111561364d57600080fd5b602086015b848110156134005780358352918301918301613652565b6000806040838503121561367c57600080fd5b8235613687816132cc565b9150602083013567ffffffffffffffff8111156136a357600080fd5b6134518582860161360a565b60008151808452602080850194506020840160005b8381101561348c57815173ffffffffffffffffffffffffffffffffffffffff16875295820195908201906001016136c4565b60208152600061151760208301846136af565b6000806000806080858703121561371f57600080fd5b843561372a816132cc565b9350602085013561373a816132cc565b9250604085013567ffffffffffffffff8082111561375757600080fd5b6137638883890161360a565b9350606087013591508082111561377957600080fd5b5061378687828801613393565b91505092959194509250565b6080815260006137a5608083018761345b565b82810360208401526137b7818761345b565b905082810360408401526137cb818661345b565b90508281036060840152610b7e818561345b565b6000806000606084860312156137f457600080fd5b83356137ff816132cc565b9250602084013561380f816132cc565b9150604084013561381f816132cc565b809150509250925092565b600080600080600060a0868803121561384257600080fd5b505083359560208501359550604085013594606081013594506080013592509050565b60008060006060848603121561387a57600080fd5b8335613885816132cc565b925060208481013567ffffffffffffffff8111156138a257600080fd5b8501601f810187136138b357600080fd5b80356138c16133b48261336f565b81815260059190911b820183019083810190898311156138e057600080fd5b928401925b828410156139075783356138f8816132cc565b825292840192908401906138e5565b96999698505050506040949094013593505050565b60008060006060848603121561393157600080fd5b833561393c816132cc565b9250602084013561394c816132cc565b9150604084013567ffffffffffffffff81111561396857600080fd5b6139748682870161360a565b9150509250925092565b6000806000806080858703121561399457600080fd5b5050823594602084013594506040840135936060013592509050565b600080604083850312156139c357600080fd5b82356139ce816132cc565b915060208301356139de816132cc565b809150509250929050565b6000602082840312156139fb57600080fd5b8135611517816132cc565b60008060008060008060008060006101208a8c031215613a2557600080fd5b8935613a30816132cc565b985060208a0135613a40816132cc565b975060408a0135613a50816132cc565b965060608a0135613a60816132cc565b955060808a0135613a70816132cc565b945060a08a0135613a80816132cc565b935060c08a0135613a90816132cc565b925060e08a0135613aa0816132cc565b91506101008a0135613ab1816132cc565b809150509295985092959850929598565b60005b83811015613add578181015183820152602001613ac5565b50506000910152565b600082825180855260208086019550808260051b84010181860160005b84811015613b67577fffffffffffffffffffffffffffffffffffffffffffffffffffffffffffffffe080878503018a5282518051808652613b4981888801898501613ac2565b9a86019a601f01909116939093018401925090830190600101613b03565b5090979650505050505050565b6020815260006115176020830184613ae6565b60008060008060008060c08789031215613ba057600080fd5b8635613bab816132cc565b95506020870135613bbb816132cc565b94506040870135613bcb816132cc565b93506060870135613bdb816132cc565b92506080870135613beb816132cc565b915060a087013567ffffffffffffffff811115613c0757600080fd5b613c1389828a0161360a565b9150509295509295509295565b60e081526000613c3360e083018a6136af565b8281036020840152613c45818a613ae6565b90508281036040840152613c59818961345b565b90508281036060840152613c6d818861345b565b90508281036080840152613c81818761345b565b905082810360a0840152613c95818661345b565b9150508260c083015298975050505050505050565b7f4e487b7100000000000000000000000000000000000000000000000000000000600052603260045260246000fd5b600060208284031215613ceb57600080fd5b5051919050565b7f4e487b7100000000000000000000000000000000000000000000000000000000600052601160045260246000fd5b808202811582820484141761053a5761053a613cf2565b7f4e487b7100000000000000000000000000000000000000000000000000000000600052601260045260246000fd5b600082613d9d577f4e487b7100000000000000000000000000000000000000000000000000000000600052601260045260246000fd5b500490565b8181038181111561053a5761053a613cf2565b60008060408385031215613dc857600080fd5b8251613dd3816132cc565b60208401519092506139de816132cc565b60007fffffffffffffffffffffffffffffffffffffffffffffffffffffffffffffffff8203613e1557613e15613cf2565b5060010190565b73ffffffffffffffffffffffffffffffffffffffff83168152604060208201526000612fd7604083018461345b565b60006020808385031215613e5e57600080fd5b825167ffffffffffffffff811115613e7557600080fd5b8301601f81018513613e8657600080fd5b8051613e946133b48261336f565b81815260059190911b82018301908381019087831115613eb357600080fd5b928401925b82841015610b7e57835182529284019290840190613eb8565b8082018082111561053a5761053a613cf2565b60008060408385031215613ef757600080fd5b505080516020909101519092909150565b600060208284031215613f1a57600080fd5b8151611517816132cc565b600060208284031215613f3757600080fd5b815167ffffffffffffffff80821115613f4f57600080fd5b818401915084601f830112613f6357600080fd5b815181811115613f7557613f756132f1565b613fa660207fffffffffffffffffffffffffffffffffffffffffffffffffffffffffffffffe0601f84011601613320565b9150808252856020828501011115613fbd57600080fd5b613033816020840160208601613ac2565b600060208284031215613fe057600080fd5b815160ff8116811461151757600080fdfea26469706673582212205d149136979ad8d0847759dd505ba3070d0475c29fc76f3de7700e5346f70d1064736f6c63430008160033","linkReferences":{}},"methodIdentifiers":{"circulatingSALT(address,address,address,address,address,address)":"0c41bc8e","corePrices(address,address,address)":"65dd1d6f","currentTimestamp()":"1e2ff94f","determineZapSwapAmount(uint256,uint256,uint256,uint256)":"6637b570","estimateAddedLiquidity(uint256,uint256,uint256,uint256,uint256)":"5942e423","nonUserPoolInfo(address,address,address,address,address,bytes32[])":"dfde1c63","poolID(address,address)":"772f3b99","poolReserves(address,address,bytes32[])":"63128e73","quoteAmountIn(address,address[],uint256)":"62e83a06","quoteAmountOut(address,address[],uint256)":"ee4b85fe","stableNonUserData(address,address,address)":"58790731","stableUserData(address,address)":"9e6d2614","stakingInfo(address)":"94eecb50","stakingPercentAndAPR(address,address,address,address,address,address,address,address)":"06957966","statsData(address,address,address,address,address,address,address,address,address)":"b1db22a8","test()":"f8a8fd6d","tokenDecimals(address[])":"d0712271","tokenNames(address[])":"b95031ea","tokenSupplies(address[])":"0e1a5e90","underlyingTokens(address,bytes32[])":"252c1e9d","userBalances(address,address[])":"0517b624","userPoolInfo(address,address,bytes32[],address[])":"4ac7f536","userStakingInfo(address,address,address)":"bc0f4056"},"id":71}