{"abi":[{"type":"function","name":"absoluteDifference","inputs":[{"name":"x","type":"uint256","internalType":"uint256"},{"name":"y","type":"uint256","internalType":"uint256"}],"outputs":[{"name":"","type":"uint256","internalType":"uint256"}],"stateMutability":"pure"},{"type":"function","name":"aggregatePrices","inputs":[{"name":"price1","type":"uint256","internalType":"uint256"},{"name":"price2","type":"uint256","internalType":"uint256"},{"name":"price3","type":"uint256","internalType":"uint256"}],"outputs":[{"name":"","type":"uint256","internalType":"uint256"}],"stateMutability":"view"},{"type":"function","name":"changeMaximumPriceFeedPercentDifferenceTimes1000","inputs":[{"name":"increase","type":"bool","internalType":"bool"}],"outputs":[],"stateMutability":"nonpayable"},{"type":"function","name":"changePriceFeedModificationCooldown","inputs":[{"name":"increase","type":"bool","internalType":"bool"}],"outputs":[],"stateMutability":"nonpayable"},{"type":"function","name":"getPriceBTC","inputs":[],"outputs":[{"name":"price","type":"uint256","internalType":"uint256"}],"stateMutability":"view"},{"type":"function","name":"getPriceETH","inputs":[],"outputs":[{"name":"price","type":"uint256","internalType":"uint256"}],"stateMutability":"view"},{"type":"function","name":"maximumPriceFeedPercentDifferenceTimes1000","inputs":[],"outputs":[{"name":"","type":"uint256","internalType":"uint256"}],"stateMutability":"view"},{"type":"function","name":"owner","inputs":[],"outputs":[{"name":"","type":"address","internalType":"address"}],"stateMutability":"view"},{"type":"function","name":"priceFeed1","inputs":[],"outputs":[{"name":"","type":"address","internalType":"contract IPriceFeed"}],"stateMutability":"view"},{"type":"function","name":"priceFeed2","inputs":[],"outputs":[{"name":"","type":"address","internalType":"contract IPriceFeed"}],"stateMutability":"view"},{"type":"function","name":"priceFeed3","inputs":[],"outputs":[{"name":"","type":"address","internalType":"contract IPriceFeed"}],"stateMutability":"view"},{"type":"function","name":"priceFeedModificationCooldown","inputs":[],"outputs":[{"name":"","type":"uint256","internalType":"uint256"}],"stateMutability":"view"},{"type":"function","name":"priceFeedModificationCooldownExpiration","inputs":[],"outputs":[{"name":"","type":"uint256","internalType":"uint256"}],"stateMutability":"view"},{"type":"function","name":"renounceOwnership","inputs":[],"outputs":[],"stateMutability":"nonpayable"},{"type":"function","name":"setInitialFeeds","inputs":[{"name":"_priceFeed1","type":"address","internalType":"contract IPriceFeed"},{"name":"_priceFeed2","type":"address","internalType":"contract IPriceFeed"},{"name":"_priceFeed3","type":"address","internalType":"contract IPriceFeed"}],"outputs":[],"stateMutability":"nonpayable"},{"type":"function","name":"setPriceFeed","inputs":[{"name":"priceFeedNum","type":"uint256","internalType":"uint256"},{"name":"newPriceFeed","type":"address","internalType":"contract IPriceFeed"}],"outputs":[],"stateMutability":"nonpayable"},{"type":"function","name":"test","inputs":[],"outputs":[],"stateMutability":"nonpayable"},{"type":"function","name":"transferOwnership","inputs":[{"name":"newOwner","type":"address","internalType":"address"}],"outputs":[],"stateMutability":"nonpayable"},{"type":"event","name":"MaximumPriceFeedPercentDifferenceChanged","inputs":[{"name":"newMaxDifference","type":"uint256","indexed":false,"internalType":"uint256"}],"anonymous":false},{"type":"event","name":"OwnershipTransferred","inputs":[{"name":"previousOwner","type":"address","indexed":true,"internalType":"address"},{"name":"newOwner","type":"address","indexed":true,"internalType":"address"}],"anonymous":false},{"type":"event","name":"PriceFeedSet","inputs":[{"name":"priceFeedNum","type":"uint256","indexed":true,"internalType":"uint256"},{"name":"newPriceFeed","type":"address","indexed":true,"internalType":"contract IPriceFeed"}],"anonymous":false},{"type":"event","name":"SetPriceFeedCooldownChanged","inputs":[{"name":"newCooldown","type":"uint256","indexed":false,"internalType":"uint256"}],"anonymous":false}],"bytecode":{"object":"0x6080604052610bb8600555622e248060065534801561001d57600080fd5b506100273361002c565b61007c565b600080546001600160a01b038381166001600160a01b0319831681178455604051919092169283917f8be0079c531659141344cd1fd0a4f28419497f9722a3daafe3b4186f6b6457e09190a35050565b610f118061008b6000396000f3fe608060405234801561001057600080fd5b50600436106101365760003560e01c8063715018a6116100b2578063cba74d3711610081578063e5693f4111610066578063e5693f4114610278578063f2fde38b14610298578063f8a8fd6d1461016957600080fd5b8063cba74d3714610252578063d27c5e2e1461026557600080fd5b8063715018a6146101f95780637fcc5cf8146102015780638da5cb5b14610214578063ab0ca0e11461023257600080fd5b80633b895c9011610109578063469b5f01116100ee578063469b5f01146101df57806347617dfb146101e85780635ba7c62e146101f157600080fd5b80633b895c9014610187578063427cb6fe1461019a57600080fd5b8063039ba6be1461013b57806323256105146101565780632797e9201461016b5780633ad0dcf914610174575b600080fd5b6101436102ab565b6040519081526020015b60405180910390f35b610169610164366004610cb9565b6103a6565b005b61014360055481565b610169610182366004610cfd565b610447565b610169610195366004610d48565b610559565b6003546101ba9073ffffffffffffffffffffffffffffffffffffffff1681565b60405173ffffffffffffffffffffffffffffffffffffffff909116815260200161014d565b61014360045481565b61014360065481565b6101436106a5565b610169610795565b61014361020f366004610d78565b6107a9565b60005473ffffffffffffffffffffffffffffffffffffffff166101ba565b6001546101ba9073ffffffffffffffffffffffffffffffffffffffff1681565b610169610260366004610cb9565b6107be565b610143610273366004610d9a565b610850565b6002546101ba9073ffffffffffffffffffffffffffffffffffffffff1681565b6101696102a6366004610dc6565b610867565b60015460009081906102d29073ffffffffffffffffffffffffffffffffffffffff1661091e565b6002549091506000906102fa9073ffffffffffffffffffffffffffffffffffffffff1661091e565b6003549091506000906103229073ffffffffffffffffffffffffffffffffffffffff1661091e565b905061032f8383836109df565b9350836000036103a0576040517f08c379a000000000000000000000000000000000000000000000000000000000815260206004820152601160248201527f496e76616c69642045544820707269636500000000000000000000000000000060448201526064015b60405180910390fd5b50505090565b6103ae610b1a565b80156103e157623b538060065410156103dc5762069780600660008282546103d69190610e12565b90915550505b610409565b62278d0060065411156104095762069780600660008282546104039190610e25565b90915550505b7fe0488ccf1abb02f5af4d13562073e51597f6eb3bf56295d9ccd44a2f9f1158de60065460405161043c91815260200190565b60405180910390a150565b61044f610b1a565b60015473ffffffffffffffffffffffffffffffffffffffff16156104f5576040517f08c379a000000000000000000000000000000000000000000000000000000000815260206004820152602960248201527f736574496e697469616c466565647328292063616e206f6e6c7920626520636160448201527f6c6c6564206f6e636500000000000000000000000000000000000000000000006064820152608401610397565b6001805473ffffffffffffffffffffffffffffffffffffffff9485167fffffffffffffffffffffffff000000000000000000000000000000000000000091821617909155600280549385169382169390931790925560038054919093169116179055565b610561610b1a565b60045442106106a157816001036105b757600180547fffffffffffffffffffffffff00000000000000000000000000000000000000001673ffffffffffffffffffffffffffffffffffffffff831617905561064d565b8160020361060457600280547fffffffffffffffffffffffff00000000000000000000000000000000000000001673ffffffffffffffffffffffffffffffffffffffff831617905561064d565b8160030361064d57600380547fffffffffffffffffffffffff00000000000000000000000000000000000000001673ffffffffffffffffffffffffffffffffffffffff83161790555b60065461065a9042610e12565b60045560405173ffffffffffffffffffffffffffffffffffffffff82169083907f50d949ea300a19b8c06fcc5aa4e694eb3154cf29d1be18f4d3f85cb273ec713490600090a35b5050565b60015460009081906106cc9073ffffffffffffffffffffffffffffffffffffffff16610b9b565b6002549091506000906106f49073ffffffffffffffffffffffffffffffffffffffff16610b9b565b60035490915060009061071c9073ffffffffffffffffffffffffffffffffffffffff16610b9b565b90506107298383836109df565b9350836000036103a0576040517f08c379a000000000000000000000000000000000000000000000000000000000815260206004820152601160248201527f496e76616c6964204254432070726963650000000000000000000000000000006044820152606401610397565b61079d610b1a565b6107a76000610c1f565b565b60006107b58383610c94565b90505b92915050565b6107c6610b1a565b80156107f757611b5860055410156107f2576101f4600560008282546107ec9190610e12565b90915550505b61081d565b6103e8600554111561081d576101f4600560008282546108179190610e25565b90915550505b7f33d63b84e936d391c867420a16ff30dd7992f43926dc28bfee9b90d873f4c58f60055460405161043c91815260200190565b600061085d8484846109df565b90505b9392505050565b61086f610b1a565b73ffffffffffffffffffffffffffffffffffffffff8116610912576040517f08c379a000000000000000000000000000000000000000000000000000000000815260206004820152602660248201527f4f776e61626c653a206e6577206f776e657220697320746865207a65726f206160448201527f64647265737300000000000000000000000000000000000000000000000000006064820152608401610397565b61091b81610c1f565b50565b60008173ffffffffffffffffffffffffffffffffffffffff1663039ba6be6040518163ffffffff1660e01b8152600401602060405180830381865afa9250505080156109a5575060408051601f3d9081017fffffffffffffffffffffffffffffffffffffffffffffffffffffffffffffffe01682019092526109a291810190610e38565b60015b6107b8573d8080156109d3576040519150601f19603f3d011682016040523d82523d6000602084013e6109d8565b606091505b5050919050565b60008084156109f657806109f281610e51565b9150505b8315610a0a5780610a0681610e51565b9150505b8215610a1e5780610a1a81610e51565b9150505b6002811015610a31576000915050610860565b6000610a3d8686610c94565b90506000610a4b8786610c94565b90506000610a598787610c94565b9050600080838511158015610a6e5750828511155b15610a7d575088905087610ab7565b848411158015610a8d5750828411155b15610a9c575088905086610ab7565b848311158015610aac5750838311155b15610ab75750879050865b60006002610ac58385610e12565b610acf9190610e89565b905060055481610adf8585610c94565b610aec90620186a0610ec4565b610af69190610e89565b1115610b0c576000975050505050505050610860565b9a9950505050505050505050565b60005473ffffffffffffffffffffffffffffffffffffffff1633146107a7576040517f08c379a000000000000000000000000000000000000000000000000000000000815260206004820181905260248201527f4f776e61626c653a2063616c6c6572206973206e6f7420746865206f776e65726044820152606401610397565b60008173ffffffffffffffffffffffffffffffffffffffff16635ba7c62e6040518163ffffffff1660e01b8152600401602060405180830381865afa9250505080156109a5575060408051601f3d9081017fffffffffffffffffffffffffffffffffffffffffffffffffffffffffffffffe01682019092526109a291810190610e38565b6000805473ffffffffffffffffffffffffffffffffffffffff8381167fffffffffffffffffffffffff0000000000000000000000000000000000000000831681178455604051919092169283917f8be0079c531659141344cd1fd0a4f28419497f9722a3daafe3b4186f6b6457e09190a35050565b600081831115610caf57610ca88284610e25565b90506107b8565b6107b58383610e25565b600060208284031215610ccb57600080fd5b8135801515811461086057600080fd5b73ffffffffffffffffffffffffffffffffffffffff8116811461091b57600080fd5b600080600060608486031215610d1257600080fd5b8335610d1d81610cdb565b92506020840135610d2d81610cdb565b91506040840135610d3d81610cdb565b809150509250925092565b60008060408385031215610d5b57600080fd5b823591506020830135610d6d81610cdb565b809150509250929050565b60008060408385031215610d8b57600080fd5b50508035926020909101359150565b600080600060608486031215610daf57600080fd5b505081359360208301359350604090920135919050565b600060208284031215610dd857600080fd5b813561086081610cdb565b7f4e487b7100000000000000000000000000000000000000000000000000000000600052601160045260246000fd5b808201808211156107b8576107b8610de3565b818103818111156107b8576107b8610de3565b600060208284031215610e4a57600080fd5b5051919050565b60007fffffffffffffffffffffffffffffffffffffffffffffffffffffffffffffffff8203610e8257610e82610de3565b5060010190565b600082610ebf577f4e487b7100000000000000000000000000000000000000000000000000000000600052601260045260246000fd5b500490565b80820281158282048414176107b8576107b8610de356fea2646970667358221220021039f08091b8e7ffe67a2ca5ca1a5200ebb6eaec2fd4f31505f384ccaead4a64736f6c63430008160033","linkReferences":{}},"methodIdentifiers":{"absoluteDifference(uint256,uint256)":"7fcc5cf8","aggregatePrices(uint256,uint256,uint256)":"d27c5e2e","changeMaximumPriceFeedPercentDifferenceTimes1000(bool)":"cba74d37","changePriceFeedModificationCooldown(bool)":"23256105","getPriceBTC()":"5ba7c62e","getPriceETH()":"039ba6be","maximumPriceFeedPercentDifferenceTimes1000()":"2797e920","owner()":"8da5cb5b","priceFeed1()":"ab0ca0e1","priceFeed2()":"e5693f41","priceFeed3()":"427cb6fe","priceFeedModificationCooldown()":"47617dfb","priceFeedModificationCooldownExpiration()":"469b5f01","renounceOwnership()":"715018a6","setInitialFeeds(address,address,address)":"3ad0dcf9","setPriceFeed(uint256,address)":"3b895c90","test()":"f8a8fd6d","transferOwnership(address)":"f2fde38b"},"id":116}