{"abi":[{"type":"constructor","inputs":[{"name":"_pools","type":"address","internalType":"contract IPools"},{"name":"_exchangeConfig","type":"address","internalType":"contract IExchangeConfig"}],"stateMutability":"nonpayable"},{"type":"function","name":"getPriceBTC","inputs":[],"outputs":[{"name":"","type":"uint256","internalType":"uint256"}],"stateMutability":"view"},{"type":"function","name":"getPriceETH","inputs":[],"outputs":[{"name":"","type":"uint256","internalType":"uint256"}],"stateMutability":"view"},{"type":"function","name":"pools","inputs":[],"outputs":[{"name":"","type":"address","internalType":"contract IPools"}],"stateMutability":"view"},{"type":"function","name":"usds","inputs":[],"outputs":[{"name":"","type":"address","internalType":"contract IERC20"}],"stateMutability":"view"},{"type":"function","name":"wbtc","inputs":[],"outputs":[{"name":"","type":"address","internalType":"contract IERC20"}],"stateMutability":"view"},{"type":"function","name":"weth","inputs":[],"outputs":[{"name":"","type":"address","internalType":"contract IERC20"}],"stateMutability":"view"}],"bytecode":{"object":"0x61010060405234801561001157600080fd5b50604051610736380380610736833981016040819052610030916101ce565b816001600160a01b03166080816001600160a01b031681525050806001600160a01b0316633cdc53896040518163ffffffff1660e01b8152600401602060405180830381865afa158015610088573d6000803e3d6000fd5b505050506040513d601f19601f820116820180604052508101906100ac9190610208565b6001600160a01b031660a0816001600160a01b031681525050806001600160a01b0316633fc8cef36040518163ffffffff1660e01b8152600401602060405180830381865afa158015610103573d6000803e3d6000fd5b505050506040513d601f19601f820116820180604052508101906101279190610208565b6001600160a01b031660c0816001600160a01b031681525050806001600160a01b0316634cf282fb6040518163ffffffff1660e01b8152600401602060405180830381865afa15801561017e573d6000803e3d6000fd5b505050506040513d601f19601f820116820180604052508101906101a29190610208565b6001600160a01b031660e0525061022c9050565b6001600160a01b03811681146101cb57600080fd5b50565b600080604083850312156101e157600080fd5b82516101ec816101b6565b60208401519092506101fd816101b6565b809150509250929050565b60006020828403121561021a57600080fd5b8151610225816101b6565b9392505050565b60805160a05160c05160e0516104a961028d6000396000818161010a015281816101c0015261030501526000818160e30152610198015260008181609701526102dd015260008181610139015281816101ef015261033401526104a96000f3fe608060405234801561001057600080fd5b50600436106100725760003560e01c80634cf282fb116100505780634cf282fb146101055780635ba7c62e1461012c578063c5c51dca1461013457600080fd5b8063039ba6be146100775780633cdc5389146100925780633fc8cef3146100de575b600080fd5b61007f61015b565b6040519081526020015b60405180910390f35b6100b97f000000000000000000000000000000000000000000000000000000000000000081565b60405173ffffffffffffffffffffffffffffffffffffffff9091168152602001610089565b6100b97f000000000000000000000000000000000000000000000000000000000000000081565b6100b97f000000000000000000000000000000000000000000000000000000000000000081565b61007f6102a0565b6100b97f000000000000000000000000000000000000000000000000000000000000000081565b6040517fd4469c3e00000000000000000000000000000000000000000000000000000000815273ffffffffffffffffffffffffffffffffffffffff7f0000000000000000000000000000000000000000000000000000000000000000811660048301527f000000000000000000000000000000000000000000000000000000000000000081166024830152600091829182917f00000000000000000000000000000000000000000000000000000000000000009091169063d4469c3e906044016040805180830381865afa158015610237573d6000803e3d6000fd5b505050506040513d601f19601f8201168201806040525081019061025b91906103d0565b91509150606482108061026e5750606481105b1561027c5760009250505090565b8161028f82670de0b6b3a76400006103f4565b6102999190610438565b9250505090565b6040517fd4469c3e00000000000000000000000000000000000000000000000000000000815273ffffffffffffffffffffffffffffffffffffffff7f0000000000000000000000000000000000000000000000000000000000000000811660048301527f000000000000000000000000000000000000000000000000000000000000000081166024830152600091829182917f00000000000000000000000000000000000000000000000000000000000000009091169063d4469c3e906044016040805180830381865afa15801561037c573d6000803e3d6000fd5b505050506040513d601f19601f820116820180604052508101906103a091906103d0565b9150915060648210806103b35750606481105b156103c15760009250505090565b8161028f826305f5e1006103f4565b600080604083850312156103e357600080fd5b505080516020909101519092909150565b8082028115828204841417610432577f4e487b7100000000000000000000000000000000000000000000000000000000600052601160045260246000fd5b92915050565b60008261046e577f4e487b7100000000000000000000000000000000000000000000000000000000600052601260045260246000fd5b50049056fea2646970667358221220396295aee0978e26a588b43f3daf8bb0cf923a71fa59ed88bc845345138a022e64736f6c63430008160033","linkReferences":{}},"methodIdentifiers":{"getPriceBTC()":"5ba7c62e","getPriceETH()":"039ba6be","pools()":"c5c51dca","usds()":"4cf282fb","wbtc()":"3cdc5389","weth()":"3fc8cef3"},"id":101}