{"abi":[{"type":"constructor","inputs":[{"name":"_exchangeConfig","type":"address","internalType":"contract IExchangeConfig"},{"name":"_poolsConfig","type":"address","internalType":"contract IPoolsConfig"}],"stateMutability":"nonpayable"},{"type":"function","name":"collateralAndLiquidity","inputs":[],"outputs":[{"name":"","type":"address","internalType":"contract ICollateralAndLiquidity"}],"stateMutability":"view"},{"type":"function","name":"dai","inputs":[],"outputs":[{"name":"","type":"address","internalType":"contract IERC20"}],"stateMutability":"view"},{"type":"function","name":"dao","inputs":[],"outputs":[{"name":"","type":"address","internalType":"contract IDAO"}],"stateMutability":"view"},{"type":"function","name":"exchangeConfig","inputs":[],"outputs":[{"name":"","type":"address","internalType":"contract IExchangeConfig"}],"stateMutability":"view"},{"type":"function","name":"incrementBurnableUSDS","inputs":[{"name":"usdsToBurn","type":"uint256","internalType":"uint256"}],"outputs":[],"stateMutability":"nonpayable"},{"type":"function","name":"owner","inputs":[],"outputs":[{"name":"","type":"address","internalType":"address"}],"stateMutability":"view"},{"type":"function","name":"performUpkeep","inputs":[],"outputs":[],"stateMutability":"nonpayable"},{"type":"function","name":"pools","inputs":[],"outputs":[{"name":"","type":"address","internalType":"contract IPools"}],"stateMutability":"view"},{"type":"function","name":"poolsConfig","inputs":[],"outputs":[{"name":"","type":"address","internalType":"contract IPoolsConfig"}],"stateMutability":"view"},{"type":"function","name":"renounceOwnership","inputs":[],"outputs":[],"stateMutability":"nonpayable"},{"type":"function","name":"salt","inputs":[],"outputs":[{"name":"","type":"address","internalType":"contract ISalt"}],"stateMutability":"view"},{"type":"function","name":"setContracts","inputs":[{"name":"_collateralAndLiquidity","type":"address","internalType":"contract ICollateralAndLiquidity"},{"name":"_pools","type":"address","internalType":"contract IPools"},{"name":"_dao","type":"address","internalType":"contract IDAO"}],"outputs":[],"stateMutability":"nonpayable"},{"type":"function","name":"transferOwnership","inputs":[{"name":"newOwner","type":"address","internalType":"address"}],"outputs":[],"stateMutability":"nonpayable"},{"type":"function","name":"usds","inputs":[],"outputs":[{"name":"","type":"address","internalType":"contract IUSDS"}],"stateMutability":"view"},{"type":"function","name":"usdsThatShouldBeBurned","inputs":[],"outputs":[{"name":"","type":"uint256","internalType":"uint256"}],"stateMutability":"view"},{"type":"function","name":"wbtc","inputs":[],"outputs":[{"name":"","type":"address","internalType":"contract IERC20"}],"stateMutability":"view"},{"type":"function","name":"weth","inputs":[],"outputs":[{"name":"","type":"address","internalType":"contract IERC20"}],"stateMutability":"view"},{"type":"event","name":"OwnershipTransferred","inputs":[{"name":"previousOwner","type":"address","indexed":true,"internalType":"address"},{"name":"newOwner","type":"address","indexed":true,"internalType":"address"}],"anonymous":false},{"type":"event","name":"incrementedBurnableUSDS","inputs":[{"name":"newTotal","type":"uint256","indexed":false,"internalType":"uint256"}],"anonymous":false}],"bytecode":{"object":"0x6101406040523480156200001257600080fd5b5060405162001e7c38038062001e7c83398101604081905262000035916200033e565b6200004033620002d5565b6001600160a01b0381811661012052600180546001600160a01b031916918416918217905560408051633cdc538960e01b81529051633cdc5389916004808201926020929091908290030181865afa158015620000a1573d6000803e3d6000fd5b505050506040513d601f19601f82011682018060405250810190620000c791906200037d565b6001600160a01b03166080816001600160a01b031681525050816001600160a01b0316633fc8cef36040518163ffffffff1660e01b8152600401602060405180830381865afa1580156200011f573d6000803e3d6000fd5b505050506040513d601f19601f820116820180604052508101906200014591906200037d565b6001600160a01b031660a0816001600160a01b031681525050816001600160a01b0316634cf282fb6040518163ffffffff1660e01b8152600401602060405180830381865afa1580156200019d573d6000803e3d6000fd5b505050506040513d601f19601f82011682018060405250810190620001c391906200037d565b6001600160a01b031660c0816001600160a01b031681525050816001600160a01b031663bfa0b1336040518163ffffffff1660e01b8152600401602060405180830381865afa1580156200021b573d6000803e3d6000fd5b505050506040513d601f19601f820116820180604052508101906200024191906200037d565b6001600160a01b031660e0816001600160a01b031681525050816001600160a01b031663f4b9fa756040518163ffffffff1660e01b8152600401602060405180830381865afa15801562000299573d6000803e3d6000fd5b505050506040513d601f19601f82011682018060405250810190620002bf91906200037d565b6001600160a01b03166101005250620003a49050565b600080546001600160a01b038381166001600160a01b0319831681178455604051919092169283917f8be0079c531659141344cd1fd0a4f28419497f9722a3daafe3b4186f6b6457e09190a35050565b6001600160a01b03811681146200033b57600080fd5b50565b600080604083850312156200035257600080fd5b82516200035f8162000325565b6020840151909250620003728162000325565b809150509250929050565b6000602082840312156200039057600080fd5b81516200039d8162000325565b9392505050565b60805160a05160c05160e05161010051610120516119fc620004806000396000818161023b01526104ae0152600081816103120152818161071601528181610b80015261120a0152600081816102b80152818161079d0152818161082a015281816108690152611136015260008181610214015281816105ae0152818161069401528181610738015281816110370152818161116001528181611234015281816114ae01526114ed0152600081816101cd015281816106720152610aa20152600081816101a60152818161058c01526109c401526119fc6000f3fe608060405234801561001057600080fd5b506004361061011b5760003560e01c80636e4d243a116100b2578063b43061d511610081578063c5c51dca11610066578063c5c51dca146102da578063f2fde38b146102fa578063f4b9fa751461030d57600080fd5b8063b43061d5146102a0578063bfa0b133146102b357600080fd5b80636e4d243a1461025d578063715018a6146102675780638da5cb5b1461026f578063b3066d491461028d57600080fd5b80633fc8cef3116100ee5780633fc8cef3146101c85780634162169f146101ef5780634cf282fb1461020f57806352c19b5a1461023657600080fd5b80630e2789bb146101205780630e5c7fbb1461016a5780631cbcda121461018a5780633cdc5389146101a1575b600080fd5b6001546101409073ffffffffffffffffffffffffffffffffffffffff1681565b60405173ffffffffffffffffffffffffffffffffffffffff90911681526020015b60405180910390f35b6002546101409073ffffffffffffffffffffffffffffffffffffffff1681565b61019360055481565b604051908152602001610161565b6101407f000000000000000000000000000000000000000000000000000000000000000081565b6101407f000000000000000000000000000000000000000000000000000000000000000081565b6004546101409073ffffffffffffffffffffffffffffffffffffffff1681565b6101407f000000000000000000000000000000000000000000000000000000000000000081565b6101407f000000000000000000000000000000000000000000000000000000000000000081565b610265610334565b005b6102656108f4565b60005473ffffffffffffffffffffffffffffffffffffffff16610140565b61026561029b366004611784565b610908565b6102656102ae3660046117cf565b610bfd565b6101407f000000000000000000000000000000000000000000000000000000000000000081565b6003546101409073ffffffffffffffffffffffffffffffffffffffff1681565b6102656103083660046117e8565b610d1a565b6101407f000000000000000000000000000000000000000000000000000000000000000081565b600160009054906101000a900473ffffffffffffffffffffffffffffffffffffffff1673ffffffffffffffffffffffffffffffffffffffff16632cf4704a6040518163ffffffff1660e01b8152600401602060405180830381865afa1580156103a1573d6000803e3d6000fd5b505050506040513d601f19601f820116820180604052508101906103c5919061180c565b73ffffffffffffffffffffffffffffffffffffffff163373ffffffffffffffffffffffffffffffffffffffff16146104aa576040517f08c379a000000000000000000000000000000000000000000000000000000000815260206004820152604260248201527f4c6971756964697a65722e706572666f726d55706b656570206973206f6e6c7960448201527f2063616c6c61626c652066726f6d207468652055706b65657020636f6e74726160648201527f6374000000000000000000000000000000000000000000000000000000000000608482015260a4015b60405180910390fd5b60007f000000000000000000000000000000000000000000000000000000000000000073ffffffffffffffffffffffffffffffffffffffff1663a2b854896040518163ffffffff1660e01b8152600401602060405180830381865afa158015610517573d6000803e3d6000fd5b505050506040513d601f19601f8201168201806040525081019061053b9190611829565b6003546040517f70a082310000000000000000000000000000000000000000000000000000000081523060048201529192506106229173ffffffffffffffffffffffffffffffffffffffff918216917f0000000000000000000000000000000000000000000000000000000000000000917f0000000000000000000000000000000000000000000000000000000000000000918316906370a08231906024015b602060405180830381865afa1580156105f8573d6000803e3d6000fd5b505050506040513d601f19601f8201168201806040525081019061061c9190611829565b85610dd1565b50506003546040517f70a082310000000000000000000000000000000000000000000000000000000081523060048201526106c69173ffffffffffffffffffffffffffffffffffffffff908116917f0000000000000000000000000000000000000000000000000000000000000000917f000000000000000000000000000000000000000000000000000000000000000091908316906370a08231906024016105db565b50506003546040517f70a0823100000000000000000000000000000000000000000000000000000000815230600482015261076a9173ffffffffffffffffffffffffffffffffffffffff908116917f0000000000000000000000000000000000000000000000000000000000000000917f000000000000000000000000000000000000000000000000000000000000000091908316906370a08231906024016105db565b50506040517f70a082310000000000000000000000000000000000000000000000000000000081523060048201526000907f000000000000000000000000000000000000000000000000000000000000000073ffffffffffffffffffffffffffffffffffffffff16906370a0823190602401602060405180830381865afa1580156107f9573d6000803e3d6000fd5b505050506040513d601f19601f8201168201806040525081019061081d9190611829565b905080156108e8576108677f000000000000000000000000000000000000000000000000000000000000000073ffffffffffffffffffffffffffffffffffffffff81169083610f6d565b7f000000000000000000000000000000000000000000000000000000000000000073ffffffffffffffffffffffffffffffffffffffff16635730c5436040518163ffffffff1660e01b8152600401600060405180830381600087803b1580156108cf57600080fd5b505af11580156108e3573d6000803e3d6000fd5b505050505b6108f0610ffa565b5050565b6108fc6112a4565b6109066000611325565b565b6109106112a4565b6002805473ffffffffffffffffffffffffffffffffffffffff8581167fffffffffffffffffffffffff0000000000000000000000000000000000000000928316179092556003805485841690831681179091556004805485851693169290921782556040517f095ea7b3000000000000000000000000000000000000000000000000000000008152918201527fffffffffffffffffffffffffffffffffffffffffffffffffffffffffffffffff60248201527f00000000000000000000000000000000000000000000000000000000000000009091169063095ea7b3906044016020604051808303816000875af1158015610a0f573d6000803e3d6000fd5b505050506040513d601f19601f82011682018060405250810190610a339190611842565b506003546040517f095ea7b300000000000000000000000000000000000000000000000000000000815273ffffffffffffffffffffffffffffffffffffffff91821660048201527fffffffffffffffffffffffffffffffffffffffffffffffffffffffffffffffff60248201527f00000000000000000000000000000000000000000000000000000000000000009091169063095ea7b3906044016020604051808303816000875af1158015610aed573d6000803e3d6000fd5b505050506040513d601f19601f82011682018060405250810190610b119190611842565b506003546040517f095ea7b300000000000000000000000000000000000000000000000000000000815273ffffffffffffffffffffffffffffffffffffffff91821660048201527fffffffffffffffffffffffffffffffffffffffffffffffffffffffffffffffff60248201527f00000000000000000000000000000000000000000000000000000000000000009091169063095ea7b3906044016020604051808303816000875af1158015610bcb573d6000803e3d6000fd5b505050506040513d601f19601f82011682018060405250810190610bef9190611842565b50610bf86108f4565b505050565b60025473ffffffffffffffffffffffffffffffffffffffff163314610cca576040517f08c379a000000000000000000000000000000000000000000000000000000000815260206004820152605a60248201527f4c6971756964697a65722e696e6372656d656e744275726e61626c655553445360448201527f206973206f6e6c792063616c6c61626c652066726f6d2074686520436f6c6c6160648201527f746572616c416e644c697175696469747920636f6e7472616374000000000000608482015260a4016104a1565b8060056000828254610cdc9190611893565b90915550506005546040519081527fc6c686d4ef1f5b5ea11e0fef3e10d3ab0ffa7b31ea480db4ab8418651276190c9060200160405180910390a150565b610d226112a4565b73ffffffffffffffffffffffffffffffffffffffff8116610dc5576040517f08c379a000000000000000000000000000000000000000000000000000000000815260206004820152602660248201527f4f776e61626c653a206e6577206f776e657220697320746865207a65726f206160448201527f646472657373000000000000000000000000000000000000000000000000000060648201526084016104a1565b610dce81611325565b50565b60008083600003610de757506000905080610f63565b6040517fd4469c3e00000000000000000000000000000000000000000000000000000000815273ffffffffffffffffffffffffffffffffffffffff878116600483015286811660248301526000919089169063d4469c3e906044016040805180830381865afa158015610e5e573d6000803e3d6000fd5b505050506040513d601f19601f82011682018060405250810190610e8291906118ac565b5090506000620186a0610e9586846118d0565b610e9f91906118e7565b905080861115610ead578095505b6040517fe2f7c48000000000000000000000000000000000000000000000000000000000815273ffffffffffffffffffffffffffffffffffffffff8981166004830152888116602483015260448201889052600060648301524260848301528795508a169063e2f7c4809060a4016020604051808303816000875af1158015610f3a573d6000803e3d6000fd5b505050506040513d601f19601f82011682018060405250810190610f5e9190611829565b925050505b9550959350505050565b6040805173ffffffffffffffffffffffffffffffffffffffff8416602482015260448082018490528251808303909101815260649091019091526020810180517bffffffffffffffffffffffffffffffffffffffffffffffffffffffff167fa9059cbb00000000000000000000000000000000000000000000000000000000179052610bf890849061139a565b60055460000361100657565b6040517f70a082310000000000000000000000000000000000000000000000000000000081523060048201526000907f000000000000000000000000000000000000000000000000000000000000000073ffffffffffffffffffffffffffffffffffffffff16906370a0823190602401602060405180830381865afa158015611093573d6000803e3d6000fd5b505050506040513d601f19601f820116820180604052508101906110b79190611829565b905060055481106110d5576110cd6005546114a9565b600060055550565b6110de816114a9565b80600560008282546110f09190611922565b9091555050600480546040517f35b544c300000000000000000000000000000000000000000000000000000000815273ffffffffffffffffffffffffffffffffffffffff7f00000000000000000000000000000000000000000000000000000000000000008116938201939093527f000000000000000000000000000000000000000000000000000000000000000083166024820152600160448201529116906335b544c390606401600060405180830381600087803b1580156111b357600080fd5b505af11580156111c7573d6000803e3d6000fd5b5050600480546040517f35b544c300000000000000000000000000000000000000000000000000000000815273ffffffffffffffffffffffffffffffffffffffff7f00000000000000000000000000000000000000000000000000000000000000008116938201939093527f00000000000000000000000000000000000000000000000000000000000000008316602482015260016044820152911692506335b544c39150606401600060405180830381600087803b15801561128957600080fd5b505af115801561129d573d6000803e3d6000fd5b5050505050565b60005473ffffffffffffffffffffffffffffffffffffffff163314610906576040517f08c379a000000000000000000000000000000000000000000000000000000000815260206004820181905260248201527f4f776e61626c653a2063616c6c6572206973206e6f7420746865206f776e657260448201526064016104a1565b6000805473ffffffffffffffffffffffffffffffffffffffff8381167fffffffffffffffffffffffff0000000000000000000000000000000000000000831681178455604051919092169283917f8be0079c531659141344cd1fd0a4f28419497f9722a3daafe3b4186f6b6457e09190a35050565b60006113fc826040518060400160405280602081526020017f5361666545524332303a206c6f772d6c6576656c2063616c6c206661696c65648152508573ffffffffffffffffffffffffffffffffffffffff166115539092919063ffffffff16565b905080516000148061141d57508080602001905181019061141d9190611842565b610bf8576040517f08c379a000000000000000000000000000000000000000000000000000000000815260206004820152602a60248201527f5361666545524332303a204552433230206f7065726174696f6e20646964206e60448201527f6f7420737563636565640000000000000000000000000000000000000000000060648201526084016104a1565b6114eb7f000000000000000000000000000000000000000000000000000000000000000073ffffffffffffffffffffffffffffffffffffffff81169083610f6d565b7f000000000000000000000000000000000000000000000000000000000000000073ffffffffffffffffffffffffffffffffffffffff16635730c5436040518163ffffffff1660e01b8152600401600060405180830381600087803b15801561128957600080fd5b6060611562848460008561156a565b949350505050565b6060824710156115fc576040517f08c379a000000000000000000000000000000000000000000000000000000000815260206004820152602660248201527f416464726573733a20696e73756666696369656e742062616c616e636520666f60448201527f722063616c6c000000000000000000000000000000000000000000000000000060648201526084016104a1565b6000808673ffffffffffffffffffffffffffffffffffffffff1685876040516116259190611959565b60006040518083038185875af1925050503d8060008114611662576040519150601f19603f3d011682016040523d82523d6000602084013e611667565b606091505b509150915061167887838387611683565b979650505050505050565b606083156117195782516000036117125773ffffffffffffffffffffffffffffffffffffffff85163b611712576040517f08c379a000000000000000000000000000000000000000000000000000000000815260206004820152601d60248201527f416464726573733a2063616c6c20746f206e6f6e2d636f6e747261637400000060448201526064016104a1565b5081611562565b611562838381511561172e5781518083602001fd5b806040517f08c379a00000000000000000000000000000000000000000000000000000000081526004016104a19190611975565b73ffffffffffffffffffffffffffffffffffffffff81168114610dce57600080fd5b60008060006060848603121561179957600080fd5b83356117a481611762565b925060208401356117b481611762565b915060408401356117c481611762565b809150509250925092565b6000602082840312156117e157600080fd5b5035919050565b6000602082840312156117fa57600080fd5b813561180581611762565b9392505050565b60006020828403121561181e57600080fd5b815161180581611762565b60006020828403121561183b57600080fd5b5051919050565b60006020828403121561185457600080fd5b8151801515811461180557600080fd5b7f4e487b7100000000000000000000000000000000000000000000000000000000600052601160045260246000fd5b808201808211156118a6576118a6611864565b92915050565b600080604083850312156118bf57600080fd5b505080516020909101519092909150565b80820281158282048414176118a6576118a6611864565b60008261191d577f4e487b7100000000000000000000000000000000000000000000000000000000600052601260045260246000fd5b500490565b818103818111156118a6576118a6611864565b60005b83811015611950578181015183820152602001611938565b50506000910152565b6000825161196b818460208701611935565b9190910192915050565b6020815260008251806020840152611994816040850160208701611935565b601f017fffffffffffffffffffffffffffffffffffffffffffffffffffffffffffffffe016919091016040019291505056fea264697066735822122041e10a7bd89811d9cf4606fdd7ea50bc242d0e366d1b2290bef473636e3745ab64736f6c63430008160033","linkReferences":{}},"methodIdentifiers":{"collateralAndLiquidity()":"0e5c7fbb","dai()":"f4b9fa75","dao()":"4162169f","exchangeConfig()":"0e2789bb","incrementBurnableUSDS(uint256)":"b43061d5","owner()":"8da5cb5b","performUpkeep()":"6e4d243a","pools()":"c5c51dca","poolsConfig()":"52c19b5a","renounceOwnership()":"715018a6","salt()":"bfa0b133","setContracts(address,address,address)":"b3066d49","transferOwnership(address)":"f2fde38b","usds()":"4cf282fb","usdsThatShouldBeBurned()":"1cbcda12","wbtc()":"3cdc5389","weth()":"3fc8cef3"},"id":149}