{"abi":[{"type":"function","name":"executeParameterChange","inputs":[{"name":"parameterType","type":"uint8","internalType":"enum Parameters.ParameterTypes"},{"name":"increase","type":"bool","internalType":"bool"},{"name":"poolsConfig","type":"address","internalType":"contract IPoolsConfig"},{"name":"stakingConfig","type":"address","internalType":"contract IStakingConfig"},{"name":"rewardsConfig","type":"address","internalType":"contract IRewardsConfig"},{"name":"stableConfig","type":"address","internalType":"contract IStableConfig"},{"name":"daoConfig","type":"address","internalType":"contract IDAOConfig"},{"name":"priceAggregator","type":"address","internalType":"contract IPriceAggregator"}],"outputs":[],"stateMutability":"nonpayable"},{"type":"function","name":"test","inputs":[],"outputs":[],"stateMutability":"nonpayable"}],"bytecode":{"object":"0x608060405234801561001057600080fd5b50610d2e806100206000396000f3fe608060405234801561001057600080fd5b50600436106100365760003560e01c8063741128a41461003b578063f8a8fd6d1461004e575b600080fd5b61004e610049366004610c1b565b610050565b005b610060888888888888888861006a565b5050505050505050565b600088601981111561007e5761007e610cc9565b0361010a576040517fce7e4ba2000000000000000000000000000000000000000000000000000000008152871515600482015273ffffffffffffffffffffffffffffffffffffffff87169063ce7e4ba2906024015b600060405180830381600087803b1580156100ed57600080fd5b505af1158015610101573d6000803e3d6000fd5b50505050610060565b600188601981111561011e5761011e610cc9565b03610177576040517f9d58e156000000000000000000000000000000000000000000000000000000008152871515600482015273ffffffffffffffffffffffffffffffffffffffff871690639d58e156906024016100d3565b600288601981111561018b5761018b610cc9565b036101e4576040517f2c3fe737000000000000000000000000000000000000000000000000000000008152871515600482015273ffffffffffffffffffffffffffffffffffffffff861690632c3fe737906024016100d3565b60038860198111156101f8576101f8610cc9565b03610251576040517f0f80c7c2000000000000000000000000000000000000000000000000000000008152871515600482015273ffffffffffffffffffffffffffffffffffffffff861690630f80c7c2906024016100d3565b600488601981111561026557610265610cc9565b036102be576040517f15935df9000000000000000000000000000000000000000000000000000000008152871515600482015273ffffffffffffffffffffffffffffffffffffffff8616906315935df9906024016100d3565b60058860198111156102d2576102d2610cc9565b0361032b576040517f8383269e000000000000000000000000000000000000000000000000000000008152871515600482015273ffffffffffffffffffffffffffffffffffffffff861690638383269e906024016100d3565b600688601981111561033f5761033f610cc9565b03610398576040517fed8a5e77000000000000000000000000000000000000000000000000000000008152871515600482015273ffffffffffffffffffffffffffffffffffffffff85169063ed8a5e77906024016100d3565b60078860198111156103ac576103ac610cc9565b03610405576040517fdf11d42d000000000000000000000000000000000000000000000000000000008152871515600482015273ffffffffffffffffffffffffffffffffffffffff85169063df11d42d906024016100d3565b600888601981111561041957610419610cc9565b03610472576040517f23dd537b000000000000000000000000000000000000000000000000000000008152871515600482015273ffffffffffffffffffffffffffffffffffffffff8516906323dd537b906024016100d3565b600988601981111561048657610486610cc9565b036104df576040517f924007b1000000000000000000000000000000000000000000000000000000008152871515600482015273ffffffffffffffffffffffffffffffffffffffff85169063924007b1906024016100d3565b600a8860198111156104f3576104f3610cc9565b0361054c576040517f3ed33a78000000000000000000000000000000000000000000000000000000008152871515600482015273ffffffffffffffffffffffffffffffffffffffff841690633ed33a78906024016100d3565b600b88601981111561056057610560610cc9565b036105b9576040517fad836f08000000000000000000000000000000000000000000000000000000008152871515600482015273ffffffffffffffffffffffffffffffffffffffff84169063ad836f08906024016100d3565b600c8860198111156105cd576105cd610cc9565b03610626576040517f204818cd000000000000000000000000000000000000000000000000000000008152871515600482015273ffffffffffffffffffffffffffffffffffffffff84169063204818cd906024016100d3565b600d88601981111561063a5761063a610cc9565b03610693576040517fafbf56a9000000000000000000000000000000000000000000000000000000008152871515600482015273ffffffffffffffffffffffffffffffffffffffff84169063afbf56a9906024016100d3565b600e8860198111156106a7576106a7610cc9565b03610700576040517fb2a550b3000000000000000000000000000000000000000000000000000000008152871515600482015273ffffffffffffffffffffffffffffffffffffffff84169063b2a550b3906024016100d3565b600f88601981111561071457610714610cc9565b0361076d576040517fced84d56000000000000000000000000000000000000000000000000000000008152871515600482015273ffffffffffffffffffffffffffffffffffffffff84169063ced84d56906024016100d3565b601088601981111561078157610781610cc9565b036107da576040517fc00c1ec0000000000000000000000000000000000000000000000000000000008152871515600482015273ffffffffffffffffffffffffffffffffffffffff83169063c00c1ec0906024016100d3565b60118860198111156107ee576107ee610cc9565b03610847576040517faa046a33000000000000000000000000000000000000000000000000000000008152871515600482015273ffffffffffffffffffffffffffffffffffffffff83169063aa046a33906024016100d3565b601288601981111561085b5761085b610cc9565b036108b4576040517f0f9bc9fe000000000000000000000000000000000000000000000000000000008152871515600482015273ffffffffffffffffffffffffffffffffffffffff831690630f9bc9fe906024016100d3565b60138860198111156108c8576108c8610cc9565b03610921576040517f6255af22000000000000000000000000000000000000000000000000000000008152871515600482015273ffffffffffffffffffffffffffffffffffffffff831690636255af22906024016100d3565b601488601981111561093557610935610cc9565b0361098e576040517f01baf94e000000000000000000000000000000000000000000000000000000008152871515600482015273ffffffffffffffffffffffffffffffffffffffff8316906301baf94e906024016100d3565b60158860198111156109a2576109a2610cc9565b036109fb576040517fb423dd38000000000000000000000000000000000000000000000000000000008152871515600482015273ffffffffffffffffffffffffffffffffffffffff83169063b423dd38906024016100d3565b6016886019811115610a0f57610a0f610cc9565b03610a68576040517f7405f21c000000000000000000000000000000000000000000000000000000008152871515600482015273ffffffffffffffffffffffffffffffffffffffff831690637405f21c906024016100d3565b6017886019811115610a7c57610a7c610cc9565b03610ad5576040517f47e4d72f000000000000000000000000000000000000000000000000000000008152871515600482015273ffffffffffffffffffffffffffffffffffffffff8316906347e4d72f906024016100d3565b6018886019811115610ae957610ae9610cc9565b03610b42576040517fcba74d37000000000000000000000000000000000000000000000000000000008152871515600482015273ffffffffffffffffffffffffffffffffffffffff82169063cba74d37906024016100d3565b6019886019811115610b5657610b56610cc9565b03610060576040517f23256105000000000000000000000000000000000000000000000000000000008152871515600482015273ffffffffffffffffffffffffffffffffffffffff821690632325610590602401600060405180830381600087803b158015610bc457600080fd5b505af1158015610bd8573d6000803e3d6000fd5b505050505050505050505050565b73ffffffffffffffffffffffffffffffffffffffff81168114610c0857600080fd5b50565b8035610c1681610be6565b919050565b600080600080600080600080610100898b031215610c3857600080fd5b8835601a8110610c4757600080fd5b975060208901358015158114610c5c57600080fd5b96506040890135610c6c81610be6565b95506060890135610c7c81610be6565b94506080890135610c8c81610be6565b935060a0890135610c9c81610be6565b925060c0890135610cac81610be6565b9150610cba60e08a01610c0b565b90509295985092959890939650565b7f4e487b7100000000000000000000000000000000000000000000000000000000600052602160045260246000fdfea26469706673582212206a3a260b4686e5e70392803a6371f1c53cfecc766dcd8a1f1c4b0d2063f4be3e64736f6c63430008160033","linkReferences":{}},"methodIdentifiers":{"executeParameterChange(uint8,bool,address,address,address,address,address,address)":"741128a4","test()":"f8a8fd6d"},"id":68}