{"abi":[{"type":"constructor","inputs":[{"name":"_pools","type":"address","internalType":"contract IPools"},{"name":"_exchangeConfig","type":"address","internalType":"contract IExchangeConfig"},{"name":"_poolsConfig","type":"address","internalType":"contract IPoolsConfig"},{"name":"_daoConfig","type":"address","internalType":"contract IDAOConfig"},{"name":"_stableConfig","type":"address","internalType":"contract IStableConfig"},{"name":"_priceAggregator","type":"address","internalType":"contract IPriceAggregator"},{"name":"_saltRewards","type":"address","internalType":"contract ISaltRewards"},{"name":"_collateralAndLiquidity","type":"address","internalType":"contract ICollateralAndLiquidity"},{"name":"_emissions","type":"address","internalType":"contract IEmissions"},{"name":"_dao","type":"address","internalType":"contract IDAO"}],"stateMutability":"nonpayable"},{"type":"function","name":"collateralAndLiquidity","inputs":[],"outputs":[{"name":"","type":"address","internalType":"contract ICollateralAndLiquidity"}],"stateMutability":"view"},{"type":"function","name":"currentRewardsForCallingPerformUpkeep","inputs":[],"outputs":[{"name":"","type":"uint256","internalType":"uint256"}],"stateMutability":"view"},{"type":"function","name":"dai","inputs":[],"outputs":[{"name":"","type":"address","internalType":"contract IERC20"}],"stateMutability":"view"},{"type":"function","name":"dao","inputs":[],"outputs":[{"name":"","type":"address","internalType":"contract IDAO"}],"stateMutability":"view"},{"type":"function","name":"daoConfig","inputs":[],"outputs":[{"name":"","type":"address","internalType":"contract IDAOConfig"}],"stateMutability":"view"},{"type":"function","name":"emissions","inputs":[],"outputs":[{"name":"","type":"address","internalType":"contract IEmissions"}],"stateMutability":"view"},{"type":"function","name":"exchangeConfig","inputs":[],"outputs":[{"name":"","type":"address","internalType":"contract IExchangeConfig"}],"stateMutability":"view"},{"type":"function","name":"lastUpkeepTimeEmissions","inputs":[],"outputs":[{"name":"","type":"uint256","internalType":"uint256"}],"stateMutability":"view"},{"type":"function","name":"lastUpkeepTimeRewardsEmitters","inputs":[],"outputs":[{"name":"","type":"uint256","internalType":"uint256"}],"stateMutability":"view"},{"type":"function","name":"performUpkeep","inputs":[],"outputs":[],"stateMutability":"nonpayable"},{"type":"function","name":"pools","inputs":[],"outputs":[{"name":"","type":"address","internalType":"contract IPools"}],"stateMutability":"view"},{"type":"function","name":"poolsConfig","inputs":[],"outputs":[{"name":"","type":"address","internalType":"contract IPoolsConfig"}],"stateMutability":"view"},{"type":"function","name":"priceAggregator","inputs":[],"outputs":[{"name":"","type":"address","internalType":"contract IPriceAggregator"}],"stateMutability":"view"},{"type":"function","name":"salt","inputs":[],"outputs":[{"name":"","type":"address","internalType":"contract ISalt"}],"stateMutability":"view"},{"type":"function","name":"saltRewards","inputs":[],"outputs":[{"name":"","type":"address","internalType":"contract ISaltRewards"}],"stateMutability":"view"},{"type":"function","name":"stableConfig","inputs":[],"outputs":[{"name":"","type":"address","internalType":"contract IStableConfig"}],"stateMutability":"view"},{"type":"function","name":"step1","inputs":[],"outputs":[],"stateMutability":"nonpayable"},{"type":"function","name":"step10","inputs":[],"outputs":[],"stateMutability":"nonpayable"},{"type":"function","name":"step11","inputs":[],"outputs":[],"stateMutability":"nonpayable"},{"type":"function","name":"step2","inputs":[{"name":"receiver","type":"address","internalType":"address"}],"outputs":[],"stateMutability":"nonpayable"},{"type":"function","name":"step3","inputs":[],"outputs":[],"stateMutability":"nonpayable"},{"type":"function","name":"step4","inputs":[],"outputs":[],"stateMutability":"nonpayable"},{"type":"function","name":"step5","inputs":[],"outputs":[],"stateMutability":"nonpayable"},{"type":"function","name":"step6","inputs":[],"outputs":[],"stateMutability":"nonpayable"},{"type":"function","name":"step7","inputs":[],"outputs":[],"stateMutability":"nonpayable"},{"type":"function","name":"step8","inputs":[],"outputs":[],"stateMutability":"nonpayable"},{"type":"function","name":"step9","inputs":[],"outputs":[],"stateMutability":"nonpayable"},{"type":"function","name":"usds","inputs":[],"outputs":[{"name":"","type":"address","internalType":"contract IUSDS"}],"stateMutability":"view"},{"type":"function","name":"weth","inputs":[],"outputs":[{"name":"","type":"address","internalType":"contract IERC20"}],"stateMutability":"view"},{"type":"event","name":"UpkeepError","inputs":[{"name":"description","type":"string","indexed":false,"internalType":"string"},{"name":"error","type":"bytes","indexed":false,"internalType":"bytes"}],"anonymous":false}],"bytecode":{"object":"0x6102406040523480156200001257600080fd5b5060405162003cd838038062003cd883398101604081905262000035916200031d565b60016000556001600160a01b03808b1660805289811660a081905289821660c05288821660e05287821661010052868216610120528582166101405284821661016052838216610180529082166101a05260408051633fc8cef360e01b81529051633fc8cef3916004808201926020929091908290030181865afa158015620000c2573d6000803e3d6000fd5b505050506040513d601f19601f82011682018060405250810190620000e891906200040b565b6001600160a01b03166101c0816001600160a01b031681525050886001600160a01b031663bfa0b1336040518163ffffffff1660e01b8152600401602060405180830381865afa15801562000141573d6000803e3d6000fd5b505050506040513d601f19601f820116820180604052508101906200016791906200040b565b6001600160a01b03166101e0816001600160a01b031681525050886001600160a01b0316634cf282fb6040518163ffffffff1660e01b8152600401602060405180830381865afa158015620001c0573d6000803e3d6000fd5b505050506040513d601f19601f82011682018060405250810190620001e691906200040b565b6001600160a01b0316610200816001600160a01b031681525050886001600160a01b031663f4b9fa756040518163ffffffff1660e01b8152600401602060405180830381865afa1580156200023f573d6000803e3d6000fd5b505050506040513d601f19601f820116820180604052508101906200026591906200040b565b6001600160a01b03908116610220524260018190556002556101c05160805160405163095ea7b360e01b81529083166004820152600019602482015291169063095ea7b3906044016020604051808303816000875af1158015620002cd573d6000803e3d6000fd5b505050506040513d601f19601f82011682018060405250810190620002f3919062000432565b505050505050505050505062000456565b6001600160a01b03811681146200031a57600080fd5b50565b6000806000806000806000806000806101408b8d0312156200033e57600080fd5b8a516200034b8162000304565b60208c0151909a506200035e8162000304565b60408c0151909950620003718162000304565b60608c0151909850620003848162000304565b60808c0151909750620003978162000304565b60a08c0151909650620003aa8162000304565b60c08c0151909550620003bd8162000304565b60e08c0151909450620003d08162000304565b6101008c0151909350620003e48162000304565b6101208c0151909250620003f88162000304565b809150509295989b9194979a5092959850565b6000602082840312156200041e57600080fd5b81516200042b8162000304565b9392505050565b6000602082840312156200044557600080fd5b815180151581146200042b57600080fd5b60805160a05160c05160e05161010051610120516101405161016051610180516101a0516101c0516101e0516102005161022051613698620006406000396000818161046401526120980152600081816103520152818161207701526128660152600081816103f60152818161066c01528181610736015281816119a501528181612363015281816124a60152818161262301526128450152600081816103040152818161057a01528181610644015281816107e7015281816114370152818161157f01528181611f3c0152818161270a015281816129c80152612ac101526000818161032b015281816107bf0152818161125a01528181612b9501528181612bd60152612c5601526000818161028f015261218e0152600081816102410152611da8015260008181610268015281816107580152818161164f0152818161174a0152611c2a015260006102b60152600081816102dd0152611fcf01526000818161048b01528181610885015281816114c2015261279d0152600081816103830152611b3b0152600081816101f50152818161136d015281816118db01528181612299015281816123dc015261251101526000818161041d015281816106ab0152818161081401528181611a8601528181611c9501528181612a170152612b0a01526136986000f3fe608060405234801561001057600080fd5b50600436106101cf5760003560e01c80637fbaadba11610104578063c5c51dca116100a2578063ec8fca6911610071578063ec8fca6914610457578063f4b9fa751461045f578063fa05dd0014610486578063fb5d7376146104ad57600080fd5b8063c5c51dca14610418578063d40a71fb1461043f578063df4ec24914610447578063eb7c6f721461044f57600080fd5b8063a3221c8e116100de578063a3221c8e146103d9578063ade094b4146103e1578063bddd3a6b146103e9578063bfa0b133146103f157600080fd5b80637fbaadba146103b55780639a14b4e1146103bd5780639c6d55c3146103c657600080fd5b80633fc8cef3116101715780634fb4bcec1161014b5780634fb4bcec1461037457806352c19b5a1461037e578063566f0a7a146103a55780636e4d243a146103ad57600080fd5b80633fc8cef3146102ff5780634162169f146103265780634cf282fb1461034d57600080fd5b806315261eb6116101ad57806315261eb6146102635780632267716c1461028a5780633078fff5146102b15780633ed90861146102d857600080fd5b80630b9f4d2c146101d45780630e2789bb146101f05780630e5c7fbb1461023c575b600080fd5b6101dd60025481565b6040519081526020015b60405180910390f35b6102177f000000000000000000000000000000000000000000000000000000000000000081565b60405173ffffffffffffffffffffffffffffffffffffffff90911681526020016101e7565b6102177f000000000000000000000000000000000000000000000000000000000000000081565b6102177f000000000000000000000000000000000000000000000000000000000000000081565b6102177f000000000000000000000000000000000000000000000000000000000000000081565b6102177f000000000000000000000000000000000000000000000000000000000000000081565b6102177f000000000000000000000000000000000000000000000000000000000000000081565b6102177f000000000000000000000000000000000000000000000000000000000000000081565b6102177f000000000000000000000000000000000000000000000000000000000000000081565b6102177f000000000000000000000000000000000000000000000000000000000000000081565b61037c6104b5565b005b6102177f000000000000000000000000000000000000000000000000000000000000000081565b6101dd610782565b61037c61092c565b61037c6111c9565b6101dd60015481565b61037c6103d4366004612ffa565b6112da565b61037c6115ac565b61037c61184a565b61037c6119f3565b6102177f000000000000000000000000000000000000000000000000000000000000000081565b6102177f000000000000000000000000000000000000000000000000000000000000000081565b61037c611d17565b61037c611e7c565b61037c6120bd565b61037c612206565b6102177f000000000000000000000000000000000000000000000000000000000000000081565b6102177f000000000000000000000000000000000000000000000000000000000000000081565b61037c61264a565b333014610549576040517f08c379a000000000000000000000000000000000000000000000000000000000815260206004820152602b60248201527f4f6e6c792063616c6c61626c652066726f6d2077697468696e2074686520736160448201527f6d6520636f6e747261637400000000000000000000000000000000000000000060648201526084015b60405180910390fd5b6040517f70a082310000000000000000000000000000000000000000000000000000000081523060048201526000907f000000000000000000000000000000000000000000000000000000000000000073ffffffffffffffffffffffffffffffffffffffff16906370a0823190602401602060405180830381865afa1580156105d6573d6000803e3d6000fd5b505050506040513d601f19601f820116820180604052508101906105fa919061301e565b9050806000036106075750565b6040517fe2f7c48000000000000000000000000000000000000000000000000000000000815273ffffffffffffffffffffffffffffffffffffffff7f0000000000000000000000000000000000000000000000000000000000000000811660048301527f00000000000000000000000000000000000000000000000000000000000000008116602483015260448201839052600060648301819052426084840152917f00000000000000000000000000000000000000000000000000000000000000009091169063e2f7c4809060a4016020604051808303816000875af11580156106f6573d6000803e3d6000fd5b505050506040513d601f19601f8201168201806040525081019061071a919061301e565b905061077d73ffffffffffffffffffffffffffffffffffffffff7f0000000000000000000000000000000000000000000000000000000000000000167f00000000000000000000000000000000000000000000000000000000000000008361288b565b50505b565b6040517f2c66285700000000000000000000000000000000000000000000000000000000815273ffffffffffffffffffffffffffffffffffffffff7f0000000000000000000000000000000000000000000000000000000000000000811660048301527f00000000000000000000000000000000000000000000000000000000000000008116602483015260009182917f00000000000000000000000000000000000000000000000000000000000000001690632c66285790604401602060405180830381865afa15801561085b573d6000803e3d6000fd5b505050506040513d601f19601f8201168201806040525081019061087f919061301e565b905060647f000000000000000000000000000000000000000000000000000000000000000073ffffffffffffffffffffffffffffffffffffffff1663712907e06040518163ffffffff1660e01b8152600401602060405180830381865afa1580156108ee573d6000803e3d6000fd5b505050506040513d601f19601f82011682018060405250810190610912919061301e565b61091c9083613066565b6109269190613083565b91505090565b610934612918565b3073ffffffffffffffffffffffffffffffffffffffff1663d40a71fb6040518163ffffffff1660e01b8152600401600060405180830381600087803b15801561097c57600080fd5b505af192505050801561098d575060015b6109fa573d8080156109bb576040519150601f19603f3d011682016040523d82523d6000602084013e6109c0565b606091505b507fe7762b0651bfbbd5079233caae4d6b1d1b6dd07dfc6e4c9cadd09d7494af833e816040516109f0919061312c565b60405180910390a1505b6040517f9c6d55c30000000000000000000000000000000000000000000000000000000081523360048201523090639c6d55c390602401600060405180830381600087803b158015610a4b57600080fd5b505af1925050508015610a5c575060015b610ac9573d808015610a8a576040519150601f19603f3d011682016040523d82523d6000602084013e610a8f565b606091505b507fe7762b0651bfbbd5079233caae4d6b1d1b6dd07dfc6e4c9cadd09d7494af833e81604051610abf9190613173565b60405180910390a1505b3073ffffffffffffffffffffffffffffffffffffffff1663df4ec2496040518163ffffffff1660e01b8152600401600060405180830381600087803b158015610b1157600080fd5b505af1925050508015610b22575060015b610b8f573d808015610b50576040519150601f19603f3d011682016040523d82523d6000602084013e610b55565b606091505b507fe7762b0651bfbbd5079233caae4d6b1d1b6dd07dfc6e4c9cadd09d7494af833e81604051610b8591906131ba565b60405180910390a1505b3073ffffffffffffffffffffffffffffffffffffffff1663fb5d73766040518163ffffffff1660e01b8152600401600060405180830381600087803b158015610bd757600080fd5b505af1925050508015610be8575060015b610c55573d808015610c16576040519150601f19603f3d011682016040523d82523d6000602084013e610c1b565b606091505b507fe7762b0651bfbbd5079233caae4d6b1d1b6dd07dfc6e4c9cadd09d7494af833e81604051610c4b9190613201565b60405180910390a1505b3073ffffffffffffffffffffffffffffffffffffffff16634fb4bcec6040518163ffffffff1660e01b8152600401600060405180830381600087803b158015610c9d57600080fd5b505af1925050508015610cae575060015b610d1b573d808015610cdc576040519150601f19603f3d011682016040523d82523d6000602084013e610ce1565b606091505b507fe7762b0651bfbbd5079233caae4d6b1d1b6dd07dfc6e4c9cadd09d7494af833e81604051610d119190613248565b60405180910390a1505b3073ffffffffffffffffffffffffffffffffffffffff1663eb7c6f726040518163ffffffff1660e01b8152600401600060405180830381600087803b158015610d6357600080fd5b505af1925050508015610d74575060015b610de1573d808015610da2576040519150601f19603f3d011682016040523d82523d6000602084013e610da7565b606091505b507fe7762b0651bfbbd5079233caae4d6b1d1b6dd07dfc6e4c9cadd09d7494af833e81604051610dd7919061328f565b60405180910390a1505b3073ffffffffffffffffffffffffffffffffffffffff1663bddd3a6b6040518163ffffffff1660e01b8152600401600060405180830381600087803b158015610e2957600080fd5b505af1925050508015610e3a575060015b610ea7573d808015610e68576040519150601f19603f3d011682016040523d82523d6000602084013e610e6d565b606091505b507fe7762b0651bfbbd5079233caae4d6b1d1b6dd07dfc6e4c9cadd09d7494af833e81604051610e9d91906132d6565b60405180910390a1505b3073ffffffffffffffffffffffffffffffffffffffff1663a3221c8e6040518163ffffffff1660e01b8152600401600060405180830381600087803b158015610eef57600080fd5b505af1925050508015610f00575060015b610f6d573d808015610f2e576040519150601f19603f3d011682016040523d82523d6000602084013e610f33565b606091505b507fe7762b0651bfbbd5079233caae4d6b1d1b6dd07dfc6e4c9cadd09d7494af833e81604051610f63919061331d565b60405180910390a1505b3073ffffffffffffffffffffffffffffffffffffffff16637fbaadba6040518163ffffffff1660e01b8152600401600060405180830381600087803b158015610fb557600080fd5b505af1925050508015610fc6575060015b611033573d808015610ff4576040519150601f19603f3d011682016040523d82523d6000602084013e610ff9565b606091505b507fe7762b0651bfbbd5079233caae4d6b1d1b6dd07dfc6e4c9cadd09d7494af833e816040516110299190613364565b60405180910390a1505b3073ffffffffffffffffffffffffffffffffffffffff1663ade094b46040518163ffffffff1660e01b8152600401600060405180830381600087803b15801561107b57600080fd5b505af192505050801561108c575060015b6110f9573d8080156110ba576040519150601f19603f3d011682016040523d82523d6000602084013e6110bf565b606091505b507fe7762b0651bfbbd5079233caae4d6b1d1b6dd07dfc6e4c9cadd09d7494af833e816040516110ef91906133ab565b60405180910390a1505b3073ffffffffffffffffffffffffffffffffffffffff1663ec8fca696040518163ffffffff1660e01b8152600401600060405180830381600087803b15801561114157600080fd5b505af1925050508015611152575060015b6111bf573d808015611180576040519150601f19603f3d011682016040523d82523d6000602084013e611185565b606091505b507fe7762b0651bfbbd5079233caae4d6b1d1b6dd07dfc6e4c9cadd09d7494af833e816040516111b591906133f2565b60405180910390a1505b6107806001600055565b333014611258576040517f08c379a000000000000000000000000000000000000000000000000000000000815260206004820152602b60248201527f4f6e6c792063616c6c61626c652066726f6d2077697468696e2074686520736160448201527f6d6520636f6e74726163740000000000000000000000000000000000000000006064820152608401610540565b7f000000000000000000000000000000000000000000000000000000000000000073ffffffffffffffffffffffffffffffffffffffff16637785dcd66040518163ffffffff1660e01b8152600401600060405180830381600087803b1580156112c057600080fd5b505af11580156112d4573d6000803e3d6000fd5b50505050565b333014611369576040517f08c379a000000000000000000000000000000000000000000000000000000000815260206004820152602b60248201527f4f6e6c792063616c6c61626c652066726f6d2077697468696e2074686520736160448201527f6d6520636f6e74726163740000000000000000000000000000000000000000006064820152608401610540565b60007f000000000000000000000000000000000000000000000000000000000000000073ffffffffffffffffffffffffffffffffffffffff16634162169f6040518163ffffffff1660e01b8152600401602060405180830381865afa1580156113d6573d6000803e3d6000fd5b505050506040513d601f19601f820116820180604052508101906113fa9190613439565b6040517f7991db8900000000000000000000000000000000000000000000000000000000815273ffffffffffffffffffffffffffffffffffffffff7f0000000000000000000000000000000000000000000000000000000000000000811660048301529190911690637991db89906024016020604051808303816000875af115801561148a573d6000803e3d6000fd5b505050506040513d601f19601f820116820180604052508101906114ae919061301e565b9050806000036114bc575050565b600060647f000000000000000000000000000000000000000000000000000000000000000073ffffffffffffffffffffffffffffffffffffffff1663712907e06040518163ffffffff1660e01b8152600401602060405180830381865afa15801561152b573d6000803e3d6000fd5b505050506040513d601f19601f8201168201806040525081019061154f919061301e565b6115599084613066565b6115639190613083565b90506115a673ffffffffffffffffffffffffffffffffffffffff7f000000000000000000000000000000000000000000000000000000000000000016848361288b565b50505b50565b33301461163b576040517f08c379a000000000000000000000000000000000000000000000000000000000815260206004820152602b60248201527f4f6e6c792063616c6c61626c652066726f6d2077697468696e2074686520736160448201527f6d6520636f6e74726163740000000000000000000000000000000000000000006064820152608401610540565b60006002544261164b9190613456565b90507f000000000000000000000000000000000000000000000000000000000000000073ffffffffffffffffffffffffffffffffffffffff166333c6ae716040518163ffffffff1660e01b8152600401602060405180830381865afa1580156116b8573d6000803e3d6000fd5b505050506040513d601f19601f820116820180604052508101906116dc9190613439565b73ffffffffffffffffffffffffffffffffffffffff16633164f3f2826040518263ffffffff1660e01b815260040161171691815260200190565b600060405180830381600087803b15801561173057600080fd5b505af1158015611744573d6000803e3d6000fd5b505050507f000000000000000000000000000000000000000000000000000000000000000073ffffffffffffffffffffffffffffffffffffffff16637af0eb396040518163ffffffff1660e01b8152600401602060405180830381865afa1580156117b3573d6000803e3d6000fd5b505050506040513d601f19601f820116820180604052508101906117d79190613439565b73ffffffffffffffffffffffffffffffffffffffff16633164f3f2826040518263ffffffff1660e01b815260040161181191815260200190565b600060405180830381600087803b15801561182b57600080fd5b505af115801561183f573d6000803e3d6000fd5b505042600255505050565b3330146118d9576040517f08c379a000000000000000000000000000000000000000000000000000000000815260206004820152602b60248201527f4f6e6c792063616c6c61626c652066726f6d2077697468696e2074686520736160448201527f6d6520636f6e74726163740000000000000000000000000000000000000000006064820152608401610540565b7f000000000000000000000000000000000000000000000000000000000000000073ffffffffffffffffffffffffffffffffffffffff16638286e4cd6040518163ffffffff1660e01b8152600401602060405180830381865afa158015611944573d6000803e3d6000fd5b505050506040513d601f19601f820116820180604052508101906119689190613439565b6040517f1916558700000000000000000000000000000000000000000000000000000000815273ffffffffffffffffffffffffffffffffffffffff7f0000000000000000000000000000000000000000000000000000000000000000811660048301529190911690631916558790602401600060405180830381600087803b1580156112c057600080fd5b333014611a82576040517f08c379a000000000000000000000000000000000000000000000000000000000815260206004820152602b60248201527f4f6e6c792063616c6c61626c652066726f6d2077697468696e2074686520736160448201527f6d6520636f6e74726163740000000000000000000000000000000000000000006064820152608401610540565b60007f000000000000000000000000000000000000000000000000000000000000000073ffffffffffffffffffffffffffffffffffffffff16631959df066040518163ffffffff1660e01b8152600401600060405180830381865afa158015611aef573d6000803e3d6000fd5b505050506040513d6000823e601f3d9081017fffffffffffffffffffffffffffffffffffffffffffffffffffffffffffffffe0168201604052611b35919081019061350b565b905060007f000000000000000000000000000000000000000000000000000000000000000073ffffffffffffffffffffffffffffffffffffffff1663434798856040518163ffffffff1660e01b8152600401600060405180830381865afa158015611ba4573d6000803e3d6000fd5b505050506040513d6000823e601f3d9081017fffffffffffffffffffffffffffffffffffffffffffffffffffffffffffffffe0168201604052611bea919081019061350b565b6040517febbe9aa300000000000000000000000000000000000000000000000000000000815290915073ffffffffffffffffffffffffffffffffffffffff7f0000000000000000000000000000000000000000000000000000000000000000169063ebbe9aa390611c619084908690600401613596565b600060405180830381600087803b158015611c7b57600080fd5b505af1158015611c8f573d6000803e3d6000fd5b505050507f000000000000000000000000000000000000000000000000000000000000000073ffffffffffffffffffffffffffffffffffffffff1663c4de17826040518163ffffffff1660e01b8152600401600060405180830381600087803b158015611cfb57600080fd5b505af1158015611d0f573d6000803e3d6000fd5b505050505050565b333014611da6576040517f08c379a000000000000000000000000000000000000000000000000000000000815260206004820152602b60248201527f4f6e6c792063616c6c61626c652066726f6d2077697468696e2074686520736160448201527f6d6520636f6e74726163740000000000000000000000000000000000000000006064820152608401610540565b7f000000000000000000000000000000000000000000000000000000000000000073ffffffffffffffffffffffffffffffffffffffff1663012bdab06040518163ffffffff1660e01b8152600401602060405180830381865afa158015611e11573d6000803e3d6000fd5b505050506040513d601f19601f82011682018060405250810190611e359190613439565b73ffffffffffffffffffffffffffffffffffffffff16636e4d243a6040518163ffffffff1660e01b8152600401600060405180830381600087803b1580156112c057600080fd5b333014611f0b576040517f08c379a000000000000000000000000000000000000000000000000000000000815260206004820152602b60248201527f4f6e6c792063616c6c61626c652066726f6d2077697468696e2074686520736160448201527f6d6520636f6e74726163740000000000000000000000000000000000000000006064820152608401610540565b6040517f70a082310000000000000000000000000000000000000000000000000000000081523060048201526000907f000000000000000000000000000000000000000000000000000000000000000073ffffffffffffffffffffffffffffffffffffffff16906370a0823190602401602060405180830381865afa158015611f98573d6000803e3d6000fd5b505050506040513d601f19601f82011682018060405250810190611fbc919061301e565b905080600003611fc95750565b600060647f000000000000000000000000000000000000000000000000000000000000000073ffffffffffffffffffffffffffffffffffffffff16636c51c2c26040518163ffffffff1660e01b8152600401602060405180830381865afa158015612038573d6000803e3d6000fd5b505050506040513d601f19601f8201168201806040525081019061205c919061301e565b6120669084613066565b6120709190613083565b905061077d7f00000000000000000000000000000000000000000000000000000000000000007f00000000000000000000000000000000000000000000000000000000000000008361298b565b33301461214c576040517f08c379a000000000000000000000000000000000000000000000000000000000815260206004820152602b60248201527f4f6e6c792063616c6c61626c652066726f6d2077697468696e2074686520736160448201527f6d6520636f6e74726163740000000000000000000000000000000000000000006064820152608401610540565b60006001544261215c9190613456565b6040517f3164f3f2000000000000000000000000000000000000000000000000000000008152600481018290529091507f000000000000000000000000000000000000000000000000000000000000000073ffffffffffffffffffffffffffffffffffffffff1690633164f3f290602401600060405180830381600087803b1580156121e757600080fd5b505af11580156121fb573d6000803e3d6000fd5b505042600155505050565b333014612295576040517f08c379a000000000000000000000000000000000000000000000000000000000815260206004820152602b60248201527f4f6e6c792063616c6c61626c652066726f6d2077697468696e2074686520736160448201527f6d6520636f6e74726163740000000000000000000000000000000000000000006064820152608401610540565b60007f000000000000000000000000000000000000000000000000000000000000000073ffffffffffffffffffffffffffffffffffffffff1663fb3d924a6040518163ffffffff1660e01b8152600401602060405180830381865afa158015612302573d6000803e3d6000fd5b505050506040513d601f19601f820116820180604052508101906123269190613439565b6040517fa3f8eace00000000000000000000000000000000000000000000000000000000815273ffffffffffffffffffffffffffffffffffffffff7f000000000000000000000000000000000000000000000000000000000000000081166004830152919091169063a3f8eace90602401602060405180830381865afa1580156123b4573d6000803e3d6000fd5b505050506040513d601f19601f820116820180604052508101906123d8919061301e565b90507f000000000000000000000000000000000000000000000000000000000000000073ffffffffffffffffffffffffffffffffffffffff1663fb3d924a6040518163ffffffff1660e01b8152600401602060405180830381865afa158015612445573d6000803e3d6000fd5b505050506040513d601f19601f820116820180604052508101906124699190613439565b6040517f1916558700000000000000000000000000000000000000000000000000000000815273ffffffffffffffffffffffffffffffffffffffff7f0000000000000000000000000000000000000000000000000000000000000000811660048301529190911690631916558790602401600060405180830381600087803b1580156124f457600080fd5b505af1158015612508573d6000803e3d6000fd5b505050506115a97f000000000000000000000000000000000000000000000000000000000000000073ffffffffffffffffffffffffffffffffffffffff166395a118216040518163ffffffff1660e01b8152600401602060405180830381865afa15801561257a573d6000803e3d6000fd5b505050506040513d601f19601f8201168201806040525081019061259e9190613439565b73ffffffffffffffffffffffffffffffffffffffff166323b62b756040518163ffffffff1660e01b8152600401602060405180830381865afa1580156125e8573d6000803e3d6000fd5b505050506040513d601f19601f8201168201806040525081019061260c9190613439565b73ffffffffffffffffffffffffffffffffffffffff7f000000000000000000000000000000000000000000000000000000000000000016908361288b565b3330146126d9576040517f08c379a000000000000000000000000000000000000000000000000000000000815260206004820152602b60248201527f4f6e6c792063616c6c61626c652066726f6d2077697468696e2074686520736160448201527f6d6520636f6e74726163740000000000000000000000000000000000000000006064820152608401610540565b6040517f70a082310000000000000000000000000000000000000000000000000000000081523060048201526000907f000000000000000000000000000000000000000000000000000000000000000073ffffffffffffffffffffffffffffffffffffffff16906370a0823190602401602060405180830381865afa158015612766573d6000803e3d6000fd5b505050506040513d601f19601f8201168201806040525081019061278a919061301e565b9050806000036127975750565b600060647f000000000000000000000000000000000000000000000000000000000000000073ffffffffffffffffffffffffffffffffffffffff166318981ff46040518163ffffffff1660e01b8152600401602060405180830381865afa158015612806573d6000803e3d6000fd5b505050506040513d601f19601f8201168201806040525081019061282a919061301e565b6128349084613066565b61283e9190613083565b905061077d7f00000000000000000000000000000000000000000000000000000000000000007f00000000000000000000000000000000000000000000000000000000000000008361298b565b6040805173ffffffffffffffffffffffffffffffffffffffff8416602482015260448082018490528251808303909101815260649091019091526020810180517bffffffffffffffffffffffffffffffffffffffffffffffffffffffff167fa9059cbb000000000000000000000000000000000000000000000000000000001790526115a6908490612cba565b600260005403612984576040517f08c379a000000000000000000000000000000000000000000000000000000000815260206004820152601f60248201527f5265656e7472616e637947756172643a207265656e7472616e742063616c6c006044820152606401610540565b6002600055565b6040517fe2f7c48000000000000000000000000000000000000000000000000000000000815273ffffffffffffffffffffffffffffffffffffffff7f0000000000000000000000000000000000000000000000000000000000000000811660048301528481166024830152600183901c60448301819052600060648401819052426084850152909290917f0000000000000000000000000000000000000000000000000000000000000000169063e2f7c4809060a4016020604051808303816000875af1158015612a60573d6000803e3d6000fd5b505050506040513d601f19601f82011682018060405250810190612a84919061301e565b6040517fe2f7c48000000000000000000000000000000000000000000000000000000000815273ffffffffffffffffffffffffffffffffffffffff7f0000000000000000000000000000000000000000000000000000000000000000811660048301528681166024830152604482018590526000606483018190524260848401529293507f0000000000000000000000000000000000000000000000000000000000000000169063e2f7c4809060a4016020604051808303816000875af1158015612b53573d6000803e3d6000fd5b505050506040513d601f19601f82011682018060405250810190612b77919061301e565b9050612bba73ffffffffffffffffffffffffffffffffffffffff87167f00000000000000000000000000000000000000000000000000000000000000008461288b565b612bfb73ffffffffffffffffffffffffffffffffffffffff86167f00000000000000000000000000000000000000000000000000000000000000008361288b565b6040517f2e6dcebb00000000000000000000000000000000000000000000000000000000815273ffffffffffffffffffffffffffffffffffffffff8781166004830152868116602483015260448201849052606482018390527f00000000000000000000000000000000000000000000000000000000000000001690632e6dcebb90608401600060405180830381600087803b158015612c9a57600080fd5b505af1158015612cae573d6000803e3d6000fd5b50505050505050505050565b6000612d1c826040518060400160405280602081526020017f5361666545524332303a206c6f772d6c6576656c2063616c6c206661696c65648152508573ffffffffffffffffffffffffffffffffffffffff16612dc99092919063ffffffff16565b9050805160001480612d3d575080806020019051810190612d3d9190613611565b6115a6576040517f08c379a000000000000000000000000000000000000000000000000000000000815260206004820152602a60248201527f5361666545524332303a204552433230206f7065726174696f6e20646964206e60448201527f6f742073756363656564000000000000000000000000000000000000000000006064820152608401610540565b6060612dd88484600085612de0565b949350505050565b606082471015612e72576040517f08c379a000000000000000000000000000000000000000000000000000000000815260206004820152602660248201527f416464726573733a20696e73756666696369656e742062616c616e636520666f60448201527f722063616c6c00000000000000000000000000000000000000000000000000006064820152608401610540565b6000808673ffffffffffffffffffffffffffffffffffffffff168587604051612e9b9190613633565b60006040518083038185875af1925050503d8060008114612ed8576040519150601f19603f3d011682016040523d82523d6000602084013e612edd565b606091505b5091509150612eee87838387612ef9565b979650505050505050565b60608315612f8f578251600003612f885773ffffffffffffffffffffffffffffffffffffffff85163b612f88576040517f08c379a000000000000000000000000000000000000000000000000000000000815260206004820152601d60248201527f416464726573733a2063616c6c20746f206e6f6e2d636f6e74726163740000006044820152606401610540565b5081612dd8565b612dd88383815115612fa45781518083602001fd5b806040517f08c379a0000000000000000000000000000000000000000000000000000000008152600401610540919061364f565b73ffffffffffffffffffffffffffffffffffffffff811681146115a957600080fd5b60006020828403121561300c57600080fd5b813561301781612fd8565b9392505050565b60006020828403121561303057600080fd5b5051919050565b7f4e487b7100000000000000000000000000000000000000000000000000000000600052601160045260246000fd5b808202811582820484141761307d5761307d613037565b92915050565b6000826130b9577f4e487b7100000000000000000000000000000000000000000000000000000000600052601260045260246000fd5b500490565b60005b838110156130d95781810151838201526020016130c1565b50506000910152565b600081518084526130fa8160208601602086016130be565b601f017fffffffffffffffffffffffffffffffffffffffffffffffffffffffffffffffe0169290920160200192915050565b60408152600660408201527f5374657020310000000000000000000000000000000000000000000000000000606082015260806020820152600061301760808301846130e2565b60408152600660408201527f5374657020320000000000000000000000000000000000000000000000000000606082015260806020820152600061301760808301846130e2565b60408152600660408201527f5374657020330000000000000000000000000000000000000000000000000000606082015260806020820152600061301760808301846130e2565b60408152600660408201527f5374657020340000000000000000000000000000000000000000000000000000606082015260806020820152600061301760808301846130e2565b60408152600660408201527f5374657020350000000000000000000000000000000000000000000000000000606082015260806020820152600061301760808301846130e2565b60408152600660408201527f5374657020360000000000000000000000000000000000000000000000000000606082015260806020820152600061301760808301846130e2565b60408152600660408201527f5374657020370000000000000000000000000000000000000000000000000000606082015260806020820152600061301760808301846130e2565b60408152600660408201527f5374657020380000000000000000000000000000000000000000000000000000606082015260806020820152600061301760808301846130e2565b60408152600660408201527f5374657020390000000000000000000000000000000000000000000000000000606082015260806020820152600061301760808301846130e2565b60408152600760408201527f5374657020313000000000000000000000000000000000000000000000000000606082015260806020820152600061301760808301846130e2565b60408152600760408201527f5374657020313100000000000000000000000000000000000000000000000000606082015260806020820152600061301760808301846130e2565b60006020828403121561344b57600080fd5b815161301781612fd8565b8181038181111561307d5761307d613037565b7f4e487b7100000000000000000000000000000000000000000000000000000000600052604160045260246000fd5b604051601f82017fffffffffffffffffffffffffffffffffffffffffffffffffffffffffffffffe016810167ffffffffffffffff811182821017156134df576134df613469565b604052919050565b600067ffffffffffffffff82111561350157613501613469565b5060051b60200190565b6000602080838503121561351e57600080fd5b825167ffffffffffffffff81111561353557600080fd5b8301601f8101851361354657600080fd5b8051613559613554826134e7565b613498565b81815260059190911b8201830190838101908783111561357857600080fd5b928401925b82841015612eee5783518252928401929084019061357d565b604080825283519082018190526000906020906060840190828701845b828110156135cf578151845292840192908401906001016135b3565b5050508381038285015284518082528583019183019060005b81811015613604578351835292840192918401916001016135e8565b5090979650505050505050565b60006020828403121561362357600080fd5b8151801515811461301757600080fd5b600082516136458184602087016130be565b9190910192915050565b60208152600061301760208301846130e256fea264697066735822122021b9b589641d70b22137b769c57da4e810f022a65eef0a0f031657b6549db4fd64736f6c63430008160033","linkReferences":{}},"methodIdentifiers":{"collateralAndLiquidity()":"0e5c7fbb","currentRewardsForCallingPerformUpkeep()":"566f0a7a","dai()":"f4b9fa75","dao()":"4162169f","daoConfig()":"fa05dd00","emissions()":"2267716c","exchangeConfig()":"0e2789bb","lastUpkeepTimeEmissions()":"9a14b4e1","lastUpkeepTimeRewardsEmitters()":"0b9f4d2c","performUpkeep()":"6e4d243a","pools()":"c5c51dca","poolsConfig()":"52c19b5a","priceAggregator()":"3078fff5","salt()":"bfa0b133","saltRewards()":"15261eb6","stableConfig()":"3ed90861","step1()":"d40a71fb","step10()":"ade094b4","step11()":"ec8fca69","step2(address)":"9c6d55c3","step3()":"df4ec249","step4()":"fb5d7376","step5()":"4fb4bcec","step6()":"eb7c6f72","step7()":"bddd3a6b","step8()":"a3221c8e","step9()":"7fbaadba","usds()":"4cf282fb","weth()":"3fc8cef3"},"id":48}