{"abi":[{"type":"function","name":"changeInitialCollateralRatioPercent","inputs":[{"name":"increase","type":"bool","internalType":"bool"}],"outputs":[],"stateMutability":"nonpayable"},{"type":"function","name":"changeMaxRewardValueForCallingLiquidation","inputs":[{"name":"increase","type":"bool","internalType":"bool"}],"outputs":[],"stateMutability":"nonpayable"},{"type":"function","name":"changeMinimumCollateralRatioPercent","inputs":[{"name":"increase","type":"bool","internalType":"bool"}],"outputs":[],"stateMutability":"nonpayable"},{"type":"function","name":"changeMinimumCollateralValueForBorrowing","inputs":[{"name":"increase","type":"bool","internalType":"bool"}],"outputs":[],"stateMutability":"nonpayable"},{"type":"function","name":"changePercentArbitrageProfitsForStablePOL","inputs":[{"name":"increase","type":"bool","internalType":"bool"}],"outputs":[],"stateMutability":"nonpayable"},{"type":"function","name":"changeRewardPercentForCallingLiquidation","inputs":[{"name":"increase","type":"bool","internalType":"bool"}],"outputs":[],"stateMutability":"nonpayable"},{"type":"function","name":"initialCollateralRatioPercent","inputs":[],"outputs":[{"name":"","type":"uint256","internalType":"uint256"}],"stateMutability":"view"},{"type":"function","name":"maxRewardValueForCallingLiquidation","inputs":[],"outputs":[{"name":"","type":"uint256","internalType":"uint256"}],"stateMutability":"view"},{"type":"function","name":"minimumCollateralRatioPercent","inputs":[],"outputs":[{"name":"","type":"uint256","internalType":"uint256"}],"stateMutability":"view"},{"type":"function","name":"minimumCollateralValueForBorrowing","inputs":[],"outputs":[{"name":"","type":"uint256","internalType":"uint256"}],"stateMutability":"view"},{"type":"function","name":"owner","inputs":[],"outputs":[{"name":"","type":"address","internalType":"address"}],"stateMutability":"view"},{"type":"function","name":"percentArbitrageProfitsForStablePOL","inputs":[],"outputs":[{"name":"","type":"uint256","internalType":"uint256"}],"stateMutability":"view"},{"type":"function","name":"renounceOwnership","inputs":[],"outputs":[],"stateMutability":"nonpayable"},{"type":"function","name":"rewardPercentForCallingLiquidation","inputs":[],"outputs":[{"name":"","type":"uint256","internalType":"uint256"}],"stateMutability":"view"},{"type":"function","name":"transferOwnership","inputs":[{"name":"newOwner","type":"address","internalType":"address"}],"outputs":[],"stateMutability":"nonpayable"},{"type":"event","name":"InitialCollateralRatioPercentChanged","inputs":[{"name":"newInitialCollateralRatioPercent","type":"uint256","indexed":false,"internalType":"uint256"}],"anonymous":false},{"type":"event","name":"MaxRewardValueForCallingLiquidationChanged","inputs":[{"name":"newMaxRewardValue","type":"uint256","indexed":false,"internalType":"uint256"}],"anonymous":false},{"type":"event","name":"MinimumCollateralRatioPercentChanged","inputs":[{"name":"newMinimumCollateralRatioPercent","type":"uint256","indexed":false,"internalType":"uint256"}],"anonymous":false},{"type":"event","name":"MinimumCollateralValueForBorrowingChanged","inputs":[{"name":"newMinimumCollateralValue","type":"uint256","indexed":false,"internalType":"uint256"}],"anonymous":false},{"type":"event","name":"OwnershipTransferred","inputs":[{"name":"previousOwner","type":"address","indexed":true,"internalType":"address"},{"name":"newOwner","type":"address","indexed":true,"internalType":"address"}],"anonymous":false},{"type":"event","name":"PercentArbitrageProfitsForStablePOLChanged","inputs":[{"name":"newPercentArbitrageProfits","type":"uint256","indexed":false,"internalType":"uint256"}],"anonymous":false},{"type":"event","name":"RewardPercentForCallingLiquidationChanged","inputs":[{"name":"newRewardPercent","type":"uint256","indexed":false,"internalType":"uint256"}],"anonymous":false}],"bytecode":{"object":"0x60806040526005600155681b1ae4d6e2ef50000060025568878678326eac90000060035560c8600455606e600555600560065534801561003e57600080fd5b506100483361004d565b61009d565b600080546001600160a01b038381166001600160a01b0319831681178455604051919092169283917f8be0079c531659141344cd1fd0a4f28419497f9722a3daafe3b4186f6b6457e09190a35050565b6108ab806100ac6000396000f3fe608060405234801561001057600080fd5b50600436106100f55760003560e01c8063ac5d153511610097578063ced84d5611610066578063ced84d56146101c2578063e69800c8146101d5578063f2fde38b146101de578063fab706bb146101f157600080fd5b8063ac5d153514610180578063ad836f0814610189578063afbf56a91461019c578063b2a550b3146101af57600080fd5b8063715018a6116100d3578063715018a61461013e5780637fb93ade146101465780638da5cb5b1461014f57806391e7cdbc1461017757600080fd5b8063204818cd146100fa5780633ed33a781461010f5780636c51c2c214610122575b600080fd5b61010d6101083660046107bb565b6101fa565b005b61010d61011d3660046107bb565b6102b4565b61012b60065481565b6040519081526020015b60405180910390f35b61010d61036d565b61012b60055481565b60005460405173ffffffffffffffffffffffffffffffffffffffff9091168152602001610135565b61012b60015481565b61012b60035481565b61010d6101973660046107bb565b610381565b61010d6101aa3660046107bb565b61042f565b61010d6101bd3660046107bb565b6104be565b61010d6101d03660046107bb565b61057b565b61012b60045481565b61010d6101ec3660046107e4565b610609565b61012b60025481565b6102026106c5565b80156102425769010f0cf064dd59200000600354101561023d57681b1ae4d6e2ef500000600360008282546102379190610849565b90915550505b610276565b683635c9adc5dea00000600354111561027657681b1ae4d6e2ef500000600360008282546102709190610862565b90915550505b7f6282f7ae68367fd2281b22e0dd38811ca98fab7a7e27b72edc4d74c20d3781716003546040516102a991815260200190565b60405180910390a150565b6102bc6106c5565b8015610317576000600180546005546102d59190610862565b6102df9190610862565b9050606981101580156102f45750600a600154105b1561031157600180600082825461030b9190610849565b90915550505b5061033a565b6005600154111561033a5760018060008282546103349190610862565b90915550505b7fcf7c7b5ce3fac34da9f83c5d595319937c72c6c2106e1d31c5cf1fae50449d8f6001546040516102a991815260200190565b6103756106c5565b61037f6000610746565b565b6103896106c5565b80156103c857683635c9adc5dea0000060025410156103c35768056bc75e2d63100000600260008282546103bd9190610849565b90915550505b6103fc565b68056bc75e2d6310000060025411156103fc5768056bc75e2d63100000600260008282546103f69190610862565b90915550505b7f0def309ed8de2ed3413c7eaf9775c73df5815e3c2cf188f6f275ec7f570840276002546040516102a991815260200190565b6104376106c5565b80156104675761012c60045410156104625760196004600082825461045c9190610849565b90915550505b61048b565b6096600454111561048b576019600460008282546104859190610862565b90915550505b7f755fe846631b693596c3e831f83650597230b060c668547bb41df979ba2c4fd96004546040516102a991815260200190565b6104c66106c5565b80156104f557607860055410156104f0576001600560008282546104ea9190610849565b90915550505b610548565b600060015460016005546105099190610862565b6105139190610862565b9050606981101580156105285750606e600554115b15610546576001600560008282546105409190610862565b90915550505b505b7f6b162a861455d02fce10ebd5f3e50a740f98fa4b1268c80f2c475a570ec5436d6005546040516102a991815260200190565b6105836106c5565b80156105b257600a60065410156105ad576001600660008282546105a79190610849565b90915550505b6105d6565b600160065411156105d6576001600660008282546105d09190610862565b90915550505b7f01dd9b3f6abbc6146a2992d34394b9c93ddae6e940366403ba33014355d9c15b6006546040516102a991815260200190565b6106116106c5565b73ffffffffffffffffffffffffffffffffffffffff81166106b9576040517f08c379a000000000000000000000000000000000000000000000000000000000815260206004820152602660248201527f4f776e61626c653a206e6577206f776e657220697320746865207a65726f206160448201527f646472657373000000000000000000000000000000000000000000000000000060648201526084015b60405180910390fd5b6106c281610746565b50565b60005473ffffffffffffffffffffffffffffffffffffffff16331461037f576040517f08c379a000000000000000000000000000000000000000000000000000000000815260206004820181905260248201527f4f776e61626c653a2063616c6c6572206973206e6f7420746865206f776e657260448201526064016106b0565b6000805473ffffffffffffffffffffffffffffffffffffffff8381167fffffffffffffffffffffffff0000000000000000000000000000000000000000831681178455604051919092169283917f8be0079c531659141344cd1fd0a4f28419497f9722a3daafe3b4186f6b6457e09190a35050565b6000602082840312156107cd57600080fd5b813580151581146107dd57600080fd5b9392505050565b6000602082840312156107f657600080fd5b813573ffffffffffffffffffffffffffffffffffffffff811681146107dd57600080fd5b7f4e487b7100000000000000000000000000000000000000000000000000000000600052601160045260246000fd5b8082018082111561085c5761085c61081a565b92915050565b8181038181111561085c5761085c61081a56fea2646970667358221220d5f93c379f6965692182faf5c962fa8e9e19a5b7a736e56d54ac9bf30a5d58f364736f6c63430008160033","linkReferences":{}},"methodIdentifiers":{"changeInitialCollateralRatioPercent(bool)":"afbf56a9","changeMaxRewardValueForCallingLiquidation(bool)":"ad836f08","changeMinimumCollateralRatioPercent(bool)":"b2a550b3","changeMinimumCollateralValueForBorrowing(bool)":"204818cd","changePercentArbitrageProfitsForStablePOL(bool)":"ced84d56","changeRewardPercentForCallingLiquidation(bool)":"3ed33a78","initialCollateralRatioPercent()":"e69800c8","maxRewardValueForCallingLiquidation()":"fab706bb","minimumCollateralRatioPercent()":"7fb93ade","minimumCollateralValueForBorrowing()":"ac5d1535","owner()":"8da5cb5b","percentArbitrageProfitsForStablePOL()":"6c51c2c2","renounceOwnership()":"715018a6","rewardPercentForCallingLiquidation()":"91e7cdbc","transferOwnership(address)":"f2fde38b"},"id":150}