{"abi":[{"type":"function","name":"EXPECTED_SIGNER","inputs":[],"outputs":[{"name":"","type":"address","internalType":"address"}],"stateMutability":"view"}],"bytecode":{"object":"0x60b1610038600b82828239805160001a607314602b57634e487b7160e01b600052600060045260246000fd5b30600052607381538281f3fe730000000000000000000000000000000000000000301460806040526004361060335760003560e01c8063a99a3649146038575b600080fd5b6052731234519dca2ef23207e1ca7fd70b96f281893baa81565b60405173ffffffffffffffffffffffffffffffffffffffff909116815260200160405180910390f3fea2646970667358221220bb230251b8273d7c9b46647c89a68169b49c85be8f18fbbe3a6a94a78bf7658d64736f6c63430008160033","linkReferences":{}},"methodIdentifiers":{"EXPECTED_SIGNER()":"a99a3649"},"id":47}