{"abi":[{"type":"constructor","inputs":[{"name":"_pools","type":"address","internalType":"contract IPools"},{"name":"_exchangeConfig","type":"address","internalType":"contract IExchangeConfig"},{"name":"_poolsConfig","type":"address","internalType":"contract IPoolsConfig"},{"name":"_stakingConfig","type":"address","internalType":"contract IStakingConfig"},{"name":"_stableConfig","type":"address","internalType":"contract IStableConfig"},{"name":"_priceAggregator","type":"address","internalType":"contract IPriceAggregator"},{"name":"_liquidizer","type":"address","internalType":"contract ILiquidizer"}],"stateMutability":"nonpayable"},{"type":"function","name":"addSALTRewards","inputs":[{"name":"addedRewards","type":"tuple[]","internalType":"struct AddedReward[]","components":[{"name":"poolID","type":"bytes32","internalType":"bytes32"},{"name":"amountToAdd","type":"uint256","internalType":"uint256"}]}],"outputs":[],"stateMutability":"nonpayable"},{"type":"function","name":"borrowUSDS","inputs":[{"name":"amountBorrowed","type":"uint256","internalType":"uint256"}],"outputs":[],"stateMutability":"nonpayable"},{"type":"function","name":"canUserBeLiquidated","inputs":[{"name":"wallet","type":"address","internalType":"address"}],"outputs":[{"name":"","type":"bool","internalType":"bool"}],"stateMutability":"view"},{"type":"function","name":"claimAllRewards","inputs":[{"name":"poolIDs","type":"bytes32[]","internalType":"bytes32[]"}],"outputs":[{"name":"claimableRewards","type":"uint256","internalType":"uint256"}],"stateMutability":"nonpayable"},{"type":"function","name":"collateralPoolID","inputs":[],"outputs":[{"name":"","type":"bytes32","internalType":"bytes32"}],"stateMutability":"view"},{"type":"function","name":"depositCollateralAndIncreaseShare","inputs":[{"name":"maxAmountWBTC","type":"uint256","internalType":"uint256"},{"name":"maxAmountWETH","type":"uint256","internalType":"uint256"},{"name":"minLiquidityReceived","type":"uint256","internalType":"uint256"},{"name":"deadline","type":"uint256","internalType":"uint256"},{"name":"useZapping","type":"bool","internalType":"bool"}],"outputs":[{"name":"addedAmountWBTC","type":"uint256","internalType":"uint256"},{"name":"addedAmountWETH","type":"uint256","internalType":"uint256"},{"name":"addedLiquidity","type":"uint256","internalType":"uint256"}],"stateMutability":"nonpayable"},{"type":"function","name":"depositLiquidityAndIncreaseShare","inputs":[{"name":"tokenA","type":"address","internalType":"contract IERC20"},{"name":"tokenB","type":"address","internalType":"contract IERC20"},{"name":"maxAmountA","type":"uint256","internalType":"uint256"},{"name":"maxAmountB","type":"uint256","internalType":"uint256"},{"name":"minLiquidityReceived","type":"uint256","internalType":"uint256"},{"name":"deadline","type":"uint256","internalType":"uint256"},{"name":"useZapping","type":"bool","internalType":"bool"}],"outputs":[{"name":"addedAmountA","type":"uint256","internalType":"uint256"},{"name":"addedAmountB","type":"uint256","internalType":"uint256"},{"name":"addedLiquidity","type":"uint256","internalType":"uint256"}],"stateMutability":"nonpayable"},{"type":"function","name":"exchangeConfig","inputs":[],"outputs":[{"name":"","type":"address","internalType":"contract IExchangeConfig"}],"stateMutability":"view"},{"type":"function","name":"findLiquidatableUsers","inputs":[{"name":"startIndex","type":"uint256","internalType":"uint256"},{"name":"endIndex","type":"uint256","internalType":"uint256"}],"outputs":[{"name":"","type":"address[]","internalType":"address[]"}],"stateMutability":"view"},{"type":"function","name":"findLiquidatableUsers","inputs":[],"outputs":[{"name":"","type":"address[]","internalType":"address[]"}],"stateMutability":"view"},{"type":"function","name":"liquidateUser","inputs":[{"name":"wallet","type":"address","internalType":"address"}],"outputs":[],"stateMutability":"nonpayable"},{"type":"function","name":"liquidizer","inputs":[],"outputs":[{"name":"","type":"address","internalType":"contract ILiquidizer"}],"stateMutability":"view"},{"type":"function","name":"maxBorrowableUSDS","inputs":[{"name":"wallet","type":"address","internalType":"address"}],"outputs":[{"name":"","type":"uint256","internalType":"uint256"}],"stateMutability":"view"},{"type":"function","name":"maxWithdrawableCollateral","inputs":[{"name":"wallet","type":"address","internalType":"address"}],"outputs":[{"name":"","type":"uint256","internalType":"uint256"}],"stateMutability":"view"},{"type":"function","name":"numberOfUsersWithBorrowedUSDS","inputs":[],"outputs":[{"name":"","type":"uint256","internalType":"uint256"}],"stateMutability":"view"},{"type":"function","name":"pools","inputs":[],"outputs":[{"name":"","type":"address","internalType":"contract IPools"}],"stateMutability":"view"},{"type":"function","name":"poolsConfig","inputs":[],"outputs":[{"name":"","type":"address","internalType":"contract IPoolsConfig"}],"stateMutability":"view"},{"type":"function","name":"priceAggregator","inputs":[],"outputs":[{"name":"","type":"address","internalType":"contract IPriceAggregator"}],"stateMutability":"view"},{"type":"function","name":"repayUSDS","inputs":[{"name":"amountRepaid","type":"uint256","internalType":"uint256"}],"outputs":[],"stateMutability":"nonpayable"},{"type":"function","name":"salt","inputs":[],"outputs":[{"name":"","type":"address","internalType":"contract ISalt"}],"stateMutability":"view"},{"type":"function","name":"stableConfig","inputs":[],"outputs":[{"name":"","type":"address","internalType":"contract IStableConfig"}],"stateMutability":"view"},{"type":"function","name":"stakingConfig","inputs":[],"outputs":[{"name":"","type":"address","internalType":"contract IStakingConfig"}],"stateMutability":"view"},{"type":"function","name":"totalCollateralValueInUSD","inputs":[],"outputs":[{"name":"","type":"uint256","internalType":"uint256"}],"stateMutability":"view"},{"type":"function","name":"totalRewards","inputs":[{"name":"","type":"bytes32","internalType":"bytes32"}],"outputs":[{"name":"","type":"uint256","internalType":"uint256"}],"stateMutability":"view"},{"type":"function","name":"totalRewardsForPools","inputs":[{"name":"poolIDs","type":"bytes32[]","internalType":"bytes32[]"}],"outputs":[{"name":"rewards","type":"uint256[]","internalType":"uint256[]"}],"stateMutability":"view"},{"type":"function","name":"totalShares","inputs":[{"name":"","type":"bytes32","internalType":"bytes32"}],"outputs":[{"name":"","type":"uint256","internalType":"uint256"}],"stateMutability":"view"},{"type":"function","name":"totalSharesForPools","inputs":[{"name":"poolIDs","type":"bytes32[]","internalType":"bytes32[]"}],"outputs":[{"name":"shares","type":"uint256[]","internalType":"uint256[]"}],"stateMutability":"view"},{"type":"function","name":"underlyingTokenValueInUSD","inputs":[{"name":"amountBTC","type":"uint256","internalType":"uint256"},{"name":"amountETH","type":"uint256","internalType":"uint256"}],"outputs":[{"name":"","type":"uint256","internalType":"uint256"}],"stateMutability":"view"},{"type":"function","name":"usds","inputs":[],"outputs":[{"name":"","type":"address","internalType":"contract IUSDS"}],"stateMutability":"view"},{"type":"function","name":"usdsBorrowedByUsers","inputs":[{"name":"","type":"address","internalType":"address"}],"outputs":[{"name":"","type":"uint256","internalType":"uint256"}],"stateMutability":"view"},{"type":"function","name":"userCollateralValueInUSD","inputs":[{"name":"wallet","type":"address","internalType":"address"}],"outputs":[{"name":"","type":"uint256","internalType":"uint256"}],"stateMutability":"view"},{"type":"function","name":"userCooldowns","inputs":[{"name":"wallet","type":"address","internalType":"address"},{"name":"poolIDs","type":"bytes32[]","internalType":"bytes32[]"}],"outputs":[{"name":"cooldowns","type":"uint256[]","internalType":"uint256[]"}],"stateMutability":"view"},{"type":"function","name":"userRewardForPool","inputs":[{"name":"wallet","type":"address","internalType":"address"},{"name":"poolID","type":"bytes32","internalType":"bytes32"}],"outputs":[{"name":"","type":"uint256","internalType":"uint256"}],"stateMutability":"view"},{"type":"function","name":"userRewardsForPools","inputs":[{"name":"wallet","type":"address","internalType":"address"},{"name":"poolIDs","type":"bytes32[]","internalType":"bytes32[]"}],"outputs":[{"name":"rewards","type":"uint256[]","internalType":"uint256[]"}],"stateMutability":"view"},{"type":"function","name":"userShareForPool","inputs":[{"name":"wallet","type":"address","internalType":"address"},{"name":"poolID","type":"bytes32","internalType":"bytes32"}],"outputs":[{"name":"","type":"uint256","internalType":"uint256"}],"stateMutability":"view"},{"type":"function","name":"userShareForPools","inputs":[{"name":"wallet","type":"address","internalType":"address"},{"name":"poolIDs","type":"bytes32[]","internalType":"bytes32[]"}],"outputs":[{"name":"shares","type":"uint256[]","internalType":"uint256[]"}],"stateMutability":"view"},{"type":"function","name":"userVirtualRewardsForPool","inputs":[{"name":"wallet","type":"address","internalType":"address"},{"name":"poolID","type":"bytes32","internalType":"bytes32"}],"outputs":[{"name":"","type":"uint256","internalType":"uint256"}],"stateMutability":"view"},{"type":"function","name":"wbtc","inputs":[],"outputs":[{"name":"","type":"address","internalType":"contract IERC20"}],"stateMutability":"view"},{"type":"function","name":"wbtcTenToTheDecimals","inputs":[],"outputs":[{"name":"","type":"uint256","internalType":"uint256"}],"stateMutability":"view"},{"type":"function","name":"weth","inputs":[],"outputs":[{"name":"","type":"address","internalType":"contract IERC20"}],"stateMutability":"view"},{"type":"function","name":"wethTenToTheDecimals","inputs":[],"outputs":[{"name":"","type":"uint256","internalType":"uint256"}],"stateMutability":"view"},{"type":"function","name":"withdrawCollateralAndClaim","inputs":[{"name":"collateralToWithdraw","type":"uint256","internalType":"uint256"},{"name":"minReclaimedWBTC","type":"uint256","internalType":"uint256"},{"name":"minReclaimedWETH","type":"uint256","internalType":"uint256"},{"name":"deadline","type":"uint256","internalType":"uint256"}],"outputs":[{"name":"reclaimedWBTC","type":"uint256","internalType":"uint256"},{"name":"reclaimedWETH","type":"uint256","internalType":"uint256"}],"stateMutability":"nonpayable"},{"type":"function","name":"withdrawLiquidityAndClaim","inputs":[{"name":"tokenA","type":"address","internalType":"contract IERC20"},{"name":"tokenB","type":"address","internalType":"contract IERC20"},{"name":"liquidityToWithdraw","type":"uint256","internalType":"uint256"},{"name":"minReclaimedA","type":"uint256","internalType":"uint256"},{"name":"minReclaimedB","type":"uint256","internalType":"uint256"},{"name":"deadline","type":"uint256","internalType":"uint256"}],"outputs":[{"name":"reclaimedA","type":"uint256","internalType":"uint256"},{"name":"reclaimedB","type":"uint256","internalType":"uint256"}],"stateMutability":"nonpayable"},{"type":"event","name":"BorrowedUSDS","inputs":[{"name":"borrower","type":"address","indexed":true,"internalType":"address"},{"name":"amountBorrowed","type":"uint256","indexed":false,"internalType":"uint256"}],"anonymous":false},{"type":"event","name":"CollateralDeposited","inputs":[{"name":"depositor","type":"address","indexed":true,"internalType":"address"},{"name":"amountWBTC","type":"uint256","indexed":false,"internalType":"uint256"},{"name":"amountWETH","type":"uint256","indexed":false,"internalType":"uint256"},{"name":"liquidity","type":"uint256","indexed":false,"internalType":"uint256"}],"anonymous":false},{"type":"event","name":"CollateralWithdrawn","inputs":[{"name":"withdrawer","type":"address","indexed":true,"internalType":"address"},{"name":"collateralWithdrawn","type":"uint256","indexed":false,"internalType":"uint256"},{"name":"reclaimedWBTC","type":"uint256","indexed":false,"internalType":"uint256"},{"name":"reclaimedWETH","type":"uint256","indexed":false,"internalType":"uint256"}],"anonymous":false},{"type":"event","name":"Liquidation","inputs":[{"name":"liquidator","type":"address","indexed":true,"internalType":"address"},{"name":"liquidatee","type":"address","indexed":true,"internalType":"address"},{"name":"reclaimedWBTC","type":"uint256","indexed":false,"internalType":"uint256"},{"name":"reclaimedWETH","type":"uint256","indexed":false,"internalType":"uint256"},{"name":"originallyBorrowedUSDS","type":"uint256","indexed":false,"internalType":"uint256"}],"anonymous":false},{"type":"event","name":"LiquidityDeposited","inputs":[{"name":"user","type":"address","indexed":true,"internalType":"address"},{"name":"tokenA","type":"address","indexed":true,"internalType":"address"},{"name":"tokenB","type":"address","indexed":true,"internalType":"address"},{"name":"amountA","type":"uint256","indexed":false,"internalType":"uint256"},{"name":"amountB","type":"uint256","indexed":false,"internalType":"uint256"},{"name":"addedLiquidity","type":"uint256","indexed":false,"internalType":"uint256"}],"anonymous":false},{"type":"event","name":"LiquidityWithdrawn","inputs":[{"name":"user","type":"address","indexed":true,"internalType":"address"},{"name":"tokenA","type":"address","indexed":true,"internalType":"address"},{"name":"tokenB","type":"address","indexed":true,"internalType":"address"},{"name":"amountA","type":"uint256","indexed":false,"internalType":"uint256"},{"name":"amountB","type":"uint256","indexed":false,"internalType":"uint256"},{"name":"withdrawnLiquidity","type":"uint256","indexed":false,"internalType":"uint256"}],"anonymous":false},{"type":"event","name":"RepaidUSDS","inputs":[{"name":"repayer","type":"address","indexed":true,"internalType":"address"},{"name":"amountRepaid","type":"uint256","indexed":false,"internalType":"uint256"}],"anonymous":false},{"type":"event","name":"RewardsClaimed","inputs":[{"name":"wallet","type":"address","indexed":true,"internalType":"address"},{"name":"claimedRewards","type":"uint256","indexed":false,"internalType":"uint256"}],"anonymous":false},{"type":"event","name":"SaltRewardsAdded","inputs":[{"name":"poolID","type":"bytes32","indexed":true,"internalType":"bytes32"},{"name":"amountAdded","type":"uint256","indexed":false,"internalType":"uint256"}],"anonymous":false},{"type":"event","name":"UserShareDecreased","inputs":[{"name":"wallet","type":"address","indexed":true,"internalType":"address"},{"name":"poolID","type":"bytes32","indexed":true,"internalType":"bytes32"},{"name":"amountDecreased","type":"uint256","indexed":false,"internalType":"uint256"},{"name":"claimedRewards","type":"uint256","indexed":false,"internalType":"uint256"}],"anonymous":false},{"type":"event","name":"UserShareIncreased","inputs":[{"name":"wallet","type":"address","indexed":true,"internalType":"address"},{"name":"poolID","type":"bytes32","indexed":true,"internalType":"bytes32"},{"name":"amountIncreased","type":"uint256","indexed":false,"internalType":"uint256"}],"anonymous":false}],"bytecode":{"object":"0x6102406040523480156200001257600080fd5b50604051620063d3380380620063d383398101604081905262000035916200051e565b60016000556001600160a01b0380871660a081905281871660e05290851660c0526040805163bfa0b13360e01b8152905189928992899289928592859285929163bfa0b1339160048083019260209291908290030181865afa158015620000a0573d6000803e3d6000fd5b505050506040513d601f19601f82011682018060405250810190620000c69190620005c9565b6001600160a01b039081166080528781166101005260a05160408051633cdc538960e01b81529051620001b99650919092169350633cdc5389925060048083019260209291908290030181865afa15801562000126573d6000803e3d6000fd5b505050506040513d601f19601f820116820180604052508101906200014c9190620005c9565b60a0516001600160a01b0316633fc8cef36040518163ffffffff1660e01b8152600401602060405180830381865afa1580156200018d573d6000803e3d6000fd5b505050506040513d601f19601f82011682018060405250810190620001b39190620005c9565b62000463565b610120525050506001600160a01b0380841661016052848116610140528281166101e05260408051634cf282fb60e01b815290519189169250634cf282fb9160048083019260209291908290030181865afa1580156200021d573d6000803e3d6000fd5b505050506040513d601f19601f82011682018060405250810190620002439190620005c9565b6001600160a01b0316610180816001600160a01b03168152505060a0516001600160a01b0316633cdc53896040518163ffffffff1660e01b8152600401602060405180830381865afa1580156200029e573d6000803e3d6000fd5b505050506040513d601f19601f82011682018060405250810190620002c49190620005c9565b6001600160a01b03166101a0816001600160a01b03168152505060a0516001600160a01b0316633fc8cef36040518163ffffffff1660e01b8152600401602060405180830381865afa1580156200031f573d6000803e3d6000fd5b505050506040513d601f19601f82011682018060405250810190620003459190620005c9565b6001600160a01b03166101c0816001600160a01b0316815250506101a0516001600160a01b031663313ce5676040518163ffffffff1660e01b8152600401602060405180830381865afa158015620003a1573d6000803e3d6000fd5b505050506040513d601f19601f82011682018060405250810190620003c79190620005f0565b620003d490600a62000728565b61020081815250506101c0516001600160a01b031663313ce5676040518163ffffffff1660e01b8152600401602060405180830381865afa1580156200041e573d6000803e3d6000fd5b505050506040513d601f19601f82011682018060405250810190620004449190620005f0565b6200045190600a62000728565b61022052506200073995505050505050565b6000826001600160a01b0316826001600160a01b03161015620004c2576040516001600160601b0319606084811b8216602084015285901b166034820152604801604051602081830303815290604052805190602001209050620004ff565b6040516001600160601b0319606085811b8216602084015284901b1660348201526048016040516020818303038152906040528051906020012090505b92915050565b6001600160a01b03811681146200051b57600080fd5b50565b600080600080600080600060e0888a0312156200053a57600080fd5b8751620005478162000505565b60208901519097506200055a8162000505565b60408901519096506200056d8162000505565b6060890151909550620005808162000505565b6080890151909450620005938162000505565b60a0890151909350620005a68162000505565b60c0890151909250620005b98162000505565b8091505092959891949750929550565b600060208284031215620005dc57600080fd5b8151620005e98162000505565b9392505050565b6000602082840312156200060357600080fd5b815160ff81168114620005e957600080fd5b634e487b7160e01b600052601160045260246000fd5b600181815b808511156200066c57816000190482111562000650576200065062000615565b808516156200065e57918102915b93841c939080029062000630565b509250929050565b6000826200068557506001620004ff565b816200069457506000620004ff565b8160018114620006ad5760028114620006b857620006d8565b6001915050620004ff565b60ff841115620006cc57620006cc62000615565b50506001821b620004ff565b5060208310610133831016604e8410600b8410161715620006fd575081810a620004ff565b6200070983836200062b565b806000190482111562000720576200072062000615565b029392505050565b6000620005e960ff84168362000674565b60805160a05160c05160e05161010051610120516101405161016051610180516101a0516101c0516101e0516102005161022051615a1d620009b660003960008181610744015261256c0152600081816104ca015261253301526000818161032c01528181611b5d01528181611bc901528181611c8901526127eb0152600081816104a301528181611103015281816116450152818161183a01528181611b3101528181611c0901528181612e400152613019015260008181610442015281816110db015281816116240152818161181201528181611af001528181611b9d01528181612e1f0152612ff10152600081816104f10152818161202d015261277d0152600081816103d40152818161240d01526124a001526000818161047c01528181610bbb01528181610c5c015281816112a70152818161193b01528181611a10015281816122f30152612f080152600081816102f201528181610b64015281816110250152818161107001528181611246015281816113b1015281816117bb0152818161191001528181611ec30152818161213e015281816122a4015281816125d2015281816129110152612d160152600081816106d4015281816111300152818161189901528181613048015281816133d6015281816134900152818161359601528181613ed4015281816141760152818161423b01528181614326015281816143e901526144d401526000818161051801528181610885015261458f0152600081816103fb01528181613937015261481d01526000818161037801528181611dbe01528181613261015281816137fd01526146e30152600081816106ad015281816109f301528181612aff0152613b8f0152615a1d6000f3fe608060405234801561001057600080fd5b50600436106102e85760003560e01c80638e654a3c11610191578063c93853af116100e3578063e679cf5c11610097578063f50fed6d11610071578063f50fed6d146107d4578063f5590562146107e7578063fda9d8f91461080a57600080fd5b8063e679cf5c14610786578063e970e29e146107ae578063f38a851e146107c157600080fd5b8063d85b1f52116100c8578063d85b1f521461072c578063dcb027941461073f578063de6448491461076657600080fd5b8063c93853af14610706578063d6b9a9d31461071957600080fd5b8063b93f1fb811610145578063c5c51dca1161011f578063c5c51dca146106cf578063c72058b6146106f6578063c7cade08146106fe57600080fd5b8063b93f1fb814610682578063ba16d13714610695578063bfa0b133146106a857600080fd5b80639f71cc3d116101765780639f71cc3d1461062e578063a615867814610641578063b8b419741461066f57600080fd5b80638e654a3c146105b957806397146776146105d957600080fd5b80633ed908611161024a5780636ec2d942116101fe57806379824893116101d857806379824893146105805780637eed7226146105935780638b988ef1146105a657600080fd5b80636ec2d9421461053a57806370c512d21461055a57806371481a7e1461056d57600080fd5b806349bdaf941161022f57806349bdaf94146104c55780634cf282fb146104ec57806352c19b5a1461051357600080fd5b80633ed90861146104775780633fc8cef31461049e57600080fd5b80633078fff5116102a157806338c563641161028657806338c563641461041d5780633cdc53891461043d5780633d6550da1461046457600080fd5b80633078fff5146103cf57806336829dfc146103f657600080fd5b80630e2789bb116102d25780630e2789bb14610373578063112ad3441461039a57806312e8d594146103af57600080fd5b80627df78c146102ed578063012bdab014610327575b600080fd5b6103147f000000000000000000000000000000000000000000000000000000000000000081565b6040519081526020015b60405180910390f35b61034e7f000000000000000000000000000000000000000000000000000000000000000081565b60405173ffffffffffffffffffffffffffffffffffffffff909116815260200161031e565b61034e7f000000000000000000000000000000000000000000000000000000000000000081565b6103ad6103a8366004615266565b610812565b005b6103146103bd3660046152db565b60036020526000908152604090205481565b61034e7f000000000000000000000000000000000000000000000000000000000000000081565b61034e7f000000000000000000000000000000000000000000000000000000000000000081565b61043061042b366004615362565b610a2a565b60405161031e91906153b7565b61034e7f000000000000000000000000000000000000000000000000000000000000000081565b6103146104723660046153fb565b610b3a565b61034e7f000000000000000000000000000000000000000000000000000000000000000081565b61034e7f000000000000000000000000000000000000000000000000000000000000000081565b6103147f000000000000000000000000000000000000000000000000000000000000000081565b61034e7f000000000000000000000000000000000000000000000000000000000000000081565b61034e7f000000000000000000000000000000000000000000000000000000000000000081565b6103146105483660046153fb565b60066020526000908152604090205481565b610430610568366004615362565b610d6f565b61043061057b366004615418565b610e11565b61043061058e366004615362565b610ebc565b6103146105a136600461545a565b610f9d565b6103146105b43660046153fb565b610ffb565b6105cc6105c7366004615486565b6111e9565b60405161031e91906154a8565b6103146105e736600461545a565b73ffffffffffffffffffffffffffffffffffffffff91909116600090815260016020908152604080832093835292905220546fffffffffffffffffffffffffffffffff1690565b61043061063c366004615418565b61151d565b61065461064f366004615504565b6115c1565b6040805193845260208401929092529082015260600161031e565b6103ad61067d3660046153fb565b6116ce565b6103ad6106903660046152db565b611d88565b6106546106a3366004615551565b6120de565b61034e7f000000000000000000000000000000000000000000000000000000000000000081565b61034e7f000000000000000000000000000000000000000000000000000000000000000081565b6105cc61222c565b61031461226e565b6103146107143660046153fb565b61227a565b610314610727366004615486565b612408565b6103ad61073a3660046152db565b6125b6565b6103147f000000000000000000000000000000000000000000000000000000000000000081565b6103146107743660046152db565b60026020526000908152604090205481565b6107996107943660046155c3565b6128b3565b6040805192835260208301919091520161031e565b6103146107bc366004615418565b6129fa565b6103146107cf36600461545a565b612b67565b6107996107e236600461561c565b612ca6565b6107fa6107f53660046153fb565b612ec3565b604051901515815260200161031e565b610314612fb4565b61081a6130c9565b6000805b828110156109d257600084848381811061083a5761083a61564e565b90506040020180360381019061085091906156ac565b80516040517f01a5e3fe00000000000000000000000000000000000000000000000000000000815260048101829052919250907f000000000000000000000000000000000000000000000000000000000000000073ffffffffffffffffffffffffffffffffffffffff16906301a5e3fe90602401602060405180830381865afa1580156108e1573d6000803e3d6000fd5b505050506040513d601f19601f820116820180604052508101906109059190615722565b6109565760405162461bcd60e51b815260206004820152600c60248201527f496e76616c696420706f6f6c000000000000000000000000000000000000000060448201526064015b60405180910390fd5b602080830151600083815260029092526040822080549192839261097b90849061576e565b9091555061098b9050818661576e565b9450817f1a3928ff1b0861fed322d892257f1e66f67b3e6c080f3d6d0fe12753bf236857826040516109bf91815260200190565b60405180910390a250505060010161081e565b508015610a1b57610a1b73ffffffffffffffffffffffffffffffffffffffff7f000000000000000000000000000000000000000000000000000000000000000016333084613122565b50610a266001600055565b5050565b60608167ffffffffffffffff811115610a4557610a4561567d565b604051908082528060200260200182016040528015610a6e578160200160208202803683370190505b5073ffffffffffffffffffffffffffffffffffffffff851660009081526001602052604081209192505b8251811015610b31576000826000878785818110610ab857610ab861564e565b905060200201358152602001908152602001600020600101549050804210610aff576000848381518110610aee57610aee61564e565b602002602001018181525050610b28565b610b094282615781565b848381518110610b1b57610b1b61564e565b6020026020010181815250505b50600101610a98565b50509392505050565b73ffffffffffffffffffffffffffffffffffffffff811660009081526001602090815260408083207f000000000000000000000000000000000000000000000000000000000000000084529091528120546fffffffffffffffffffffffffffffffff16600003610bac57506000919050565b6000610bb783610ffb565b90507f000000000000000000000000000000000000000000000000000000000000000073ffffffffffffffffffffffffffffffffffffffff1663ac5d15356040518163ffffffff1660e01b8152600401602060405180830381865afa158015610c24573d6000803e3d6000fd5b505050506040513d601f19601f82011682018060405250810190610c489190615794565b811015610c585750600092915050565b60007f000000000000000000000000000000000000000000000000000000000000000073ffffffffffffffffffffffffffffffffffffffff1663e69800c86040518163ffffffff1660e01b8152600401602060405180830381865afa158015610cc5573d6000803e3d6000fd5b505050506040513d601f19601f82011682018060405250810190610ce99190615794565b610cf48360646157ad565b610cfe91906157f3565b73ffffffffffffffffffffffffffffffffffffffff85166000908152600660205260409020549091508111610d37575060009392505050565b73ffffffffffffffffffffffffffffffffffffffff8416600090815260066020526040902054610d679082615781565b949350505050565b60608167ffffffffffffffff811115610d8a57610d8a61567d565b604051908082528060200260200182016040528015610db3578160200160208202803683370190505b50905060005b8151811015610e0957610de485858584818110610dd857610dd861564e565b90506020020135612b67565b828281518110610df657610df661564e565b6020908102919091010152600101610db9565b509392505050565b60608167ffffffffffffffff811115610e2c57610e2c61567d565b604051908082528060200260200182016040528015610e55578160200160208202803683370190505b50905060005b8151811015610eb55760026000858584818110610e7a57610e7a61564e565b90506020020135815260200190815260200160002054828281518110610ea257610ea261564e565b6020908102919091010152600101610e5b565b5092915050565b60608167ffffffffffffffff811115610ed757610ed761567d565b604051908082528060200260200182016040528015610f00578160200160208202803683370190505b50905060005b8151811015610e095773ffffffffffffffffffffffffffffffffffffffff8516600090815260016020526040812090858584818110610f4757610f4761564e565b602090810292909201358352508101919091526040016000205482516fffffffffffffffffffffffffffffffff90911690839083908110610f8a57610f8a61564e565b6020908102919091010152600101610f06565b73ffffffffffffffffffffffffffffffffffffffff8216600090815260016020908152604080832084845290915290205470010000000000000000000000000000000090046fffffffffffffffffffffffffffffffff165b92915050565b73ffffffffffffffffffffffffffffffffffffffff811660009081526001602090815260408083207f000000000000000000000000000000000000000000000000000000000000000084529091528120546fffffffffffffffffffffffffffffffff1680820361106e5750600092915050565b7f00000000000000000000000000000000000000000000000000000000000000006000908152600360205260408082205490517fd4469c3e00000000000000000000000000000000000000000000000000000000815273ffffffffffffffffffffffffffffffffffffffff7f0000000000000000000000000000000000000000000000000000000000000000811660048301527f00000000000000000000000000000000000000000000000000000000000000008116602483015291929182917f00000000000000000000000000000000000000000000000000000000000000009091169063d4469c3e906044016040805180830381865afa158015611178573d6000803e3d6000fd5b505050506040513d601f19601f8201168201806040525081019061119c919061582e565b90925090506000836111ae86856157ad565b6111b891906157f3565b90506000846111c787856157ad565b6111d191906157f3565b90506111dd8282612408565b98975050505050505050565b606060006111f78484615781565b61120290600161576e565b67ffffffffffffffff81111561121a5761121a61567d565b604051908082528060200260200182016040528015611243578160200160208202803683370190505b507f00000000000000000000000000000000000000000000000000000000000000006000908152600360205260408120549192509081611281612fb4565b9050801561146657865b86811161146457600061129f600483613204565b9050600060647f000000000000000000000000000000000000000000000000000000000000000073ffffffffffffffffffffffffffffffffffffffff16637fb93ade6040518163ffffffff1660e01b8152600401602060405180830381865afa158015611310573d6000803e3d6000fd5b505050506040513d601f19601f820116820180604052508101906113349190615794565b73ffffffffffffffffffffffffffffffffffffffff841660009081526006602052604090205461136491906157ad565b61136e91906157f3565b905060008461137d87846157ad565b61138791906157f3565b73ffffffffffffffffffffffffffffffffffffffff841660009081526001602090815260408083207f0000000000000000000000000000000000000000000000000000000000000000845290915290205490915081906fffffffffffffffffffffffffffffffff16101561144e5782888861140181615852565b9950815181106114135761141361564e565b602002602001019073ffffffffffffffffffffffffffffffffffffffff16908173ffffffffffffffffffffffffffffffffffffffff16815250505b505050808061145c90615852565b91505061128b565b505b60008367ffffffffffffffff8111156114815761148161567d565b6040519080825280602002602001820160405280156114aa578160200160208202803683370190505b50905060005b84811015611511578581815181106114ca576114ca61564e565b60200260200101518282815181106114e4576114e461564e565b73ffffffffffffffffffffffffffffffffffffffff909216602092830291909101909101526001016114b0565b50979650505050505050565b60608167ffffffffffffffff8111156115385761153861567d565b604051908082528060200260200182016040528015611561578160200160208202803683370190505b50905060005b8151811015610eb557600360008585848181106115865761158661564e565b905060200201358152602001908152602001600020548282815181106115ae576115ae61564e565b6020908102919091010152600101611567565b60008060006115ce6130c9565b848042111561161f5760405162461bcd60e51b815260206004820152600a60248201527f5458204558504952454400000000000000000000000000000000000000000000604482015260640161094d565b61166d7f00000000000000000000000000000000000000000000000000000000000000007f00000000000000000000000000000000000000000000000000000000000000008b8b8b8a613217565b6040805184815260208101849052908101829052929650909450925033907f0b1992dffc262be88559dcaf96464e9d661d8bfca7e82f2bb73e31932a82187c9060600160405180910390a2506116c36001600055565b955095509592505050565b6116d66130c9565b3373ffffffffffffffffffffffffffffffffffffffff82160361173b5760405162461bcd60e51b815260206004820152601560248201527f43616e6e6f74206c69717569646174652073656c660000000000000000000000604482015260640161094d565b61174481612ec3565b6117905760405162461bcd60e51b815260206004820152601960248201527f557365722063616e6e6f74206265206c69717569646174656400000000000000604482015260640161094d565b73ffffffffffffffffffffffffffffffffffffffff81811660009081526001602090815260408083207f0000000000000000000000000000000000000000000000000000000000000000845282528083205460039092528083205481517f44483d530000000000000000000000000000000000000000000000000000000081527f0000000000000000000000000000000000000000000000000000000000000000861660048201527f0000000000000000000000000000000000000000000000000000000000000000861660248201526fffffffffffffffffffffffffffffffff90931660448401819052606484018590526084840185905260a48401919091528151909484937f0000000000000000000000000000000000000000000000000000000000000000909116926344483d539260c480840193829003018187875af11580156118e2573d6000803e3d6000fd5b505050506040513d601f19601f82011682018060405250810190611906919061582e565b91509150611937847f00000000000000000000000000000000000000000000000000000000000000008560016136ec565b60007f000000000000000000000000000000000000000000000000000000000000000073ffffffffffffffffffffffffffffffffffffffff166391e7cdbc6040518163ffffffff1660e01b8152600401602060405180830381865afa1580156119a4573d6000803e3d6000fd5b505050506040513d601f19601f820116820180604052508101906119c89190615794565b9050600060646119d883866157ad565b6119e291906157f3565b9050600060646119f284866157ad565b6119fc91906157f3565b90506000611a0a8383612408565b905060007f000000000000000000000000000000000000000000000000000000000000000073ffffffffffffffffffffffffffffffffffffffff1663fab706bb6040518163ffffffff1660e01b8152600401602060405180830381865afa158015611a79573d6000803e3d6000fd5b505050506040513d601f19601f82011682018060405250810190611a9d9190615794565b905080821115611ad65781611ab282866157ad565b611abc91906157f3565b935081611ac982856157ad565b611ad391906157f3565b92505b611b1773ffffffffffffffffffffffffffffffffffffffff7f0000000000000000000000000000000000000000000000000000000000000000163386613c13565b611b5873ffffffffffffffffffffffffffffffffffffffff7f0000000000000000000000000000000000000000000000000000000000000000163385613c13565b611bc47f0000000000000000000000000000000000000000000000000000000000000000611b86868a615781565b73ffffffffffffffffffffffffffffffffffffffff7f0000000000000000000000000000000000000000000000000000000000000000169190613c13565b611c307f0000000000000000000000000000000000000000000000000000000000000000611bf28589615781565b73ffffffffffffffffffffffffffffffffffffffff7f0000000000000000000000000000000000000000000000000000000000000000169190613c13565b73ffffffffffffffffffffffffffffffffffffffff898116600090815260066020526040908190205490517fb43061d50000000000000000000000000000000000000000000000000000000081526004810182905290917f0000000000000000000000000000000000000000000000000000000000000000169063b43061d590602401600060405180830381600087803b158015611ccd57600080fd5b505af1158015611ce1573d6000803e3d6000fd5b50505073ffffffffffffffffffffffffffffffffffffffff8b1660009081526006602052604081205550611d1660048b613c6e565b50604080518981526020810189905290810182905273ffffffffffffffffffffffffffffffffffffffff8b169033907f5a821a618ddb1a1fd304234a69c9d7f20c129d122fcf35593d13a071926643079060600160405180910390a3505050505050505050611d856001600055565b50565b611d906130c9565b6040517fcf4a66510000000000000000000000000000000000000000000000000000000081523360048201527f000000000000000000000000000000000000000000000000000000000000000073ffffffffffffffffffffffffffffffffffffffff169063cf4a665190602401602060405180830381865afa158015611e1a573d6000803e3d6000fd5b505050506040513d601f19601f82011682018060405250810190611e3e9190615722565b611eaf5760405162461bcd60e51b8152602060048201526024808201527f53656e64657220646f6573206e6f7420686176652065786368616e676520616360448201527f6365737300000000000000000000000000000000000000000000000000000000606482015260840161094d565b3360009081526001602090815260408083207f000000000000000000000000000000000000000000000000000000000000000084529091528120546fffffffffffffffffffffffffffffffff1611611f6f5760405162461bcd60e51b815260206004820152602160248201527f5573657220646f6573206e6f74206861766520616e7920636f6c6c617465726160448201527f6c00000000000000000000000000000000000000000000000000000000000000606482015260840161094d565b611f7833610b3a565b811115611fc75760405162461bcd60e51b815260206004820152601860248201527f45786365737369766520616d6f756e74426f72726f7765640000000000000000604482015260640161094d565b3360009081526006602052604081208054839290611fe690849061576e565b90915550611ff79050600433613c90565b506040517f449a52f8000000000000000000000000000000000000000000000000000000008152336004820152602481018290527f000000000000000000000000000000000000000000000000000000000000000073ffffffffffffffffffffffffffffffffffffffff169063449a52f890604401600060405180830381600087803b15801561208657600080fd5b505af115801561209a573d6000803e3d6000fd5b50506040518381523392507f40e67324f99b728b6513fad5c12c7e6a1a4a932c055d26672c404200eeb439e891506020015b60405180910390a2611d856001600055565b60008060006120eb6130c9565b848042111561213c5760405162461bcd60e51b815260206004820152600a60248201527f5458204558504952454400000000000000000000000000000000000000000000604482015260640161094d565b7f00000000000000000000000000000000000000000000000000000000000000006121678c8c613cb2565b036122005760405162461bcd60e51b815260206004820152605860248201527f537461626c65636f696e20636f6c6c61746572616c2063616e6e6f742062652060448201527f6465706f736974656420766961204c69717569646974792e6465706f7369744c60648201527f6971756964697479416e64496e63726561736553686172650000000000000000608482015260a40161094d565b61220e8b8b8b8b8b8a613217565b9350935093505061221f6001600055565b9750975097945050505050565b606061223661226e565b600003612250575060408051600081526020810190915290565b6122696000600161225f61226e565b6105c79190615781565b905090565b60006122696004613d9b565b73ffffffffffffffffffffffffffffffffffffffff811660009081526001602090815260408083207f000000000000000000000000000000000000000000000000000000000000000084529091528120546fffffffffffffffffffffffffffffffff168082036122ed5750600092915050565b600060647f000000000000000000000000000000000000000000000000000000000000000073ffffffffffffffffffffffffffffffffffffffff1663e69800c86040518163ffffffff1660e01b8152600401602060405180830381865afa15801561235c573d6000803e3d6000fd5b505050506040513d601f19601f820116820180604052508101906123809190615794565b73ffffffffffffffffffffffffffffffffffffffff86166000908152600660205260409020546123b091906157ad565b6123ba91906157f3565b905060006123c785610ffb565b90508181116123db57506000949350505050565b60006123e78383615781565b9050816123f482866157ad565b6123fe91906157f3565b9695505050505050565b6000807f000000000000000000000000000000000000000000000000000000000000000073ffffffffffffffffffffffffffffffffffffffff16635ba7c62e6040518163ffffffff1660e01b8152600401602060405180830381865afa158015612476573d6000803e3d6000fd5b505050506040513d601f19601f8201168201806040525081019061249a9190615794565b905060007f000000000000000000000000000000000000000000000000000000000000000073ffffffffffffffffffffffffffffffffffffffff1663039ba6be6040518163ffffffff1660e01b8152600401602060405180830381865afa158015612509573d6000803e3d6000fd5b505050506040513d601f19601f8201168201806040525081019061252d9190615794565b905060007f000000000000000000000000000000000000000000000000000000000000000061255c84886157ad565b61256691906157f3565b905060007f000000000000000000000000000000000000000000000000000000000000000061259584886157ad565b61259f91906157f3565b90506125ab818361576e565b979650505050505050565b6125be6130c9565b3360009081526001602090815260408083207f000000000000000000000000000000000000000000000000000000000000000084529091528120546fffffffffffffffffffffffffffffffff161161267e5760405162461bcd60e51b815260206004820152602160248201527f5573657220646f6573206e6f74206861766520616e7920636f6c6c617465726160448201527f6c00000000000000000000000000000000000000000000000000000000000000606482015260840161094d565b336000908152600660205260409020548111156127035760405162461bcd60e51b815260206004820152602a60248201527f43616e6e6f74207265706179206d6f7265207468616e2074686520626f72726f60448201527f77656420616d6f756e7400000000000000000000000000000000000000000000606482015260840161094d565b600081116127535760405162461bcd60e51b815260206004820152601860248201527f43616e6e6f74207265706179207a65726f20616d6f756e740000000000000000604482015260640161094d565b3360009081526006602052604081208054839290612772908490615781565b909155506127bc90507f000000000000000000000000000000000000000000000000000000000000000073ffffffffffffffffffffffffffffffffffffffff811690339084613122565b6040517fb43061d5000000000000000000000000000000000000000000000000000000008152600481018290527f000000000000000000000000000000000000000000000000000000000000000073ffffffffffffffffffffffffffffffffffffffff169063b43061d590602401600060405180830381600087803b15801561284457600080fd5b505af1158015612858573d6000803e3d6000fd5b5050336000908152600660205260408120549003915061288190505761287f600433613c6e565b505b60405181815233907f9d129acaaf42b0bb06e5523de5d31a91c5793392c42153ff675bbd13ab6f44a4906020016120cc565b6000806128be6130c9565b828042111561290f5760405162461bcd60e51b815260206004820152600a60248201527f5458204558504952454400000000000000000000000000000000000000000000604482015260640161094d565b7f000000000000000000000000000000000000000000000000000000000000000061293a8a8a613cb2565b036129d35760405162461bcd60e51b815260206004820152605160248201527f537461626c65636f696e20636f6c6c61746572616c2063616e6e6f742062652060448201527f77697468647261776e20766961204c69717569646974792e776974686472617760648201527f4c6971756964697479416e64436c61696d000000000000000000000000000000608482015260a40161094d565b6129e08989898989613da5565b92509250506129ef6001600055565b965096945050505050565b6000612a046130c9565b50336000908152600160205260408120815b83811015612ade576000858583818110612a3257612a3261564e565b9050602002013590506000612a473383612b67565b600083815260208690526040902080549192508291601090612a9090849070010000000000000000000000000000000090046fffffffffffffffffffffffffffffffff1661588a565b92506101000a8154816fffffffffffffffffffffffffffffffff02191690836fffffffffffffffffffffffffffffffff1602179055508085612ad2919061576e565b94505050600101612a16565b508115612b5c57612b2673ffffffffffffffffffffffffffffffffffffffff7f0000000000000000000000000000000000000000000000000000000000000000163384613c13565b60405182815233907ffc30cddea38e2bf4d6ea7d3f9ed3b6ad7f176419f4963bd81318067a4aee73fe9060200160405180910390a25b50610ff56001600055565b6000818152600360205260408120548103612b8457506000610ff5565b73ffffffffffffffffffffffffffffffffffffffff831660009081526001602081815260408084208685528252808420815160608101835281546fffffffffffffffffffffffffffffffff808216808452700100000000000000000000000000000000909204169482019490945293015490830152909103612c0a576000915050610ff5565b60008381526003602090815260408083205484516002909352908320549091612c47916fffffffffffffffffffffffffffffffff909116906157ad565b612c5191906157f3565b90508082602001516fffffffffffffffffffffffffffffffff161115612c7c57600092505050610ff5565b6020820151612c9d906fffffffffffffffffffffffffffffffff1682615781565b95945050505050565b600080612cb16130c9565b8280421115612d025760405162461bcd60e51b815260206004820152600a60248201527f5458204558504952454400000000000000000000000000000000000000000000604482015260640161094d565b3360009081526001602090815260408083207f000000000000000000000000000000000000000000000000000000000000000084529091528120546fffffffffffffffffffffffffffffffff1611612dc25760405162461bcd60e51b815260206004820152602160248201527f5573657220646f6573206e6f74206861766520616e7920636f6c6c617465726160448201527f6c00000000000000000000000000000000000000000000000000000000000000606482015260840161094d565b612dcb3361227a565b871115612e1a5760405162461bcd60e51b815260206004820152601e60248201527f45786365737369766520636f6c6c61746572616c546f57697468647261770000604482015260640161094d565b612e677f00000000000000000000000000000000000000000000000000000000000000007f0000000000000000000000000000000000000000000000000000000000000000898989613da5565b604080518a815260208101849052908101829052919450925033907ffae26280bca25d80f1501a9e363c73d3845e651c9aaae54f1fc09a9dcd5f33039060600160405180910390a250612eba6001600055565b94509492505050565b73ffffffffffffffffffffffffffffffffffffffff8116600090815260066020526040812054808203612ef95750600092915050565b6000612f0484610ffb565b90507f000000000000000000000000000000000000000000000000000000000000000073ffffffffffffffffffffffffffffffffffffffff16637fb93ade6040518163ffffffff1660e01b8152600401602060405180830381865afa158015612f71573d6000803e3d6000fd5b505050506040513d601f19601f82011682018060405250810190612f959190615794565b82612fa18360646157ad565b612fab91906157f3565b10949350505050565b6040517fd4469c3e00000000000000000000000000000000000000000000000000000000815273ffffffffffffffffffffffffffffffffffffffff7f0000000000000000000000000000000000000000000000000000000000000000811660048301527f000000000000000000000000000000000000000000000000000000000000000081166024830152600091829182917f00000000000000000000000000000000000000000000000000000000000000009091169063d4469c3e906044016040805180830381865afa158015613090573d6000803e3d6000fd5b505050506040513d601f19601f820116820180604052508101906130b4919061582e565b915091506130c28282612408565b9250505090565b60026000540361311b5760405162461bcd60e51b815260206004820152601f60248201527f5265656e7472616e637947756172643a207265656e7472616e742063616c6c00604482015260640161094d565b6002600055565b60405173ffffffffffffffffffffffffffffffffffffffff808516602483015283166044820152606481018290526131fe9085907f23b872dd00000000000000000000000000000000000000000000000000000000906084015b604080517fffffffffffffffffffffffffffffffffffffffffffffffffffffffffffffffe08184030181529190526020810180517bffffffffffffffffffffffffffffffffffffffffffffffffffffffff167fffffffff0000000000000000000000000000000000000000000000000000000090931692909217909152614001565b50505050565b600061321083836140f6565b9392505050565b6040517fcf4a66510000000000000000000000000000000000000000000000000000000081523360048201526000908190819073ffffffffffffffffffffffffffffffffffffffff7f0000000000000000000000000000000000000000000000000000000000000000169063cf4a665190602401602060405180830381865afa1580156132a8573d6000803e3d6000fd5b505050506040513d601f19601f820116820180604052508101906132cc9190615722565b61333d5760405162461bcd60e51b8152602060048201526024808201527f53656e64657220646f6573206e6f7420686176652065786368616e676520616360448201527f6365737300000000000000000000000000000000000000000000000000000000606482015260840161094d565b61335f73ffffffffffffffffffffffffffffffffffffffff8a1633308a613122565b61338173ffffffffffffffffffffffffffffffffffffffff8916333089613122565b83156133995761339389898989614120565b90975095505b6040517f095ea7b300000000000000000000000000000000000000000000000000000000815273ffffffffffffffffffffffffffffffffffffffff7f000000000000000000000000000000000000000000000000000000000000000081166004830152602482018990528a169063095ea7b3906044016020604051808303816000875af115801561342e573d6000803e3d6000fd5b505050506040513d601f19601f820116820180604052508101906134529190615722565b506040517f095ea7b300000000000000000000000000000000000000000000000000000000815273ffffffffffffffffffffffffffffffffffffffff7f0000000000000000000000000000000000000000000000000000000000000000811660048301526024820188905289169063095ea7b3906044016020604051808303816000875af11580156134e8573d6000803e3d6000fd5b505050506040513d601f19601f8201168201806040525081019061350c9190615722565b5060006135198a8a613cb2565b600081815260036020526040908190205490517f3351733f00000000000000000000000000000000000000000000000000000000815273ffffffffffffffffffffffffffffffffffffffff8d811660048301528c81166024830152604482018c9052606482018b9052608482018a905260a48201929092529192507f00000000000000000000000000000000000000000000000000000000000000001690633351733f9060c4016060604051808303816000875af11580156135df573d6000803e3d6000fd5b505050506040513d601f19601f8201168201806040525081019061360391906158b3565b919550935091506136173382846001614560565b8784101561364b5761364b3361362d868b615781565b73ffffffffffffffffffffffffffffffffffffffff8d169190613c13565b8683101561367f5761367f33613661858a615781565b73ffffffffffffffffffffffffffffffffffffffff8c169190613c13565b604080518581526020810185905290810183905273ffffffffffffffffffffffffffffffffffffffff808b1691908c169033907fc28842f4511bc26cfa1a782ccb0414f1f03f46a19baebbb07c567c07d5f790469060600160405180910390a45096509650969350505050565b8160000361373c5760405162461bcd60e51b815260206004820152601a60248201527f43616e6e6f74206465637265617365207a65726f207368617265000000000000604482015260640161094d565b73ffffffffffffffffffffffffffffffffffffffff84166000908152600160209081526040808320868452909152902080546fffffffffffffffffffffffffffffffff168311156137f55760405162461bcd60e51b815260206004820152602d60248201527f43616e6e6f74206465637265617365206d6f7265207468616e2065786973746960448201527f6e67207573657220736861726500000000000000000000000000000000000000606482015260840161094d565b81156139d4577f000000000000000000000000000000000000000000000000000000000000000073ffffffffffffffffffffffffffffffffffffffff16634162169f6040518163ffffffff1660e01b8152600401602060405180830381865afa158015613866573d6000803e3d6000fd5b505050506040513d601f19601f8201168201806040525081019061388a91906158e1565b73ffffffffffffffffffffffffffffffffffffffff163373ffffffffffffffffffffffffffffffffffffffff16146139d45780600101544210156139355760405162461bcd60e51b8152602060048201526024808201527f4d757374207761697420666f722074686520636f6f6c646f776e20746f20657860448201527f7069726500000000000000000000000000000000000000000000000000000000606482015260840161094d565b7f000000000000000000000000000000000000000000000000000000000000000073ffffffffffffffffffffffffffffffffffffffff16639852e4196040518163ffffffff1660e01b8152600401602060405180830381865afa1580156139a0573d6000803e3d6000fd5b505050506040513d601f19601f820116820180604052508101906139c49190615794565b6139ce904261576e565b60018201555b60008481526003602090815260408083205460029092528220546139f99086906157ad565b613a0391906157f3565b82549091506000906fffffffffffffffffffffffffffffffff80821691613a409188917001000000000000000000000000000000009004166157ad565b613a4a91906157f3565b905081600260008881526020019081526020016000206000828254613a6f9190615781565b909155505060008681526003602052604081208054879290613a92908490615781565b9091555050825485908490600090613abd9084906fffffffffffffffffffffffffffffffff166158fe565b92506101000a8154816fffffffffffffffffffffffffffffffff02191690836fffffffffffffffffffffffffffffffff160217905550808360000160108282829054906101000a90046fffffffffffffffffffffffffffffffff16613b2291906158fe565b92506101000a8154816fffffffffffffffffffffffffffffffff02191690836fffffffffffffffffffffffffffffffff160217905550600082821015613b6f57613b6c8284615781565b90505b8015613bb657613bb673ffffffffffffffffffffffffffffffffffffffff7f0000000000000000000000000000000000000000000000000000000000000000168983613c13565b6040805187815260208101839052889173ffffffffffffffffffffffffffffffffffffffff8b16917ff3ff952bb635509e33aac00d3bce385321c4a0e4ea2b60d92c7c5d3ddd24f6d0910160405180910390a35050505050505050565b60405173ffffffffffffffffffffffffffffffffffffffff8316602482015260448101829052613c699084907fa9059cbb000000000000000000000000000000000000000000000000000000009060640161317c565b505050565b60006132108373ffffffffffffffffffffffffffffffffffffffff8416614a71565b60006132108373ffffffffffffffffffffffffffffffffffffffff8416614b64565b60008273ffffffffffffffffffffffffffffffffffffffff168273ffffffffffffffffffffffffffffffffffffffff161015613d41576040517fffffffffffffffffffffffffffffffffffffffff000000000000000000000000606084811b8216602084015285901b166034820152604801604051602081830303815290604052805190602001209050610ff5565b6040517fffffffffffffffffffffffffffffffffffffffff000000000000000000000000606085811b8216602084015284901b16603482015260480160405160208183030381529060405280519060200120905092915050565b6000610ff5825490565b6000806000613db48888613cb2565b33600090815260016020908152604080832084845290915290205490915086906fffffffffffffffffffffffffffffffff161015613e5a5760405162461bcd60e51b815260206004820152602d60248201527f43616e6e6f74207769746864726177206d6f7265207468616e2065786973746960448201527f6e67207573657220736861726500000000000000000000000000000000000000606482015260840161094d565b600081815260036020526040908190205490517f44483d5300000000000000000000000000000000000000000000000000000000815273ffffffffffffffffffffffffffffffffffffffff8a81166004830152898116602483015260448201899052606482018890526084820187905260a48201929092527f0000000000000000000000000000000000000000000000000000000000000000909116906344483d539060c40160408051808303816000875af1158015613f1e573d6000803e3d6000fd5b505050506040513d601f19601f82011682018060405250810190613f42919061582e565b9093509150613f6873ffffffffffffffffffffffffffffffffffffffff89163385613c13565b613f8973ffffffffffffffffffffffffffffffffffffffff88163384613c13565b613f9633828860016136ec565b604080518481526020810184905290810187905273ffffffffffffffffffffffffffffffffffffffff80891691908a169033907fc8cbc399805ea4fd43242bb5bd50f372c49062040b772855eae309724e1894d99060600160405180910390a4509550959350505050565b6000614063826040518060400160405280602081526020017f5361666545524332303a206c6f772d6c6576656c2063616c6c206661696c65648152508573ffffffffffffffffffffffffffffffffffffffff16614bb39092919063ffffffff16565b90508051600014806140845750808060200190518101906140849190615722565b613c695760405162461bcd60e51b815260206004820152602a60248201527f5361666545524332303a204552433230206f7065726174696f6e20646964206e60448201527f6f74207375636365656400000000000000000000000000000000000000000000606482015260840161094d565b600082600001828154811061410d5761410d61564e565b9060005260206000200154905092915050565b6040517fd4469c3e00000000000000000000000000000000000000000000000000000000815273ffffffffffffffffffffffffffffffffffffffff858116600483015284811660248301526000918291829182917f0000000000000000000000000000000000000000000000000000000000000000169063d4469c3e906044016040805180830381865afa1580156141bc573d6000803e3d6000fd5b505050506040513d601f19601f820116820180604052508101906141e0919061582e565b915091506000806141f384848a8a614bc2565b909250905081156143a6576040517f095ea7b300000000000000000000000000000000000000000000000000000000815273ffffffffffffffffffffffffffffffffffffffff7f000000000000000000000000000000000000000000000000000000000000000081166004830152602482018490528b169063095ea7b3906044016020604051808303816000875af1158015614293573d6000803e3d6000fd5b505050506040513d601f19601f820116820180604052508101906142b79190615722565b506142c28289615781565b6040517fe2f7c48000000000000000000000000000000000000000000000000000000000815273ffffffffffffffffffffffffffffffffffffffff8c811660048301528b8116602483015260448201859052600060648301524260848301529199507f00000000000000000000000000000000000000000000000000000000000000009091169063e2f7c4809060a4016020604051808303816000875af1158015614371573d6000803e3d6000fd5b505050506040513d601f19601f820116820180604052508101906143959190615794565b61439f908861576e565b9650614550565b8015614550576040517f095ea7b300000000000000000000000000000000000000000000000000000000815273ffffffffffffffffffffffffffffffffffffffff7f000000000000000000000000000000000000000000000000000000000000000081166004830152602482018390528a169063095ea7b3906044016020604051808303816000875af1158015614441573d6000803e3d6000fd5b505050506040513d601f19601f820116820180604052508101906144659190615722565b506144708188615781565b6040517fe2f7c48000000000000000000000000000000000000000000000000000000000815273ffffffffffffffffffffffffffffffffffffffff8b811660048301528c8116602483015260448201849052600060648301524260848301529198507f00000000000000000000000000000000000000000000000000000000000000009091169063e2f7c4809060a4016020604051808303816000875af115801561451f573d6000803e3d6000fd5b505050506040513d601f19601f820116820180604052508101906145439190615794565b61454d908961576e565b97505b5095989497509395505050505050565b6040517f01a5e3fe000000000000000000000000000000000000000000000000000000008152600481018490527f000000000000000000000000000000000000000000000000000000000000000073ffffffffffffffffffffffffffffffffffffffff16906301a5e3fe90602401602060405180830381865afa1580156145eb573d6000803e3d6000fd5b505050506040513d601f19601f8201168201806040525081019061460f9190615722565b61465b5760405162461bcd60e51b815260206004820152600c60248201527f496e76616c696420706f6f6c0000000000000000000000000000000000000000604482015260640161094d565b816000036146ab5760405162461bcd60e51b815260206004820152601a60248201527f43616e6e6f7420696e637265617365207a65726f207368617265000000000000604482015260640161094d565b73ffffffffffffffffffffffffffffffffffffffff84166000908152600160209081526040808320868452909152902081156148ba577f000000000000000000000000000000000000000000000000000000000000000073ffffffffffffffffffffffffffffffffffffffff16634162169f6040518163ffffffff1660e01b8152600401602060405180830381865afa15801561474c573d6000803e3d6000fd5b505050506040513d601f19601f8201168201806040525081019061477091906158e1565b73ffffffffffffffffffffffffffffffffffffffff163373ffffffffffffffffffffffffffffffffffffffff16146148ba57806001015442101561481b5760405162461bcd60e51b8152602060048201526024808201527f4d757374207761697420666f722074686520636f6f6c646f776e20746f20657860448201527f7069726500000000000000000000000000000000000000000000000000000000606482015260840161094d565b7f000000000000000000000000000000000000000000000000000000000000000073ffffffffffffffffffffffffffffffffffffffff16639852e4196040518163ffffffff1660e01b8152600401602060405180830381865afa158015614886573d6000803e3d6000fd5b505050506040513d601f19601f820116820180604052508101906148aa9190615794565b6148b4904261576e565b60018201555b60008481526003602052604090205480156149a2576000858152600260205260408120546148f3906148ed9087906157ad565b83614c3d565b83549091508190849060109061493090849070010000000000000000000000000000000090046fffffffffffffffffffffffffffffffff1661588a565b92506101000a8154816fffffffffffffffffffffffffffffffff02191690836fffffffffffffffffffffffffffffffff160217905550806fffffffffffffffffffffffffffffffff1660026000888152602001908152602001600020600082825461499b919061576e565b9091555050505b8154849083906000906149c89084906fffffffffffffffffffffffffffffffff1661588a565b92506101000a8154816fffffffffffffffffffffffffffffffff02191690836fffffffffffffffffffffffffffffffff1602179055508381614a0a919061576e565b6000868152600360209081526040918290209290925551858152869173ffffffffffffffffffffffffffffffffffffffff8916917f2d42c28eb0a06d672788615e7fbf33f445d2a9a2e6529cf1a719320b67b6289a910160405180910390a3505050505050565b60008181526001830160205260408120548015614b5a576000614a95600183615781565b8554909150600090614aa990600190615781565b9050818114614b0e576000866000018281548110614ac957614ac961564e565b9060005260206000200154905080876000018481548110614aec57614aec61564e565b6000918252602080832090910192909255918252600188019052604090208390555b8554869080614b1f57614b1f615927565b600190038181906000526020600020016000905590558560010160008681526020019081526020016000206000905560019350505050610ff5565b6000915050610ff5565b6000818152600183016020526040812054614bab57508154600181810184556000848152602080822090930184905584548482528286019093526040902091909155610ff5565b506000610ff5565b6060610d678484600085614c74565b600080614bcf83876157ad565b614bd986866157ad565b1115614bf257614beb86868686614d68565b9150600090505b614bfc83876157ad565b614c0686866157ad565b1015614c20576000614c1a86888688614d68565b90925090505b83821180614c2d57508281115b15612eba57506000905080612eba565b60008215614c6b5781614c51600185615781565b614c5b91906157f3565b614c6690600161576e565b613210565b50600092915050565b606082471015614cec5760405162461bcd60e51b815260206004820152602660248201527f416464726573733a20696e73756666696369656e742062616c616e636520666f60448201527f722063616c6c0000000000000000000000000000000000000000000000000000606482015260840161094d565b6000808673ffffffffffffffffffffffffffffffffffffffff168587604051614d15919061597a565b60006040518083038185875af1925050503d8060008114614d52576040519150601f19603f3d011682016040523d82523d6000602084013e614d57565b606091505b50915091506125ab87838387614ecc565b600080614d7786868686614f52565b905060006050821115614d9257614d8f605083615781565b90505b86811c86821c86831c86841c6064841015614db65760009650505050505050610d67565b6064831015614dce5760009650505050505050610d67565b6064821015614def576064811015614def5760009650505050505050610d67565b60016000614dfe8660026157ad565b90506000614e0c848761576e565b614e1685896157ad565b614e2087896157ad565b614e2a9190615781565b614e3490896157ad565b614e3e91906157f3565b9050600081614e4e8560046157ad565b614e5891906157ad565b614e6284806157ad565b614e6c919061576e565b90506000614e7982614faf565b905080841115614e975760009b505050505050505050505050610d67565b614ea28560026157ad565b614eac8583615781565b614eb691906157f3565b90991b9f9e505050505050505050505050505050565b60608315614f48578251600003614f415773ffffffffffffffffffffffffffffffffffffffff85163b614f415760405162461bcd60e51b815260206004820152601d60248201527f416464726573733a2063616c6c20746f206e6f6e2d636f6e7472616374000000604482015260640161094d565b5081610d67565b610d678383615097565b6000614f5d856150c1565b90506000614f6a856150c1565b905081811115614f78578091505b614f81846150c1565b905081811115614f8f578091505b614f98836150c1565b905081811115614fa6578091505b50949350505050565b600081600003614fc157506000919050565b60006001614fce846151bc565b901c6001901b90506001818481614fe757614fe76157c4565b048201901c90506001818481614fff57614fff6157c4565b048201901c90506001818481615017576150176157c4565b048201901c9050600181848161502f5761502f6157c4565b048201901c90506001818481615047576150476157c4565b048201901c9050600181848161505f5761505f6157c4565b048201901c90506001818481615077576150776157c4565b048201901c905061321081828581615091576150916157c4565b04615250565b8151156150a75781518083602001fd5b8060405162461bcd60e51b815260040161094d9190615996565b600070010000000000000000000000000000000082106150ee57608091821c916150eb908261576e565b90505b68010000000000000000821061511157604091821c9161510e908261576e565b90505b640100000000821061513057602091821c9161512d908261576e565b90505b62010000821061514d57601091821c9161514a908261576e565b90505b610100821061516957600891821c91615166908261576e565b90505b6010821061518457600491821c91615181908261576e565b90505b6004821061519f57600291821c9161519c908261576e565b90505b600282106151b757600191821c91610ff5908261576e565b919050565b600080608083901c156151d157608092831c92015b604083901c156151e357604092831c92015b602083901c156151f557602092831c92015b601083901c1561520757601092831c92015b600883901c1561521957600892831c92015b600483901c1561522b57600492831c92015b600283901c1561523d57600292831c92015b600183901c15610ff55760010192915050565b600081831061525f5781613210565b5090919050565b6000806020838503121561527957600080fd5b823567ffffffffffffffff8082111561529157600080fd5b818501915085601f8301126152a557600080fd5b8135818111156152b457600080fd5b8660208260061b85010111156152c957600080fd5b60209290920196919550909350505050565b6000602082840312156152ed57600080fd5b5035919050565b73ffffffffffffffffffffffffffffffffffffffff81168114611d8557600080fd5b60008083601f84011261532857600080fd5b50813567ffffffffffffffff81111561534057600080fd5b6020830191508360208260051b850101111561535b57600080fd5b9250929050565b60008060006040848603121561537757600080fd5b8335615382816152f4565b9250602084013567ffffffffffffffff81111561539e57600080fd5b6153aa86828701615316565b9497909650939450505050565b6020808252825182820181905260009190848201906040850190845b818110156153ef578351835292840192918401916001016153d3565b50909695505050505050565b60006020828403121561540d57600080fd5b8135613210816152f4565b6000806020838503121561542b57600080fd5b823567ffffffffffffffff81111561544257600080fd5b61544e85828601615316565b90969095509350505050565b6000806040838503121561546d57600080fd5b8235615478816152f4565b946020939093013593505050565b6000806040838503121561549957600080fd5b50508035926020909101359150565b6020808252825182820181905260009190848201906040850190845b818110156153ef57835173ffffffffffffffffffffffffffffffffffffffff16835292840192918401916001016154c4565b8015158114611d8557600080fd5b600080600080600060a0868803121561551c57600080fd5b853594506020860135935060408601359250606086013591506080860135615543816154f6565b809150509295509295909350565b600080600080600080600060e0888a03121561556c57600080fd5b8735615577816152f4565b96506020880135615587816152f4565b955060408801359450606088013593506080880135925060a0880135915060c08801356155b3816154f6565b8091505092959891949750929550565b60008060008060008060c087890312156155dc57600080fd5b86356155e7816152f4565b955060208701356155f7816152f4565b95989597505050506040840135936060810135936080820135935060a0909101359150565b6000806000806080858703121561563257600080fd5b5050823594602084013594506040840135936060013592509050565b7f4e487b7100000000000000000000000000000000000000000000000000000000600052603260045260246000fd5b7f4e487b7100000000000000000000000000000000000000000000000000000000600052604160045260246000fd5b6000604082840312156156be57600080fd5b6040516040810181811067ffffffffffffffff82111715615708577f4e487b7100000000000000000000000000000000000000000000000000000000600052604160045260246000fd5b604052823581526020928301359281019290925250919050565b60006020828403121561573457600080fd5b8151613210816154f6565b7f4e487b7100000000000000000000000000000000000000000000000000000000600052601160045260246000fd5b80820180821115610ff557610ff561573f565b81810381811115610ff557610ff561573f565b6000602082840312156157a657600080fd5b5051919050565b8082028115828204841417610ff557610ff561573f565b7f4e487b7100000000000000000000000000000000000000000000000000000000600052601260045260246000fd5b600082615829577f4e487b7100000000000000000000000000000000000000000000000000000000600052601260045260246000fd5b500490565b6000806040838503121561584157600080fd5b505080516020909101519092909150565b60007fffffffffffffffffffffffffffffffffffffffffffffffffffffffffffffffff82036158835761588361573f565b5060010190565b6fffffffffffffffffffffffffffffffff818116838216019080821115610eb557610eb561573f565b6000806000606084860312156158c857600080fd5b8351925060208401519150604084015190509250925092565b6000602082840312156158f357600080fd5b8151613210816152f4565b6fffffffffffffffffffffffffffffffff828116828216039080821115610eb557610eb561573f565b7f4e487b7100000000000000000000000000000000000000000000000000000000600052603160045260246000fd5b60005b83811015615971578181015183820152602001615959565b50506000910152565b6000825161598c818460208701615956565b9190910192915050565b60208152600082518060208401526159b5816040850160208701615956565b601f017fffffffffffffffffffffffffffffffffffffffffffffffffffffffffffffffe016919091016040019291505056fea264697066735822122000cea0711c9e33fe9ffff6569238f154fe6a7ec1f8c672d4ffa821c14185e41364736f6c63430008160033","linkReferences":{}},"methodIdentifiers":{"addSALTRewards((bytes32,uint256)[])":"112ad344","borrowUSDS(uint256)":"b93f1fb8","canUserBeLiquidated(address)":"f5590562","claimAllRewards(bytes32[])":"e970e29e","collateralPoolID()":"007df78c","depositCollateralAndIncreaseShare(uint256,uint256,uint256,uint256,bool)":"a6158678","depositLiquidityAndIncreaseShare(address,address,uint256,uint256,uint256,uint256,bool)":"ba16d137","exchangeConfig()":"0e2789bb","findLiquidatableUsers()":"c72058b6","findLiquidatableUsers(uint256,uint256)":"8e654a3c","liquidateUser(address)":"b8b41974","liquidizer()":"012bdab0","maxBorrowableUSDS(address)":"3d6550da","maxWithdrawableCollateral(address)":"c93853af","numberOfUsersWithBorrowedUSDS()":"c7cade08","pools()":"c5c51dca","poolsConfig()":"52c19b5a","priceAggregator()":"3078fff5","repayUSDS(uint256)":"d85b1f52","salt()":"bfa0b133","stableConfig()":"3ed90861","stakingConfig()":"36829dfc","totalCollateralValueInUSD()":"fda9d8f9","totalRewards(bytes32)":"de644849","totalRewardsForPools(bytes32[])":"71481a7e","totalShares(bytes32)":"12e8d594","totalSharesForPools(bytes32[])":"9f71cc3d","underlyingTokenValueInUSD(uint256,uint256)":"d6b9a9d3","usds()":"4cf282fb","usdsBorrowedByUsers(address)":"6ec2d942","userCollateralValueInUSD(address)":"8b988ef1","userCooldowns(address,bytes32[])":"38c56364","userRewardForPool(address,bytes32)":"f38a851e","userRewardsForPools(address,bytes32[])":"70c512d2","userShareForPool(address,bytes32)":"97146776","userShareForPools(address,bytes32[])":"79824893","userVirtualRewardsForPool(address,bytes32)":"7eed7226","wbtc()":"3cdc5389","wbtcTenToTheDecimals()":"49bdaf94","weth()":"3fc8cef3","wethTenToTheDecimals()":"dcb02794","withdrawCollateralAndClaim(uint256,uint256,uint256,uint256)":"f50fed6d","withdrawLiquidityAndClaim(address,address,uint256,uint256,uint256,uint256)":"e679cf5c"},"id":148}