{"abi":[{"type":"constructor","inputs":[{"name":"_pools","type":"address","internalType":"contract IPools"},{"name":"_proposals","type":"address","internalType":"contract IProposals"},{"name":"_exchangeConfig","type":"address","internalType":"contract IExchangeConfig"},{"name":"_poolsConfig","type":"address","internalType":"contract IPoolsConfig"},{"name":"_stakingConfig","type":"address","internalType":"contract IStakingConfig"},{"name":"_rewardsConfig","type":"address","internalType":"contract IRewardsConfig"},{"name":"_stableConfig","type":"address","internalType":"contract IStableConfig"},{"name":"_daoConfig","type":"address","internalType":"contract IDAOConfig"},{"name":"_priceAggregator","type":"address","internalType":"contract IPriceAggregator"},{"name":"_liquidityRewardsEmitter","type":"address","internalType":"contract IRewardsEmitter"},{"name":"_collateralAndLiquidity","type":"address","internalType":"contract ICollateralAndLiquidity"}],"stateMutability":"nonpayable"},{"type":"function","name":"collateralAndLiquidity","inputs":[],"outputs":[{"name":"","type":"address","internalType":"contract ICollateralAndLiquidity"}],"stateMutability":"view"},{"type":"function","name":"countryIsExcluded","inputs":[{"name":"country","type":"string","internalType":"string"}],"outputs":[{"name":"","type":"bool","internalType":"bool"}],"stateMutability":"view"},{"type":"function","name":"dai","inputs":[],"outputs":[{"name":"","type":"address","internalType":"contract IERC20"}],"stateMutability":"view"},{"type":"function","name":"daoConfig","inputs":[],"outputs":[{"name":"","type":"address","internalType":"contract IDAOConfig"}],"stateMutability":"view"},{"type":"function","name":"exchangeConfig","inputs":[],"outputs":[{"name":"","type":"address","internalType":"contract IExchangeConfig"}],"stateMutability":"view"},{"type":"function","name":"excludedCountries","inputs":[{"name":"","type":"string","internalType":"string"}],"outputs":[{"name":"","type":"bool","internalType":"bool"}],"stateMutability":"view"},{"type":"function","name":"finalizeBallot","inputs":[{"name":"ballotID","type":"uint256","internalType":"uint256"}],"outputs":[],"stateMutability":"nonpayable"},{"type":"function","name":"formPOL","inputs":[{"name":"tokenA","type":"address","internalType":"contract IERC20"},{"name":"tokenB","type":"address","internalType":"contract IERC20"},{"name":"amountA","type":"uint256","internalType":"uint256"},{"name":"amountB","type":"uint256","internalType":"uint256"}],"outputs":[],"stateMutability":"nonpayable"},{"type":"function","name":"liquidityRewardsEmitter","inputs":[],"outputs":[{"name":"","type":"address","internalType":"contract IRewardsEmitter"}],"stateMutability":"view"},{"type":"function","name":"liquidizer","inputs":[],"outputs":[{"name":"","type":"address","internalType":"contract ILiquidizer"}],"stateMutability":"view"},{"type":"function","name":"pools","inputs":[],"outputs":[{"name":"","type":"address","internalType":"contract IPools"}],"stateMutability":"view"},{"type":"function","name":"poolsConfig","inputs":[],"outputs":[{"name":"","type":"address","internalType":"contract IPoolsConfig"}],"stateMutability":"view"},{"type":"function","name":"priceAggregator","inputs":[],"outputs":[{"name":"","type":"address","internalType":"contract IPriceAggregator"}],"stateMutability":"view"},{"type":"function","name":"processRewardsFromPOL","inputs":[],"outputs":[],"stateMutability":"nonpayable"},{"type":"function","name":"proposals","inputs":[],"outputs":[{"name":"","type":"address","internalType":"contract IProposals"}],"stateMutability":"view"},{"type":"function","name":"rewardsConfig","inputs":[],"outputs":[{"name":"","type":"address","internalType":"contract IRewardsConfig"}],"stateMutability":"view"},{"type":"function","name":"salt","inputs":[],"outputs":[{"name":"","type":"address","internalType":"contract ISalt"}],"stateMutability":"view"},{"type":"function","name":"stableConfig","inputs":[],"outputs":[{"name":"","type":"address","internalType":"contract IStableConfig"}],"stateMutability":"view"},{"type":"function","name":"stakingConfig","inputs":[],"outputs":[{"name":"","type":"address","internalType":"contract IStakingConfig"}],"stateMutability":"view"},{"type":"function","name":"usds","inputs":[],"outputs":[{"name":"","type":"address","internalType":"contract IUSDS"}],"stateMutability":"view"},{"type":"function","name":"websiteURL","inputs":[],"outputs":[{"name":"","type":"string","internalType":"string"}],"stateMutability":"view"},{"type":"function","name":"withdrawArbitrageProfits","inputs":[{"name":"weth","type":"address","internalType":"contract IERC20"}],"outputs":[{"name":"withdrawnAmount","type":"uint256","internalType":"uint256"}],"stateMutability":"nonpayable"},{"type":"function","name":"withdrawPOL","inputs":[{"name":"tokenA","type":"address","internalType":"contract IERC20"},{"name":"tokenB","type":"address","internalType":"contract IERC20"},{"name":"percentToLiquidate","type":"uint256","internalType":"uint256"}],"outputs":[],"stateMutability":"nonpayable"},{"type":"event","name":"ArbitrageProfitsWithdrawn","inputs":[{"name":"upkeepContract","type":"address","indexed":true,"internalType":"address"},{"name":"weth","type":"address","indexed":true,"internalType":"contract IERC20"},{"name":"withdrawnAmount","type":"uint256","indexed":false,"internalType":"uint256"}],"anonymous":false},{"type":"event","name":"BallotFinalized","inputs":[{"name":"ballotID","type":"uint256","indexed":true,"internalType":"uint256"},{"name":"winningVote","type":"uint8","indexed":false,"internalType":"enum Vote"}],"anonymous":false},{"type":"event","name":"ContractCalled","inputs":[{"name":"contractAddress","type":"address","indexed":true,"internalType":"address"},{"name":"intArg","type":"uint256","indexed":true,"internalType":"uint256"}],"anonymous":false},{"type":"event","name":"GeoExclusionUpdated","inputs":[{"name":"country","type":"string","indexed":false,"internalType":"string"},{"name":"excluded","type":"bool","indexed":false,"internalType":"bool"},{"name":"geoVersion","type":"uint256","indexed":false,"internalType":"uint256"}],"anonymous":false},{"type":"event","name":"POLFormed","inputs":[{"name":"tokenA","type":"address","indexed":true,"internalType":"contract IERC20"},{"name":"tokenB","type":"address","indexed":true,"internalType":"contract IERC20"},{"name":"amountA","type":"uint256","indexed":false,"internalType":"uint256"},{"name":"amountB","type":"uint256","indexed":false,"internalType":"uint256"}],"anonymous":false},{"type":"event","name":"POLProcessed","inputs":[{"name":"claimedSALT","type":"uint256","indexed":false,"internalType":"uint256"}],"anonymous":false},{"type":"event","name":"POLWithdrawn","inputs":[{"name":"tokenA","type":"address","indexed":true,"internalType":"contract IERC20"},{"name":"tokenB","type":"address","indexed":true,"internalType":"contract IERC20"},{"name":"withdrawnA","type":"uint256","indexed":false,"internalType":"uint256"},{"name":"withdrawnB","type":"uint256","indexed":false,"internalType":"uint256"}],"anonymous":false},{"type":"event","name":"SaltSent","inputs":[{"name":"to","type":"address","indexed":true,"internalType":"address"},{"name":"amount","type":"uint256","indexed":false,"internalType":"uint256"}],"anonymous":false},{"type":"event","name":"SetContract","inputs":[{"name":"ballotName","type":"string","indexed":true,"internalType":"string"},{"name":"contractAddress","type":"address","indexed":true,"internalType":"address"}],"anonymous":false},{"type":"event","name":"SetWebsiteURL","inputs":[{"name":"newURL","type":"string","indexed":false,"internalType":"string"}],"anonymous":false},{"type":"event","name":"TeamRewardsTransferred","inputs":[{"name":"teamAmount","type":"uint256","indexed":false,"internalType":"uint256"}],"anonymous":false},{"type":"event","name":"UnwhitelistToken","inputs":[{"name":"token","type":"address","indexed":true,"internalType":"contract IERC20"}],"anonymous":false},{"type":"event","name":"WhitelistToken","inputs":[{"name":"token","type":"address","indexed":true,"internalType":"contract IERC20"}],"anonymous":false}],"bytecode":{"object":"0x6102606040523480156200001257600080fd5b5060405162005b9738038062005b978339810160408190526200003591620005f8565b60016000556001600160a01b03808c166080528a811660a05289811660c05288811660e05287811661010052868116610120528581166101405284811661016052838116610180528281166101a05281166101c0819052604080516212bdab60e41b8152905163012bdab0916004808201926020929091908290030181865afa158015620000c7573d6000803e3d6000fd5b505050506040513d601f19601f82011682018060405250810190620000ed9190620006f5565b6001600160a01b03166101e0816001600160a01b03168152505060c0516001600160a01b0316634cf282fb6040518163ffffffff1660e01b8152600401602060405180830381865afa15801562000148573d6000803e3d6000fd5b505050506040513d601f19601f820116820180604052508101906200016e9190620006f5565b6001600160a01b0316610220816001600160a01b03168152505060c0516001600160a01b031663bfa0b1336040518163ffffffff1660e01b8152600401602060405180830381865afa158015620001c9573d6000803e3d6000fd5b505050506040513d601f19601f82011682018060405250810190620001ef9190620006f5565b6001600160a01b0316610200816001600160a01b03168152505060c0516001600160a01b031663f4b9fa756040518163ffffffff1660e01b8152600401602060405180830381865afa1580156200024a573d6000803e3d6000fd5b505050506040513d601f19601f82011682018060405250810190620002709190620006f5565b6001600160a01b0390811661024052610200516101c05160405163095ea7b360e01b81529083166004820152600019602482015291169063095ea7b3906044016020604051808303816000875af1158015620002d0573d6000803e3d6000fd5b505050506040513d601f19601f82011682018060405250810190620002f691906200071c565b50610220516101c05160405163095ea7b360e01b81526001600160a01b039182166004820152600019602482015291169063095ea7b3906044016020604051808303816000875af115801562000350573d6000803e3d6000fd5b505050506040513d601f19601f820116820180604052508101906200037691906200071c565b50610240516101c05160405163095ea7b360e01b81526001600160a01b039182166004820152600019602482015291169063095ea7b3906044016020604051808303816000875af1158015620003d0573d6000803e3d6000fd5b505050506040513d601f19601f82011682018060405250810190620003f691906200071c565b5060016002604051620004119061555360f01b815260020190565b90815260408051918290036020018220805493151560ff1994851617905561434160f01b82526002808301819052815192839003602290810184208054861660019081179091556123a160f11b85528483018390528351948590038201852080548716821790556121a760f11b85528483018390528351948590038201852080548716821790556124a760f11b855284830183905283519485900382018520805487168217905561504b60f01b855284830183905283519485900382018520805487168217905561525560f01b85528483018390528351948590038201852080548716821790556120a360f11b855284830183905283519485900382018520805487168217905561435560f01b85528483018390528351948590038201852080548716821790556124a960f11b85528483018390528351948590038201852080548716821790556104b560f41b855284830183905283519485900382018520805487168217905561535960f01b855284830183905283519485900382018520805487168217905561564560f01b855284830192909252915192839003909101909120805490921617905550620007409950505050505050505050565b6001600160a01b0381168114620005e357600080fd5b50565b8051620005f381620005cd565b919050565b60008060008060008060008060008060006101608c8e0312156200061b57600080fd5b8b516200062881620005cd565b60208d0151909b506200063b81620005cd565b60408d0151909a506200064e81620005cd565b60608d01519099506200066181620005cd565b60808d01519098506200067481620005cd565b60a08d01519097506200068781620005cd565b60c08d01519096506200069a81620005cd565b60e08d0151909550620006ad81620005cd565b6101008d0151909450620006c181620005cd565b9250620006d26101208d01620005e6565b9150620006e36101408d01620005e6565b90509295989b509295989b9093969950565b6000602082840312156200070857600080fd5b81516200071581620005cd565b9392505050565b6000602082840312156200072f57600080fd5b815180151581146200071557600080fd5b60805160a05160c05160e05161010051610120516101405161016051610180516101a0516101c0516101e05161020051610220516102405161519762000a00600039600081816104790152610c8f0152600081816102e901528181610c260152610c6e0152600081816103fd01528181610c0501528181610e8901528181610f920152610fc401526000818161019701528181610744015281816109de0152610a120152600081816102020152818161067b015281816108660152818161095c0152610d0401526000818161039c015281816126da01526127bc01526000818161026101528181611b0001528181611c04015281816141ce015281816142d201526143a30152600081816104a001528181610ef701528181611adf01528181611be30152611e6c0152600081816102c201528181611abe0152611bc20152600081816103d601528181611a9d0152611ba101526000818161029b01528181611a7c0152611b8001526000818161031001528181611a5b01528181611b5f015281816121f40152818161234c0152818161362801526137800152600081816101db015281816104f401528181610a9901528181610d9e0152818161110701528181611ef201528181612249015281816123a1015281816124ae015281816125410152818161264a0152818161367d015281816137d50152818161393701528181613a4e01528181613c9101528181613de601528181613ee20152614437015260008181610337015281816114bd015281816115ee015281816118e6015281816119b801528181611c5701528181611d2701528181611dd1015281816120bb015281816128940152818161292b015281816129d501528181612aa501528181613f5d015261403f0152600081816104240152818161128e0152818161134d015281816122230152818161237b0152818161365701526137af01526151976000f3fe608060405234801561001057600080fd5b506004361061018d5760003560e01c806355ef20e6116100e357806396ceac341161008c578063d3f22ec111610066578063d3f22ec114610446578063f4b9fa7514610474578063fa05dd001461049b57600080fd5b806396ceac34146103d1578063bfa0b133146103f8578063c5c51dca1461041f57600080fd5b80637991db89116100bd5780637991db89146103765780637af0eb39146103975780637b3ef616146103be57600080fd5b806355ef20e6146103325780637785dcd614610359578063779f63501461036157600080fd5b80633078fff5116101455780633ed908611161011f5780633ed90861146102bd5780634cf282fb146102e457806352c19b5a1461030b57600080fd5b80633078fff51461025c57806335b544c31461028357806336829dfc1461029657600080fd5b80630e5c7fbb116101765780630e5c7fbb146101fd57806313ea84a7146102245780632e6dcebb1461024757600080fd5b8063012bdab0146101925780630e2789bb146101d6575b600080fd5b6101b97f000000000000000000000000000000000000000000000000000000000000000081565b6040516001600160a01b0390911681526020015b60405180910390f35b6101b97f000000000000000000000000000000000000000000000000000000000000000081565b6101b97f000000000000000000000000000000000000000000000000000000000000000081565b61023761023236600461470e565b6104c2565b60405190151581526020016101cd565b61025a610255366004614795565b6104f2565b005b6101b97f000000000000000000000000000000000000000000000000000000000000000081565b61025a6102913660046147db565b610739565b6101b97f000000000000000000000000000000000000000000000000000000000000000081565b6101b97f000000000000000000000000000000000000000000000000000000000000000081565b6101b97f000000000000000000000000000000000000000000000000000000000000000081565b6101b97f000000000000000000000000000000000000000000000000000000000000000081565b6101b97f000000000000000000000000000000000000000000000000000000000000000081565b61025a610a97565b610369611075565b6040516101cd919061488a565b6103896103843660046148a4565b611103565b6040519081526020016101cd565b6101b97f000000000000000000000000000000000000000000000000000000000000000081565b61025a6103cc3660046148c1565b611486565b6101b97f000000000000000000000000000000000000000000000000000000000000000081565b6101b97f000000000000000000000000000000000000000000000000000000000000000081565b6101b97f000000000000000000000000000000000000000000000000000000000000000081565b6102376104543660046149c8565b805160208183018101805160028252928201919093012091525460ff1681565b6101b97f000000000000000000000000000000000000000000000000000000000000000081565b6101b97f000000000000000000000000000000000000000000000000000000000000000081565b6000600283836040516104d6929190614a48565b9081526040519081900360200190205460ff1690505b92915050565b7f00000000000000000000000000000000000000000000000000000000000000006001600160a01b0316632cf4704a6040518163ffffffff1660e01b8152600401602060405180830381865afa158015610550573d6000803e3d6000fd5b505050506040513d601f19601f820116820180604052508101906105749190614a58565b6001600160a01b0316336001600160a01b031614610619576040517f08c379a000000000000000000000000000000000000000000000000000000000815260206004820152603560248201527f44414f2e666f726d504f4c206973206f6e6c792063616c6c61626c652066726f60448201527f6d207468652055706b65657020636f6e7472616374000000000000000000000060648201526084015b60405180910390fd5b6040517fba16d1370000000000000000000000000000000000000000000000000000000081526001600160a01b03858116600483015284811660248301526044820184905260648201839052600060848301524260a4830152600160c48301527f0000000000000000000000000000000000000000000000000000000000000000169063ba16d1379060e4016060604051808303816000875af11580156106c4573d6000803e3d6000fd5b505050506040513d601f19601f820116820180604052508101906106e89190614a75565b505060408051848152602081018490526001600160a01b0380871693508716917f03eb367fcafdaeca6d9101efc24946fdd20192a4837e9761b4adf0864f79b01b910160405180910390a350505050565b336001600160a01b037f00000000000000000000000000000000000000000000000000000000000000001614610817576040517f08c379a000000000000000000000000000000000000000000000000000000000815260206004820152605060248201527f44414f2e776974686472617750726f746f636f6c4f776e65644c69717569646960448201527f7479206973206f6e6c792063616c6c61626c652066726f6d20746865204c697160648201527f756964697a657220636f6e747261637400000000000000000000000000000000608482015260a401610610565b600061082384846116ed565b6040517f97146776000000000000000000000000000000000000000000000000000000008152306004820152602481018290529091506000906001600160a01b037f00000000000000000000000000000000000000000000000000000000000000001690639714677690604401602060405180830381865afa1580156108ad573d6000803e3d6000fd5b505050506040513d601f19601f820116820180604052508101906108d19190614aa3565b9050806000036108e2575050505050565b600060646108f08584614aeb565b6108fa9190614b02565b6040517fe679cf5c0000000000000000000000000000000000000000000000000000000081526001600160a01b038881166004830152878116602483015260448201839052600060648301819052608483018190524260a484015292935082917f00000000000000000000000000000000000000000000000000000000000000009091169063e679cf5c9060c40160408051808303816000875af11580156109a6573d6000803e3d6000fd5b505050506040513d601f19601f820116820180604052508101906109ca9190614b3d565b9092509050610a036001600160a01b0389167f0000000000000000000000000000000000000000000000000000000000000000846117bc565b610a376001600160a01b0388167f0000000000000000000000000000000000000000000000000000000000000000836117bc565b866001600160a01b0316886001600160a01b03167f5ad7a2184454b6259cd118e4041a953dc9d6498302bbe528e4f967bed91971298484604051610a85929190918252602082015260400190565b60405180910390a35050505050505050565b7f00000000000000000000000000000000000000000000000000000000000000006001600160a01b0316632cf4704a6040518163ffffffff1660e01b8152600401602060405180830381865afa158015610af5573d6000803e3d6000fd5b505050506040513d601f19601f82011682018060405250810190610b199190614a58565b6001600160a01b0316336001600160a01b031614610bdf576040517f08c379a000000000000000000000000000000000000000000000000000000000815260206004820152604360248201527f44414f2e70726f636573735265776172647346726f6d504f4c206973206f6e6c60448201527f792063616c6c61626c652066726f6d207468652055706b65657020636f6e747260648201527f6163740000000000000000000000000000000000000000000000000000000000608482015260a401610610565b604080516002808252606082018352600092602083019080368337019050509050610c4a7f00000000000000000000000000000000000000000000000000000000000000007f00000000000000000000000000000000000000000000000000000000000000006116ed565b81600081518110610c5d57610c5d614b61565b602002602001018181525050610cb37f00000000000000000000000000000000000000000000000000000000000000007f00000000000000000000000000000000000000000000000000000000000000006116ed565b81600181518110610cc657610cc6614b61565b60209081029190910101526040517fe970e29e0000000000000000000000000000000000000000000000000000000081526000906001600160a01b037f0000000000000000000000000000000000000000000000000000000000000000169063e970e29e90610d39908590600401614b90565b6020604051808303816000875af1158015610d58573d6000803e3d6000fd5b505050506040513d601f19601f82011682018060405250810190610d7c9190614aa3565b905080600003610d8a575050565b6000610d97600a83614b02565b9050610eb07f00000000000000000000000000000000000000000000000000000000000000006001600160a01b03166395a118216040518163ffffffff1660e01b8152600401602060405180830381865afa158015610dfa573d6000803e3d6000fd5b505050506040513d601f19601f82011682018060405250810190610e1e9190614a58565b6001600160a01b03166323b62b756040518163ffffffff1660e01b8152600401602060405180830381865afa158015610e5b573d6000803e3d6000fd5b505050506040513d601f19601f82011682018060405250810190610e7f9190614a58565b6001600160a01b037f00000000000000000000000000000000000000000000000000000000000000001690836117bc565b6040518181527fe71cdadab33d9f3c14af10bafc742f7eaf64c9fdec01e4bfc402e3605ee9118d9060200160405180910390a16000610eef8284614be4565b9050600060647f00000000000000000000000000000000000000000000000000000000000000006001600160a01b031663e1c864226040518163ffffffff1660e01b8152600401602060405180830381865afa158015610f53573d6000803e3d6000fd5b505050506040513d601f19601f82011682018060405250810190610f779190614aa3565b610f819084614aeb565b610f8b9190614b02565b9050610fc27f00000000000000000000000000000000000000000000000000000000000000006001600160a01b03811690836117bc565b7f00000000000000000000000000000000000000000000000000000000000000006001600160a01b0316635730c5436040518163ffffffff1660e01b8152600401600060405180830381600087803b15801561101d57600080fd5b505af1158015611031573d6000803e3d6000fd5b505050507f1a77469aabeb2842ca1f083aaf3570a92c63a9c6feab97633a767ffa75aeade98460405161106691815260200190565b60405180910390a15050505050565b6001805461108290614bf7565b80601f01602080910402602001604051908101604052809291908181526020018280546110ae90614bf7565b80156110fb5780601f106110d0576101008083540402835291602001916110fb565b820191906000526020600020905b8154815290600101906020018083116110de57829003601f168201915b505050505081565b60007f00000000000000000000000000000000000000000000000000000000000000006001600160a01b0316632cf4704a6040518163ffffffff1660e01b8152600401602060405180830381865afa158015611163573d6000803e3d6000fd5b505050506040513d601f19601f820116820180604052508101906111879190614a58565b6001600160a01b0316336001600160a01b03161461124d576040517f08c379a000000000000000000000000000000000000000000000000000000000815260206004820152604660248201527f44414f2e776974686472617741726269747261676550726f666974732069732060448201527f6f6e6c792063616c6c61626c652066726f6d207468652055706b65657020636f60648201527f6e74726163740000000000000000000000000000000000000000000000000000608482015260a401610610565b6040517f2c6628570000000000000000000000000000000000000000000000000000000081523060048201526001600160a01b0383811660248301526000917f000000000000000000000000000000000000000000000000000000000000000090911690632c66285790604401602060405180830381865afa1580156112d7573d6000803e3d6000fd5b505050506040513d601f19601f820116820180604052508101906112fb9190614aa3565b90508060000361130e5750600092915050565b6040517ff3fef3a30000000000000000000000000000000000000000000000000000000081526001600160a01b038481166004830152602482018390527f0000000000000000000000000000000000000000000000000000000000000000169063f3fef3a390604401600060405180830381600087803b15801561139157600080fd5b505af11580156113a5573d6000803e3d6000fd5b50506040517f70a082310000000000000000000000000000000000000000000000000000000081523060048201526001600160a01b03861692506370a082319150602401602060405180830381865afa158015611406573d6000803e3d6000fd5b505050506040513d601f19601f8201168201806040525081019061142a9190614aa3565b91506114406001600160a01b03841633846117bc565b6040518281526001600160a01b0384169033907f8500d31082523fb01803c385b8843a6a58fb788220a759cc00da3201c4363bbe9060200160405180910390a350919050565b61148e611841565b6040517f880d266c000000000000000000000000000000000000000000000000000000008152600481018290527f00000000000000000000000000000000000000000000000000000000000000006001600160a01b03169063880d266c90602401602060405180830381865afa15801561150c573d6000803e3d6000fd5b505050506040513d601f19601f820116820180604052508101906115309190614c5a565b6115bc576040517f08c379a000000000000000000000000000000000000000000000000000000000815260206004820152602a60248201527f5468652062616c6c6f74206973206e6f74207965742061626c6520746f20626560448201527f2066696e616c697a6564000000000000000000000000000000000000000000006064820152608401610610565b6040517f45074887000000000000000000000000000000000000000000000000000000008152600481018290526000907f00000000000000000000000000000000000000000000000000000000000000006001600160a01b031690634507488790602401600060405180830381865afa15801561163d573d6000803e3d6000fd5b505050506040513d6000823e601f3d9081017fffffffffffffffffffffffffffffffffffffffffffffffffffffffffffffffe01682016040526116839190810190614cc9565b905060008160400151600a81111561169d5761169d614dd3565b036116b0576116ab826118b4565b6116df565b60018160400151600a8111156116c8576116c8614dd3565b036116d6576116ab82611cf8565b6116df826128fc565b506116ea6001600055565b50565b6000826001600160a01b0316826001600160a01b03161015611762576040517fffffffffffffffffffffffffffffffffffffffff000000000000000000000000606084811b8216602084015285901b1660348201526048016040516020818303038152906040528051906020012090506104ec565b6040517fffffffffffffffffffffffffffffffffffffffff000000000000000000000000606085811b8216602084015284901b16603482015260480160405160208183030381529060405280519060200120905092915050565b604080516001600160a01b038416602482015260448082018490528251808303909101815260649091019091526020810180517bffffffffffffffffffffffffffffffffffffffffffffffffffffffff167fa9059cbb0000000000000000000000000000000000000000000000000000000017905261183c908490612adc565b505050565b6002600054036118ad576040517f08c379a000000000000000000000000000000000000000000000000000000000815260206004820152601f60248201527f5265656e7472616e637947756172643a207265656e7472616e742063616c6c006044820152606401610610565b6002600055565b6040517f45074887000000000000000000000000000000000000000000000000000000008152600481018290526000907f00000000000000000000000000000000000000000000000000000000000000006001600160a01b031690634507488790602401600060405180830381865afa158015611935573d6000803e3d6000fd5b505050506040513d6000823e601f3d9081017fffffffffffffffffffffffffffffffffffffffffffffffffffffffffffffffe016820160405261197b9190810190614cc9565b6040517f0bb44e76000000000000000000000000000000000000000000000000000000008152600481018490529091506000906001600160a01b037f00000000000000000000000000000000000000000000000000000000000000001690630bb44e7690602401602060405180830381865afa1580156119ff573d6000803e3d6000fd5b505050506040513d601f19601f82011682018060405250810190611a239190614e02565b90506000816004811115611a3957611a39614dd3565b03611b2957611b248260a001516019811115611a5757611a57614dd3565b60017f00000000000000000000000000000000000000000000000000000000000000007f00000000000000000000000000000000000000000000000000000000000000007f00000000000000000000000000000000000000000000000000000000000000007f00000000000000000000000000000000000000000000000000000000000000007f00000000000000000000000000000000000000000000000000000000000000007f0000000000000000000000000000000000000000000000000000000000000000612bde565b611c28565b6001816004811115611b3d57611b3d614dd3565b03611c2857611c288260a001516019811115611b5b57611b5b614dd3565b60007f00000000000000000000000000000000000000000000000000000000000000007f00000000000000000000000000000000000000000000000000000000000000007f00000000000000000000000000000000000000000000000000000000000000007f00000000000000000000000000000000000000000000000000000000000000007f00000000000000000000000000000000000000000000000000000000000000007f0000000000000000000000000000000000000000000000000000000000000000612bde565b6040517f568d86d7000000000000000000000000000000000000000000000000000000008152600481018490527f00000000000000000000000000000000000000000000000000000000000000006001600160a01b03169063568d86d790602401600060405180830381600087803b158015611ca357600080fd5b505af1158015611cb7573d6000803e3d6000fd5b50505050827f9180157bbdf295983b1b0ebe07d3705167a0cd54afebccded9e08b8575eae58882604051611ceb9190614e23565b60405180910390a2505050565b6040517f84526cec000000000000000000000000000000000000000000000000000000008152600481018290527f00000000000000000000000000000000000000000000000000000000000000006001600160a01b0316906384526cec90602401602060405180830381865afa158015611d76573d6000803e3d6000fd5b505050506040513d601f19601f82011682018060405250810190611d9a9190614c5a565b15612865576040517f45074887000000000000000000000000000000000000000000000000000000008152600481018290526000907f00000000000000000000000000000000000000000000000000000000000000006001600160a01b031690634507488790602401600060405180830381865afa158015611e20573d6000803e3d6000fd5b505050506040513d6000823e601f3d9081017fffffffffffffffffffffffffffffffffffffffffffffffffffffffffffffffe0168201604052611e669190810190614cc9565b905060007f00000000000000000000000000000000000000000000000000000000000000006001600160a01b031663ada4442d6040518163ffffffff1660e01b8152600401602060405180830381865afa158015611ec8573d6000803e3d6000fd5b505050506040513d601f19601f82011682018060405250810190611eec9190614aa3565b905060007f00000000000000000000000000000000000000000000000000000000000000006001600160a01b031663bfa0b1336040518163ffffffff1660e01b8152600401602060405180830381865afa158015611f4e573d6000803e3d6000fd5b505050506040513d601f19601f82011682018060405250810190611f729190614a58565b6040517f70a082310000000000000000000000000000000000000000000000000000000081523060048201526001600160a01b0391909116906370a0823190602401602060405180830381865afa158015611fd1573d6000803e3d6000fd5b505050506040513d601f19601f82011682018060405250810190611ff59190614aa3565b9050612002826002614aeb565b8110156120b7576040517f08c379a000000000000000000000000000000000000000000000000000000000815260206004820152605060248201527f57686974656c697374696e67206973206e6f742063757272656e746c7920706f60448201527f737369626c652064756520746f20696e73756666696369656e7420626f6f747360648201527f7472617070696e67207265776172647300000000000000000000000000000000608482015260a401610610565b60007f00000000000000000000000000000000000000000000000000000000000000006001600160a01b0316633f276a846040518163ffffffff1660e01b8152600401602060405180830381865afa158015612117573d6000803e3d6000fd5b505050506040513d601f19601f8201168201806040525081019061213b9190614aa3565b90508481146121f2576040517f08c379a000000000000000000000000000000000000000000000000000000000815260206004820152604760248201527f4f6e6c792074686520746f6b656e2077686974656c697374696e672062616c6c60448201527f6f74207769746820746865206d6f737420766f7465732063616e20626520666960648201527f6e616c697a656400000000000000000000000000000000000000000000000000608482015260a401610610565b7f00000000000000000000000000000000000000000000000000000000000000006001600160a01b0316638be7ded47f000000000000000000000000000000000000000000000000000000000000000086608001517f00000000000000000000000000000000000000000000000000000000000000006001600160a01b0316633cdc53896040518163ffffffff1660e01b8152600401602060405180830381865afa1580156122a5573d6000803e3d6000fd5b505050506040513d601f19601f820116820180604052508101906122c99190614a58565b60405160e085901b7fffffffff000000000000000000000000000000000000000000000000000000001681526001600160a01b03938416600482015291831660248301529091166044820152606401600060405180830381600087803b15801561233257600080fd5b505af1158015612346573d6000803e3d6000fd5b505050507f00000000000000000000000000000000000000000000000000000000000000006001600160a01b0316638be7ded47f000000000000000000000000000000000000000000000000000000000000000086608001517f00000000000000000000000000000000000000000000000000000000000000006001600160a01b0316633fc8cef36040518163ffffffff1660e01b8152600401602060405180830381865afa1580156123fd573d6000803e3d6000fd5b505050506040513d601f19601f820116820180604052508101906124219190614a58565b60405160e085901b7fffffffff000000000000000000000000000000000000000000000000000000001681526001600160a01b03938416600482015291831660248301529091166044820152606401600060405180830381600087803b15801561248a57600080fd5b505af115801561249e573d6000803e3d6000fd5b50505050600061253385608001517f00000000000000000000000000000000000000000000000000000000000000006001600160a01b0316633cdc53896040518163ffffffff1660e01b8152600401602060405180830381865afa15801561250a573d6000803e3d6000fd5b505050506040513d601f19601f8201168201806040525081019061252e9190614a58565b6116ed565b9050600061259d86608001517f00000000000000000000000000000000000000000000000000000000000000006001600160a01b0316633fc8cef36040518163ffffffff1660e01b8152600401602060405180830381865afa15801561250a573d6000803e3d6000fd5b6040805160028082526060820190925291925060009190816020015b60408051808201909152600080825260208201528152602001906001900390816125b95790505090506040518060400160405280848152602001878152508160008151811061260a5761260a614b61565b60200260200101819052506040518060400160405280838152602001878152508160018151811061263d5761263d614b61565b60200260200101819052507f00000000000000000000000000000000000000000000000000000000000000006001600160a01b031663bfa0b1336040518163ffffffff1660e01b8152600401602060405180830381865afa1580156126a6573d6000803e3d6000fd5b505050506040513d601f19601f820116820180604052508101906126ca9190614a58565b6001600160a01b031663095ea7b37f0000000000000000000000000000000000000000000000000000000000000000612704896002614aeb565b6040517fffffffff0000000000000000000000000000000000000000000000000000000060e085901b1681526001600160a01b03909216600483015260248201526044016020604051808303816000875af1158015612767573d6000803e3d6000fd5b505050506040513d601f19601f8201168201806040525081019061278b9190614c5a565b506040517f112ad3440000000000000000000000000000000000000000000000000000000081526001600160a01b037f0000000000000000000000000000000000000000000000000000000000000000169063112ad344906127f1908490600401614e3d565b600060405180830381600087803b15801561280b57600080fd5b505af115801561281f573d6000803e3d6000fd5b5050505086608001516001600160a01b03167f135fa382eab99c8178b56314eb5b6dff1763d35fdb177c8332f18e0a4ff32e4f60405160405180910390a2505050505050505b6040517f568d86d7000000000000000000000000000000000000000000000000000000008152600481018290527f00000000000000000000000000000000000000000000000000000000000000006001600160a01b03169063568d86d7906024015b600060405180830381600087803b1580156128e157600080fd5b505af11580156128f5573d6000803e3d6000fd5b5050505050565b6040517f84526cec000000000000000000000000000000000000000000000000000000008152600481018290527f00000000000000000000000000000000000000000000000000000000000000006001600160a01b0316906384526cec90602401602060405180830381865afa15801561297a573d6000803e3d6000fd5b505050506040513d601f19601f8201168201806040525081019061299e9190614c5a565b15612865576040517f45074887000000000000000000000000000000000000000000000000000000008152600481018290526000907f00000000000000000000000000000000000000000000000000000000000000006001600160a01b031690634507488790602401600060405180830381865afa158015612a24573d6000803e3d6000fd5b505050506040513d6000823e601f3d9081017fffffffffffffffffffffffffffffffffffffffffffffffffffffffffffffffe0168201604052612a6a9190810190614cc9565b9050612a7581613609565b506040517f568d86d7000000000000000000000000000000000000000000000000000000008152600481018290527f00000000000000000000000000000000000000000000000000000000000000006001600160a01b03169063568d86d7906024016128c7565b6000612b31826040518060400160405280602081526020017f5361666545524332303a206c6f772d6c6576656c2063616c6c206661696c6564815250856001600160a01b031661410a9092919063ffffffff16565b9050805160001480612b52575080806020019051810190612b529190614c5a565b61183c576040517f08c379a000000000000000000000000000000000000000000000000000000000815260206004820152602a60248201527f5361666545524332303a204552433230206f7065726174696f6e20646964206e60448201527f6f742073756363656564000000000000000000000000000000000000000000006064820152608401610610565b6000886019811115612bf257612bf2614dd3565b03612c71576040517fce7e4ba200000000000000000000000000000000000000000000000000000000815287151560048201526001600160a01b0387169063ce7e4ba2906024015b600060405180830381600087803b158015612c5457600080fd5b505af1158015612c68573d6000803e3d6000fd5b505050506135ff565b6001886019811115612c8557612c85614dd3565b03612cd1576040517f9d58e15600000000000000000000000000000000000000000000000000000000815287151560048201526001600160a01b03871690639d58e15690602401612c3a565b6002886019811115612ce557612ce5614dd3565b03612d31576040517f2c3fe73700000000000000000000000000000000000000000000000000000000815287151560048201526001600160a01b03861690632c3fe73790602401612c3a565b6003886019811115612d4557612d45614dd3565b03612d91576040517f0f80c7c200000000000000000000000000000000000000000000000000000000815287151560048201526001600160a01b03861690630f80c7c290602401612c3a565b6004886019811115612da557612da5614dd3565b03612df1576040517f15935df900000000000000000000000000000000000000000000000000000000815287151560048201526001600160a01b038616906315935df990602401612c3a565b6005886019811115612e0557612e05614dd3565b03612e51576040517f8383269e00000000000000000000000000000000000000000000000000000000815287151560048201526001600160a01b03861690638383269e90602401612c3a565b6006886019811115612e6557612e65614dd3565b03612eb1576040517fed8a5e7700000000000000000000000000000000000000000000000000000000815287151560048201526001600160a01b0385169063ed8a5e7790602401612c3a565b6007886019811115612ec557612ec5614dd3565b03612f11576040517fdf11d42d00000000000000000000000000000000000000000000000000000000815287151560048201526001600160a01b0385169063df11d42d90602401612c3a565b6008886019811115612f2557612f25614dd3565b03612f71576040517f23dd537b00000000000000000000000000000000000000000000000000000000815287151560048201526001600160a01b038516906323dd537b90602401612c3a565b6009886019811115612f8557612f85614dd3565b03612fd1576040517f924007b100000000000000000000000000000000000000000000000000000000815287151560048201526001600160a01b0385169063924007b190602401612c3a565b600a886019811115612fe557612fe5614dd3565b03613031576040517f3ed33a7800000000000000000000000000000000000000000000000000000000815287151560048201526001600160a01b03841690633ed33a7890602401612c3a565b600b88601981111561304557613045614dd3565b03613091576040517fad836f0800000000000000000000000000000000000000000000000000000000815287151560048201526001600160a01b0384169063ad836f0890602401612c3a565b600c8860198111156130a5576130a5614dd3565b036130f1576040517f204818cd00000000000000000000000000000000000000000000000000000000815287151560048201526001600160a01b0384169063204818cd90602401612c3a565b600d88601981111561310557613105614dd3565b03613151576040517fafbf56a900000000000000000000000000000000000000000000000000000000815287151560048201526001600160a01b0384169063afbf56a990602401612c3a565b600e88601981111561316557613165614dd3565b036131b1576040517fb2a550b300000000000000000000000000000000000000000000000000000000815287151560048201526001600160a01b0384169063b2a550b390602401612c3a565b600f8860198111156131c5576131c5614dd3565b03613211576040517fced84d5600000000000000000000000000000000000000000000000000000000815287151560048201526001600160a01b0384169063ced84d5690602401612c3a565b601088601981111561322557613225614dd3565b03613271576040517fc00c1ec000000000000000000000000000000000000000000000000000000000815287151560048201526001600160a01b0383169063c00c1ec090602401612c3a565b601188601981111561328557613285614dd3565b036132d1576040517faa046a3300000000000000000000000000000000000000000000000000000000815287151560048201526001600160a01b0383169063aa046a3390602401612c3a565b60128860198111156132e5576132e5614dd3565b03613331576040517f0f9bc9fe00000000000000000000000000000000000000000000000000000000815287151560048201526001600160a01b03831690630f9bc9fe90602401612c3a565b601388601981111561334557613345614dd3565b03613391576040517f6255af2200000000000000000000000000000000000000000000000000000000815287151560048201526001600160a01b03831690636255af2290602401612c3a565b60148860198111156133a5576133a5614dd3565b036133f1576040517f01baf94e00000000000000000000000000000000000000000000000000000000815287151560048201526001600160a01b038316906301baf94e90602401612c3a565b601588601981111561340557613405614dd3565b03613451576040517fb423dd3800000000000000000000000000000000000000000000000000000000815287151560048201526001600160a01b0383169063b423dd3890602401612c3a565b601688601981111561346557613465614dd3565b036134b1576040517f7405f21c00000000000000000000000000000000000000000000000000000000815287151560048201526001600160a01b03831690637405f21c90602401612c3a565b60178860198111156134c5576134c5614dd3565b03613511576040517f47e4d72f00000000000000000000000000000000000000000000000000000000815287151560048201526001600160a01b038316906347e4d72f90602401612c3a565b601888601981111561352557613525614dd3565b03613571576040517fcba74d3700000000000000000000000000000000000000000000000000000000815287151560048201526001600160a01b0382169063cba74d3790602401612c3a565b601988601981111561358557613585614dd3565b036135ff576040517f2325610500000000000000000000000000000000000000000000000000000000815287151560048201526001600160a01b03821690632325610590602401600060405180830381600087803b1580156135e657600080fd5b505af11580156135fa573d6000803e3d6000fd5b505050505b5050505050505050565b60028160400151600a81111561362157613621614dd3565b03613913577f00000000000000000000000000000000000000000000000000000000000000006001600160a01b0316639384e1ef7f000000000000000000000000000000000000000000000000000000000000000083608001517f00000000000000000000000000000000000000000000000000000000000000006001600160a01b0316633cdc53896040518163ffffffff1660e01b8152600401602060405180830381865afa1580156136d9573d6000803e3d6000fd5b505050506040513d601f19601f820116820180604052508101906136fd9190614a58565b60405160e085901b7fffffffff000000000000000000000000000000000000000000000000000000001681526001600160a01b03938416600482015291831660248301529091166044820152606401600060405180830381600087803b15801561376657600080fd5b505af115801561377a573d6000803e3d6000fd5b505050507f00000000000000000000000000000000000000000000000000000000000000006001600160a01b0316639384e1ef7f000000000000000000000000000000000000000000000000000000000000000083608001517f00000000000000000000000000000000000000000000000000000000000000006001600160a01b0316633fc8cef36040518163ffffffff1660e01b8152600401602060405180830381865afa158015613831573d6000803e3d6000fd5b505050506040513d601f19601f820116820180604052508101906138559190614a58565b60405160e085901b7fffffffff000000000000000000000000000000000000000000000000000000001681526001600160a01b03938416600482015291831660248301529091166044820152606401600060405180830381600087803b1580156138be57600080fd5b505af11580156138d2573d6000803e3d6000fd5b5050505080608001516001600160a01b03167f0605196c37cbac61bc09b5f7563e3d035f75955e62ca7b10a5321f9386626f6960405160405180910390a250565b60038160400151600a81111561392b5761392b614dd3565b03613b2c578060a001517f00000000000000000000000000000000000000000000000000000000000000006001600160a01b031663bfa0b1336040518163ffffffff1660e01b8152600401602060405180830381865afa158015613993573d6000803e3d6000fd5b505050506040513d601f19601f820116820180604052508101906139b79190614a58565b6040517f70a082310000000000000000000000000000000000000000000000000000000081523060048201526001600160a01b0391909116906370a0823190602401602060405180830381865afa158015613a16573d6000803e3d6000fd5b505050506040513d601f19601f82011682018060405250810190613a3a9190614aa3565b106116ea57613ade81608001518260a001517f00000000000000000000000000000000000000000000000000000000000000006001600160a01b031663bfa0b1336040518163ffffffff1660e01b8152600401602060405180830381865afa158015613aaa573d6000803e3d6000fd5b505050506040513d601f19601f82011682018060405250810190613ace9190614a58565b6001600160a01b031691906117bc565b80608001516001600160a01b03167fc89ff66d093053197e1f9f4592a407dda32abb350267e3b0294ab2aec65abd1f8260a00151604051613b2191815260200190565b60405180910390a250565b60048160400151600a811115613b4457613b44614dd3565b03613c0f57608081015160a08201516040517fb031537e0000000000000000000000000000000000000000000000000000000081526001600160a01b039092169163b031537e91613b9b9160040190815260200190565b600060405180830381600087803b158015613bb557600080fd5b505af1158015613bc9573d6000803e3d6000fd5b505050508060a0015181608001516001600160a01b03167f30d3875f3629365a603d62f6889826ab71cb3aa199856034c3cf0dd4676bc15a60405160405180910390a350565b60058160400151600a811115613c2757613c27614dd3565b03613d8c57600060028260c00151604051613c429190614e8c565b908152602001604051809103902060006101000a81548160ff0219169083151502179055507f53461c5d64b5022b90e4635624292d9ff4a4ed62d97d8e3e5e9256d5077982738160c0015160007f00000000000000000000000000000000000000000000000000000000000000006001600160a01b031663fdcb60686040518163ffffffff1660e01b8152600401602060405180830381865afa158015613ced573d6000803e3d6000fd5b505050506040513d601f19601f82011682018060405250810190613d119190614a58565b6001600160a01b031663a5e293b06040518163ffffffff1660e01b8152600401602060405180830381865afa158015613d4e573d6000803e3d6000fd5b505050506040513d601f19601f82011682018060405250810190613d729190614aa3565b604051613d8193929190614ea8565b60405180910390a150565b60068160400151600a811115613da457613da4614dd3565b03613f3e57600160028260c00151604051613dbf9190614e8c565b908152602001604051809103902060006101000a81548160ff0219169083151502179055507f00000000000000000000000000000000000000000000000000000000000000006001600160a01b031663fdcb60686040518163ffffffff1660e01b8152600401602060405180830381865afa158015613e42573d6000803e3d6000fd5b505050506040513d601f19601f82011682018060405250810190613e669190614a58565b6001600160a01b031663783af9976040518163ffffffff1660e01b8152600401600060405180830381600087803b158015613ea057600080fd5b505af1158015613eb4573d6000803e3d6000fd5b505050507f53461c5d64b5022b90e4635624292d9ff4a4ed62d97d8e3e5e9256d5077982738160c0015160017f00000000000000000000000000000000000000000000000000000000000000006001600160a01b031663fdcb60686040518163ffffffff1660e01b8152600401602060405180830381865afa158015613ced573d6000803e3d6000fd5b60078160400151600a811115613f5657613f56614dd3565b03614020577f00000000000000000000000000000000000000000000000000000000000000006001600160a01b031663d095a4d58260600151604051602001613f9f9190614ecd565b604051602081830303815290604052600984608001518560e001516040518563ffffffff1660e01b8152600401613fd99493929190614f22565b6020604051808303816000875af1158015613ff8573d6000803e3d6000fd5b505050506040513d601f19601f8201168201806040525081019061401c9190614aa3565b5050565b60088160400151600a81111561403857614038614dd3565b036140be577f00000000000000000000000000000000000000000000000000000000000000006001600160a01b031663d095a4d582606001516040516020016140819190614ecd565b604051602081830303815290604052600a60008560c001518660e001516040518663ffffffff1660e01b8152600401613fd9959493929190614f75565b60098160400151600a8111156140d6576140d6614dd3565b036140e4576116ea81614121565b600a8160400151600a8111156140fc576140fc614dd3565b036116ea576116ea816144ea565b60606141198484600085614530565b949350505050565b6060810151805160209182012060408051808201909152601e81527f736574436f6e74726163743a707269636546656564315f636f6e6669726d00009201919091527fa4f50831b1ebbc4809696daa450ca1c92f56b7830ab06ccf1224c3f7db3c538a81016142325760808201516040517f3b895c90000000000000000000000000000000000000000000000000000000008152600160048201526001600160a01b0391821660248201527f000000000000000000000000000000000000000000000000000000000000000090911690633b895c90906044015b600060405180830381600087803b15801561421557600080fd5b505af1158015614229573d6000803e3d6000fd5b50505050614496565b60408051808201909152601e81527f736574436f6e74726163743a707269636546656564325f636f6e6669726d00006020909101527f16925427eb1173a123ebf2be2e17f4c27b420e67cdc0a628dc09f79c62b7294f81016143035760808201516040517f3b895c90000000000000000000000000000000000000000000000000000000008152600260048201526001600160a01b0391821660248201527f000000000000000000000000000000000000000000000000000000000000000090911690633b895c90906044016141fb565b60408051808201909152601e81527f736574436f6e74726163743a707269636546656564335f636f6e6669726d00006020909101527ffa59fab36da39faae90e4ddb0085653e62bc8860dd62207e9f35ed9ac74429ce81016143d45760808201516040517f3b895c90000000000000000000000000000000000000000000000000000000008152600360048201526001600160a01b0391821660248201527f000000000000000000000000000000000000000000000000000000000000000090911690633b895c90906044016141fb565b604051806060016040528060218152602001615141602191398051906020012081036144965760808201516040517fc95808040000000000000000000000000000000000000000000000000000000081526001600160a01b0391821660048201527f00000000000000000000000000000000000000000000000000000000000000009091169063c958080490602401600060405180830381600087803b15801561447d57600080fd5b505af1158015614491573d6000803e3d6000fd5b505050505b81608001516001600160a01b031682606001516040516144b69190614e8c565b604051908190038120907fbf2cc7083b32d1f5c82633af784e1285df86eb43c88d0752feea4bebb4a0b6d290600090a35050565b60c08101516001906144fc9082615026565b507f3499c42b0f88098d2db4001620e9902dab4491c334ad3e417151d75ae7ce82798160c00151604051613d81919061488a565b6060824710156145c2576040517f08c379a000000000000000000000000000000000000000000000000000000000815260206004820152602660248201527f416464726573733a20696e73756666696369656e742062616c616e636520666f60448201527f722063616c6c00000000000000000000000000000000000000000000000000006064820152608401610610565b600080866001600160a01b031685876040516145de9190614e8c565b60006040518083038185875af1925050503d806000811461461b576040519150601f19603f3d011682016040523d82523d6000602084013e614620565b606091505b50915091506146318783838761463c565b979650505050505050565b606083156146c55782516000036146be576001600160a01b0385163b6146be576040517f08c379a000000000000000000000000000000000000000000000000000000000815260206004820152601d60248201527f416464726573733a2063616c6c20746f206e6f6e2d636f6e74726163740000006044820152606401610610565b5081614119565b61411983838151156146da5781518083602001fd5b806040517f08c379a0000000000000000000000000000000000000000000000000000000008152600401610610919061488a565b6000806020838503121561472157600080fd5b823567ffffffffffffffff8082111561473957600080fd5b818501915085601f83011261474d57600080fd5b81358181111561475c57600080fd5b86602082850101111561476e57600080fd5b60209290920196919550909350505050565b6001600160a01b03811681146116ea57600080fd5b600080600080608085870312156147ab57600080fd5b84356147b681614780565b935060208501356147c681614780565b93969395505050506040820135916060013590565b6000806000606084860312156147f057600080fd5b83356147fb81614780565b9250602084013561480b81614780565b929592945050506040919091013590565b60005b8381101561483757818101518382015260200161481f565b50506000910152565b6000815180845261485881602086016020860161481c565b601f017fffffffffffffffffffffffffffffffffffffffffffffffffffffffffffffffe0169290920160200192915050565b60208152600061489d6020830184614840565b9392505050565b6000602082840312156148b657600080fd5b813561489d81614780565b6000602082840312156148d357600080fd5b5035919050565b7f4e487b7100000000000000000000000000000000000000000000000000000000600052604160045260246000fd5b604051610120810167ffffffffffffffff8111828210171561492d5761492d6148da565b60405290565b604051601f82017fffffffffffffffffffffffffffffffffffffffffffffffffffffffffffffffe016810167ffffffffffffffff8111828210171561497a5761497a6148da565b604052919050565b600067ffffffffffffffff82111561499c5761499c6148da565b50601f017fffffffffffffffffffffffffffffffffffffffffffffffffffffffffffffffe01660200190565b6000602082840312156149da57600080fd5b813567ffffffffffffffff8111156149f157600080fd5b8201601f81018413614a0257600080fd5b8035614a15614a1082614982565b614933565b818152856020838501011115614a2a57600080fd5b81602084016020830137600091810160200191909152949350505050565b8183823760009101908152919050565b600060208284031215614a6a57600080fd5b815161489d81614780565b600080600060608486031215614a8a57600080fd5b8351925060208401519150604084015190509250925092565b600060208284031215614ab557600080fd5b5051919050565b7f4e487b7100000000000000000000000000000000000000000000000000000000600052601160045260246000fd5b80820281158282048414176104ec576104ec614abc565b600082614b38577f4e487b7100000000000000000000000000000000000000000000000000000000600052601260045260246000fd5b500490565b60008060408385031215614b5057600080fd5b505080516020909101519092909150565b7f4e487b7100000000000000000000000000000000000000000000000000000000600052603260045260246000fd5b6020808252825182820181905260009190848201906040850190845b81811015614bc857835183529284019291840191600101614bac565b50909695505050505050565b8051614bdf81614780565b919050565b818103818111156104ec576104ec614abc565b600181811c90821680614c0b57607f821691505b602082108103614c44577f4e487b7100000000000000000000000000000000000000000000000000000000600052602260045260246000fd5b50919050565b80518015158114614bdf57600080fd5b600060208284031215614c6c57600080fd5b61489d82614c4a565b8051600b8110614bdf57600080fd5b600082601f830112614c9557600080fd5b8151614ca3614a1082614982565b818152846020838601011115614cb857600080fd5b61411982602083016020870161481c565b600060208284031215614cdb57600080fd5b815167ffffffffffffffff80821115614cf357600080fd5b908301906101208286031215614d0857600080fd5b614d10614909565b82518152614d2060208401614c4a565b6020820152614d3160408401614c75565b6040820152606083015182811115614d4857600080fd5b614d5487828601614c84565b606083015250614d6660808401614bd4565b608082015260a083015160a082015260c083015182811115614d8757600080fd5b614d9387828601614c84565b60c08301525060e083015182811115614dab57600080fd5b614db787828601614c84565b60e0830152506101009283015192810192909252509392505050565b7f4e487b7100000000000000000000000000000000000000000000000000000000600052602160045260246000fd5b600060208284031215614e1457600080fd5b81516005811061489d57600080fd5b6020810160058310614e3757614e37614dd3565b91905290565b602080825282518282018190526000919060409081850190868401855b82811015614e7f57815180518552860151868501529284019290850190600101614e5a565b5091979650505050505050565b60008251614e9e81846020870161481c565b9190910192915050565b606081526000614ebb6060830186614840565b93151560208301525060400152919050565b60008251614edf81846020870161481c565b7f5f636f6e6669726d000000000000000000000000000000000000000000000000920191825250600801919050565b600b8110614f1e57614f1e614dd3565b9052565b60a081526000614f3560a0830187614840565b614f426020840187614f0e565b6001600160a01b038516604084015282810380606085015260008252602081016080850152506146316020820185614840565b60a081526000614f8860a0830188614840565b614f956020840188614f0e565b6001600160a01b03861660408401528281036060840152614fb68186614840565b90508281036080840152614fca8185614840565b98975050505050505050565b601f82111561183c576000816000526020600020601f850160051c81016020861015614fff5750805b601f850160051c820191505b8181101561501e5782815560010161500b565b505050505050565b815167ffffffffffffffff811115615040576150406148da565b6150548161504e8454614bf7565b84614fd6565b602080601f8311600181146150a757600084156150715750858301515b7fffffffffffffffffffffffffffffffffffffffffffffffffffffffffffffffff600386901b1c1916600185901b17855561501e565b6000858152602081207fffffffffffffffffffffffffffffffffffffffffffffffffffffffffffffffe08616915b828110156150f4578886015182559484019460019091019084016150d5565b508582101561513057878501517fffffffffffffffffffffffffffffffffffffffffffffffffffffffffffffffff600388901b60f8161c191681555b5050505050600190811b0190555056fe736574436f6e74726163743a6163636573734d616e616765725f636f6e6669726da264697066735822122014b2fb9282557b2c5de86b0c23e2ab10e193d642aa3b0feea8cca80747d5ee1364736f6c63430008160033","linkReferences":{}},"methodIdentifiers":{"collateralAndLiquidity()":"0e5c7fbb","countryIsExcluded(string)":"13ea84a7","dai()":"f4b9fa75","daoConfig()":"fa05dd00","exchangeConfig()":"0e2789bb","excludedCountries(string)":"d3f22ec1","finalizeBallot(uint256)":"7b3ef616","formPOL(address,address,uint256,uint256)":"2e6dcebb","liquidityRewardsEmitter()":"7af0eb39","liquidizer()":"012bdab0","pools()":"c5c51dca","poolsConfig()":"52c19b5a","priceAggregator()":"3078fff5","processRewardsFromPOL()":"7785dcd6","proposals()":"55ef20e6","rewardsConfig()":"96ceac34","salt()":"bfa0b133","stableConfig()":"3ed90861","stakingConfig()":"36829dfc","usds()":"4cf282fb","websiteURL()":"779f6350","withdrawArbitrageProfits(address)":"7991db89","withdrawPOL(address,address,uint256)":"35b544c3"},"id":55}