{"abi":[{"type":"constructor","inputs":[{"name":"_CHAINLINK_BTC_USD","type":"address","internalType":"address"},{"name":"_CHAINLINK_ETH_USD","type":"address","internalType":"address"}],"stateMutability":"nonpayable"},{"type":"function","name":"CHAINLINK_BTC_USD","inputs":[],"outputs":[{"name":"","type":"address","internalType":"contract AggregatorV3Interface"}],"stateMutability":"view"},{"type":"function","name":"CHAINLINK_ETH_USD","inputs":[],"outputs":[{"name":"","type":"address","internalType":"contract AggregatorV3Interface"}],"stateMutability":"view"},{"type":"function","name":"getPriceBTC","inputs":[],"outputs":[{"name":"","type":"uint256","internalType":"uint256"}],"stateMutability":"view"},{"type":"function","name":"getPriceETH","inputs":[],"outputs":[{"name":"","type":"uint256","internalType":"uint256"}],"stateMutability":"view"},{"type":"function","name":"latestChainlinkPrice","inputs":[{"name":"chainlinkFeed","type":"address","internalType":"contract AggregatorV3Interface"}],"outputs":[{"name":"","type":"uint256","internalType":"uint256"}],"stateMutability":"view"}],"bytecode":{"object":"0x60c060405234801561001057600080fd5b5060405161048538038061048583398101604081905261002f91610062565b6001600160a01b039182166080521660a052610095565b80516001600160a01b038116811461005d57600080fd5b919050565b6000806040838503121561007557600080fd5b61007e83610046565b915061008c60208401610046565b90509250929050565b60805160a0516103bf6100c6600039600081816094015261011c01526000818160e0015261014c01526103bf6000f3fe608060405234801561001057600080fd5b50600436106100675760003560e01c80635ebf1d75116100505780635ebf1d751461008f578063be2aaaed146100db578063d51ae5fc1461010257600080fd5b8063039ba6be1461006c5780635ba7c62e14610087575b600080fd5b610074610115565b6040519081526020015b60405180910390f35b610074610145565b6100b67f000000000000000000000000000000000000000000000000000000000000000081565b60405173ffffffffffffffffffffffffffffffffffffffff909116815260200161007e565b6100b67f000000000000000000000000000000000000000000000000000000000000000081565b610074610110366004610285565b61016c565b60006101407f000000000000000000000000000000000000000000000000000000000000000061016c565b905090565b60006101407f00000000000000000000000000000000000000000000000000000000000000005b600080600090508273ffffffffffffffffffffffffffffffffffffffff1663feaf968c6040518163ffffffff1660e01b815260040160a060405180830381865afa9250505080156101f8575060408051601f3d9081017fffffffffffffffffffffffffffffffffffffffffffffffffffffffffffffffe01682019092526101f5918101906102da565b60015b610232573d808015610226576040519150601f19603f3d011682016040523d82523d6000602084013e61022b565b606091505b505061025d565b600061023e8342610359565b9050610e10811161025157849650610256565b600096505b5050505050505b600081121561026f5750600092915050565b61027e816402540be400610372565b9392505050565b60006020828403121561029757600080fd5b813573ffffffffffffffffffffffffffffffffffffffff8116811461027e57600080fd5b805169ffffffffffffffffffff811681146102d557600080fd5b919050565b600080600080600060a086880312156102f257600080fd5b6102fb866102bb565b945060208601519350604086015192506060860151915061031e608087016102bb565b90509295509295909350565b7f4e487b7100000000000000000000000000000000000000000000000000000000600052601160045260246000fd5b8181038181111561036c5761036c61032a565b92915050565b808202811582820484141761036c5761036c61032a56fea26469706673582212206487d461a73878cd674a6e8a0fdb4cdaafbe5def55f4bf64e2e55750dce2090d64736f6c63430008160033","linkReferences":{}},"methodIdentifiers":{"CHAINLINK_BTC_USD()":"be2aaaed","CHAINLINK_ETH_USD()":"5ebf1d75","getPriceBTC()":"5ba7c62e","getPriceETH()":"039ba6be","latestChainlinkPrice(address)":"d51ae5fc"},"id":100}